:020000040800F2
:10000000281A00200D0200081B1F0008751E00089A
:10001000191F000889060008A73E0008000000001C
:10002000000000000000000000000000A123000804
:10003000990C000800000000FD200008592B000862
:1000400027020008270200082702000827020008EC
:1000500027020008270200082702000827020008DC
:1000600027020008270200082702000827020008CC
:1000700027020008270200082702000827020008BC
:1000800027020008270200082702000827020008AC
:10009000D93D0008270200082702000827020008AF
:1000A000270200082702000827020008270200088C
:1000B000AD2B0008270200082702000827020008CD
:1000C000270200082702000827020008270200086C
:1000D00027020008212E0008270200082702000836
:1000E0002702000827020008FD3B0008A935000888
:1000F00000F002F800F061F80AA090E8000C8244D9
:100100008344AAF10107DA4501D100F056F8AFF2B5
:10011000090EBAE80F0013F0010F18BFFB1A43F0E5
:10012000010318476C4200008C4200000A444FF063
:10013000000C10F8013B13F0070408BF10F8014B46
:100140001D1108BF10F8015B641E05D010F8016B8B
:10015000641E01F8016BF9D113F0080F1EBF10F8EF
:10016000014BAD1C0C1B09D16D1E58BF01F801CB12
:10017000FAD505E014F8016B01F8016B6D1EF9D595
:100180009142D6D3704700000023002400250026AA
:10019000103A28BF78C1FBD8520728BF30C148BFEA
:1001A0000B607047642900F09180002070471FB5F4
:1001B00000F0DDF81FBD10B510BD00F02BFA1146A0
:1001C000FFF7F5FF03F0C2FF00F049FA03B4FFF7B1
:1001D000F2FF03BC00F052FA0B49D1F800C04A68A4
:1001E0005CF8043B1068184442F8040B8C4528BFA7
:1001F000A1F1DC0C8A4228BFA1F1DC02C1F800C0E9
:100200004A6020F000407047BC1300200948804736
:1002100009480047FEE7FEE7FEE7FEE7FEE7FEE7E8
:10022000FEE7FEE7FEE7FEE704480549054A064B00
:10023000704700005D2B0008F10000082814002022
:10024000281A002028160020281600200FB4044980
:1002500010B503AA029800F07DF910BC5DF814FBFC
:10026000F40300202DE9F0410E46044600202062F0
:100270002046E168884730B3252805D0D4E901211C
:100280009047206A401CF2E7E16820460027884733
:10029000050018D0A5F14100192802D820354FF4E7
:1002A00000673246294620462760FFF77BFF40B1B2
:1002B000012804D0F61D26F007060836D8E7361DBB
:1002C000D6E72846DAE7206ABDE8F0812DE9F0415B
:1002D0000646002410687529314616A510D0AFF3E4
:1002E0000080002802DA404213A507E031688A073F
:1002F00001D512A502E0490704D511A5012401E0AA
:10030000AFF3008000210A2206F1240709E0B0FBC8
:10031000F2FCB0FBF2F302FB1C00303078541846BC
:10032000491C0028F3D123462A463046BDE8F04157
:1003300000F0B7B8000000002D0000002B00000006
:10034000200000000B4910B5A1F17C020A4CC2E963
:100350003712372106E000EB104342F82130074BFB
:1003600000FB03400B1EA1F10101F4DC10BD0120D4
:10037000E8E700005C130020E119D666CD0D01000E
:10038000032A40F2308010F0030C00F0158011F8C1
:10039000013BBCF1020F624498BF11F801CB00F899
:1003A000013B38BF11F8013BA2F1040298BF00F8ED
:1003B00001CB38BF00F8013B11F0030300F0DC80F3
:1003C000083AC0F0088051F8043B083A51F804CBD1
:1003D000A0E80810F5E7121D5CBF51F8043B40F897
:1003E000043BAFF30080D20724BF11F8013B11F8A2
:1003F00001CB48BF11F8012B24BF00F8013B00F8E6
:1004000001CB48BF00F8012B70474FF000020429D0
:10041000C0F0128010F0030C00F01B80CCF1040C33
:10042000BCF1020F18BF00F8012BA8BF20F8022B67
:10043000A1EB0C0100F00DB85FEAC17C24BF00F80D
:10044000012B00F8012B48BF00F8012B70474FF03B
:10045000000200B5134694469646203922BFA0E814
:100460000C50A0E80C50B1F12001BFF4F7AF090720
:1004700028BFA0E80C5048BF0CC05DF804EB890011
:1004800028BF40F8042B08BF704748BF20F8022B54
:1004900011F0804F18BF00F8012B7047704770476C
:1004A00070472DE9F0470D4699469246044600F103
:1004B00024080168880604D5E06921F01001216054
:1004C00000E00120A84201DD471B00E00027A169F0
:1004D0007A1902EB0900081AA0612078C00602D43C
:1004E0002046AFF30080002608E0D4E901211AF885
:1004F00006009047206A401C761C20624E45F4DBC3
:100500002078C0060AD52046AFF3008006E0D4E983
:10051000012130209047206A401C2062381EA7F13C
:100520000107F4DC07E0D4E9012118F80500904741
:10053000206A401C2062281EA5F10105F3DC20463C
:10054000AFF300802078000602D50220BDE8F087D6
:100550000120FBE7074B70B50D467B4400F043F8E4
:100560000446284600F052F810B14FF0FF3070BD3D
:10057000204670BD5B3B000010B5203AC0F00B80F8
:10058000B1E81850203AA0E81850B1E81850A0E897
:100590001850BFF4F5AF5FEA027C24BFB1E81850F1
:1005A000A0E8185044BF18C918C0BDE810405FEA61
:1005B000827C24BF51F8043B40F8043B08BF7047DD
:1005C000D20728BF31F8023B48BF11F8012B28BFE2
:1005D00020F8023B48BF00F8012B704701694A1C14
:1005E00002610878704700B58FB0CDE90131002174
:1005F000059105497944CDE9031011466846FFF796
:1006000031FE0FB000BD0000E5FFFFFF007B00F0F2
:1006100080007047754600F02BF8AE46050069462D
:10062000534620F00700854618B020B5FFF7FCFDC3
:10063000BDE820404FF000064FF000074FF00008E3
:100640004FF0000B21F00701AC46ACE8C009ACE864
:10065000C009ACE8C009ACE8C0098D46704710B5C8
:100660000446AFF300802046BDE81040FFF7AEBD62
:1006700000487047C413002070470000014918204B
:10068000ABBEFEE726000200FEE7C1B2000A40EA68
:10069000012070472DE9F84F0020009048F6BF7800
:1006A0004BF68F7948F28007944C954E40F68F7A3E
:1006B000DFF850B2944D2DE0188800F00F008BF851
:1006C000000080B305EB8001D1F8002C0092BDF84A
:1006D000002012040AD5D1F8002C02EA0A02C1F85F
:1006E000002C8A49401E51F820008047BDF80000C8
:1006F00000060FD59BF8000005EB8001D1F8002C17
:1007000048F60F731A40C1F8002C8149401E51F879
:10071000200080477948443000687E4B18800004F0
:10072000CAD4BDE8F88FFFE720683080308800F039
:1007300030007080308800F440503080216801EA39
:100740000801206800EA090080F4005081F02002CE
:1007500042EA0001394321603A4300E02260216807
:10076000C1F301110229F9D181B2394300E02160BE
:100770002068C0F301300228F9D11888C0063BD4A4
:10078000206848F60F710840206001F075FB216871
:1007900001EA0801206800EA09003288D20401D584
:1007A00080F480503288920401D580F40050728821
:1007B000D20601D581F010017288920601D581F030
:1007C000200189B241EA00023A432260394300E045
:1007D000216022687388C2F30112B3EB021FF7D1C4
:1007E00080B2384300E0206021683288C1F30131D3
:1007F000B2EB013FF7D194E720680090BDF800000C
:1008000000053AD5206800EA0A00206001F032FFB6
:10081000216801EA0801206800EA09003288D20450
:1008200001D580F480503288920401D580F40050C4
:100830007288D20601D581F010017288920601D526
:1008400081F0200189B241EA00023A432260394333
:1008500000E0216022687388C2F30112B3EB021F2B
:10086000F7D180B2384300E0206021683288C1F3BC
:100870000131B2EB013FF7D153E7BDF800000004AE
:100880007FF519AF206800EA0A00206001F0FEFB46
:10089000216801EA0801206800EA09003288D204D0
:1008A00001D580F480503288920401D580F4005044
:1008B0007288D20601D581F010017288920601D5A6
:1008C00081F0200189B241EA00023A4322603943B3
:1008D00000E0216022687388C2F30112B3EB021FAB
:1008E000F7D180B2384300E0206021683288C1F33C
:1008F0000131B2EB013FF7D113E70000005C00408B
:100900003204002020040020005000407804002021
:100910005C04002052040020810008480844D0F8FC
:10092000001C490409D5D0F8001C48F68F7211400C
:100930004CF280021143C0F8001C70470050004088
:10094000810008480844D0F8001C490609D5D0F8B1
:10095000001C48F68F72114048F2C0021143C0F8E3
:10096000001C704700500040810006480844D0F841
:10097000001C48F68F62114048F280021143C0F813
:10098000001C7047005000402DE9F047DFF89880C8
:10099000D8F8001001F1100528880E7A234F4FF087
:1009A0003009002801D1042E04D0AC88A04215D80B
:1009B000042614E01E480178012903D007261020E0
:1009C00038802BE01B4A002112681B4B92B2921C0C
:1009D00043F81210A7F8009001701FE0022684422D
:1009E00000D90446A968A0B288478246002001F0D9
:1009F000F1F90146A2B2504603F056FAA1B2002026
:100A000001F084FD2888001B2880688820446880C5
:100A1000A7F8009009494FF440500880D8F800002A
:100A20000672BDE8F0870000240400203404002092
:100A30001C040020505C0040006000403204002094
:100A40002DE9F041214E346810342088A168002936
:100A500015D0A0B1A588854200D90546A8B288471F
:100A600007462088401B2080608828446080002042
:100A700001F0A0F90146AAB2384601F02DFB20880A
:100A8000134F302538B11349280208800021084649
:100A900001F03CFD3D802088A188884204D3316864
:100AA00003200872BDE8F08118B131680520087292
:100AB000F8E7316806200872074800210068074AF5
:100AC00080B2801C42F810103D80EBE72404002027
:100AD0003404002032040020505C004000600040DC
:100AE0002DE9F843634E306842780024624D062AAF
:100AF000296801D08AB117E00278520669D180785E
:100B0000012804D0022804D0032804D061E0CC6975
:100B10005FE00C6A5DE04C6A5BE0438823B9C38800
:100B2000022B01D1037923B1082A39D00A2A3CD0FB
:100B30004FE00278530601D1838833B102F07F027F
:100B4000012A04D0022A0CD043E04C4C41E08A69CF
:100B500040790021904710BB3068807AF8B1474C4B
:100B600037E0417901F00F0001F070020B064449B3
:100B700007D501EB8001D1F8001CC1F30111090177
:100B800006E001EB8001D1F8001CC1F3013109033B
:100B90003C4B1B7883421CD90AB901B1374C18E091
:100BA0000078400615D1384C13E0027802F07F023D
:100BB000012A0ED1827A62B1428852B9027942B9D1
:100BC000C288012A05D18A6940790021904700B97D
:100BD0002E4C09274FF000083CB13068A0F8128075
:100BE00084610020A047002006E029683068096978
:100BF00040788847032816D031680A8AA2F57F43D7
:100C0000FF3B0DD0022811D082B1087800062AD50A
:100C1000C8880090009882420CD9009808821AE097
:100C20000F72BDE8F88330680772FAE74FF00800EA
:100C30000872F6E70FD22868154B90F82C00824214
:100C400002D283F8008006E0B2FBF0F400FB14202F
:100C500008B901201870286890F82C008882BDE837
:100C6000F843FFF791BE032008720A490003088089
:100C7000D7E700002404002028040020A128000851
:100C8000005000400C050020312800087928000899
:100C90001C040020320400207047000010B56FF0E3
:100CA000040001F04BFF094809490068B0FBF1F06E
:100CB0000849C0B2087000EB4002C2EBC0104FF60A
:100CC000FF7202EAC000488010BD00000000002052
:100CD00000127A00F00300200B49498848434FF086
:100CE000E021486100238B61086940F00100086140
:100CF0000869C20701D0C003FAD5086920F00100D5
:100D000008618B6170470000F00300200B490978EF
:100D100048434FF0E021486100238B61086940F0AF
:100D2000010008610869C20701D0C003FAD508694B
:100D300020F0010008618B6170470000F003002083
:100D400001490020087070474C04002001490860E8
:100D5000704700001404014030B51B4A83790168D4
:100D6000002B2AD013688B431360111D0B68046895
:100D7000A3430B60017911440B68046823430B60A3
:100D8000114C08342168036899432160231D1968B8
:100D90000568A94319604179102905D011440A68F2
:100DA000006802430A6030BD216802681143216077
:100DB000196800680143196030BD00791044026869
:100DC0008A43026030BD000000040140704700000B
:100DD00003488078002801D0002070470120704728
:100DE0002000002080B203F0BDB800000B49084687
:100DF00091F8AC2190F8A701A1F12803002A03D0B3
:100E000010B95A6A022A06D2012801D5002000E052
:100E1000401E81F8A701022098707047480000200A
:100E200003F05CB903F062B92DE9F041514C4FF485
:100E300067762046227800F2B115407840F29D385E
:100E4000FF2A01D1FF2823D000F07F0042EA0027CB
:100E5000002000F095FE3A464649002000F088FE4A
:100E60003046FFF7BFFF07464046FFF7BBFF47EAA4
:100E70000020401C80B2A4F8B101FFF763FA0222FF
:100E80002946304600F074FE002000F077FE19E09D
:100E90003046FFF7A7FF07464046FFF7A3FF47EAA4
:100EA0000020401C80B2A4F8B101FFF74BFA0120EA
:100EB00000F066FE02222946304600F059FE01206D
:100EC00000F05CFE4FF468712A48FFF7C0FA00207A
:100ED000082801DA014601E04FF008014FEA41110C
:100EE00001DD024601E04FF00802A2F108024FEADC
:100EF0004212FF2900DBFF21FF2A00DBFF2204EB67
:100F0000400319755A75401C1028E1DB1020182881
:100F100001DA014601E04FF01801C1F118014FEA72
:100F2000411101DD024601E04FF01802C2F120023A
:100F30004FEA4212FF2900DBFF21FF2A00DBFF22DC
:100F400004EB400319755A75401C2028DFDB022092
:100F500084F8A70140F29E30FFF744FF054C283C7F
:100F6000E0700120FFF73EFF012181EAD0106070A0
:100F7000BDE8F0814800002070B51C4C0220606183
:100F80000020FFF72FFF05460120FFF72BFF45EA62
:100F90000020A0F57F41FF3900D10020C0F30E00F2
:100FA000A06100206062A070206220810F4840F2A2
:100FB00046318230FFF729FA0C4D0120283585F89B
:100FC000AC014FF46770FFF70DFF064640F29D300D
:100FD000FFF708FF46EA0020A5F8B101E0780028F5
:100FE00003D1BDE87040FFF71DBF70BD2000002099
:100FF00010B5084C002084F8AC01A4F12800016A67
:10100000C16103F0D9F8022084F8A701BDE81040BF
:10101000FFF706BF480000202DE9F05FDFF88C984D
:10102000022709F15A054FF000084FF0004A012647
:10103000A9F128045AE2606A00283CD1FFF7C6FEF5
:101040004FF0000B09EB0B0191F85A0010B3401E52
:10105000C0B281F85A00E8B9BBF1200F0DD0BBF146
:10106000210F11D05FEACB6015D406FA0BF080B2E5
:1010700003F0A0F889F8A77112E08021084603F078
:10108000A1F889F8A7710BE08021084603F09CF8CD
:1010900089F8A77104E0082003F090F889F8A77197
:1010A0000BF1010BBBF1210FCCDD208928B1208988
:1010B0006062A4F80880BDE8F09FD4E90501884289
:1010C00003D3BDE8F05FFFF793BFA9F8A201411C6D
:1010D0006161FFF787FE89F89D016069411C6161CC
:1010E000FFF780FE89F89C0199F89D110A067DD5CD
:1010F000CB4648064ED4C1F344008BF89F01C1068D
:1011000007D406FA00F080B203F052F88BF8A7710A
:1011100005E000F00F0003F051F88BF8A7719BF881
:10112000A8018BF8A9018BF8A88150B1BBF8AA01DE
:101130000BEB4000B0F9820060629BF89F014655BE
:10114000ADE39BF89D01C00714D09BF89C010106FC
:101150001AD400F07F0000EBC00101EB00104FF645
:10116000FF7101EA40002081322060629BF89F01FC
:10117000465594E39BF89C0100EB800040006062C0
:101180009BF89F0146558AE300F07F009BF89F1172
:10119000485584E3C1F340128BF8A02142F02000AF
:1011A0008BF89F0101F01F008BF8A10142B10BEBFE
:1011B0004000417D007D03F007F88BF8A77107E040
:1011C0000BEB4000417D007D02F0FCFF8BF8A77126
:1011D0009BF8A8018BF8A9018BF8A88160B1BBF836
:1011E000AA010BEB4000B0F9820000E017E060625A
:1011F0009BF89F01465552E39BF89C01010608D4D9
:1012000000F07F003221484360629BF89F01465501
:1012100045E300F07F009BF89F1148553FE3C1F381
:10122000C3034A46072B8BD2DFE803F0042057DDC7
:10123000FDFCFB0048079CD5B2F89C01C0F3080BED
:10124000880708D40BF0FF0000F046FBCBF3072023
:1012500000F042FB23E3914612F80B0000F03CFB48
:1012600009EB0B00407800F037FB18E392F8A80177
:1012700082F8A90182F8A88130B1B2F8AA0102EB84
:101280004000B0F9820026E0480707D4B2F89C017C
:10129000C0F3090000EB800040001CE09346880783
:1012A00015D46069411C6161FFF79CFD8BF89B01BF
:1012B0006069411C6161FFF795FD8BF89A01DBF8CD
:1012C0009A0120F07E4000EB8000400003E0BBF874
:1012D0009C01C0F308006062E1E292F8A61151B1EE
:1012E000481E00EB400002EB8000B2F8A231B0F8DB
:1012F0002A0198428CD0491CC9B282F8A611491E15
:1013000001EB410002EB8000C0F8228192F8A601B7
:10131000B2F8A211401E00EB400002EB8000A0F8E2
:101320002A11B2F89C01C0F30A0192F8A601401EEE
:1013300000EB400002EB8000A0F82C1192F8A8010D
:1013400082F8A90182F8A881E8B3B2F8AA11104680
:1013500002EB410191F8821001F00F0182F8AD110A
:1013600051B141F0004390F8A611491E01EB410133
:1013700000EB8101C1F82231B0F8AA1100EB410164
:1013800091F88210C1F3031180F8AE11D9B100EBCE
:101390004101B1F9822090F8A611491E01EB4101EB
:1013A00000EB8101C1F8262180F8A861A0F8AA719C
:1013B00090F8A611491E01EB410100EB8100B0F845
:1013C0002C0160616BE2FFE782F8A861A2F8AA81B4
:1013D00092F8A601401E00EB400002EB8000B0F83E
:1013E0002C0160615BE2934648070DD56069411CA2
:1013F0006161FFF7F7FC8BF89B016069411C61613B
:10140000FFF7F0FC8BF89A019BF8A8018BF8A90173
:101410008BF8A881C8B3BBF8AA01012804D048B151
:101420004BE009E22CE166E09BF8A601401E8BF838
:10143000A60134E2594691F89D01400717D491F86E
:10144000A621B1F89C01521E02EB420201EB82027E
:10145000C0F30900C2F8260191F8A621521E02EB42
:10146000420201EB820120BBC1F826A125E0D1F8A0
:101470009A0120F07C4291F8A601401E00EB40004A
:1014800001EB8000C0F8262117E0FFE79BF8A601DA
:10149000401E00EB40000BEB8001D1F82201002838
:1014A00008DA00F00F000BEB400030F8821F491CF7
:1014B000018002E0401CC1F822019BF8A601401EF9
:1014C00000EB40010BEB8101D1F82221002A05DA63
:1014D00002F00F020BEB4202B2F98220D1F8263162
:1014E000534504D0934202DC8BF8A601D7E1B1F852
:1014F0002A016061D3E14B0771D5C0F3C20382F8C2
:10150000AD3100F0070C82F8AEC111F0030106D036
:10151000012914D0022922D003293FD12FE002EB68
:10152000430102EB4C03B1F98210B3F982309942C6
:1015300001D1012100E0002182F8AF112EE002EB81
:10154000430102EB4C03B1F98210B3F982309942A6
:1015500001D0012100E0002182F8AF111EE002EB72
:10156000430102EB4C03B1F98210B3F98230994286
:1015700001DA012100E0002182F8AF110EE002EB58
:10158000430102EB4C03B1F98210B3F98230994266
:1015900001DC012100E0002182F8AF1192F8AF11C7
:1015A00082F8AF1192F8B03182F8B031800906D0DC
:1015B000012807D0022809D0032897D10AE082F831
:1015C000B0116CE10B4082F8B03168E10B4382F856
:1015D000B03164E14B4082F8B03160E1FFE741098E
:1015E00004D001291ED007291BD134E0C10603D540
:1015F00092F8B011002914D002F5D37200F00F0058
:1016000050721178081AC0B2107096709680A2F5C8
:10161000D372401E00EB400002EB8000B0F82C01BA
:1016200060613CE1C10603D592F8B011002911D0E8
:1016300000F00F0082F8AF0192F8A611081AC0B2AC
:1016400082F8A601401E00EB400002EB8000B0F8DB
:101650002C01606123E1C00603D592F8B001002897
:101660000AD092F8A50140B1401E02EB4001B1F84A
:10167000E610616182F8A50111E1FFF7B9FC0EE106
:1016800093464A072ED4BBF89C11C1F3C2118BF8C4
:10169000AD1139B1400200B240120BEB4101A1F88B
:1016A0008200FCE040061CD46069411C6161FFF7C8
:1016B00099FB8BF89B016069411C6161FFF792FB0C
:1016C0008BF89A019BF89C11C1F3C2008BF8AF0113
:1016D00001F007018BF8AD11BBF89A2112B202F0AC
:1016E000F9FBDCE0C1F34103022B12D001F007014A
:1016F000062923D000F007018BF8AD11C0F3C30019
:10170000801E082819D2DFE800F0323A4252CA643B
:101710006970BBF89C21C2F382108BF8AF01C2F351
:10172000C2018BF8AD1102F007028BF8AE210BEB72
:101730004202B2F9822002F0CDFBB0E0C0F3021108
:101740008BF8AD1100F00F028BF8AF2171B30006DA
:1017500006D40BEB410030F8821F914001809EE0DF
:101760000BEB410030F9821F1141018097E0E9B194
:101770000BEB410030F8821F494201808FE0A9B194
:101780000BEB410030F8821FC943018087E09BF8D2
:10179000A401401CC0B28BF8A4010BEB4101401E18
:1017A0000BEB4000B1F88210A0F8B41077E0E1B381
:1017B0009BF8A4010BEB4101401E0BEB4000B0F87D
:1017C000B400A1F882009BF8A401401E8BF8A4018C
:1017D00065E08BF8A861ABF8AA1160E029B30BEBC8
:1017E000410010F8821F018059E0F1B1BBF8B1014E
:1017F00090B9206AABF8B101012000F0C1F90222D2
:101800002B494FF4677000F0B3F9012000F0B6F9EE
:10181000BBF8B101FEF796FDFEF7DEFC9BF8AD11BB
:101820000BEB410131F9822F00E018E090FBF2F35D
:1018300002FB1300088032E0B2F89C01C0F30800FC
:101840004000C1F3410131B1012909D002290FD073
:10185000032924D114E0A18A89B2084460611EE002
:1018600092F8B011D9B1A18A89B20844606116E03A
:1018700092F8B01199B9A18A89B2084460610EE06A
:1018800092F8A511491CC9B282F8A511491E02EBB4
:101890004101A38AA1F8B43099B20844606199F873
:1018A000AC0100287FF4C7AB05E40000480000202D
:1018B000F90100200748416A00290AD000F12801F7
:1018C00091F8A71111B1416A012902D9416A491E53
:1018D000416270472000002031B5094C0121CD0242
:1018E0002560084801700021418001231A4669469D
:1018F000022001F07FFD44F8805CFFF767FA38BDF5
:1019000084E100E0CC0A00202DE9F0410446002CDF
:101910007DDBFFF75BFADFF83882E1B208F12805DA
:10192000B8F80400B8F80620904215D22954401C9B
:1019300080B2A8F80400904269D1022000F020F99A
:10194000B8F806202946D8F8100000F011F9BDE8D3
:10195000F0418220FFF7C0BFD8F80C20501CC8F817
:101960000C00A95421064FF000077DD50121012864
:1019700004D198F800200AB9A52C13D0082814D057
:1019800098F80020002A70D088F80070842C6DD060
:1019900049DC802C56D0812C69D0822C68D0832CD5
:1019A00047D1BBE088F80010C7E095F8AC0118B14A
:1019B000FE20FFF791FF33E028786978400240EA83
:1019C0008100A97840EA511080B202F0F9FBA878B2
:1019D000E978C00040EA1110C0B202F0EFFB2879AC
:1019E0006A79410141EA9201EA78C9B2120142EAF8
:1019F000D000C0B202F0E6FBA879E9796A7960F319
:101A0000DF11920142EA5000C9B2C0B200E09CE08E
:101A100002F0DAFB022085F8A701FF20FFF75CFF48
:101A200088F8007089E0852C39D0862C3BD0A52C15
:101A300053D00020FFF750FF822C7ED0002000F012
:101A40009DF87AE095F8A601401E00EB400005EBFA
:101A50008000D0F822610025F0B2FFF73DFF360A82
:101A60006D1C042DF8DB04E069E063E05CE037E026
:101A70003AE0D8F81C600025F0B2FFF72DFF360AD7
:101A80006D1C042DF8DBB8F8140086B20025F0B206
:101A9000FFF722FF360A6D1C022DF8DBCCE746204B
:101AA000FFF71AFFC8E798F8030080F0080088F8ED
:101AB0000300012000F064F825490122C91C40F20E
:101AC0009E3000F055F8012000F058F8FFF7A8F913
:101AD00098F80300FFF700FFAEE788F80010ABE7C7
:101AE0008020FFF7F9FEA7E7052803D00020FFF7C5
:101AF000F3FEA1E7FFF77CFA2878697840EAC11085
:101B0000C8F81000A878E97840EAC110A8F80600E3
:101B1000A8F804708120FFF7DFFE8DE7FFF72CFAAD
:101B20008320FFF7D9FE87E7FFF762FA8320FFF7EC
:101B3000D3FE81E7C0B2FFF7CFFEC8F80C70D8F82B
:101B40000C00142801D3C8F80C70BDE8F081000027
:101B5000200000200548016A491C016281780029A3
:101B600002D08178491E8170FFF7A4BE20000020BA
:101B70000B46114682B2184602F0FAB902F07EBA5C
:101B80002DE9F0410446164E002C05D102F084FAEE
:101B90000121304602F03EFA012C12D102F07CFA0B
:101BA000104D4FF4677700223946284602F0CCF9F1
:101BB0000121304602F02EFA00223946284602F072
:101BC000D7F9022C09D102F067FA002805D1304676
:101BD000BDE8F041012102F01DBABDE8F08100002E
:101BE00000F000089C05002010B503A0FEF72EFBB6
:101BF00008490320086010BD75736220656E746526
:101C000072206C6F7720706F776572206D6F6465DE
:101C10000D0A0000340500200149C860704700002B
:101C20000020024070B505464FF43026304600F0E3
:101C300059F8042810D1094C206940F002002061B5
:101C40006561206940F040002061304600F04AF8AC
:101C5000216921F00201216170BD000000200240D5
:101C600004200849CA68D20701D001207047CA6819
:101C7000520701D502207047C968C906FBD5032069
:101C800070470000002002400248016941F08001D5
:101C90000161704700200240F0B506460D464FF442
:101CA0000057384600F01EF804280CD1064C206975
:101CB00040F0010020613580384600F013F82169BA
:101CC00021F001012161F0BD0020024003480249DA
:101CD000416003494160704723016745002002408D
:101CE000AB89EFCD00B50346FFF7BAFF02E0FFF77F
:101CF000B7FF5B1E012801D1002BF8D1002B00D1CA
:101D0000052000BD2DE9F0410022CC7804F00F033E
:101D1000E40601D58C7823430C784FF00F0714F0BC
:101D2000FF0F4FF0010C1CD005680CFA02F40E886E
:101D30002640A64211D1960007FA06F825EA0805C2
:101D400003FA06F848EA0505CE78282E02D0482E78
:101D500002D002E0446100E00461521C082AE4D38E
:101D600005600A88FF2A1ED94568002202F108068C
:101D70000CFA06F40E882640A64210D1960007FA07
:101D800006F825EA080503FA06F848EA0505CE78BC
:101D9000282E00D14461CE78482E00D10461521C17
:101DA000082AE3D34560BDE8F081416170470161D5
:101DB000704700000549096889B201EBC000044979
:101DC000001D31F8100080B270470000505C0040E8
:101DD000006000400449096889B201EBC000034972
:101DE00031F8100080B27047505C00400060004045
:101DF00010B500F067FABDE810400021014802F07C
:101E0000E5B900001800002000F04CBA0448006852
:101E10004079012801D900207047024908447047E1
:101E2000240400209504002004480068407902281A
:101E300001D900207047024908447047240400205B
:101E400097040020044800684079012801D9002047
:101E500070470020704700002404002004480068F8
:101E60004079012801D90020704700207047000008
:101E700024040020FEE7000010B5144C2068017A0D
:101E800002290AD0042908D006290BD0082021688D
:101E90000872BDE8104000F033B9FEF775FD206808
:101EA000007AF4E74178052909D10178490606D17D
:101EB000C07800F085FA06480068006A8047054847
:101EC0000068806880470820E1E7000024040020C3
:101ED0002C0400202804002010B5064C06A0FEF7B4
:101EE000B5F9A17A0B4811B10521016010BD01219E
:101EF000016010BD3C090020757362206C6561763D
:101F000065206C6F7720706F776572206D6F6465E8
:101F10000D0A000034050020FEE77047704700F00E
:101F20001F02012191404009800000F1E020C0F82B
:101F30008011704770B50F23C27801260178002AFE
:101F40001ED0144A126802F4E062C2F5E062120A7E
:101F5000C2F10404D3404578A54082781A402A4350
:101F6000120101F1E02181F80024007800F01F0146
:101F70008E404009800000F1E020C0F8006170BD93
:101F800001F01F0086404809800000F1E020C0F801
:101F9000806170BD0CED00E0024908430249086011
:101FA000704700000000FA050CED00E070B502205B
:101FB000314D29684C780A78530606D002F07F012B
:101FC00001292ED0022931D03AE0092C06D0052C67
:101FD00007D0032C12D0012C18D031E000F0BEFC49
:101FE0002EE0C8787F2805D8887818B9888808B97D
:101FF000887A08B108203CE0002021E0CA78012A54
:102000001ED18988E1B900F0C5FC19E0CA78012A1F
:1020100016D18A88A2B9497A890611D500F06EFBDB
:102020000EE00B2C0CD100F023FD09E0012C02D0B6
:10203000032C03D004E000F061FB01E000F0BCFCE5
:1020400030B10E49E0B2096849698847032802D0D7
:1020500018B108200DE009200BE0062008490022F5
:102060000968084B89B2891C43F81120064A3021BF
:1020700011802968087270BD240400202804002003
:10208000505C0040006000403404002010B5104C4B
:102090002068007A02280ED004280CD003280CD027
:1020A00005280AD007280DD0082021680872BDE84D
:1020B000104000F025B80820F7E7FEF7C1FC2068C3
:1020C000007AF2E703480068C06880470820ECE720
:1020D0002404002028040020521C5208064B03EB65
:1020E0004101002A06D031F8043B20F8023B521E81
:1020F000002AF8D1704700000060004070470000DF
:1021000010B50B4890F82C10002000F08DF909480C
:102110000068007A082805D1074A41021180074A61
:1021200010211180092801D0002010BD012010BD10
:10213000BC040020240400203204002034040020C9
:10214000012106480160064A00210160031D196053
:102150004FF4E0511180016000207047405C004066
:102160003004002002490A8802430A8070470000B8
:1021700018000020054A002903D05169014351612C
:10218000704751698143516170470000001002405F
:10219000054A002903D0D1690143D1617047D16953
:1021A0008143D1617047000000100240054A0029B8
:1021B00003D09169014391617047916981439161B5
:1021C000704700000010024010B52A4A516801F023
:1021D0000C01294B002927D0042927D0082927D012
:1021E0000360516801F0F0010909244B5C5C01684F
:1021F000E1404160546804F4E064240A1C5D21FA63
:1022000004F48460546804F46054E40A1B5DD9400B
:10221000C160526802F44042920B184B1B1F9A5C3B
:10222000B1FBF2F1016110BD0360DAE70360D8E7AA
:10223000516801F47011536803F48033022404EBF5
:10224000914133B153689B030FD50D4B5943016046
:10225000C7E70C4B1B68DB0603D5074B59430160EE
:10226000BFE7074B59430160BBE7034B594301608C
:10227000B7E700000010024000127A00FC030020C3
:1022800000093D0000380240014908607047000025
:10229000D800424202490A8882430A8070470000FF
:1022A0001800002010B5FEF793FD002807D000218C
:1022B000034801F08BFFBDE81040FEF797BD10BD4D
:1022C0001800002006480021416081608021001D27
:1022D000C1700171417181710821817070470000E6
:1022E000140000202DE9F041234C072800D0207075
:1022F0002078214D0626052204272049062838D2B9
:10230000DFE800F0030C12171F28686810B1227074
:10231000BDE8F08100F034F82670F9E700F030F8FD
:10232000277001206860F3E70220607003202070AE
:10233000EEE76078401E607060780028E8D1277072
:10234000E6E7086880B240F01000086022700A20BA
:102350006070DDE76078401E607060780028D7D13B
:10236000086880B220F010000860267000206860C5
:10237000CEE72670CCE700003C050020405C004022
:1023800010B5064C206880B220F004002060FFF7F2
:10239000A3FD4FF43F40206010BD0000405C0040B2
:1023A00070470000024920F00700086070470000F5
:1023B000505C004001490880704700001800002070
:1023C000F0B50E490E7800210D4F48F68F7C48F28B
:1023D00080050BE0CBB207EB8302D2F8004C04EA95
:1023E0000C041C432C43C2F8004C491CB142F1D3ED
:1023F000044940F080000860F0BD00000C0500209A
:10240000005000404C5C0040054A21F00101126878
:1024100092B202EBC000034A001D42F81010704750
:10242000505C0040006000400E4A126892B202EB1D
:10243000C0000D4A801D02EB40023E290AD948091E
:10244000C90601D1401E80B24FF4004141EA80200C
:10245000106070474808C90701D0401C80B2800254
:1024600010607047505C00400060004082000F48E0
:102470000244D2F8000C4BF68F731840CB0401D500
:1024800080F480508B0401D580F4005048F2800322
:102490001843C2F8000C01E0C2F8000CD2F8003C6E
:1024A000C3F30133B1EB033FF6D170470050004056
:1024B00081000D480844D0F8001C4BF68F72114083
:1024C00081F4805181F4005148F280021143C0F838
:1024D000001C01E0C0F8001CD0F8002CC2F301324F
:1024E000032AF7D17047000000500040054A21F050
:1024F0000101126892B202EBC000034A42F81010C8
:1025000070470000505C004000600040044A1268C0
:1025100092B202EBC000034A801C42F810107047D0
:10252000505C00400060004082000F480244D2F836
:10253000000C48F6BF731840CB0601D580F01000A0
:102540008B0601D580F0200048F280031843C2F8C2
:10255000000C01E0C2F8000CD2F8003CC3F30113F8
:10256000B1EB031FF6D170470050004082000548D0
:102570001044D0F8002C48F68F131A400A43C0F8D4
:10258000002C7047005000400149887070470000DF
:1025900018000020014AD070117170471800002007
:1025A000014A50719171704718000020AFF300800C
:1025B0000CB50022019200922748016841F4803155
:1025C00001604FF4A063016801F4003100910199AA
:1025D000491C0191009911B901999942F3D10168FF
:1025E000890302D50121009100E0009200990129A0
:1025F00030D11A490A6842F010020A600A6822F0D3
:1026000003020A600A6842F002020A6041684160FF
:1026100041684160416841F480614160416821F452
:102620007C114160416841F4E8114160016841F06A
:102630008071016001688901FCD5416821F00301C6
:102640004160416841F0020141604168C1F381018C
:102650000229FAD10CBD0000001002400020024007
:1026600010B50020FFF710FE0121BDE81040C8059D
:10267000FFF78EBD38B51E48006880B2001D4100CE
:102680001C48095A89B200EB410100911A4D286893
:10269000027A092A1DD0097801700099491C00911D
:1026A000097841700098C01C0090009C0088A41C10
:1026B000FDF7EBFF29684880A41C00942088009C4B
:1026C000A41CFDF7E2FF29688880A41C00942088E0
:1026D000C880286801210172C08828B1FEF700FA7D
:1026E000BDE83840FFF70CBDFFF760FCF8E70000DD
:1026F000505C004000600040240400202DE9F041BF
:1027000046480068017801F07F01002904D00229C1
:1027100008D00220BDE8F081417A01F0DF0141726A
:102720000020F7E7418809B9017909B10220F1E7F2
:102730003B4B427922F080053A4E110607D506EB55
:102740008501D1F8001CC1F30111090106E006EB77
:102750008501D1F8001CC1F3013109031C78AC429A
:102760000DD961B1807A50B1100612D506EB850003
:10277000D0F8000CC0F30110012802D048E002207C
:10278000C8E7E8B2FEF7DCF8E8B23021FFF7CCFE8C
:102790003EE006EB8504D4F8000CC0F301300128BC
:1027A00036D14BF68F7848F2800775B1E8B2FEF764
:1027B000B3F8D4F8000C00EA080080F4805080F4EC
:1027C00000503843C4F8000C1CE0174890F82C1057
:1027D0000020FFF729FED6F8000C00EA080080F47C
:1027E000805080F400503843C6F8000C01E0C4F873
:1027F000000CD4F8001CC1F301310329F7D107E024
:10280000C4F8000CD4F8001CC1F301310329F7D13E
:10281000064800684069804700207BE724040020C8
:102820000C05002000500040BC0400202C040020B7
:1028300010B5074C002806D006480068006880479D
:1028400020680A3010BD216801200882002010BDD8
:10285000240400202C040020064A13685A8A002809
:1028600002D00868104470478888801A18820020B7
:10287000704700002404002010B5074C002806D043
:10288000064800688068804720680C3010BD2168C9
:1028900001200882002010BD240400202C04002008
:1028A00010B52A49002809680DD029480022028065
:1028B0000A7853060BD002F07F02012A1FD0022AA9
:1028C0001FD0002010BD02200882002010BD497AD0
:1028D0008A0604D5027842F00202027003E0027810
:1028E00002F0FD020270490604D5017841F00101B1
:1028F000017025E0017801F0FE01017020E014482C
:1029000010BD4A7902F00F011306124A0CD502EBF2
:102910008101D1F8001CC1F30111012910D1017806
:1029200041F0010101700BE002EB8101D1F8001CC4
:10293000C1F30131012903D1017841F00101017096
:102940000548006800698047014810BD2404002044
:102950001E040020005000402C04002010B50A483E
:102960000A4A00685278C178914203D882780AB93D
:1029700082880AB1022010BD817205480068406853
:102980008047002010BD0000240400200C0500201A
:102990002C04002010B506480068417A41F020015F
:1029A000417204480068C0698047002010BD0000E3
:1029B000240400202C04002070B5294803685979AC
:1029C00021F08004274A21F080000D0602EB8000F0
:1029D00005D5D0F8002CC2F30112120104E0D0F8A2
:1029E000002CC2F3013212031F4D2D78A54213D9DA
:1029F0005C888CB982B19A7A72B1090648F2800279
:102A000015D5D0F8001C48F6BF73194081F01001AD
:102A10001143C0F8001C03E0022070BDC0F8001C88
:102A2000D0F8002CC2F30112012AF7D112E0D0F83D
:102A3000001C4BF68F73194081F480511143C0F88C
:102A4000001C01E0C0F8001CD0F8002CC2F30132D9
:102A5000012AF7D10548006880698047002070BDD1
:102A600024040020005000400C0500202C0400200D
:102A700010B50F4C0F4A20681268C17892694079EE
:102A8000904721688A7A8AB118B9087908B9887894
:102A900008B1022010BD08480068C068804720685F
:102AA0004179C172C1780173002010BD022010BDB0
:102AB00024040020280400202C04002078B40020E6
:102AC000002100911A4B19688DB21A491A4A01EB7C
:102AD0008004D4F8004CA4B242F82040401C0828DE
:102AE000F5D345F48060186040F00100186020F0D4
:102AF00001051D600E48001D04686405FCD54FF6F5
:102B0000FF340460002052F8204001EB8006A4B29C
:102B1000C6F8004C401C0828F5D345F008001860A2
:102B2000186880B240F00400186078BCFFF75CB809
:102B3000405C004000500040580900204FF0E02168
:102B4000042804D0086920F004000861704708696F
:102B500040F00400086170477047000010B50F484E
:102B6000016841F00101016041680D4A1140416076
:102B700001680C4A11400160016821F48021016064
:102B8000416821F4FE0141604FF41F018160FFF7AD
:102B90000DFD05494FF00060086010BD00100240B7
:102BA0000000FFF8FFFFF6FE08ED00E010B5FEF7AD
:102BB000D1FF0121BDE81040880700F031B81FB5F2
:102BC0000024019402940394009401210846FFF725
:102BD000DFFA4720ADF808004FF47A70ADF8040032
:102BE000ADF80A40ADF80640C40601A9204600F041
:102BF00031F801221146204600F021F81C218DF801
:102C0000001001218DF801108DF802108DF80310CD
:102C10006846FFF78FF90121204600F004F81FBD38
:102C2000C94301827047002904D0018841F00101A5
:102C300001807047018821F0010101807047002A5E
:102C400003D082890A438281704782898A438281C4
:102C50007047000010B502880F4CA04208D0B0F1B8
:102C6000804F05D00D4B984202D00D4B984203D1B6
:102C700022F070034A881A4322F44072CB8813432F
:102C800003808A8882850A880285A04201D1097A58
:102C900001860121818210BD002C0140000400400A
:102CA000000800402DE9F041304D95F84E00012715
:102CB000002834D0002405F84E4F2B20FFF72FF9C1
:102CC0002B20FFF72CF968886988091A6980A98880
:102CD0000844A88068884E3D68B9688905EB4000C3
:102CE000C4816889401C68816889202800D36C8170
:102CF000A889401EA88195F85900012809D1A88902
:102D00001E2806D21A48017821F00C01017085F8BE
:102D1000594018494FF400600860BDE8F081A88967
:102D20000028FAD0B5F8500060B9688905EB40007A
:102D3000C089A5F8500068894FF6FF7101EA80103C
:102D4000A5F852000024094E683607E0B5F8520095
:102D50003119405CFEF7D8FD641CA4B2B5F85000F0
:102D6000A042F3D885F84E70D7E70000780A00201B
:102D70002A34024004E100E030B5154A00231380F4
:102D80005380938093711E24D47113815381938156
:102D9000002102EB4105EB81491CC9B22029F8D37F
:102DA00002F84E3F53809380937113819372D372D4
:102DB0004E3A00280BD002F85A3FC2205070012032
:102DC0009070D3701371537108209071D47130BD1D
:102DD000780A002010B50D48C1788278090601EB09
:102DE00002410278437801EB0321114402794079D2
:102DF00007A0FDF72BFA054808490E300880074860
:102E00001230017821F00C01017010BDD20A0020AF
:102E1000626175642025640D0A00000018340240C8
:102E200010B5084C40F22551204600F020F800284B
:102E300007D0204600F0CCF8BDE8104000B2FEF705
:102E400063BD10BD00380140002904D0818941F4E0
:102E5000005181817047818921F40051818170473F
:102E60000246002012880A4200D00120704770B547
:102E70000024C1F3421301F01F05012606FA05F2F2
:102E8000012B0CD0022B0DD0838A1340090A8E40EF
:102E9000008830400BB100B10124204670BD838909
:102EA0001340F3E7038A1340F0E7000030B585B024
:102EB00004460D46208A4CF6FF710840E98801431C
:102EC0002182A0894EF6F3110840A9882A8911436E
:102ED0006A8902431143A181A08A4FF6FF4108404D
:102EE000A9890143A1826846FFF76EF91D48844213
:102EF00001D1039800E00298A189090408D500EBEC
:102F0000C00101EB001029684900B0FBF1F007E0B7
:102F100000EBC00101EB001029688900B0FBF1F063
:102F20006422B0FBF2F109010B096FF018056B4345
:102F300000EB8300A3891D044FF0320307D503EB98
:102F4000C000B0FBF2F000F00700084306E003EB1E
:102F50000010B0FBF2F000F00F000843208105B034
:102F600030BD00000038014030B585B00546002472
:102F7000012144F20400FFF719F94FF40071ADF894
:102F8000101003218DF8121018218DF8131004A9C8
:102F90000D48FEF7B7FE0095ADF80440ADF80640C9
:102FA000ADF80840ADF80C400C20ADF80A00074C15
:102FB00069462046FFF77AFFC02121800121204683
:102FC000FFF742FF05B030BD000801400038014066
:102FD0008088C0F308007047C1F308018180704702
:102FE0000248017821F0010101707047940400202B
:102FF00010B51F48006842780021037803F07F0372
:10300000012B02D0212B12D02FE08278222A02D06D
:10301000212A02D002E0174900E0174929B1002215
:1030200042828161002088471FE0022010BD012AF2
:1030300008D00121022A0AD0032A0CD0092A0ED076
:10304000022010BD402101820C4981610DE0018206
:103050000B49816109E001820A49816105E0C1886B
:1030600001820949816103210172002010BD000025
:1030700024040020F1300008D1300008451E00086B
:103080000D1E0008291E00085D1E000810B501284D
:1030900001D0002010BD074C207808B1002010BDE1
:1030A000812000F0EDFE012020703021FFF73CFA76
:1030B000012010BD4C0400200149FFF7CDBB0000EA
:1030C000A40400200149FFF7C7BB00009C040020B6
:1030D000054909684979022901D900207047034A46
:1030E00002EBC101FFF7B8BB24040020B4040020A8
:1030F000054909684979022901D900207047034A26
:1031000002EBC101FFF7A8BB24040020AC0400209F
:1031100005490968C978042901D900207047034A84
:1031200002EBC101FFF798BB24040020EC0400204F
:10313000002901D002207047012801D902207047E0
:1031400000207047104801684A7848790B7803F0EE
:103150007F03212B15D10A2A03D00B2A09D0022084
:103160007047022801D902207047084A8978115413
:1031700007E0022801D902207047044AC978921C4E
:103180001154002070470000240400209504002002
:103190002DE9F0414148002100688172404AD2790E
:1031A0004272C1720020FFF7FDF84FF40071002059
:1031B000FFF7DCF910210020FFF7B6F940210020CD
:1031C000FFF722F980210020FFF790F90020FDF79A
:1031D000CBFB344890F82C100020FFF725F9002095
:1031E000FFF766F9304801684CF28005490448F65B
:1031F0008F7403D50168214029430160016848F2BA
:10320000C006490603D501682140314301604FF4EF
:10321000C06739460120FFF7A9F9C0210120FFF757
:1032200065F920210120FFF77FF91F48001D016883
:10323000490603D501682140314301600168490412
:1032400003D5016821402943016039460220FFF778
:103250008DF94FF480710220FFF7D6F8002102208B
:10326000FFF762F900210220FFF700F90E4808304D
:103270000168490603D501682140314301600168B6
:10328000490403D501682140294301600020FFF76C
:1032900097F8064901200860BDE8F0812404002069
:1032A0003A420008BC040020005C004034050020C5
:1032B0000348807A002802D0024905200860704740
:1032C0003C090020340500200149042008607047B3
:1032D000340500200248017841F001010170704777
:1032E000940400207047704770B5144800250068AA
:1032F0008572FEF725FF0020114A40F60F7302EB9E
:103300008001D1F8004C1C40C1F8004C401CC0B2F8
:103310000828F4D30B49FF20086000F0A1FD0A48FB
:1033200005600021084600F059FD1420FDF7D4FC8B
:10333000BDE870400121084600F050BD2404002083
:1033400000500040445C00403405002011494020FA
:1033500008700C20491C087010490F4808600D497E
:10336000091D08804030091D08804030091D088073
:103370000849022016310870091D0870091D0870DF
:103380000020074A00211154401CC0B20828FAD37B
:10339000704700000C340240780900200C04002023
:1033A000540500202DE9F041104C00270621E514BA
:1033B0000F4E002812D021700A20FDF7A7FC2770BD
:1033C0000720A11C087029202070FFF7BFFF812073
:1033D000611C0870C6F80051BDE8F08121700A2018
:1033E000FDF794FC2770C6F88051F5E700340240E1
:1033F00004E000E02DE9F0410127654EDFF89481FB
:103400008DB2D4B201280AD008F1010C022835D0BF
:10341000032862D0042876D00120BDE8F0817078BE
:1034200008B10120F9E798F800005FEA406C5A48BB
:103430000BD598F800C05FEA0C6C06D5008800F147
:1034400000504030FCF79CFF0CE098F800C05FEAA9
:103450004C6C11D52BB1008800F10050FCF790FFA7
:1034600000E0058077704C4810300470801C0178B3
:1034700021F00301017087E00120CEE7B07808B1A8
:103480000120CAE79CF800005FEA407843480BD56A
:103490009CF800805FEA087806D5008800F10050AB
:1034A0004030FCF76DFF0CE09CF800C05FEA4C7CFC
:1034B00011D52BB1008800F10050FCF761FF00E04E
:1034C0000580B770354810300470801C017821F0F9
:1034D0000301017058E001209FE7F07808B1012056
:1034E0009BE79CF800005FEA40682D480CD59CF8EB
:1034F00000805FEA086807D5008800F1005040307E
:10350000FCF73EFF0DE018E09CF800C05FEA4C6C51
:1035100011D52BB1008800F10050FCF731FF00E01D
:103520000580F7701E4810300470801C017821F06F
:103530000301017028E001206FE7307908B1012014
:103540006BE798F80000430716480AD598F8003052
:103550001B0706D5008800F100508030FCF710FFF3
:1035600009E098F800305B0710D5008800F10050A2
:103570004030FCF705FF3771094814300470801C97
:10358000017821F003010170002046E7012044E7A3
:10359000540500200C340240143402401834024018
:1035A0001C340240103402402DE9F05FF74F3978A7
:1035B000781C0078DFF8D8838A07A7F1030B4FF057
:1035C000000577D5DFF8CC93F34ADFF8D0A3F44BAE
:1035D00010F030044FF0010109F102066CD0102CFC
:1035E00041D0A2F1040C202C02D0302C3BD1D6E0EB
:1035F00000F03F00202806D0E549103121283DD0B9
:103600002228F3D149E0B8F80A0018B9307820F040
:103610000C00307098F8010010F0600FE6D198F8B7
:103620000000052820D00628E0D1B8F80A0040287C
:1036300001D3402401E0B8F80A40D9482246D8F81E
:103640000C10FCF79DFEB8F80A00001BA8F80A0051
:10365000D8F80C002044C8F80C0089F800403078F5
:1036600080F04000307076E29BF8000098F803107C
:1036700000F0800008438BF800006CE29CF800002A
:1036800020F00300801C8CF800009CF8000080F003
:1036900040008CF800004D705DE2107820F00300CF
:1036A000801C1070107880F0400010708D708AF8C7
:1036B000545050E25AE2FFE7DFF8E8C210F03F044E
:1036C00002D0022CCFD138E09CF800104006CAD5B9
:1036D00098F8010010F0600F22D0A8F80A5098F86E
:1036E000000020281CD118788AF85A0058788AF8E7
:1036F0005B0098788AF85C00D8788AF85D001879C1
:103700008AF85E0058798AF85F0098798AF8600034
:103710001E208AF86100FFF75DFBA3A0FCF796FD71
:10372000B8F80A0000289ED189F80050307820F0BF
:10373000030040F0400030700DE2107880F080000F
:1037400010709CF80000BAF808300AEB4303D881E7
:10375000BAF80800401CAAF80800BAF80800954B0F
:1037600003EB80138B4808380380BAF80830202B0D
:1037700003D3AAF808508F4B0380BAF80C00401C02
:10378000AAF80C00BAF80C001E2885D3107820F097
:103790000C0040F0080010708AF85910DBE1CA20D4
:1037A000307085480068047888F80140447888F8CB
:1037B0000040C488A8F80A404488A8F806408088D9
:1037C000A8F808000020002498F801A01AF0600F63
:1037D0002ED098F80100800610D598F80000202817
:1037E00011D0212805D022280DD023280BD0FF246A
:1037F00009E06A485A30C8F80C0004E098F8010063
:10380000400600D4FF24B8F80A00402802D34FF045
:10381000400A01E0B8F80AA061485246D8F80C10F6
:10382000FCF7AEFDD8F80C005044C8F80C006EE16F
:1038300098F800B0DFF860A1BBF10C0F0AF1040AA0
:1038400071D2DFE80BF0F37170D4705A06705F69C3
:10385000F259B8F80610090A012911D0022914D02A
:1038600003291BD0FF24B8F80A10814201D9A8F817
:103870000A00B8F80A00402831D34FF0400A30E07F
:103880004E48C8F80C000078EDE74D48C8F80C0029
:103890008178C07801EB002080B2E4E7B8F8061028
:1038A00011F0FF0107D001290AD002290DD0032908
:1038B00010D0FF24D7E74348C8F80C000078D2E7BF
:1038C0004148C8F80C000078CDE74048C8F80C0023
:1038D0000078C8E73E48C8F80C000078C3E7B8F89D
:1038E0000AA02F485246D8F80C10FCF749FDD8F82A
:1038F0000C005044C8F80C0009E1B8F8060088F83C
:10390000030004E198F802001870B8F80A000128D2
:1039100001D9A8F80A10FAE0B8F8060088F8020001
:1039200088F80510F3E0F1E098F80100C00607D030
:1039300098F8010000F01F0002280DD0FF24E6E0F7
:10394000B8F80600C0B2012805D198F8040020F0AC
:10395000010088F80400DAE0B8F8060010F0FF0F64
:1039600001D0FF24D3E0B8F80800C0B2022831D05B
:10397000812803D0832832D0FF24C8E09CF80000BF
:1039800020F04300801C8CF80000C0E006340240A8
:1039900044050020203402402A340240780A0020E6
:1039A00078090020083402407365742062617564F0
:1039B0000D0A0000E00A00200C040020FB42000871
:1039C0000D430008504300085443000862430008B8
:1039D00078430008107820F08C00107097E09AF877
:1039E000000020F04300801C8AF800008FE098F867
:1039F0000100C00607D098F8010000F01F0002285F
:103A000017D0FF2483E0B8F80600C0B2012801D027
:103A1000FF247CE06C48C079800608D598F8040043
:103A200040F0010088F8040071E02BE032E0FF2450
:103A30006DE0B8F8060010F0FF0F01D0FF2466E03B
:103A4000B8F80800C0B202280DD0812803D083281E
:103A500010D0FF245BE09CF8000020F04300C01C65
:103A60008CF8000053E0107820F08C0040F00C003F
:103A700010704CE09AF8000020F04300C01C8AF857
:103A8000000044E01D70B8F80A0001283FD9A8F8EA
:103A90000A103CE01D705D7098F80100C0060ED061
:103AA00098F8010000F01F0002280FD0FF24B8F89A
:103AB0000A0002282BD90220A8F80A0027E098F86B
:103AC0000400C007F3D002201870F0E7B8F808002F
:103AD000C0B202280CD0812803D083280FD0FF2445
:103AE000E5E79CF80000C0438007E0D11970DEE7ED
:103AF0001078C0F381000328D9D11970D7E79AF85C
:103B00000000C0438007D2D11970D0E7FF24FF2CFA
:103B100009D098F80100000616D5B8F80A00402828
:103B200004D9402004E0CF20307014E0B8F80A0037
:103B3000B8F80A10091AA8F80A1089F800003078B5
:103B400020F00300307006E0B8F80A0038B1307891
:103B500020F00C00307002203870BDE8F09F89F82A
:103B60000050307820F003003070F4E7C80710D020
:103B700088F8025088F8035088F8045088F80550F7
:103B80008BF80050FFF7E2FB387840F00100387006
:103B9000E3E7480715D5042038700C480078400743
:103BA00008D598F8040040F0020088F8040098F85E
:103BB0000400D2E798F8040020F0020088F804001E
:103BC000CBE73970C9E700000D4300080534024017
:103BD00010B501210420FEF7E9FA0748016841F019
:103BE000040101600020FEF74FFB0121BDE81040F9
:103BF0000803FEF7BFBA0000003802404FF48020EF
:103C0000FDF7A4B80649054808600222027205487B
:103C10004860054A8A600068004700003C090020AF
:103C200024040020BC040020100500203EB54FF401
:103C300080242046FDF78AF8009400248DF8044083
:103C400010208DF8050001258DF806506846FDF717
:103C500083F814208DF808008DF809508DF80A407B
:103C60008DF80B5002A8FEF765F92A208DF80800A0
:103C70008DF8094002A8FEF75DF93EBD2DE9F0413F
:103C800088B000244E4D28684E4E70807188DFF851
:103C90003881B8F800000140890505D54FF6FF517D
:103CA00029603178491C317071880140080401D5C0
:103CB000FCF7F0FC7088B8F800104FF6FF370840AA
:103CC000400503D52F604148406880477188B8F8A7
:103CD00000000140890402D54DF6FF71296071880A
:103CE0000140C80405D54EF6FF7028600020FEF79D
:103CF000F9FA7088B8F80010084000050BD5344870
:103D0000007810B1FEF7DAFE02E00220FEF7EAFAD0
:103D10004FF2FF7028607088B8F800100840C005A6
:103D20004AD54FF6FF6028602548001D00684FF017
:103D30000003000439D57068401C70607068032867
:103D400034D91F48001F016809072FD4016889B2C0
:103D5000B160204A694602EB840CDCF800CC1FFA03
:103D60008CFC41F824C0641C082CF4D3B46844F0E3
:103D70000104B460B468A4B20460B46824F001041F
:103D8000B460B468A4B2046028684005FCD52F6014
:103D9000002051F8204002EB8005A4B2C5F8004C89
:103DA000401C0828F5D3736000E0736008B007205A
:103DB000BDE8F041FEF796BA08B0BDE8F08100001A
:103DC000445C00405004002030040020BC0400206B
:103DD0003805002000500040FFF750BF70B5054681
:103DE0000E4601210420FEF7E1F91B4B194C1A4A3B
:103DF00008338DB120684FF6FD71084020601068CF
:103E000020F47F201060186820F4C05018601068FB
:103E100040F40820106010E0206880B240F00200FA
:103E20002060106820F47F201060186820F4C050D3
:103E30001860106840F44C301060084826B10168E2
:103E400041F00201016070BD016821F002010160D2
:103E500070BD0000405C0040040801400038024092
:103E600005490020086005494FF43F400880024999
:103E7000091F086000207047445C004030040020A7
:103E800070B50E46144600F07F052846FDF7A2FFE8
:103E90000146A2B2304600F007F8A1B22846FEF76C
:103EA00035FB002070BDFEE710B5521C5208084BD0
:103EB00003EB4101002A09D003784478801C43EACF
:103EC000042321F8043B521E002AF5D110BD000046
:103ED0000060004000290CD01A4B082803EB410178
:103EE00007D2DFE800F004070C11171F2429A1F8FE
:103EF0008220704731F8820F10440880704731F8F3
:103F0000820F50430880704731F9820F90FBF2F026
:103F10000880704731F9820F90FBF2F302FB130027
:103F20000880704731F8820F10400880704731F8E0
:103F3000820F10430880704731F8820F504008808C
:103F4000704700004800002030B50023044C04E016
:103F5000D5182D5DC5545B1C9BB28B42F8D330BD88
:103F600000F000080149405C7047000000F00008C4
:103F70002DE9F04105460E46D00702D00120BDE8EC
:103F8000F0811D48DFF874801044C8F804007708F9
:103F9000002417E005EB440115F81400497840EAC5
:103FA0000122D317D8F8040000F02AF8C0B2042880
:103FB00001D00120E3E7D8F80400801CC8F8040011
:103FC000641CA4B2BC42E5D3F00713D0A81910F8C2
:103FD000010C40F47F42D317D8F8040000F010F829
:103FE000C0B2042801D00120C9E7D8F80400801C21
:103FF000C8F804000020C2E700F00008E803002031
:1040000010B591B2FDF748FE01494870487810BDDF
:10401000E80300202DE9F041002404263520FDF7B7
:10402000FBFD0D4D0D4F10E007EB8420FDF7FAFD71
:1040300068706878042807D004F13C0108A0FCF7F8
:1040400005F90120BDE8F081641CB44202D2687811
:104050000428E9D00020F5E7E803002000F000087C
:10406000464C4153482045726173652045525220A9
:104070006174205061676525640D0A0010B5054C18
:104080002078002804D000202070FDF7FDFD207866
:1040900010BD0000E803002010B506480178002993
:1040A00001D0012010BD01210170FDF70FFE00209D
:1040B00010BD0000E803002070B50446064D402105
:1040C0002846FEF7CDFE0028F9D0E1B22846FEF7DB
:1040D00083FF204670BD0000003801404FF40051BE
:1040E0000148FDF764BE0000001001404FF400518C
:1040F0000148FDF75ABE00000010014038B500200D
:10410000009001211020FEF751F84FF40050ADF857
:10411000000010208DF8030003208DF8020069468E
:104120000948FDF7EFFD00244FF49675FFF7DEFF19
:104130002846FCF7D1FDFFF7D1FF2846FCF7CCFD60
:10414000641C032CF2DB38BD00100140FCF7A6FD17
:1041500000210846FFF742FE0020FFF723F94FF445
:10416000A060FDF719FFFCF799FD4FF4E130FEF771
:10417000FBFEFCF759FE0120FEF7FEFDFFF728FDD0
:104180000120FFF70FF9FEF71AFDFFF7B7FFFEF763
:1041900067FAFFF737FDFFF749FDFDF729FEFCF74A
:1041A000EBFEFCF739FFFDF72FFEFEF77BFDF8E78E
:1041B000FDF7D8BFFEF76EB8FEF784B8FEF7E4B996
:1041C000FEF7F8B8FEF7E6B9FEF7EAB910B51348FE
:1041D0000068052801D0012010BD114C2068411C49
:1041E0002160642801DAFFF781FF0E4861680160F1
:1041F000A1684160014608220120FEF747FF58B13F
:104200002068642801DDFFF769FF2068C82801DD08
:1042100000202060002010BD012010BD34050020CA
:10422000140000205C050020120100020000004084
:104230000D0F920000010102000109022900010195
:1042400003A0FA0904000002030000000921110183
:104250000001225600070502034000010705810303
:104260004000010403090410034500610073007954
:104270000063006F006E002E03450061007300793B
:104280000063006F006E002000500072006F00207D
:104290000043006F006E00740072006F006C006CD1
:1042A000006500720005010905A101150025013511
:1042B00000450175019510050919012910810205B4
:1042C000012507463B0175049501651409398142B2
:1042D00065009501810126FF0046FF000930093184
:1042E000093209357508950481020600FF092095F9
:1042F0000181020A212695089102C012011001FFD6
:10430000FFFF40861A0CFE01000102000109024372
:1043100000020100803209040000010202010005D0
:1043200024001001052401000104240202052406D2
:1043300000010705810340000109040100020A0091
:10434000000007050202400000070582024000004D
:10435000040309040E037700630068002E00630065
:104360006E00160355005300420020005300650004
:104370007200690061006C001603300031003200E9
:1043800033003400350036003700380039000000B3
:10439000B0430008000000205C0500002C0100086C
:1043A0006C4400085C050020CC1400008801000863
:1043B0001184A24A04000934010203040607080913
:1043C00004FFFFFF4601FF01FF01A1320412F0824A
:1043D000083C0204060C2D0102030404052A06070A
:1043E0000809141603301231123212331234123506
:1043F00012361237123802113913410D0C30081DD4
:104400001F04811328423308121A3A0832291AA5C8
:104410000832561A4C0829AD13E932140891311BA1
:1044200008E5081AE70413F12F1B0845101A310498
:1044300013C5301B08B9041A110C4132401A6338F5
:1044400032041A670832101A7708322E13360433F2
:10445000201623030129801AB14CA9901AE158298A
:0C446000081AD5181AC90441192B0121B3
:04000005080000F1FE
:00000001FF
