:10000000C1C00000DBC00000D9C00000D7C00000A4
:10001000D5C00000D3C00000D1C00000CFC0000098
:10002000CDC00000CCC000000C94350FC7C000004C
:10003000C5C00000C3C00000C1C00000BFC00000B8
:10004000BDC00000BBC00000B9C00000B7C00000C8
:10005000B5C00000B3C00000B1C0000009C100007D
:10006000ADC00000D7C00000A9C00000A7C00000BC
:10007000A5C00000A3C00000A1C000009FC00000F8
:100080009DC000009BC0000099C0000097C0000008
:1000900095C0000093C0000091C000008FC0000018
:1000A0008DC000008BC0000089C00000050109055B
:1000B000A1011500250135004501750195100509BF
:1000C00019012910810205012507463B0175049598
:1000D0000165140939814265009501810126FF00FF
:1000E00046FF000930093109320935750895048148
:1000F000020600FF0920950181020A212695089138
:1001000002C012010002000000400D0F9200000129
:100110000102000109022900010100A0FA090400FE
:10012000000203000000092111010001225600070E
:100130000502034000010705810340000104030993
:10014000041003450061007300790043006F006EE6
:100150000000002E03450061007300790043006F2A
:10016000006E002000500072006F00200043006FFE
:10017000006E00740072006F006C006C006500720D
:100180000000000011241FBECFEFDAE0DEBFCDBFBC
:1001900014E0A0E0B1E0EEE8F5E202C005900D92B7
:1001A000A03AB107D9F714E0A0EAB4E001C01D926B
:1001B000A43DB107E1F783D00C94C51221CF1F9263
:1001C0000F920FB60F9211242F933F934F935F938B
:1001D0006F937F938F939F93AF93BF93EF93FF930F
:1001E0001D9907C040D2882311F0B9D202C00E94E5
:1001F000200BFF91EF91BF91AF919F918F917F91D4
:100200006F915F914F913F912F910F900FBE0F9083
:100210001F9018951F920F920FB60F9211242F93D3
:100220003F934F935F936F937F938F939F93AF937E
:10023000BF93EF93FF938091C80087FD03C08FEFBA
:100240009FEF03C08091CE0090E00E94740BFF915D
:10025000EF91BF91AF919F918F917F916F915F913E
:100260004F913F912F910F900FBE0F901F901895B7
:100270001F920F920FB60F9211242F933F934F931B
:100280005F936F937F938F939F93AF93BF93EF93FE
:10029000FF9386B58A5F86BDAED13FD1FF91EF91C6
:1002A000BF91AF919F918F917F916F915F914F918E
:1002B0003F912F910F900FBE0F901F901895F0D087
:1002C00011D125982D9A80916B00806280936B00EC
:1002D000809168008160809368000E944C0ADDD0A4
:1002E00055D2C4D0FDCFDA019330B1F0943028F468
:1002F000913041F0923079F50AC0913211F1923289
:1003000051F524C0E2E0F1E022E130E028C0E4E170
:10031000F1E029E230E023C0813049F0813018F06B
:100320008230C9F40AC0EDE3F1E0849103C0E1E456
:10033000F1E08491282F30E012C0E3E5F1E08491F0
:10034000F9CFE6E2F1E029E030E009C0ECEAF0E0C4
:1003500026E530E004C0E0E0F0E020E030E0ED939E
:10036000FC93C90108959093C0048093BF0408953D
:100370002091BF043091C004282B392B3093C00446
:100380002093BF040895809590952091BF043091EB
:10039000C004282339233093C0042093BF04089558
:1003A0008093C10408958093C2046093C3040895A8
:1003B0008093C4046093C504089508950895DF935D
:1003C000CF93CDB7DEB728970FB6F894DEBF0FBE38
:1003D000CDBF8091CB04843099F582E08093E90011
:1003E0008091E80082FF05C08091E8008B778093C0
:1003F000E8008091A104882319F581E08093E90049
:100400008091E80080FF1CC0DE011196EFEBF4E064
:1004100088E001900D928150E1F7CE01019668E0ED
:1004200070E040E050E00E94F70D882349F480918D
:10043000E8008E778093E800FBD082E08093A104EF
:1004400028960FB6F894DEBF0FBECDBFCF91DF91D7
:10045000089582E060EC42E30E94490E81E061EC85
:1004600042E30C94490E0C941C0D0895A8DF0C94E3
:10047000711188E0EFEBF4E0DF01982F1D929A955F
:10048000E9F790E89093C2049093C3049093C40456
:100490009093C5048093C1040895EBDF0C94180F6A
:1004A00084B7877F84BF88E10FB6F894809360009B
:1004B000109260000FBE80E090E020E80FB6F89444
:1004C00020936100809361000FBEF89485B583602E
:1004D00085BD86E086BDEEE6F0E0808181608083A8
:1004E0007894089587E690E09093CD008093CC00B7
:1004F00086E08093CA001092C800E9ECF0E088E141
:100500008083539A5A9A808180688083209A289A9F
:10051000559A5D9A3F9A479808958091A004882340
:1005200071F08091A00481508093A0048091A00478
:10053000882329F485B185B95D9A88B188B9089571
:1005400028988BB18BB988B188B90895289A8BB156
:100550008BB988B188B9089582E38093A00485B1EE
:1005600085B95D9888B188B90895982F8091C800A1
:1005700085FFFCCF9093CE00EFCF7BCF08950C94F6
:100580003E1208950C942B1208950C943012089585
:100590000C94231208958091B2049091B304A09119
:1005A000B404B091B5040097A105B10519F180918B
:1005B0007F02882361F08091B2049091B304A091EE
:1005C000B404B091B5040297A105B10598F08091EB
:1005D000B2049091B304A091B404B091B504019712
:1005E000A109B1098093B2049093B304A093B40419
:1005F000B093B50408958091BA049091BB04A09182
:10060000BC04B091BD040196A11DB11D8093BA0434
:100610009093BB04A093BC04B093BD048091A1044B
:10062000882329F08091A10481508093A104B3CF45
:1006300080918402882381F080917F02882361F475
:100640008091B2049091B304A091B404B091B50428
:100650000297A105B10530F480917F02811181508C
:1006600080937F02089590E080918402813009F4A4
:1006700091E0892F0895E62F662309F46FC0833037
:10068000A1F1843030F48130B9F0F0E08230F0F440
:100690000CC0853009F441C08530A0F1863009F4E2
:1006A00046C0873009F05AC04EC0EE0FFF1FEE570C
:1006B000FE4F518340830895F0E0EE0FFF1FEE5789
:1006C000FE4F80819181840F951F3AC0EE0FFF1F6E
:1006D000EE57FE4F808191819C01249FC001259F90
:1006E000900D349F900D11242BC0F0E0EE0FFF1FF2
:1006F000EE57FE4F80819181BA010E94A51171834E
:1007000060830895F0E0EE0FFF1FEE57FE4F8081EB
:100710009181BA010E94A51113C0F0E0EE0FFF1FF6
:10072000EE57FE4F808191818423952309C0F0E02C
:10073000EE0FFF1FEE57FE4F80819181842B952B8A
:10074000918380830895F0E0EE0FFF1FEE57FE4F78
:1007500080819181842795279183808308951092C9
:1007600084028091BA049091BB04A091BC04B09122
:10077000BD048093AC049093AD04A093AE04B093F9
:10078000AF04FBDE83E080937F02E0CE2F923F92A6
:100790004F925F926F927F928F929F92AF92BF9291
:1007A000DF92EF92FF920F931F93CF93DF93F1E0CD
:1007B0006F2E712CE3E0EE2E7CE0D72E812C912C55
:1007C000A12C60E8B62EFF24F39452E8452E52E0A7
:1007D000552E42E0242E312C80918402882309F486
:1007E00049C68091B2049091B304A091B404B09131
:1007F000B5040097A105B10509F03CC68091A2049B
:10080000882309F4A9DECAE5D1E000E010E0888180
:10081000882309F1815088838823E9F40032110587
:1008200021F480E860E8BFDD14C00132110521F435
:1008300080E860E8BDDD0DC004FD09C0C301002EE5
:1008400002C0880F991F0A94E2F79DDD02C088E07C
:10085000A7DDE0927F020F5F1F4F21960232110544
:10086000B1F68091B6049091B704009779F0A0E0BA
:10087000B0E08093B2049093B304A093B404B09317
:10088000B5041092B7041092B604F4C52091B004D8
:100890003091B1048091B8049091B90428173907B8
:1008A00010F05DDFE7C530937B0220937A022F5F63
:1008B0003F4F3093B1042093B00421503040C90120
:1008C00067DE809375028091B0049091B104019627
:1008D0009093B1048093B00401975ADE282F80933F
:1008E00074024091750247FFC7C046FD6DC0942F4A
:1008F0009695892F8F718093770284FD09C09301AB
:1009000002C0220F331F8A95E2F7C90131DD03C00F
:10091000892F8F7045DDE0927F0280918002809365
:10092000810210928002882309F079C080917502BB
:1009300080FD1AC06091740270E080E090E02AE0CF
:1009400030E040E050E00E9486116093B204709362
:10095000B3048093B4049093B504E0917702F0E07F
:10096000E65AFE4FF08238CF8091740287FD1EC098
:1009700090E08F779070AC01E2E3F0E04E9FC00111
:100980004F9F900D5E9F900D11249093B70480931C
:10099000B60482E390E0A0E0B0E08093B2049093CC
:1009A000B304A093B404B093B504D7CFE091770219
:1009B000F0E0E65AFE4F90E0A0E0B0E08F77907054
:1009C000A070B070808308CF842F82958695817047
:1009D00080937802982F906290937702942F9F7162
:1009E00090937902E92FF0E0882341F0EE0FFF1F8A
:1009F000E050FF4F84896589DBDC07C0EE0FFF1FE5
:100A0000E050FF4F84896589CEDCE0927F028091BF
:100A100080028093810210928002882379F0E09115
:100A20008202F0918302EE0FFF1FEE57FE4F80818E
:100A30009181AA2797FDA095BA2FAFCF809174021C
:100A4000282F30E040E050E087FD0BC02F7730705A
:100A500040705070CA01B90122E330E040E050E03C
:100A600072CFE0917702F0E0E65AFE4F2F773070B8
:100A7000407050702083B0CE842F869586958695E1
:100A800090E08F7090708330910509F46EC18430CE
:100A9000910554F48130910561F1823091050CF09B
:100AA0008DC0892B69F098CE8530910509F432C349
:100AB000853091050CF432C2069709F08DCE90C4B2
:100AC00042FF8ACE0091740210917502117041FDAF
:100AD00007C0802F4ADD812F992787FD9A9507C08F
:100AE00000501F4FF801808140DDF80181813DDD1C
:100AF00073CE8091800280938102109280028823BD
:100B000081F0E0918202F0918302EE0FFF1FEE5719
:100B1000FE4F808191819C01442737FD4095542FE1
:100B200044C042FD0AC0609174027091750280E079
:100B300090E073708070907025C041FD2CC0809152
:100B4000B0049091B10401969093B1048093B004E5
:100B500001971EDD809373028091B0049091B104DF
:100B600001969093B1048093B004019711DD8093B6
:100B7000720260917202709173028091740290917E
:100B8000750291702AE030E040E050E00E9486114A
:100B90009B01AC010AC080917402909175029C0186
:100BA00040E050E03170407050702093B2043093B8
:100BB000B3044093B4045093B5040ECE40917E022A
:100BC0004423B9F0842F90E0FC01EE0FFF1FE80FE3
:100BD000F91FEE0FFF1FEE0FFF1FEA50FE4F20819F
:100BE000318180917A0290917B022817390709F4AC
:100BF000F3CD842F8F5F80937E0290E0FC01EE0F97
:100C0000FF1FE80FF91FEE0FFF1FEE0FFF1FE2514E
:100C1000FE4F108211821282138280917E0290E038
:100C2000FC01EE0FFF1FE80FF91FEE0FFF1FEE0F85
:100C3000FF1FEA50FE4F80917A0290917B029183D0
:100C4000808380917E0290E0FC01EE0FFF1FE80F91
:100C5000F91FEE0FFF1FEE0FFF1FE850FE4F8091B0
:100C600074029091750297709183808380918002C5
:100C70008093810210928002882309F45FC0E09182
:100C80008202F0918302EE0FFF1FEE57FE4F20818C
:100C90002F70209385022223B9F080917E0290E08C
:100CA000FC01EE0FFF1FE80FF91FEE0FFF1FEE0F05
:100CB000FF1FE251FE4F822F90E0A0E0B0E0B0684D
:100CC00080839183A283B383E0918202F0918302B7
:100CD000EE0FFF1FEE57FE4F80819181E4E0959566
:100CE0008795EA95E1F7E82FEF70E0938602EE230F
:100CF00029F180917E0290E09C01220F331F280F82
:100D0000391F220F331F220F331F2E503E4FF0E0AA
:100D1000EE0FFF1FEE57FE4F80819181AA2797FDAE
:100D2000A095BA2FF90180839183A283B383F092B7
:100D30008002309283022092820206C0F0928002EA
:100D4000109283021092820280917E0290E0FC0158
:100D5000EE0FFF1FE80FF91FEE0FFF1FEE0FFF1F33
:100D6000E850FE4F8081918180C342FF1AC080917C
:100D7000B0049091B10401969093B1048093B004B3
:100D8000019706DC809373028091B0049091B104C6
:100D900001969093B1048093B0040197F9DB80939E
:100DA00072028091800280938102109280028823D7
:100DB00009F45BC080918202909183028130910599
:100DC00031F480917E02815080937E0205CD892B83
:100DD00009F06CC08091750282FD2FC080917E0267
:100DE00090E0FC01EE0FFF1FE80FF91FEE0FFF1F51
:100DF000EE0FFF1FEE50FE4F80917402909175022E
:100E0000A0E0B0E09370A070B07080839183A28363
:100E1000B38380917E028D9DF0011124EE50FE4F30
:100E200080819181A281B3810097A105B105F1F57F
:100E300080829182A282B38239C080917E0290E04A
:100E4000FC01EE0FFF1FE80FF91FEE0FFF1FEE0F63
:100E5000FF1FEE50FE4F8091720290917302A0919D
:100E60007402B0917502B3701DC080917E028D9D99
:100E7000F0011124E251FE4F80819181A281B38162
:100E8000B7FF0DC0FC01EF70F070EE0FFF1FEE57C3
:100E9000FE4F8081918101969183808307C00196E6
:100EA000A11DB11D80839183A283B38310917E0223
:100EB0001D9DB0011124FB01E251FE4F20813181C3
:100EC0004281538157FF0EC0F901EF70F070EE0FB1
:100ED000FF1FEE57FE4F808191819C01442737FD13
:100EE0004095542FFB01EE50FE4F80819181A281ED
:100EF000B3818030F0E09F07F0E0AF07F0E8BF0774
:100F000049F0281739074A075B0724F0115010935E
:100F10007E0262CCFB01EA50FE4F24CF50E042FF3C
:100F2000A8C0822F869586958695877080938502C6
:100F3000277020938602CA018370907081309105DA
:100F400021F1823091051CF4892B41F062C082307E
:100F5000910589F1039709F05CC043C040E0E0913E
:100F60008502F0E0EE0FFF1FEE57FE4FA22FB0E01C
:100F7000AA0FBB1FAE57BE4F208131818D919C912E
:100F80002817390709F043C041C040E0E0918502CD
:100F9000F0E0EE0FFF1FEE57FE4FA22FB0E0AA0FBA
:100FA000BB1FAE57BE4F208131818D919C91281778
:100FB000390761F52CC040E0E0918502F0E0EE0FCA
:100FC000FF1FEE57FE4FA22FB0E0AA0FBB1FAE5778
:100FD000BE4F208131818D919C9128173907BCF437
:100FE00015C040E0E0918502F0E0EE0FFF1FEE57E4
:100FF000FE4FA22FB0E0AA0FBB1FAE57BE4F2081FD
:1010000031818D919C91821793070CF041E04093C0
:10101000870290E080918702811191E0909387028E
:1010200090918802911191E09093880280917402CE
:101030008295869586958370813069F0813030F095
:10104000823069F0833009F0C7CB0FC080918702EE
:1010500080938802C1CB80918702982303C080913E
:101060008702982B90938802B7CB809187029827AC
:10107000F9CF822F8295869587708130F1F081308B
:1010800020F0873009F0A8CB28C024FF05C080914C
:101090008802882309F4A0CB2F70209387028091C7
:1010A0007E02821B80937E02F092800221E030E07B
:1010B000309383022093820249CE24FF05C08091A1
:1010C0008802882309F488CB2F70209387028091AF
:1010D0007E02821B80937E0239CE24FF05C0809160
:1010E0008802882309F478CB20917D02222381F0A5
:1010F000E22FF0E0EE0FFF1FE454FE4F808191815C
:101100009093B1048093B004215020937D0264CB6E
:1011100026DB62CB50E042FD4FC08091740290917B
:101120007502880F892F881F990B9195877080937E
:10113000850230E0882391F526FD4ECB8091B004E6
:101140009091B10401969093B1048093B0040197FB
:101150001FDA809373028091B0049091B1040196DC
:101160009093B1048093B004019712DA80937202D5
:101170008091740290917502E3E096958795EA95C7
:10118000E1F78770809387026091740267706093C3
:101190008502409172025091730233C0322F222790
:1011A000330FE82FF0E0EE0FFF1FEE57FE4F232F17
:1011B000330F330B2595E3C0CA01867090700497F6
:1011C00011F56091740270917502CB0146E096951D
:1011D00087954A95E1F787708093870233E076958B
:1011E00067953A95E1F7677060938502E22FE770A3
:1011F000E0938602F0E0EE0FFF1FEE57FE4F4081B6
:10120000518139DAE9CA477050704630510551F5BD
:10121000229527702093850280917402482F4F7089
:1012200040938702222309F4D7CA30E087FD0DC01E
:10123000F901EE0FFF1FEE57FE4F8081918102C032
:10124000880F991F4A95E2F7C8C0F901EE0FFF1FFA
:10125000EE57FE4F8081918102C0959587954A9502
:10126000E2F7BBC0277020938502809174028695B7
:1012700086958695482F50E04F7050704530510547
:1012800009F44BC0463051055CF44330510521F15F
:10129000443051057CF54230510509F09DCA0DC01E
:1012A0004830510509F45AC04930510509F46AC063
:1012B0004730510509F090CA4AC0222309F48CCA6C
:1012C000E22FF0E0EE0FFF1FEE57FE4F808191817D
:1012D000909581959F4F81C0222309F47DCAE22F0A
:1012E000F0E0EE0FFF1FEE57FE4F80819181809559
:1012F000909573C0E0917C02EF5FE0937C02F0E098
:10130000EE0FFF1FEC56FE4FA22FB0E0AA0FBB1F3F
:10131000AE57BE4F8D919C9160C0222309F45CCAE8
:10132000A22FB0E0AA0FBB1FAE57BE4FE0917C02C8
:10133000F0E0EE0FFF1FEC56FE4F808191818D9300
:101340009C9380917C02815080937C0245CAF092EC
:10135000800220938202F20111823ECA222309F404
:101360003BCAE22FF0E0EE0FFF1FEE57FE4F20E0EA
:1013700030E080819181892B11F021E030E03183D0
:1013800020832ACA222309F427CA809189029091D6
:101390008A02892BB1F42091BA043091BB044091A8
:1013A000BC045091BD0430938A02209389028CE9D9
:1013B00093E0B901E4D88091890290918A020E9459
:1013C00018120E941512E0918502F0E0EE0FFF1F47
:1013D000EE57FE4F60817181B8D791838083FCC93D
:1013E00020917402309175023695322F222737955D
:1013F000279506E0359527950A95E1F74695842FC0
:1014000090E0837090708130910569F08230910591
:101410001CF4892B99F0E0C98230910551F00397B3
:1014200009F0DAC910C080918802882309F4D4C970
:1014300005C080918802882309F0CEC98091B0044C
:101440009091B10410C0E0917D02EF5FE0937D02C6
:10145000F0E0EE0FFF1FEC56FE4F8091B00490912C
:10146000B10491838083820F931F9093B104809382
:10147000B004B2C9DF91CF911F910F91FF90EF900F
:10148000DF90BF90AF909F908F907F906F905F9014
:101490004F903F902F9008950F931F93CF93DF931A
:1014A000209100012F3F21F4809101018F3FE1F055
:1014B0008091010190E08F779070182F0027822F84
:1014C00090E0082B192BC0E0D0E00BC0CE0160D813
:1014D000FE01E050FF4F6081861711F0CE0155D814
:1014E0002196C017D10794F38CE993E0E0E0F1E096
:1014F000DF019C011D9221503040E1F743D8019655
:1015000090938A028093890293D7609189027091A7
:101510008A028CE993E033D820E030E0C901293019
:10152000310514F088E090E0DC0115E0AA0FBB1F44
:101530001A95E1F7C9012830310514F488E090E0EC
:10154000AC0148505040F5E0440F551FFA95E1F7C3
:10155000B901660F771FFB01E050FF4FCD01AF3F90
:10156000B10519F014F08FEF90E0848BFB01E0508F
:10157000FF4FCA014F3F510519F014F08FEF90E073
:10158000858B2F5F3F4F2031310541F620E130E060
:10159000C8E1D0E0A0E2B0E0C9012931310514F082
:1015A00088E190E0AE01481B590BCA0145E0880F65
:1015B000991F4A95E1F7A9012831310514F448E152
:1015C00050E0BD01641B750BAB0105E0440F551FD6
:1015D0000A95E1F7B901660F771FFB01E050FF4F55
:1015E0008F3F910519F014F08FEF90E0848BFB0191
:1015F000E050FF4FCA014F3F510519F014F08FEF33
:1016000090E0858B2F5F3F4F2032310529F683E034
:1016100080937F028EE993E00E94C8028093A20427
:1016200081E090E00E94C8021092BE0487FD03C0D2
:1016300081E08093BE04DF91CF911F910F910895B7
:101640001F9382E090E09093B1048093B00480E017
:1016500090E00E94C802182F81E090E00E94C8022A
:10166000382F20E0812F90E0822B932B2FEF8F3F9C
:10167000920711F480E090E09F779093B9048093F3
:10168000B8041092B2041092B3041092B4041092F1
:10169000B5041092A1041092BA041092BB041092E7
:1016A000BC041092BD041092B7041092B60482E4F8
:1016B00093E0EAE5F1E0DF019C011D92215030400A
:1016C000E1F781E0809384028CE993E00E94C202FA
:1016D00090938A02809389028091A204882311F456
:1016E0000E94A0021F910895EF92FF920F931F9303
:1016F000CF93DF93EC0197FD98C18091A2048823DA
:1017000011F40E94AC028091A3049091A404209152
:10171000A5043091A60482179307E0F5FC01E05080
:10172000FF4FC08301969093A4048093A304821773
:10173000930709F07AC11092A4041092A3041BC06D
:10174000E050FF4F8091A7049091A80460810E940F
:10175000C5028091A3049091A40401969093A404DF
:101760008093A3048091A7049091A804019690937C
:10177000A8048093A704E091A304F091A4048091AD
:10178000A5049091A604E817F907D0F282E80E9418
:10179000B5024BC18091A9049091AA04FC01E050CC
:1017A000FF4FC0839C012F5F3F4F3093AA042093CB
:1017B000A904C7FF30C12130310549F48091AB0441
:1017C000882329F4C53AD10509F061C0E2C0283068
:1017D000310509F05CC080918402882311F08EEFFE
:1017E00051C08091010190E0880F991F880F991FC7
:1017F00040910001342F330F20E0822B932B209156
:10180000020122952695277030E0822B932B0E94AF
:10181000B30180910201880F880F880F9091030116
:1018200092959F70892B0E94D00120910401809194
:1018300003018295807F622F6295660F607E909192
:10184000050196959695692B269526952695822BCA
:101850000E94D30120910601809105018295880F95
:10186000880F807C622F67956627679590910701A6
:101870009F77692B2695822B0E94D80183E0809365
:101880007F028FEF0E94B5021092AB04C0C080911E
:10189000AB04882309F4B8C01092AB04C338D10557
:1018A00009F4AAC0C438D1056CF4C138D10509F4D3
:1018B00074C0C238D1050CF072C0C038D10509F02F
:1018C000A1C011C0C538D10509F450C0C538D10533
:1018D0000CF494C0C638D10509F44AC0C53AD10504
:1018E00009F090C056C080917E0290E0FC01EE0F9E
:1018F000FF1FE80FF91FEE0FFF1FEE0FFF1FE25152
:10190000FE4FE080F18002811381C0E0D0E08E2D97
:101910000E94B502EF2CF02E012F11272196C43022
:10192000D105A9F7E090AC04F090AD040091AE04AD
:101930001091AF04C0E0D0E08E2D0E94B502EF2CD4
:10194000F02E012F11272196C430D105A9F7E09080
:10195000B004F090B10400E010E08E2D0E94B502BA
:10196000EF2CF02E012F11278E2D4FC086E44DC095
:101970008091A20498E089278093A2046091A20438
:101980008EE993E00E94C5020E94A6028091A20403
:101990003CC081E08093AB043AC080E836C025307B
:1019A000310581F50E94AF038091010190E0969589
:1019B000982F8827979587952091000130E0822BFA
:1019C000932B9093A8048093A7048091030190E047
:1019D0009695982F8827979587952091020130E05A
:1019E000822B932B9093A6048093A5041092A404B9
:1019F0001092A30481E809C023DE02C00E94AF0355
:101A000083E803C080E001C0822F0E94B5021092DB
:101A1000AA041092A9048091A9049091AA04449761
:101A200020F01092AA041092A904DF91CF911F9187
:101A30000F91FF90EF9008958091BE04882309F0E4
:101A4000FFCD08959C014091D2045091D3044617D4
:101A5000570718F4F90190E043C06115710511F0C2
:101A6000AB01F8CF8091E8008E778093E80040E0EA
:101A700050E0F0CF8091CB04882309F447C0853033
:101A800009F446C08091E80083FD44C08091E800DD
:101A900082FD36C08091E80080FF22C08091F30073
:101AA0009091F200782F60E0292F30E0262B372B21
:101AB00007C081918093F100415050402F5F3F4F0C
:101AC0004115510519F02034310598F390E0203488
:101AD000310509F491E08091E8008E778093E80069
:101AE0004115510539F6992329F60AC08091CB0496
:101AF000882361F0853061F08091E80083FD0AC0A1
:101B00008091E80082FFF2CF80E0089582E008959E
:101B100083E0089581E008959C014091D2045091A2
:101B2000D3044617570718F4F90190E044C0611533
:101B3000710511F0AB01F8CF8091E8008E778093AA
:101B4000E80040E050E0F0CF8091CB04882309F416
:101B500048C0853009F447C08091E80083FD45C046
:101B60008091E80082FD37C08091E80080FF23C0AB
:101B70008091F3009091F200782F60E0292F30E0FF
:101B8000262B372B08C084918093F1003196415069
:101B900050402F5F3F4F4115510519F0203431055A
:101BA00090F390E02034310509F491E08091E80051
:101BB0008E778093E8004115510531F6992321F67F
:101BC0000AC08091CB04882361F0853061F0809158
:101BD000E80083FD0AC08091E80082FFF2CF80E038
:101BE000089582E0089583E0089581E00895BF920A
:101BF000CF92DF92EF92FF920F931F93CF93DF93D9
:101C0000182F092F7B016A019DD0B82E8823B1F5CA
:101C1000812F902F9C01E901C114D10439F0F60104
:101C200080819181E81AF90AC80FD91F00E010E0FD
:101C300022C08091E80085FD16C08091E8008E7773
:101C40008093E8004ED3C114D10449F0F60180819D
:101C50009181800F911F9183808385E010C072D0A5
:101C6000882349F00CC089918093F1000894E10821
:101C7000F1080F5F1F4FE114F104D9F68B2DDF91AE
:101C8000CF911F910F91FF90EF90DF90CF90BF9079
:101C90000895382F282F2EC0822F8F708093E9004F
:101CA000231721F4762F942F50E006C07091EC009A
:101CB0009091ED005091F00091FF1BC08091EB00DE
:101CC0008E7F8093EB008091ED008D7F8093ED00FF
:101CD0008091EB0081608093EB007093EC00909317
:101CE000ED005093F0008091EE0087FD02C080E08F
:101CF00008952F5F273080F23F703093E90081E034
:101D000008958091CC0488239CF404C08091CB0476
:101D10008823B9F08091E80082FFF8CF8091E80035
:101D20008B778093E80008958091CB04882349F055
:101D30008091E80080FFF8CF8091E8008E77809353
:101D4000E80008954091E4005091E50024E6809178
:101D5000EC0080FF24C08091E80080FD1EC08091CF
:101D6000CB04882311F482E00895853011F483E0D8
:101D700008958091EB0085FF02C081E00895809175
:101D8000E4009091E5008417950709F3222311F4EC
:101D900084E008952150AC01DACF80E0089580916D
:101DA000E80082FFDCCFF9CFEF92FF920F931F93F1
:101DB0004FD056D008ED10E0F80180818F778083F6
:101DC00080818068808380818F7D808319BC1092A0
:101DD000CB041092C7041092C9041092C80480EE7C
:101DE000E82EF12CF70180818B7F8083F8018081C0
:101DF0008160808380E060E042E34BDFE1EEF0E071
:101E000080818E7F8083E2EEF0E08081816080833C
:101E1000808188608083F70180818E7F8083F801D4
:101E20008081806180831F910F91FF90EF900895D2
:101E3000E8EDF0E080818F7E8083E7EDF0E0808147
:101E40008160808384E082BF81E08093CA04ACCF4C
:101E5000E8EDF0E080818E7F80831092E2000895AB
:101E60001092DA001092E10008951F920F920FB6BF
:101E70000F9211242F933F934F935F936F937F9310
:101E80008F939F93AF93BF93EF93FF938091E10064
:101E900082FF0AC08091E20082FF06C08091E100CB
:101EA0008B7F8093E1001CD28091DA0080FF1FC0FD
:101EB0008091D80080FF1BC08091DA008E7F8093D4
:101EC000DA008091D90080FF0DC080E189BD82E1F8
:101ED00089BD09B400FEFDCF81E08093CB040E9450
:101EE000330205C019BC1092CB040E94DD01809121
:101EF000E10080FF18C08091E20080FF14C0809153
:101F0000E2008E7F8093E2008091E2008061809306
:101F1000E2008091D80080628093D80019BC85E0EF
:101F20008093CB04DDD18091E10084FF2FC08091AC
:101F3000E20084FF2BC080E189BD82E189BD09B444
:101F400000FEFDCF8091D8008F7D8093D8008091D6
:101F5000E1008F7E8093E1008091E2008F7E80938C
:101F6000E2008091E20081608093E2008091C704EA
:101F7000882311F084E007C08091E30087FD02C050
:101F800081E001C083E08093CB04AAD18091E1007D
:101F900083FF22C08091E20083FF1EC08091E10098
:101FA000877F8093E10082E08093CB041092C70486
:101FB0008091E1008E7F8093E1008091E2008E7F2E
:101FC0008093E2008091E20080618093E20080E0F3
:101FD00060E042E35EDE84D1FF91EF91BF91AF916B
:101FE0009F918F917F916F915F914F913F912F9131
:101FF0000F900FBE0F901F9018951F93DF93CF93F4
:10200000CDB7DEB7AC970FB6F894DEBF0FBECDBF2D
:10201000ECECF4E08091F100819324E0E43DF207E0
:10202000C9F70E94DE018091E80083FF41C18091E1
:10203000CC043091CD04353009F48DC0363040F4F5
:102040003130E1F1313070F0333009F031C136C058
:10205000383009F4FEC0393009F40DC1363009F0CA
:1020600027C19CC0803821F0823809F021C108C006
:102070009091C8048091C9048823B1F0926014C083
:102080008091D0048F70873008F012C18093E900EE
:102090008091EB0090E025E0969587952A95E1F7F1
:1020A000982F91701092E9008091E800877F8093CB
:1020B000E8009093F1001092F100D6C0882319F047
:1020C000823009F0F5C090E08F719070009721F098
:1020D000029709F0EDC00CC08091CE04813009F068
:1020E000E7C01092C904333081F58093C9042DC034
:1020F0008091CE04882349F52091D0042F70822F3F
:102100008150863008F0D4C02093E9008091EB0024
:1021100080FF1BC0333021F48091EB00806213C03C
:102120008091EB0080618093EB0081E090E002C041
:10213000880F991F2A95E2F78093EA001092EA002F
:102140008091EB0088608093EB001092E900809111
:10215000E800877F8CC0882309F0AAC01091CE04C4
:102160001F778091E3008078812B8093E30080913A
:10217000E800877F8093E800C4DD8091E80080FF5D
:10218000FCCF8091E30080688093E300112311F479
:1021900082E001C083E08093CB048AC08058823003
:1021A00008F086C08091CE049091CF0423E08C3D4E
:1021B000920709F033C083E08C838AE28B837FB778
:1021C000F894DE0115966EE040E050E011E2E62F53
:1021D000F0E010935700849140FF03C082958F7008
:1021E0006F5F8F70282F30E08A3018F0C901C796D2
:1021F00002C0C901C0968D939D934F5F5F4F4431DC
:10220000510529F77FBF8091E800877F8093E80020
:10221000CE0103966AE270E015DC15C06091D0042F
:102220007091D104AE014F5F5F4F0E947301BC01FA
:10223000009709F43DC08091E800877F8093E80013
:1022400089819A8169DC8091E8008B778093E8002E
:102250002FC0803869F58091E800877F8093E8007F
:102260008091C7048093F1008091E8008E7780937D
:10227000E80047DD1DC08823D9F49091CE04923048
:10228000B8F48091E800877F8093E8009093C704BA
:1022900038DD8091C704882331F48091E30087FD05
:1022A00002C081E001C084E08093CB040E94290237
:1022B0008091E80083FF0AC08091E800877F8093C7
:1022C000E8008091EB0080628093EB00AC960FB643
:1022D000F894DEBF0FBECDBFCF91DF911F9108955F
:1022E00008951F938091CB04882371F01091E90029
:1022F0008091EC001092E9008091E80083FF01C01A
:102300007CDE1F701093E9001F910895629FD00139
:10231000739FF001829FE00DF11D649FE00DF11DA0
:10232000929FF00D839FF00D749FF00D659FF00D4F
:102330009927729FB00DE11DF91F639FB00DE11D3C
:10234000F91FBD01CF011124089597FB092E07261F
:102350000AD077FD04D00CD006D000201AF4709576
:1023600061957F4F0895F6F7909581959F4F089559
:10237000AA1BBB1B51E107C0AA1FBB1FA617B707AB
:1023800010F0A61BB70B881F991F5A95A9F78095C7
:102390009095BC01CD010895A0E0B0E0E1EDF1E140
:1023A000A3C0EC01A880B980CA80DB80A114B1046D
:1023B000C104D10441F484E2A82E89EDB82E8BE546
:1023C000C82E87E0D82EC601B5012DE133EF41E0DC
:1023D00050E067D027EA31E440E050E097DF7B012E
:1023E0008C01C601B5012DE133EF41E050E059D039
:1023F000CA01B9012CEE34EF4FEF5FEF87DF6E0DAE
:102400007F1D801F911F97FF04C061507040804066
:102410009048688379838A839B839B013F77C901B6
:10242000CDB7DEB7EAE07CC0B7CF8CE994E0B4CF9B
:10243000A0E0B0E080939C0490939D04A0939E0440
:10244000B0939F040895F999FECF92BD81BDF89A8B
:10245000992780B50895A8E1B0E042E050E013C0AC
:10246000262FF999FECF1FBA92BD81BD20BD0FB6B0
:10247000F894FA9AF99A0FBE01960895F1DF272F82
:10248000F0CFDC01CB01FC01F999FECF06C0F2BD13
:10249000E1BDF89A319600B40D9241505040B8F722
:1024A000089597FB092E05260ED057FD04D04BD07A
:1024B0000AD0001C38F450954095309521953F4F37
:1024C0004F4F5F4F0895F6F7909580957095619501
:1024D0007F4F8F4F9F4F08952F923F924F925F9261
:1024E0006F927F928F929F92AF92BF92CF92DF9224
:1024F000EF92FF920F931F93CF93DF93CDB7DEB789
:10250000CA1BDB0B0FB6F894DEBF0FBECDBF09941C
:102510002A88398848885F846E847D848C849B8473
:10252000AA84B984C884DF80EE80FD800C811B8181
:10253000AA81B981CE0FD11D0FB6F894DEBF0FBEB0
:10254000CDBFED010895A1E21A2EAA1BBB1BFD0110
:102550000DC0AA1FBB1FEE1FFF1FA217B307E40782
:10256000F50720F0A21BB30BE40BF50B661F771FDA
:10257000881F991F1A9469F76095709580959095BA
:0E2580009B01AC01BD01CF010895F894FFCF7F
:10258E00FFFF4600000000000000000000000000F9
:10259E00000000000000000000000000000000002D
:1025AE00000000000000000000000000000000001D
:1025BE00000000000000000000000000000000000D
:1025CE0000000000000000000000000000000000FD
:10291E0000000000000000000000000001000000A8
:00000001FF
