:020000040800F2
:10000000C81F0020AD010008AD59000801570008C5
:10001000A9590008390300080199000800000000F0
:10002000000000000000000000000000555E000815
:100030006503000800000000D15D00085D5F000856
:10004000C7010008C7010008C7010008C701000870
:10005000C7010008C7010008C7010008C701000860
:10006000C7010008C7010008C7010008C701000850
:10007000C7010008C7010008C7010008C701000840
:10008000C7010008C7010008C70100080000000000
:10009000000000000000000000000000C701000890
:1000A000C7010008C7010008C7010008C701000810
:1000B000C701000835600008C7010008C701000833
:1000C000C7010008C7010008C7010008C7010008F0
:1000D000C7010008CD670008DD67000800000000C8
:1000E000C7010008C7010008C701000800000000A0
:1000F000000000000000000000000000C701000830
:1001000000000000C7010008C7010008C70100087F
:1001100000000000000000000000000000000000DF
:10012000C7010008C7010008C7010008C70100088F
:10013000C7010008000000000000000000000000EF
:100140000000000000000000000000001D5A000830
:10015000C7010008C7010008C7010008C70100085F
:10016000C7010008C70100080000000000000000EF
:10017000000000000000000000000000000000007F
:1001800000000000C701000800000000000000009F
:10019000C7010008C7010008DFF80CD000F08EF896
:1001A00000480047819D0008C81F0020064880477E
:1001B00006480047FEE7FEE7FEE7FEE7FEE7FEE74C
:1001C000FEE7FEE7FEE7FEE7216000089901000870
:1001D0002DE9F05F0546002092469B46884606467C
:1001E000814640241BE0284641464746224600F00F
:1001F00054F853465A46C01A914110D31146184636
:10020000224600F03BF82D1A67EB01084F462246C4
:100210000120002100F032F817EB00094E41201EAA
:10022000A4F10104DFDC484631462A464346BDE8D6
:10023000F09F00000649074A0868504343F239021C
:10024000104408604008704701490860704700008A
:10025000000000206D4EC641D2B201E000F8012B33
:10026000491EFBD270470022F6E710B513460A4636
:1002700004461946FFF7F0FF204610BD202A04DB94
:10028000203A00FA02F1002070479140C2F12003A9
:1002900020FA03F3194390407047202A04DB203AE8
:1002A00021FA02F00021704721FA02F3D040C2F196
:1002B000200291400843194670470000064C074D44
:1002C00006E0E06840F0010394E807009847103426
:1002D000AC42F6D3FFF764FF78A0000898A00008AE
:1002E00070B58C1810F8015B15F0070301D110F8F8
:1002F000013B2A1106D110F8012B03E010F8016B25
:1003000001F8016B5B1EF9D12B0705D40023521EA7
:100310000DD401F8013BFAE710F8013BCB1A921C0F
:1003200003E013F8015B01F8015B521EF9D5A1420D
:10033000D8D3002070BD0000FFE7FEE70020704723
:100340000020704780B582B08DF807008DF8061048
:1003500040F2D070C2F2000006F05AFB002002B05A
:1003600080BD0000704700007047000081B040F27F
:10037000C670C2F20000007820B9FFE701208DF8B6
:10038000030003E000208DF80300FFE79DF8030061
:1003900001B0704780B582B00190BDF8040009F04B
:1003A000D7FB02B080BD000081B040F2A810C2F2BD
:1003B000000090F8AC0188B1FFE740F2A810C2F24B
:1003C000000090F8A701002808DCFFE740F6C470A1
:1003D000C2F20000006801281FD8FFE740F2A81011
:1003E000C2F2000090F8A7010138B0F1FF3F03DC32
:1003F000FFE70020009008E040F2A810C2F20000E1
:1004000090F8A70101380090FFE7009840F2A8118A
:10041000C2F2000181F8A701FFE740F2C671C2F203
:1004200000010220087001B07047000080B509F09B
:1004300073FC80BD80B509F07BFC80BD80B59AB0AF
:100440000020ADF8660040F2A810C2F2000000786B
:10045000FF2808D1FFE740F2A810C2F20000407860
:10046000FF283DD0FFE740F2A811C2F200010F9132
:100470000878497801F07F0140EA0120ADF8660074
:100480000020129001F0DCFC0F991298BDF8662054
:1004900001F0BEFC40F29D30FFF77CFF0E904FF460
:1004A00067701090FFF776FF0E9A01460F9841EAA9
:1004B0000221A0F8B11100F2B1111191B0F8B111FF
:1004C0000131A0F8B111B0F8B101FFF7BDFE1098ED
:1004D0001199022201F09CFC129801F0A9FC2BE07A
:1004E00040F29D30FFF756FF0A904FF467700B9073
:1004F000FFF750FF0A9940EA012140F2A810C2F22A
:100500000000A0F8B11100F2B1110C91B0F8B111D6
:100510000131A0F8B111B0F8B101FFF795FE01204B
:100520000D9001F08DFC0B980C99022201F070FCEB
:100530000D9801F07DFCFFE740F2A810C2F2000028
:100540004FF46771FFF78FFE00201890FFE71898AF
:100550000F2848DCFFE71898072803DCFFE7189806
:10056000099002E008200990FFE7099840011790E0
:100570001898092803DBFFE71898089002E0082084
:100580000890FFE708996FF0FF0000EB411016900C
:100590001798FE2803DCFFE71798079002E0FF207A
:1005A0000790FFE7079817901698FE2803DCFFE7EF
:1005B0001698069002E0FF200690FFE70698169036
:1005C0001798189A40F2A811C2F2000101EB4202FA
:1005D00010751698189A01EB42014875FFE71898B4
:1005E00001301890B3E710201590FFE715981F28E9
:1005F00049DCFFE71598172803DCFFE715980590FD
:1006000002E018200590FFE70598C0F118004001AE
:1006100014901598192803DBFFE71598049002E061
:1006200018200490FFE70498C0F1200040011390C7
:100630001498FE2803DCFFE71498039002E0FF20E3
:100640000390FFE7039814901398FE2803DCFFE75C
:100650001398029002E0FF200290FFE702981390A7
:100660001498159A40F2A811C2F2000101EB42025F
:1006700010751398159A01EB42014875FFE715981C
:1006800001301590B2E740F2A811C2F20001022039
:1006900081F8A70140F29E30FFF77CFE40F2C47162
:1006A000C2F20001087001200190FFF773FE0146BD
:1006B000019880EAD11040F2C571C2F200010870C1
:1006C0001AB080BD80B584B040F6A471C2F20001BA
:1006D000022008600020FFF75DFE02900120FFF776
:1006E00059FE0146029840EA0120ADF80E00BDF81F
:1006F0000E004FF6FF71884204D1FFE70020ADF8ED
:100700000E00FFE7BDF80E006FF3DF3040F6A87172
:10071000C2F20001086040F6C471C2F2000100207C
:10072000086040F2C671C2F20001087040F6BC7168
:10073000C2F20001086040F6B271C2F20001088006
:1007400040F2A810C2F2000001905A3040F242314B
:10075000FFF789FD0199012081F8AC0140F29D303D
:10076000FFF718FE00904FF46770FFF713FE009A32
:10077000019940EA0220A1F8B10140F2C470C2F22E
:100780000000007808B1FFE702E0FFF753FEFFE743
:1007900004B080BD80B582B040F2A811C2F2000161
:1007A0000191002081F8AC0140F6BC70C2F200005B
:1007B000006840F6B871C2F20001086009F018FB49
:1007C0000199022081F8A701FFF730FE02B080BD39
:1007D00080B59CB0FFE740F2A810C2F2000090F88C
:1007E000AC0110B9FFE701F0C8B840F6C470C2F21E
:1007F0000000006810B1FFE701F0BFB8FFF7B4FDDB
:1008000000201B90FFE71B98212865DCFFE71B9861
:1008100040F2A811C2F20001084490F85A000028E2
:1008200055D0FFE71B9840F2A811C2F20001421810
:1008300092F85A00013882F85A001B98084490F840
:100840005A00002842D1FFE71B9820280CD1FFE76F
:100850008021084609F0E4FA40F2A811C2F2000132
:10086000022081F8A70130E01B9821280CD1FFE776
:100870008021084609F0E2FA40F2A811C2F2000114
:10088000022081F8A7011FE09DF86C00C006002837
:100890000ED4FFE71B990120884080B209F09EFA30
:1008A00040F2A811C2F20001022081F8A7010AE07B
:1008B000082009F0A1FA40F2A811C2F200010220BA
:1008C00081F8A701FFE7FFE7FFE7FFE7FFE7FFE7A3
:1008D0001B9801301B9096E740F6B270C2F2000000
:1008E000008870B1FFE740F6B271C2F200010888DB
:1008F00040F6C472C2F2000210600020088001F0CD
:100900003CB840F6A470C2F20000006840F6A8713E
:10091000C2F200010968884204D3FFE7FFF73AFFFB
:1009200001F02BB840F6A472C2F2000217921068D0
:1009300040F2A811C2F200011891A1F8A2011068BA
:10094000411C1160FFF726FD179A189981F89D0147
:100950001068411C1160FFF71DFD0146189880F8D2
:100960009C1190F89D010006002840F15981FFE795
:1009700040F2A810C2F2000090F89D014006002845
:1009800000F1B380FFE740F2A810C2F2000090F837
:100990009D11C1F3440180F89F1190F89F01C0069A
:1009A000002811D4FFE740F2A810C2F20000169010
:1009B00090F89F110120884080B209F005FA16993D
:1009C000022081F8A7010FE040F2A810C2F2000057
:1009D000159090F89F0100F00F0009F00DFA15999D
:1009E000022081F8A701FFE740F2A810C2F2000040
:1009F00090F8A81180F8A911002180F8A81190F8AA
:100A0000A901B0B1FFE740F2A811C2F20001B1F8AC
:100A1000AA0101EB4000B0F9820040F6C472C2F2B4
:100A20000002106091F89F010144012081F85A00F2
:100A30005AE040F2A810C2F2000090F89D01C007F1
:100A4000C8B9FFE740F2A811C2F2000191F89C0179
:100A50001A901A9800EB800040001A901A9840F6FD
:100A6000C472C2F20002106091F89F01014401209B
:100A700081F85A0037E040F2A810C2F2000090F866
:100A80009C01000600281DD4FFE740F2A811C2F225
:100A9000000191F89C0100F07F0040F6B273C2F2B1
:100AA000000318801A88322042431A8040F6C4722C
:100AB000C2F20002106091F89F010144012081F808
:100AC0005A000FE040F2A812C2F2000292F89C0114
:100AD00000F07F001A901A9892F89F11114481F843
:100AE0005A00FFE7FFE7FFE798E040F2A810C2F2E4
:100AF000000090F89D11C1F3401180F8A01190F80A
:100B0000A01141F0200180F89F1190F89D1101F093
:100B10001F0180F8A11190F8A00190B1FFE740F209
:100B2000A810C2F20000149090F8A11100EB41014E
:100B3000087D497D09F082F91499022081F8A70106
:100B400011E040F2A810C2F20000139090F8A11139
:100B500000EB4101087D497D09F062F913990220FB
:100B600081F8A701FFE740F2A810C2F2000090F858
:100B7000A81180F8A911002180F8A81190F8A90106
:100B8000B0B1FFE740F2A811C2F20001B1F8AA012A
:100B900001EB4000B0F9820040F6C472C2F20002DC
:100BA000106091F89F010144012081F85A0034E05F
:100BB00040F2A810C2F2000090F89C010006002844
:100BC0001AD4FFE740F2A811C2F2000191F89C018B
:100BD00000F07F001A901A98322250431A901A9807
:100BE00040F6C472C2F20002106091F89F01014405
:100BF000012081F85A000FE040F2A812C2F2000270
:100C000092F89C0100F07F001A901A9892F89F11B8
:100C1000114481F85A00FFE7FFE7FFE700F0ABBEA1
:100C200040F2A810C2F2000090F89D01C0F3C3008A
:100C300001461291062800F29D861299DFE811F014
:100C400007004100B9008301DA025404330640F280
:100C5000A810C2F2000090F89D014007002801D4BE
:100C6000FFE72CE040F2A810C2F20000B0F89C119F
:100C70006FF35F21ADF8661090F89D0180070028A2
:100C800009D4FFE79DF8660000F09AFE9DF8670022
:100C900000F096FE11E0BDF9661040F2A810C2F215
:100CA00000001190405C00F08BFE1199BDF96600C8
:100CB0000844407800F084FEFFE700F05BBE00F0DF
:100CC00059BE40F2A810C2F2000090F8A81180F8B6
:100CD000A911002180F8A81190F8A90160B1FFE7DF
:100CE00040F2A810C2F20000B0F8AA1100EB4100D7
:100CF000B0F982001A9054E040F2A810C2F200004D
:100D000090F89D01400700280FD4FFE740F2A8109B
:100D1000C2F20000B0F89C016FF39F201A901A985D
:100D200000EB800040001A903AE040F2A810C2F2B6
:100D3000000090F89D018007002826D4FFE740F6C8
:100D4000A472C2F200020F921068411C1160FFF7FA
:100D500021FB0F9A40F2A811C2F20001109181F814
:100D60009B011068411C1160FFF714FB01461098AD
:100D700080F89A11D0F89A0120F07E401A901A98C3
:100D800000EB800040001A9009E040F2A810C2F287
:100D90000000B0F89C016FF35F201A90FFE7FFE7B7
:100DA000FFE71A9840F6C471C2F20001086000F033
:100DB000E1BD40F2A810C2F2000090F8A60190B187
:100DC000FFE740F2A811C2F2000191F8A60100EB82
:100DD000400001EB8000B0F81E01B1F8A21188427A
:100DE00000F0AF80FFE740F2A810C2F200000E90C2
:100DF00090F8A611013180F8A61190F8A61101EB28
:100E0000410100F5917303EB8102002142F80C1CB3
:100E1000B0F8A22190F8A6C10CEB4C0C03EB8C0CA3
:100E20002CF8042CB0F89C216FF3DF2290F8A6C1B7
:100E30000CEB4C0C03EB8C0323F8022C90F8A8214C
:100E400080F8A92180F8A81190F8A90100285FD0A6
:100E5000FFE740F2A810C2F20000B0F8AA1100EBC0
:100E60004101B1F8821001F00F0180F8AD1190F846
:100E7000AD0188B1FFE740F2A811C2F2000191F87C
:100E8000A62191F8AD0100F1004002EB420201EB16
:100E90008201C1F81601FFE740F2A810C2F200007B
:100EA000B0F8AA1100EB4101B1F88210C1F30311AF
:100EB00080F8AE1190F8AE0148B3FFE740F2A811F8
:100EC000C2F2000191F8A60191F8AE2101EB4202B5
:100ED000B2F9822000EB400301F5917000EB83032F
:100EE00043F8082C012281F8A8210222A1F8AA21A6
:100EF00091F8A61101EB410100EB810030F8020CE2
:100F000040F6A471C2F20001086000F033BDFFE7B3
:100F100040F2A810C2F20000012180F8A8110021BF
:100F2000A0F8AA1190F8A61101EB410100EB810095
:100F3000B0F8200140F6A471C2F20001086000F090
:100F400019BD00F017BD40F2A810C2F2000090F8E1
:100F50009D01400700281BD5FFE740F6A472C2F2AE
:100F600000020C921068411C1160FFF713FA0C9AF2
:100F700040F2A811C2F200010D9181F89B011068A6
:100F8000411C1160FFF706FA0D9981F89A01FFE7FD
:100F900040F2A810C2F2000090F8A81180F8A91140
:100FA000002180F8A81190F8A90100287CD0FFE763
:100FB00040F2A810C2F20000B0F8AA0101280BD13B
:100FC000FFE740F2A811C2F2000191F8A601013832
:100FD00081F8A60100F0CEBC40F2A810C2F20000D9
:100FE000B0F8AA01002852D1FFE740F2A810C2F2DF
:100FF0000000B0F8AA01002848D1FFE740F2A8108D
:10100000C2F2000090F89D01400700282CD4FFE7B1
:1010100040F2A811C2F20001B1F89C216FF39F22A7
:1010200091F8A60100EB400301F5917000EB8303FA
:1010300043F8082C91F8A61101EB410100EB810067
:1010400050F8080C78B9FFE740F2A810C2F200008F
:1010500090F8A61101EB410100EB81014FF0004037
:10106000C1F81A01FFE710E040F2A811C2F2000136
:10107000D1F89A0120F07C4091F8A62102EB4202BF
:1010800001EB8201C1F81A01FFE7FFE70AE040F235
:10109000A810C2F20000B0F8AA01022801D1FFE7AF
:1010A000FFE7FFE7FFE736E040F2A810C2F20000DA
:1010B00090F8A61101EB410100EB810090F81901B5
:1010C0000006002816D5FFE740F2A810C2F2000083
:1010D00090F8A61101EB410100EB8101D1F8161146
:1010E00001F00F0100EB4101B1F882000130A1F8DD
:1010F00082000FE040F2A810C2F2000090F8A611A2
:1011000001EB410100EB8101D1F816010130C1F87A
:101110001601FFE7FFE740F2A810C2F2000090F8C6
:10112000A61101EB410100EB810090F819010006C6
:10113000002814D5FFE740F2A810C2F2000090F892
:10114000A61101EB410100EB8101D1F8161101F06C
:101150000F0100EB4100B0F982001A900DE040F25F
:10116000A810C2F2000090F8A61101EB410100EBBB
:101170008100D0F816011A90FFE740F2A810C2F2E1
:10118000000090F8A61101EB410100EB8100D0F8BE
:101190001A01B0F1004F1AD0FFE71A9840F2A811D7
:1011A000C2F2000191F8A62102EB420201EB82019A
:1011B000D1F81A1188420ADBFFE740F2A811C2F207
:1011C000000191F8A601013881F8A60111E040F272
:1011D000A810C2F2000090F8A61101EB410100EB4B
:1011E0008100B0F81E0140F6A471C2F2000108604F
:1011F000FFE7BFE340F2A810C2F2000090F89D01A3
:101200004007002840F1BD80FFE740F2A810C2F27D
:10121000000090F89C11C1F3C20180F8AD1190F864
:101220009C1101F0070180F8AE1190F89D0100F0CB
:10123000030001460B91032857D80B99DFE801F012
:1012400002172B4040F2A811C2F2000101F1820204
:1012500091F8AD0191F8AE3132F9100032F9132056
:10126000801AB0FA80F0400981F8AF013DE040F209
:10127000A811C2F2000101F1820291F8AD0191F8CA
:10128000AE3132F9100032F91320801A18BF012054
:1012900081F8AF0129E040F2A811C2F2000101F18A
:1012A000820091F8AD2191F8AE3130F9122030F979
:1012B000133000209A42B8BF012081F8AF0114E03A
:1012C00040F2A811C2F2000101F1820091F8AD21B3
:1012D00091F8AE3130F9122030F9133000209A42E3
:1012E000D8BF012081F8AF01FFE740F2A810C2F299
:1012F000000090F8AF11002918BF012180F8AF114C
:1013000090F8B011002918BF012180F8B01190F8B1
:101310009C01800901460A91032831D80A99DFE827
:1013200001F0020B172340F2A811C2F2000191F85C
:10133000AF0181F8B00123E040F2A811C2F2000130
:1013400091F8AF2191F8B001104081F8B00117E099
:1013500040F2A811C2F2000191F8AF2191F8B0015A
:10136000104381F8B0010BE040F2A811C2F2000175
:1013700091F8AF2191F8B001504081F8B001FFE73A
:10138000B1E040F2A810C2F2000090F89C014009C0
:101390000146099140B1FFE7099801283CD0FFE7D9
:1013A000099807286AD09DE040F2A810C2F2000018
:1013B00090F89C01C006002809D5FFE740F2A8106C
:1013C000C2F2000090F8B00108B9FFE78AE040F2ED
:1013D000A810C2F20000089090F89C1101F00F01D3
:1013E00080F8AF1190F8A61190F8AF21891A80F813
:1013F000A611012180F8A811A0F8AA1190F8A61151
:1014000001EB410100EB8100B0F8200140F6A4712E
:10141000C2F20001086065E040F2A810C2F20000CC
:1014200090F89C01C006002809D5FFE740F2A810FB
:10143000C2F2000090F8B00108B9FFE752E040F2B4
:10144000A810C2F2000090F89C1101F00F0180F882
:10145000AF1190F8A61190F8AF21891A80F8A61163
:1014600090F8A61101EB410100EB8100B0F82001DA
:1014700040F6A471C2F20001086033E040F2A81007
:10148000C2F2000090F89C01C006002809D5FFE7D1
:1014900040F2A810C2F2000090F8B00108B9FFE7CE
:1014A00020E040F2A810C2F2000090F8A501A8B117
:1014B000FFE740F2A811C2F2000191F8A50101EB8B
:1014C0004000B0F8E40040F6A472C2F200021060DE
:1014D00091F8A501013881F8A50102E0FFF75AF95A
:1014E000FFE7FFE7FFE745E240F2A810C2F2000085
:1014F00090F89D01400700286DD4FFE740F2A81046
:10150000C2F20000B0F89C11C1F3C21180F8AD1115
:1015100090F8AD01002840D1FFE740F2A810C2F2D8
:10152000000090F89C014006002834D4FFE740F604
:10153000A472C2F2000206921068411C1160FEF70C
:1015400029FF069A40F2A811C2F20001079181F822
:101550009B011068411C1160FEF71CFF01460798B3
:1015600080F89A11B0F89C11C1F3C20180F8AF1154
:10157000B0F89C1101F0070180F8AD11D0F89A1174
:10158000ADF8661090F8AD1190F8AF01BDF9662086
:1015900008F018FA00E0FFE71CE040F2A811C2F2E0
:1015A000000191F89C0100F07F00ADF86600BDF8E5
:1015B00066004002ADF86600BDF96600400AADF86D
:1015C0006600BDF8660091F8AD2101EB4201A1F87B
:1015D0008200FFE766E140F2A810C2F2000090F836
:1015E0009D0100F00600042824D1FFE740F2A81274
:1015F000C2F200020592B2F89C01C0F3821082F898
:10160000AF01B2F89C01C0F3C20082F8AD01B2F89C
:101610009C0100F0070082F8AE0192F8AD1192F83B
:10162000AE3192F8AF0102EB4302B2F9822008F02A
:10163000C9F936E140F2A810C2F2000090F89D010D
:1016400000F00700062840D1FFE740F2A810C2F2E0
:10165000000090F89C11C1F3021180F8AD1190F8D0
:101660009C1101F00F0180F8AF1190F8AD0108B99D
:10167000FFE77FE140F2A810C2F2000090F89C0161
:101680000006002810D4FFE740F2A810C2F20000C4
:1016900090F8AD1190F8AF2100EB4101B1F9820053
:1016A0009040A1F882000FE040F2A810C2F20000C2
:1016B00090F8AD1190F8AF2100EB4101B1F9820033
:1016C0001041A1F88200FFE7EAE040F2A810C2F260
:1016D000000090F89C1101F0070180F8AD1190F81E
:1016E0009C01C0F3C300023801460491072800F2B0
:1016F000D6800499DFE801F0041B3248D367738C6D
:1017000040F2A810C2F2000090F8AD0108B9FFE75E
:10171000C5E040F2A810C2F2000090F8AD1100EB55
:101720004101B1F882004042A1F88200B7E040F2E6
:10173000A810C2F2000090F8AD0108B9FFE7AEE0D2
:1017400040F2A810C2F2000090F8AD1100EB410188
:10175000B1F88200C043A1F88200A0E040F2A811D5
:10176000C2F2000191F8A401013081F8A40191F8BE
:10177000A42191F8AD0101EB4000B0F8820001EB2B
:101780004201A1F8B2008AE040F2A810C2F20000C3
:1017900090F8AD0108B9FFE781E040F2A811C2F26C
:1017A000000191F8A40191F8AD2101EB4000B0F8DF
:1017B000B20001EB4202A2F8820091F8A4010138C4
:1017C00081F8A4016BE040F2A811C2F200010120EF
:1017D00081F8A80191F8AD01A1F8AA015FE040F2FB
:1017E000A810C2F2000090F8AD0108B9FFE756E07A
:1017F00040F2A810C2F2000090F8AD1100EB4101D8
:10180000B1F88200002818BF0120A1F8820046E04C
:1018100040F2A810C2F2000090F8AD0108B9FFE74D
:101820003DE040F2A810C2F20000B0F8B10110BBD8
:10183000FFE740F6BC70C2F20000016840F2A81059
:10184000C2F200000390A0F8B11100F2B1100190B3
:101850000120029000F0F4FA01994FF4677002221F
:1018600000F0D6FA029800F0E3FA0398B0F8B1015C
:10187000FEF7EAFCFFE7FEF7DDFC034640F2A810A6
:10188000C2F2000090F8AD1100EB4101B1F98220E5
:1018900093FBF2F000FB1230A1F88200FFE7FFE7B4
:1018A000FFE7FFE766E040F2A810C2F20000B0F8E0
:1018B0009C116FF35F21ADF86610BDF8661049000A
:1018C000ADF8661090F89D01C0F34100014600910B
:1018D00003284ED80099DFE801F0020C1F3240F6D1
:1018E000A471C2F200010888BDF9662010440860A6
:1018F0003FE040F2A810C2F2000090F8B00150B1F1
:10190000FFE740F6A471C2F200010888BDF9662025
:1019100010440860FFE72CE040F2A810C2F200007B
:1019200090F8B00150B9FFE740F6A471C2F200018F
:101930000888BDF9662010440860FFE719E040F20E
:10194000A812C2F2000292F8A501013082F8A501A6
:1019500040F6A471C2F20001086892F8A53102EBCA
:101960004302A2F8B2000888BDF96620104408605E
:10197000FFE7FFE7FFE7FEF72EBF1CB080BD0000CA
:1019800040F6C470C2F200000068C0B1FFE740F248
:10199000A810C2F2000090F8A70140B1FFE740F69E
:1019A000C470C2F200000068022808D3FFE740F6C6
:1019B000C471C2F20001086801380860FFE770478F
:1019C00080B582B08DF807000DF10700012108F005
:1019D0006FFAFEF7C9FC02B080BD000080B58AB086
:1019E000ADF82600BDF92600B0F1FF3F01DCFFE7AE
:1019F000F1E1FEF7B9FC40F2CE70C2F200000088BF
:101A000040F2CC71C2F200010988884230DAFFE767
:101A10009DF8261040F2CE70C2F20000038840F21A
:101A2000A812C2F20002D15401880131018000885D
:101A300040F2CC71C2F200010988884217D1FFE759
:101A4000022000F0FDF940F2C870C2F20000006808
:101A500040F2CC71C2F200010A8840F2A811C2F231
:101A6000000100F0D5F98220FFF7AAFFFFE7B2E1FD
:101A70009DF8260040F6AC73C2F200031A68511CB0
:101A8000196040F2A811C2F200018854BDF8260086
:101A90000006002840F18F81FFE740F6AC70C2F2EB
:101AA00000000068012814D1FFE740F6B070C2F2D0
:101AB00000000078C00760B9FFE7BDF92600A5283F
:101AC00007D1FFE740F6B071C2F2000101200870B3
:101AD0006AE140F6AC70C2F200000068082851D1FB
:101AE000FFE740F2A810C2F2000090F8AC0120B16C
:101AF000FFE7FE20FFF764FF3DE040F2A811C2F2CD
:101B00000001049108784A788978400240EA82000E
:101B100040EA511080B208F079F904998878C978C0
:101B2000C00040EA1110C0B208F066F9049AD078FB
:101B300011795279000140EAD100490141EA92014C
:101B4000C0B2C9B208F06CF9049948798A79C979A8
:101B5000800140EA520001F07F0141EAC211C0B2A7
:101B6000C9B208F06BF90499022081F8A701FF209F
:101B7000FFF726FFFFE740F6B071C2F20001002038
:101B8000087010E140F6B070C2F200000078C007A3
:101B9000002800F0FF80FFE740F6B071C2F20001BC
:101BA00000200870BDF926008038014603912528E1
:101BB00000F2E2800399DFE811F02600A100A50001
:101BC000D300D90079007D00DF00DF00DF00DF00F7
:101BD000DF00DF00DF00DF00DF00DF00DF00DF000D
:101BE000DF00DF00DF00DF00DF00DF00DF00DF00FD
:101BF000DF00DF00DF00DF00DF00DF00DF00DF00ED
:101C0000DF00DF009A0040F2A810C2F2000090F856
:101C1000A61101EB410100EB8100D0F816010890FC
:101C200000200790FFE7079803280CDCFFE79DF8EA
:101C30002000FFF7C5FE0898000A0890FFE7079804
:101C400001300790EFE740F6B870C2F2000000687C
:101C5000089000200690FFE7069803280CDCFFE7B9
:101C60009DF82000FFF7ACFE0898000A0890FFE7F7
:101C7000069801300690EFE740F6A470C2F200002B
:101C80000088089000200590FFE7059801280CDCEB
:101C9000FFE79DF82000FFF793FE0898000A0890E0
:101CA000FFE7059801300590EFE769E04620FFF770
:101CB00087FE65E040F2C471C2F20001029108782B
:101CC00080F0080008700120019000F0B9F8019A36
:101CD000029940F29E3000F09BF8019800F0A8F8BD
:101CE000FEF7A4FB02980078FFF76AFE48E040F692
:101CF000B071C2F200010120087041E08020FFF7BE
:101D00005FFE3DE040F6AC70C2F2000000680528BE
:101D100004D0FFE70020FFF753FE31E0FEF73AFD65
:101D200040F2A811C2F2000108784A7840EAC210D5
:101D300040F2C872C2F2000210608878C97840EAA6
:101D4000C11040F2CC71C2F20001088040F2CE71A5
:101D5000C2F20001002008808120FFF731FE0FE071
:101D6000FEF7B0FC8320FFF72BFE09E0FEF712FD23
:101D70008320FFF725FE03E00020FFF721FEFFE7A9
:101D8000BDF92600822804D0FFE7002000F050F8BB
:101D9000FFE707E040F6AC70C2F200000078FFF702
:101DA0000FFEFFE7FFE7FFE740F6AC71C2F200016C
:101DB00000200860FFE740F6AC70C2F20000006847
:101DC000142807D3FFE740F6AC71C2F200010020EF
:101DD0000860FFE7FFE70AB080BD000080B540F66D
:101DE000BC71C2F2000108680130086040F2C670A0
:101DF000C2F20000007840B1FFE740F2C671C2F2C3
:101E00000001087801380870FFE7FFF7B9FD80BDD1
:101E100080B584B003900291ADF806200298BDF819
:101E20000610BDF80C2007F09FFE04B080BD000036
:101E300080B582B08DF8070007F032FF02B080BD98
:101E400080B584B08DF80F009DF80F0048B9FFE70A
:101E500007F044FF0020C0F60200012107F012FF46
:101E6000FFE79DF80F0001281DD1FFE707F036FFBF
:101E70004FF46770009008F093F800990290029870
:101E80000022019207F03CFE0020C0F60200012172
:101E900007F0F8FE0099019A029807F065FE029893
:101EA00008F056F8FFE79DF80F0002280CD1FFE775
:101EB00007F014FF38B9FFE70020C0F60200012147
:101EC00007F0E0FEFFE7FFE704B080BD81B0EFF36D
:101ED000108072B60090FFE7FEE7000083B002902A
:101EE0008DF80710002000909DF8070018B9FFE753
:101EF0000020009017E09DF80700012804D1FFE7BB
:101F00004FF4807000900DE09DF80700022804D186
:101F1000FFE74FF40070009003E04FF44070009032
:101F2000FFE7FFE7FFE743F61041C4F2020108684C
:101F300020F440700860009A086810430860086840
:101F400020F0F8000860029A086840EAC20040F0F9
:101F500002000860086840F48030086003B07047F1
:101F600043F60040C4F202000068800500281FD537
:101F7000FFE743F60041C4F20201086820F4007054
:101F80000860FFE743F60041C4F20201086840F42C
:101F900000600860086820F400600860FFE743F60E
:101FA0000041C4F20201086840F400700860FFE7D5
:101FB00043F60040C4F202000068400500281FD527
:101FC000FFE743F60041C4F20201086820F4806094
:101FD0000860FFE743F60041C4F20201086840F4DC
:101FE00080500860086820F480500860FFE743F6DE
:101FF0000041C4F20201086840F480600860FFE715
:102000007047000082B08DF80700009143F6104140
:10201000C4F20201086820F440700860086840F0CB
:10202000040008609DF80720086840EA022040F498
:102030008030086002B0704782B001908DF80310C4
:1020400043F61041C4F20201086820F440700860B1
:1020500008680860086840F0010008609DF8030007
:102060000199087002B0704784B003900193009208
:1020700043F61041C4F20201086820F44070086081
:10208000086840F440700860086840F0010008608B
:10209000009803990860BFF36F8F01980399486017
:1020A00004B0704782B00190ADF8021043F61041C1
:1020B000C4F20201086820F440700860086840F427
:1020C00080700860086840F001000860BDF80200F8
:1020D0000199088002B0704782B00190009143F6E8
:1020E0001041C4F20201086820F4407008600868DA
:1020F00040F400700860086840F001000860009833
:102100000199086002B0704743F60C40C4F2020027
:102110000068C00600280FD5FFE740F68071C2F2C4
:102120000001C86940F01000C86143F60C41C4F2D8
:10213000020110200860FFE743F60C40C4F20200E1
:102140000068800600280FD5FFE740F68071C2F2D4
:102150000001C86940F00800C86143F60C41C4F2B0
:10216000020120200860FFE743F60C40C4F20200A1
:102170000068400600280FD5FFE740F68071C2F2E4
:102180000001C86940F00400C86143F60C41C4F284
:10219000020140200860FFE743F60C40C4F2020051
:1021A0000068000600280FD5FFE740F68071C2F2F4
:1021B0000001C86940F00200C86143F60C41C4F256
:1021C000020180200860FFE743F60C40C4F20200E1
:1021D0000068C005002810D5FFE740F68071C2F204
:1021E0000001C86940F00100C86143F60C41C4F227
:1021F00002014FF480700860FFE743F60C40C4F220
:1022000002000068800700280FD5FFE740F68071C4
:10221000C2F20001C86940F02000C86143F60C41D9
:10222000C4F2020102200860FFE7704780B584B065
:1022300002900020019040F68071C2F20001C86156
:1022400000F022FC0190FFE743F60C40C4F20200CC
:102250000068C003002815D5FFE70298013080B15F
:10226000FFE7029840B1FFE700F00EFC0199401A29
:102270000299884204D9FFE703208DF80F0023E07C
:10228000FFE7E1E743F60C40C4F202000068C00734
:1022900038B1FFE743F60C41C4F2020101200860A7
:1022A000FFE743F60C40C4F20200006810F4F97F27
:1022B00006D0FFE7FFF728FF01208DF80F0003E0AD
:1022C00000208DF80F00FFE79DF80F0004B080BDDF
:1022D00080B584B047F61020C1F6FF700068039007
:1022E00047F61420C1F6FF700068029047F61820E8
:1022F000C1F6FF70006801900199039808440390AB
:10230000039888B1FFE7039840F28811C2F20001F8
:1023100000910231082203F0F5F900990298123178
:10232000042203F0EFF9FFE704B080BD80B584B06C
:1023300002900298806D019000F0A6FB0090029838
:1023400090F8350002280DD0FFE7029980204865FB
:10235000FFE70299002081F83400FFE701208DF8A3
:102360000F0055E002980168086820F01600086028
:1023700002980168486920F0800048610298006C6A
:1023800020B9FFE70298806C38B1FFE70298016836
:10239000086820F008000860FFE7029801680868F4
:1023A00020F001000860FFE7029800680068C0079D
:1023B000C8B1FFE700F068FB0099401A062811D366
:1023C000FFE70299202048650299032081F8350033
:1023D000FFE70299002081F83400FFE703208DF821
:1023E0000F0015E0E0E70298C16D3F208840019999
:1023F00088600299012081F83500FFE702990020EA
:1024000081F83400FFE7FFE700208DF80F00FFE7B9
:102410009DF80F0004B080BD82B00090009890F845
:102420003500022807D0FFE7009980204865012089
:102430008DF807000EE00099052081F8350000981E
:102440000168086820F001000860FFE700208DF8AF
:102450000700FFE79DF8070002B0704780B584B021
:10246000039000F011FB0290039801900198013055
:1024700048B1FFE740F24450C2F2000001780198F1
:1024800008440190FFE7FFE700F0FEFA0299401AC6
:102490000199884201D2FFE7F6E704B080BD000051
:1024A00080B586B00490039101208DF80B000020C8
:1024B0000190FFE740F68070C2F20000007E012824
:1024C00004D1FFE702208DF817006CE040F6807120
:1024D000C2F2000101200876FFE7FFE74CF250301E
:1024E000FFF7A4FE8DF80B009DF80B0000284DD1DE
:1024F000FFE703994FF0FF30086004980068012857
:1025000014D1FFE70499087C4968FFF77BFD4CF282
:102510005030FFF78BFE8DF80B0043F61041C4F2EC
:102520000201086820F0040008602CE0049880682C
:102530000190FFE7019804998A68C96811448842AC
:1025400020D2FFE701980499097CFFF7C7FC4CF201
:102550005030FFF76BFE8DF80B0043F61041C4F2CC
:102560000201086820F0FA0008609DF80B0020B115
:10257000FFE701980399086004E0FFE70198013044
:102580000190D7E7FFE7FFF7EBFCFFE7FFE740F637
:102590008071C2F2000100200876FFE79DF80B0071
:1025A0008DF81700FFE79DF8170006B080BD00000A
:1025B00043F61041C4F20201086840F00040086090
:1025C0000020704780B588B0069005910393029271
:1025D00001208DF80700FFE740F68070C2F200008E
:1025E000007E012804D1FFE702208DF81F0051E092
:1025F00040F68071C2F2000101200876FFE7FFE794
:102600004CF25030FFF712FE8DF807009DF80700DE
:1026100098BBFFE7069830B9FFE705989DF80810CA
:10262000FFF70AFD1AE00698012806D1FFE7059892
:10263000BDF80810FFF736FD0FE00698022805D117
:10264000FFE705980299FFF747FD05E00598029A14
:10265000039BFFF709FDFFE7FFE7FFE74CF2503070
:10266000FFF7E4FD8DF8070043F61041C4F20201C4
:10267000086820F001000860FFE7FFE740F680717E
:10268000C2F2000100200876FFE79DF807008DF8F0
:102690001F00FFE79DF81F0008B080BD81B000203B
:1026A0008DF8030043F61040C4F202000068C00F2A
:1026B000D8B1FFE743F60441C4F2020140F223100F
:1026C000C4F26750086048F6AB10CCF6EF500860D3
:1026D00043F61040C4F202000068C00F20B1FFE7CB
:1026E00001208DF80300FFE7FFE79DF8030001B02C
:1026F000704700008BB00A90099100200790069067
:1027000005900890FFE708980F2800F2A281FFE7E4
:1027100008990120884007900998006807990840A7
:10272000069006980799884240F08E81FFE7099845
:10273000406800F00300012807D0FFE709984068CF
:1027400000F0030002282FD1FFE70A988068059067
:1027500008984100032000FA01F10598884305908C
:102760000998C0680899490000FA01F105980843E2
:10277000059005980A9988600A984068059008991C
:10278000012000FA01F105988843059009984068F6
:10279000C0F30010089900FA01F10598084305906C
:1027A00005980A994860FFE70998406800F003001F
:1027B000032818D0FFE70A98C068059008984100E0
:1027C000032000FA01F10598884305900998806874
:1027D0000899490000FA01F1059808430590059809
:1027E0000A99C860FFE70998406800F003000228D2
:1027F00026D1FFE70A9808996FF0030202EA510117
:102800000844006A0590089800F0070081000F2036
:1028100000FA01F105988843059009980069089924
:1028200001F00701890000FA01F1059808430590BD
:1028300005980A99089B02EA530211440862FFE7CF
:102840000A980068059008984100032000FA01F1F9
:102850000598884305900998406800F0030008999E
:10286000490000FA01F105980843059005980A9976
:102870000860099880798007002800F0E480FFE76D
:10288000FFE70020049043F64400C4F20200016810
:1028900041F480410160006800F480400490049895
:1028A000FFE7089820F0030043F60801C4F2010195
:1028B00040580590089800F0030081000F2000FAAE
:1028C00001F10598884305900A980021C4F202019D
:1028D000884203D1FFE70020039034E00A9840F2D9
:1028E0000041C4F20201884203D1FFE701200290B7
:1028F00026E00A9840F60001C4F20201884203D1A2
:10290000FFE70220019018E00A9840F60041C4F267
:102910000201884203D1FFE7032000900AE00A99F0
:1029200041F20002C4F202020720914208BF0420D3
:102930000090FFE700980190FFE701980290FFE701
:1029400002980390FFE70398C0B2089901F00301D1
:10295000890000FA01F10598084305900598089947
:1029600021F0030143F60802C4F20102885043F645
:102970000040C4F20100006805900699059888435C
:10298000059009988079C00728B1FFE70699059856
:1029900008430590FFE7059843F60041C4F20101A2
:1029A000086043F60440C4F20100006805900699EF
:1029B000059888430590099880798007002805D5F7
:1029C000FFE70699059808430590FFE7059843F649
:1029D0000441C4F20101086043F60840C4F201005A
:1029E00000680590069905988843059009988079B4
:1029F000C006002805D5FFE706990598084305900D
:102A0000FFE7059843F60841C4F20101086043F668
:102A10000C40C4F2010000680590069905988843AF
:102A20000590099880798006002805D5FFE706996A
:102A3000059808430590FFE7059843F60C41C4F25A
:102A400001010860FFE7FFE7FFE708980130089001
:102A500059E60BB07047000082B00190ADF802104B
:102A60008DF801209DF8010028B1FFE7BDF80200B4
:102A70000199886105E0BDF80200000401998861B0
:102A8000FFE702B07047000040F6C070C2F20000DD
:102A90000068704740F24450C2F20000027840F6ED
:102AA000C071C2F20001086810440860704700005D
:102AB00080B543F60041C4F20201086840F400709A
:102AC0000860086840F480600860086840F480701E
:102AD0000860032000F08AF80F2000F005F800F0ED
:102AE0003BF8002080BD000080B582B0009040F22D
:102AF0008000C2F20000006840F24451C2F20001BE
:102B00000A784FF47A71B1FBF2F1B0FBF1F001F009
:102B10002BFE20B1FFE701208DF8070018E0009898
:102B20000F280DD8FFE700994FF0FF30002200F08A
:102B300043F8009840F24851C2F20001086003E0F7
:102B400001208DF8070003E000208DF80700FFE763
:102B50009DF8070002B080BD82B0FFE70020019021
:102B600043F64400C4F20200016841F48041016070
:102B7000006800F4804001900198FFE7FFE7002023
:102B8000009043F64000C4F20200016841F0805119
:102B90000160006800F0805000900098FFE702B0EC
:102BA0007047000080B582B08DF807009DF90700DE
:102BB00006F0A8FE02B080BD80B586B08DF8170083
:102BC000049103920020029006F0B4FE02909DF959
:102BD0001700019002980499039A02F0E9FE014659
:102BE000019806F0AFFE06B080BD000080B582B04F
:102BF0000190019806F0C8FE02B080BD82B001903D
:102C00008DF8031002B0704782B00190ADF8021049
:102C1000BDF80200019909684862002002B07047BF
:102C200084B003908DF80B10ADF80820039800686D
:102C3000406A00909DF80B0048B9FFE7BDF8081006
:102C4000009840EA014003990968886233E00398DC
:102C50000068816A009800EB1140009000208DF818
:102C60000700FFE79DF807009DF80B100139884227
:102C700013D2FFE7039800689DF8071000EB81006E
:102C8000D0F80411009800EB11400090FFE79DF888
:102C9000070001308DF80700E4E7BDF80810009840
:102CA00040EA0140039909689DF80B2001EB82017D
:102CB000C1F80001FFE7002004B0704780B582B082
:102CC00001900198D0F8040404F07AFD02B080BDB0
:102CD00080B582B001908DF80310019AD2F80404F7
:102CE0009DF80310C1EBC10302EB8302926C04F068
:102CF00045FC02B080BD000080B582B001908DF827
:102D00000310019AD2F804049DF80310C1EBC1032B
:102D100002EB8302D2F8082204F0D6FC02B080BD98
:102D200080B582B001900198D0F8040404F04EFD03
:102D300002B080BD80B584B002908DF807109DF878
:102D40000700000600280FD5FFE702989DF807103E
:102D500001F00F01C1EBC10100EB81003C3000909C
:102D60000099012048700FE002989DF8071001F0CB
:102D70000F01C1EBC10100EB810000F5FE70009076
:102D8000009900204870FFE79DF8070000F00F0051
:102D900000990870FFE7029890F8BC03012804D15D
:102DA000FFE702208DF80F0014E00299012081F85E
:102DB000BC03FFE7FFE702980068009905F0BCFC40
:102DC000FFE70299002081F8BC03FFE700208DF89F
:102DD0000F00FFE79DF80F0004B080BD80B584B000
:102DE00002908DF807109DF8070000F00F0002997F
:102DF0004968884204D9FFE701208DF80F004DE0B3
:102E00009DF80700000600280FD5FFE702989DF8FF
:102E1000071001F00F01C1EBC10100EB81003C3054
:102E200000900099012048700FE002989DF807106B
:102E300001F00F01C1EBC10100EB810000F5FE7054
:102E40000090009900204870FFE7009900208870EA
:102E50009DF8070000F00F0000990870FFE7029846
:102E600090F8BC03012804D1FFE702208DF80F0081
:102E700014E00299012081F8BC03FFE7FFE7029804
:102E80000068009905F0D4FFFFE70299002081F85F
:102E9000BC03FFE700208DF80F00FFE79DF80F004F
:102EA00004B080BD80B586B004908DF80F10ADF8E9
:102EB0000C208DF80B3000208DF80A009DF80F00D3
:102EC000000600280FD5FFE704989DF80F1001F0C9
:102ED0000F01C1EBC10100EB81003C300190019971
:102EE000012048700FE004989DF80F1001F00F01C9
:102EF000C1EBC10100EB810000F5FE70019001996A
:102F000000204870FFE79DF80F0000F00F000199C6
:102F10000870BDF80C00019988609DF80B000199BC
:102F2000C8700198407820B1FFE701990878C880FF
:102F3000FFE79DF80B00022804D1FFE7019900206C
:102F40000871FFE7FFE7049890F8BC03012804D15B
:102F5000FFE702208DF8170015E00499012081F8A1
:102F6000BC03FFE7FFE704980068019905F0A0FAA9
:102F7000FFE70499002081F8BC03FFE79DF80A00F1
:102F80008DF81700FFE79DF8170006B080BD000020
:102F900080B586B005908DF81310039202930598C2
:102FA0009DF8131001F00F01C1EBC10100EB81008E
:102FB00000F5FE70019003980199C860029801998C
:102FC0004861019900208861019948709DF81300BB
:102FD00000F00F000199087005980069012804D1DC
:102FE000FFE7039801990861FFE79DF813000007C8
:102FF00038B9FFE7059A10680199127C05F0D0FDF9
:1030000006E0059A10680199127C05F0B5FFFFE70C
:10301000002006B080BD000080B584B002908DF81D
:1030200007109DF8070000F00F00029949688842D8
:1030300004D9FFE701208DF80F0058E09DF8070044
:10304000000600280FD5FFE702989DF8071001F051
:103050000F01C1EBC10100EB81003C3000900099F1
:10306000012048700DE002989DF80710C1EBC101E6
:1030700000EB810000F5FE70009000990020487080
:10308000FFE70099012088709DF8070000F00F000D
:1030900000990870FFE7029890F8BC03012804D15A
:1030A000FFE702208DF80F0021E00299012081F84E
:1030B000BC03FFE7FFE702980068009905F008FFEE
:1030C0009DF80700000740B9FFE7029A1068117CDD
:1030D00002F5717205F05CFEFFE7FFE70299002040
:1030E00081F8BC03FFE700208DF80F00FFE79DF893
:1030F0000F0004B080BD000080B586B005908DF84B
:1031000013100392029305989DF8131001F00F011C
:10311000C1EBC10100EB81003C30019003980199A3
:10312000C86002980199486101990020886101995D
:10313000012048709DF8130000F00F0001990870FD
:1031400005980069012804D1FFE7039801990861F7
:10315000FFE79DF81300000738B9FFE7059A1068EC
:103160000199127C05F01CFD06E0059A1068019992
:10317000127C05F001FFFFE7002006B080BD0000D3
:1031800080B58CB00B900B9800680A900A98099053
:103190000B98006806F022F9002840F01A83FFE738
:1031A0000B98006806F086F908B9FFE711E30B9861
:1031B000006806F07FF98007002807D5FFE70B9825
:1031C0000168486900F002004861FFE70B98006859
:1031D00006F070F9C006002862D5FFE70B98016879
:1031E000886920F0100088610A98006A02900B98A4
:1031F000029901F00F01C1EBC10100EB810000F564
:10320000FE700890029800F4F0110220B0EB514FCC
:1032100023D1FFE7BDF8080047F6F07108421BD044
:10322000FFE70A980899C968029AC2F30A1206F0E1
:103230004FF9029847F6F07100EA0103089AD06846
:1032400000EB1310D060029800EA01020899886927
:1032500000EB12108861FFE71BE0029800F4F01108
:103260000620B0EB514F12D1FFE70A980B9901F5F8
:103270007171082206F02CF9029847F6F07100EA05
:1032800001020899886900EB1210886100E0FFE7ED
:10329000FFE70B980168886940F010008861FFE73C
:1032A0000B98006806F006F90003002870D5FFE7C8
:1032B000002004900B98006806F0AAF80690FFE73B
:1032C0000698002863D0FFE79DF81800C007002883
:1032D00056D0FFE70B9800689DF8101006F0D2F862
:1032E00005909DF81400C00760B1FFE709980499A4
:1032F00000EB41110120C1F8080B0B98049902F072
:10330000DBFBFFE79DF81400000700280CD5FFE762
:103310000998049900EB41110820C1F8080B0B989B
:10332000049902F083FBFFE79DF81400C006002813
:1033300008D5FFE70998049900EB41111020C1F866
:10334000080BFFE79DF814008006002808D5FFE76A
:103350000998049900EB41112020C1F8080BFFE700
:103360009DF815008006002809D5FFE70998049903
:1033700000EB41114FF40050C1F8080BFFE7FFE7E5
:1033800004980130049006984008069098E7FFE7FB
:103390000B98006806F08EF84003002840F1AC80DE
:1033A000FFE70B98006806F021F8069000200490D3
:1033B000FFE70698002800F09E80FFE79DF81800C0
:1033C000C007002800F09080FFE70B9800689DF888
:1033D000101006F02FF805909DF81400C007002883
:1033E0003ED0FFE7049800F00F01012000FA01F140
:1033F0000391039B099AD2F834189943C2F8341800
:103400000999049A01EB4211C1F808090B98006967
:1034100001281FD1FFE70B980499C1EBC10100EB14
:1034200081014A6C886C10448864049888B9FFE76D
:103430000B980499C1EBC10100EB8100006D40B90C
:10344000FFE70B99086801F57172012105F0A0FCF6
:10345000FFE7FFE70B989DF81010FFF739FCFFE737
:103460009DF814000007002808D5FFE70998049983
:1034700000EB41110820C1F80809FFE79DF814008E
:10348000C006002808D5FFE70998049900EB411110
:103490001020C1F80809FFE79DF814004006002835
:1034A00008D5FFE70998049900EB41114020C1F8C5
:1034B0000809FFE79DF814008007002808D5FFE7FA
:1034C0000998049900EB41110220C1F80809FFE7AF
:1034D0009DF814000006002805D5FFE70B98049915
:1034E00002F0DCFBFFE7FFE7049801300490069848
:1034F000400806905DE7FFE70B98006805F0DAFFEB
:10350000C00F00B3FFE70999D1F8040820F00100CB
:10351000C1F804080B9890F8F403012808D1FFE7DC
:103520000B98002180F8F4130B98FFF767FB03E07A
:103530000B9800F03BFBFFE70B980168486900F02F
:1035400000404861FFE70B98006805F0B3FF0005F5
:10355000002811D5FFE70998D0F80808C00720B166
:10356000FFE70B9800F0B0FBFFE70B980168486994
:1035700000F400604861FFE70B98006805F09AFFCF
:10358000C004002840F19080FFE70999D1F80408B1
:1035900020F00100C1F804080B980068102105F024
:1035A000CDFE00200790FFE707980B9949688842F5
:1035B0003BD2FFE70998079900EB41114FF67F30A6
:1035C000C1F808090999079A01EB4212D2F80019CB
:1035D00021F40011C2F800190999079A01EB42126F
:1035E000D2F8001941F00061C2F800190999079A50
:1035F00001EB4211C1F8080B0998079900EB411142
:10360000D1F8000B20F40010C1F8000B09980799BD
:1036100000EB4111D1F8000B40F00060C1F8000B45
:10362000FFE7079801300790BEE70999D1F81C0819
:1036300040F00110C1F81C080B98006B78B1FFE74F
:103640000999D1F8840840F00B00C1F88408099961
:10365000D1F8440840F00B00C1F844080FE0099984
:10366000D1F8140842F22B021043C1F8140809994A
:10367000D1F8100840F00B00C1F81008FFE70999D5
:10368000D1F8000820F4FE60C1F800080B9A106819
:10369000117C02F5717205F07BFB0B98016848699B
:1036A00000F480504861FFE70B98006805F002FFC6
:1036B000800400281FD5FFE70B98006804F068FF1E
:1036C0000B98006805F064FE0B99C8600B980068C1
:1036D000019000F04BFC014601980B9A127B05F01B
:1036E000EFFF0B9800F046FA0B980168486900F468
:1036F00000504861FFE70B98006805F0DBFE00070B
:1037000000280AD5FFE70B9800F05AFA0B980168D9
:10371000486900F008004861FFE70B98006805F071
:10372000C9FEC00200280ED5FFE7002004900B98C8
:103730009DF8101000F050F80B980168486900F4EB
:1037400080104861FFE70B98006805F0B3FE800227
:1037500000280ED5FFE7002004900B989DF810106C
:1037600000F048F80B980168486900F400104861BF
:10377000FFE70B98006805F09DFE400000280AD581
:10378000FFE70B98FFF79AFA0B980168486900F079
:1037900080404861FFE70B98006805F08BFE40070A
:1037A000002815D5FFE70B980068406802909DF847
:1037B00008004007002804D5FFE70B98FFF7B0FA90
:1037C000FFE7029A0B980168486810434860FFE7DA
:1037D000FFE70CB080BD000080B582B001908DF88D
:1037E00003100198D0F804049DF8031004F072F857
:1037F00002B080BD80B582B001908DF803100198B1
:10380000D0F804049DF8031004F090F802B080BDD5
:103810002DE9F04F97B01590159820B9FFE70120DA
:103820008DF85B0049E1159800681490159890F8A0
:10383000BD0340B9FFE71599002081F8BC03159836
:1038400000F040F9FFE71599032081F8BD031498B3
:10385000C06BC005002804D4FFE71599002008615B
:10386000FFE71598006805F091F915981090016828
:10387000119141688268C368D0F810C044698569B5
:10388000C669076AD0F82480D0F82890D0F82CA018
:10389000D0F830B0D0F834E068461290C0F824E098
:1038A0001198DDF848E0CEF820B0CEF81CA0CEF894
:1038B0001890CEF81480CEF81070CEF80C60CEF8C8
:1038C0000850CEF80440CEF800C004F077FE40B1B6
:1038D000FFE71599022081F8BD0301208DF85B00F8
:1038E000EBE01598006800210F9105F04BFE0F9852
:1038F0008DF84F00FFE79DF84F0015994968884201
:1039000045D2FFE715989DF84F10C1EBC10100EBC0
:103910008101012081F83D009DF84F001599C0EB11
:10392000C00201EB820181F83C009DF84F0015991F
:10393000C0EBC00201EB8201A1F8420015989DF88E
:103940004F10C1EBC10100EB8101002081F83F0065
:1039500015999DF84F20C2EBC20201EB8201486429
:1039600015999DF84F20C2EBC20201EB82018864D9
:1039700015999DF84F20C2EBC20201EB8201086548
:10398000FFE79DF84F0001308DF84F00B3E70020AE
:103990008DF84F00FFE79DF84F0015994968884260
:1039A0003ED2FFE715989DF84F10C1EBC10100EB27
:1039B0008101002081F8FD019DF84F10159AC1EB9F
:1039C000C10302EB830282F8FC1115999DF84F2088
:1039D000C2EBC20201EB820181F8FF0115999DF84B
:1039E0004F20C2EBC20201EB8201C1F8040215991B
:1039F0009DF84F20C2EBC20201EB8201C1F8080220
:103A000015999DF84F20C2EBC20201EB8201C1F86B
:103A10001002FFE79DF84F0001308DF84F00BAE724
:103A200015980C9001680D9141688268C368D0F8C0
:103A300010C044698569C669076AD0F82480D0F847
:103A40002890D0F82CA0D0F830B0D0F834E06846F8
:103A50000E90C0F824E00D98DDF838E0CEF820B0E4
:103A6000CEF81CA0CEF81890CEF81480CEF81070C6
:103A7000CEF80C60CEF80850CEF80440CEF800C066
:103A800004F022FF40B1FFE71599022081F8BD0341
:103A900001208DF85B0010E0159900200B9081F853
:103AA00038001599012081F8BD031598006804F0CD
:103AB000F5FE0B988DF85B00FFE79DF85B0017B0F3
:103AC000BDE8F08F80B58AB009900020089007907B
:103AD00006900590049009980068B0F1A04F47D176
:103AE000FFE7FFE70020039043F63000C4F2020036
:103AF000016841F001010160006800F001000390DD
:103B00000398FFE74FF4C050049002200590002076
:103B10000690032007900A2008900020C4F20200BB
:103B200004A9FEF7E7FDFFE743F63401C4F2020102
:103B3000086840F080000860FFE70020029043F62C
:103B40004400C4F20200016841F480410160006851
:103B500000F4804002900298FFE7FFE743200190C5
:103B600000221146FFF728F80198FFF71BF8FFE73E
:103B70000AB080BD80B582B0019001208DF80300AD
:103B80000198C068022803D0FFE7FEF79FF9FFE71E
:103B90000198D0F804049DF8031003F0C5FF0198C4
:103BA000D0F8040403F036FF02B080BD80B582B0C7
:103BB00001900198D0F8040403F07CFF02B080BDAE
:103BC00080B582B001900198D0F8040403F084FF1E
:103BD00002B080BD80B584B002908DF80710FFE779
:103BE000029890F8BC03012804D1FFE702208DF869
:103BF0000F001AE00299012081F8BC03FFE7FFE7FC
:103C00009DF80700029981F83800029800689DF835
:103C1000071005F027FDFFE70299002081F8BC039B
:103C2000FFE700208DF80F00FFE79DF80F0004B0BC
:103C300080BD000080B582B001900199D1F80404E4
:103C400001F5717103F09AFF02B080BD80B584B0B8
:103C50000290029800680190FFE7029890F8BC0378
:103C6000012804D1FFE702208DF80F0027E0029918
:103C7000012081F8BC03FFE7FFE70298806A012872
:103C80000BD1FFE702988069012806D0FFE7019970
:103C9000886B40F480308863FFE70298006805F085
:103CA0001DFB0298006804F0E3FDFFE70299002085
:103CB00081F8BC03FFE700208DF80F00FFE79DF8B7
:103CC0000F0004B080BD000080B582B00190019863
:103CD000D0F8040403F0D4FF01980168D1F8000E75
:103CE00040F00100C1F8000E0198006A48B1FFE7FA
:103CF0004EF61051CEF20001086840F00600086050
:103D0000FFE702B080BD000080B584B00290019151
:103D1000029820B9FFE701208DF80F0021E10198FA
:103D200043F60041C4F20201096801F0070188422C
:103D300012D9FFE7019943F60040C4F20200017076
:103D4000006800F007000199884204D0FFE70120D5
:103D50008DF80F0005E1FFE7029800788007002842
:103D60002AD5FFE7029800784007002809D5FFE729
:103D700043F60801C4F20201086840F4E05008600C
:103D8000FFE7029800780007002809D5FFE743F60F
:103D90000801C4F20201086840F460400860FFE7CF
:103DA00043F60801C4F20201086820F0F000029A0C
:103DB000926810430860FFE702980078C007002867
:103DC0006ED0FFE702984068012811D1FFE743F663
:103DD0000000C4F20200006800F400310020B0EBE3
:103DE000514F04D1FFE701208DF80F00B9E02CE01E
:103DF00002984068022805D0FFE70298406803282F
:103E000011D1FFE743F60000C4F20200006800F0A1
:103E100000710020B0EB516F04D1FFE701208DF855
:103E20000F009EE010E043F60000C4F202000068BC
:103E300000F002010020B0EB510F04D1FFE7012098
:103E40008DF80F008DE0FFE7FFE743F60801C4F2AD
:103E50000201086820F00300029A526810430860CB
:103E6000FEF712FE0090FFE743F60800C4F20200DE
:103E7000006800F00C0002994968B0EB810F0ED089
:103E8000FFE7FEF701FE0099401A41F289318842AE
:103E900004D3FFE703208DF80F0062E0E4E7FFE7BB
:103EA000019843F60041C4F20201096801F00701DC
:103EB000884212D2FFE7019943F60040C4F20200A3
:103EC0000170006800F007000199884204D0FFE704
:103ED00001208DF80F0044E0FFE7029800784007CA
:103EE00000280CD5FFE743F60801C4F20201086878
:103EF00020F4E050029AD26810430860FFE702986D
:103F00000078000700280DD5FFE743F60801C4F24A
:103F10000201086820F46040029A126940EAC20077
:103F20000860FFE700F04CF843F60801C4F2020114
:103F30000968C9B20A094AF20C01C0F60001895C9D
:103F4000C84040F28001C2F20001086040F24850CF
:103F5000C2F200000068FEF7C7FD00208DF80F00D8
:103F6000FFE79DF80F0004B080BD000040F2800024
:103F7000C2F200000068704780B5FFF7F7FF43F614
:103F80000801C4F202010968C1F382224AF21C014D
:103F9000C0F60001895CC84080BD000080B5FFF715
:103FA000E5FF43F60801C4F20201096889B24A0B31
:103FB0004AF21C01C0F60001895CC84080BD0000C7
:103FC00080B586B00020059004900390029043F6DF
:103FD0000800C4F20200006800F00C0001460191E4
:103FE00040B1FFE7019804280AD0FFE701980828AC
:103FF0000CD04FE042F20040C0F2F40002904FE0DB
:1040000047F64000C0F27D10029049E043F60400FC
:10401000C4F20200016801F03F010591006840020E
:10402000002813D5FFE743F60400C4F2020000683D
:10403000C0F3881047F64001C0F27D11A0FB0101DA
:10404000059A0023FCF7C4F8049012E043F604003C
:10405000C4F202000068C0F3881042F20041C0F2CE
:10406000F401A0FB0101059A0023FCF7B1F80490CC
:10407000FFE743F60400C4F20200006800F4403198
:10408000022000EBD130039004980399B0FBF1F0CB
:10409000029005E042F20040C0F2F4000290FFE717
:1040A000029806B080BD000080B586B004900498E8
:1040B00020B9FFE701208DF8170050E3049800783D
:1040C000C007002800F0A580FFE743F60800C4F20F
:1040D0000200006800F00C00042813D0FFE743F64C
:1040E0000800C4F20200006800F00C0008281ED18D
:1040F000FFE743F60400C4F2020000684002002813
:1041000015D5FFE743F60000C4F20200006800F492
:1041100000310020B0EB514F08D0FFE70498406811
:1041200020B9FFE701208DF8170018E370E0FFE7E2
:1041300004984068B0F5803F09D1FFE743F60001DD
:10414000C4F20201086840F48030086020E004985E
:104150004068B0F5A02F0DD1FFE743F60001C4F28F
:104160000201086840F480200860086840F480304C
:1041700008600CE043F60001C4F20201086820F474
:1041800080300860086820F480200860FFE7FFE7BF
:10419000FFE704984068E8B1FFE7FEF775FC03907D
:1041A000FFE743F60000C4F20200006800F40031AB
:1041B0000020B0EB514F0CD1FFE7FEF765FC0399EF
:1041C000401A652804D3FFE703208DF81700C6E2E4
:1041D000E7E71CE0FEF758FC0390FFE743F600001A
:1041E000C4F20200006800F400310020B0EB514F2F
:1041F0000CD0FFE7FEF748FC0399401A652804D36A
:10420000FFE703208DF81700A9E2E7E7FFE7FFE7E4
:10421000FFE7049800788007002840F19680FFE7C8
:1042200043F60800C4F20200006810F00C0F13D02F
:10423000FFE743F60800C4F20200006800F00C003B
:1042400008282CD1FFE743F60400C4F202000068FE
:104250004002002823D4FFE743F60000C4F2020026
:10426000006800F002010020B0EB510F09D0FFE719
:104270000498C068012804D0FFE701208DF81700DA
:104280006DE243F60001C4F20201086820F0F80074
:10429000049A126940EAC2000860FFE754E00498FB
:1042A000C06870B3FFE70021C4F247210120086015
:1042B000FEF7EAFB0390FFE743F60000C4F20200BA
:1042C000006800F002010020B0EB510F0CD1FFE7B5
:1042D000FEF7DAFB0399401A032804D3FFE7032013
:1042E0008DF817003BE2E7E743F60001C4F2020154
:1042F000086820F0F800049A126940EAC2000860D9
:1043000021E00021C4F2472100200860FEF7BCFB39
:104310000390FFE743F60000C4F20200006800F0DB
:1043200002010020B0EB510F0CD0FFE7FEF7ACFB11
:104330000399401A032804D3FFE703208DF81700E0
:104340000DE2E7E7FFE7FFE7FFE7049800780007E3
:1043500000284BD5FFE70498406918B3FFE740F603
:104360008061C4F2472101200860FEF78DFB0390B5
:10437000FFE743F67400C4F20200006800F0020197
:104380000020B0EB510F0CD1FFE7FEF77DFB039946
:10439000401A032804D3FFE703208DF81700DEE15D
:1043A000E7E722E040F68061C4F247210020086080
:1043B000FEF76AFB0390FFE743F67400C4F20200C5
:1043C000006800F002010020B0EB510F0CD0FFE7B5
:1043D000FEF75AFB0399401A032804D3FFE7032092
:1043E0008DF81700BBE1E7E7FFE7FFE704980078E7
:1043F0004007002840F1CE80FFE700208DF807003D
:1044000043F64000C4F202000068C000002815D442
:10441000FFE7FFE70020009043F64000C4F20200EF
:10442000016841F080510160006800F08050009008
:104430000098FFE701208DF80700FFE747F2000032
:10444000C4F200000068C005002822D4FFE747F24C
:104450000001C4F20001086840F480700860FEF7B3
:1044600013FB0390FFE747F20000C4F2000000686E
:10447000C00500280CD4FFE7FEF706FB0399401A9D
:10448000032804D3FFE703208DF8170067E1EAE76C
:10449000FFE7FFE704988068012809D1FFE743F6AA
:1044A0007001C4F20201086840F0010008601FE0DA
:1044B0000498806805280DD1FFE743F67001C4F227
:1044C0000201086840F004000860086840F001003C
:1044D00008600CE043F67001C4F20201086820F0A5
:1044E00001000860086820F004000860FFE7FFE7AB
:1044F000FFE704988068F8B1FFE7FEF7C5FA03907C
:10450000FFE743F67000C4F20200006800F0020109
:104510000020B0EB510F0ED1FFE7FEF7B5FA03997B
:10452000401A41F28931884204D3FFE703208DF815
:10453000170014E1E5E71EE0FEF7A6FA0390FFE797
:1045400043F67000C4F20200006800F0020100208F
:10455000B0EB510F0ED0FFE7FEF796FA0399401A21
:1045600041F28931884204D3FFE703208DF8170018
:10457000F5E0E5E7FFE79DF80700012809D1FFE72F
:1045800043F64001C4F20201086820F08050086040
:10459000FFE7FFE704988069002800F0DC80FFE770
:1045A00043F60800C4F20200006800F00C0008287E
:1045B00000F08580FFE70498806902285CD1FFE75E
:1045C0006021C4F2472100200860FEF75DFA0390E5
:1045D000FFE743F60000C4F20200006800F000713B
:1045E0000020B0EB516F0CD0FFE7FEF74DFA0399B6
:1045F000401A032804D3FFE703208DF81700AEE02C
:10460000E7E70499C869D1F820C04B6A8A6A40EA92
:104610000C0040EA8310D2034FF6FF739A43A2F5D1
:1046200080321043C96A40EA016043F60401C4F2D3
:10463000020108606021C4F2472101200860FEF7F2
:1046400023FA0390FFE743F60000C4F2020000687B
:1046500000F000710020B0EB516F0CD1FFE7FEF7C6
:1046600013FA0399401A032804D3FFE703208DF8B7
:10467000170074E0E7E721E06021C4F24721002041
:104680000860FEF701FA0390FFE743F60000C4F26A
:104690000200006800F000710020B0EB516F0CD0F8
:1046A000FFE7FEF7F1F90399401A032804D3FFE767
:1046B00003208DF8170052E0E7E7FFE74AE004988F
:1046C0008069012804D1FFE701208DF8170046E03A
:1046D00043F60400C4F20200006802900498806966
:1046E000012831D0FFE7029800F480000499C969DD
:1046F000884229D1FFE7029800F03F000499096A37
:10470000884221D1FFE7029847F6C071084004991A
:10471000496AB0EB811F17D1FFE7029800F44030DF
:104720000499896AC9034FF6FF729143A1F580315C
:10473000884209D1FFE7029800F070600499C96AC5
:10474000B0EB016F04D0FFE701208DF8170006E001
:10475000FFE7FFE7FFE700208DF81700FFE79DF870
:10476000170006B080BD000080B582B001900198AE
:1047700001F0CAFB02B080BD81B0009001B070476B
:1047800081B0009001B0704785B003900291FFE7BF
:10479000039890F83C00012804D1FFE702208DF82F
:1047A00013006CE00399012081F83C00FFE7FFE76C
:1047B0000399022081F83D00039800684068019049
:1047C0000398006880680090019820F070000190C4
:1047D00002980168019808430190019803990968BB
:1047E0004860039800680021C4F2010188422AD081
:1047F000FFE703980068B0F1804F24D0FFE70398EB
:10480000006840F20041C4F2000188421BD0FFE77B
:104810000398006840F60001C4F20001884212D0FB
:10482000FFE70398006840F60041C4F200018842A7
:1048300009D0FFE70398006844F20001C4F20101C7
:1048400088420ED1FFE7009820F080000090029887
:1048500041680098084300900098039909688860AF
:10486000FFE70399012081F83D00FFE7039900204D
:1048700081F83C00FFE700208DF81300FFE79DF86A
:10488000130005B07047000080B582B0009000981A
:1048900020B9FFE701208DF807003FE0009890F86D
:1048A0003D0040B9FFE70099002081F83C000098E6
:1048B00000F038F8FFE70099022081F83D000099E8
:1048C00051F8040B01F0BEFB0099012081F846006D
:1048D000FFE70099012081F83E00009981F83F0030
:1048E000009981F84000009981F84100FFE7FFE757
:1048F0000099012081F84200009981F84300009955
:1049000081F84400009981F84500FFE700990120F3
:1049100081F83D0000208DF80700FFE79DF80700B3
:1049200002B080BD80B584B003900398006840F267
:104930000041C4F2000188421BD1FFE7FFE70020DD
:10494000029043F64000C4F20200016841F0020107
:104950000160006800F0020002900298FFE71D204D
:10496000019000221146FEF727F90198FEF71AF987
:10497000FFE704B080BD000083B00190019890F87B
:104980003D00012804D0FFE701208DF80B0058E01E
:104990000199022081F83D0001980168C86840F043
:1049A0000100C860019800680021C4F2010188423A
:1049B0002AD0FFE701980068B0F1804F24D0FFE7CC
:1049C0000198006840F20041C4F2000188421BD007
:1049D000FFE70198006840F60001C4F20001884238
:1049E00012D0FFE70198006840F60041C4F20001D0
:1049F000884209D0FFE70198006844F20001C4F240
:104A00000101884212D1FFE701980068806800F038
:104A1000070000900098062807D0FFE7019801687A
:104A2000086840F001000860FFE706E001980168AF
:104A3000086840F001000860FFE700208DF80B00D7
:104A4000FFE79DF80B0003B07047000080B586B00B
:104A50000490039100208DF80B00FFE7049890F874
:104A60003C00012804D1FFE702208DF81700ABE0DD
:104A70000499012081F83C00FFE7FFE70499022038
:104A800081F83D000498006880680190019820F04A
:104A900077000190019820F47F40019001980499DB
:104AA00009688860039800680090002872D0FFE7CA
:104AB000009810286ED0FFE7009820286AD0FFE702
:104AC0000098302866D0FFE70098402855D0FFE7CF
:104AD0000098502837D0FFE70098602840D0FFE7C3
:104AE000009870280BD0FFE70098B0F5805F05D0E4
:104AF000FFE70098B0F5005F16D052E055E004984B
:104B00000068039B5A689968DB6801F039FB0498D8
:104B1000006880680190019840F07700019001984A
:104B200004990968886040E004980068039B5A680B
:104B30009968DB6801F024FB04980168886840F4F8
:104B40008040886031E004980068039A5168D26818
:104B500001F046FB04980068502101F02BFB24E093
:104B600004980068039A5168D26801F061FB0498C8
:104B70000068602101F01EFB17E004980068039AAA
:104B80005168D26801F02CFB04980068402101F0C4
:104B900011FB0AE0049800680399096801F00AFB18
:104BA00003E001208DF80B00FFE70499012081F854
:104BB0003D00FFE70499002081F83C00FFE79DF8E5
:104BC0000B008DF81700FFE79DF8170006B080BDB9
:104BD00081B0009001B0704780B582B0019001981B
:104BE0000068006900F002010020B0EB510F28D0EE
:104BF000FFE701980068C06800F002010020B0EBF8
:104C0000510F1DD0FFE7019801686FF002000861A5
:104C1000019901200877019800688069800720B118
:104C2000FFE70198FFF7D4FF06E0019800F012F9C2
:104C3000019800F013F9FFE7019900200877FFE7DA
:104C4000FFE701980068006900F004010020B0EB64
:104C5000910F29D0FFE701980068C06800F00401B7
:104C60000020B0EB910F1ED0FFE7019801686FF0B4
:104C700004000861019902200877019800688069A2
:104C800010F4407F04D0FFE70198FFF7A1FF06E092
:104C9000019800F0DFF8019800F0E0F8FFE70199D3
:104CA00000200877FFE7FFE701980068006900F03F
:104CB00008010020B0EBD10F28D0FFE70198006871
:104CC000C06800F008010020B0EBD10F1DD0FFE755
:104CD000019801686FF008000861019904200877C5
:104CE00001980068C069800720B1FFE70198FFF7CD
:104CF0006FFF06E0019800F0ADF8019800F0AEF803
:104D0000FFE7019900200877FFE7FFE701980068B7
:104D1000006900F010010020B0EB111F29D0FFE75F
:104D200001980068C06800F010010020B0EB111F6E
:104D30001ED0FFE7019801686FF01000086101992B
:104D40000820087701980068C06910F4407F04D0FB
:104D5000FFE70198FFF73CFF06E0019800F07AF8C2
:104D6000019800F07BF8FFE7019900200877FFE742
:104D7000FFE7019800680069C00780B1FFE701986C
:104D80000068C068C00748B1FFE7019801686FF08C
:104D900001000861019800F065F8FFE7FFE701985E
:104DA00000680069C1B20020B0EBD11F13D0FFE74B
:104DB00001980068C068C1B20020B0EBD11F09D0D3
:104DC000FFE7019801686FF0800008610198FFF724
:104DD000D3FCFFE7FFE701980068006900F040019D
:104DE0000020B0EB911F14D0FFE701980068C06865
:104DF00000F040010020B0EB911F09D0FFE70198BF
:104E000001686FF040000861019800F059F8FFE771
:104E1000FFE701980068006900F020010020B0EB76
:104E2000511F14D0FFE701980068C06800F020010E
:104E30000020B0EB511F09D0FFE7019801686FF027
:104E4000200008610198FFF79BFCFFE7FFE702B035
:104E500080BD000081B0009001B0704781B000902B
:104E600001B0704780B582B00190019840F6A8610A
:104E7000C2F20001884220D1FFE740F6B470C2F2CE
:104E800000000068B0F57A7F07D1FFE740F6B47103
:104E9000C2F2000100200860FFE740F6B471C2F2E0
:104EA0000001086801300860FCF798FF40F6A86030
:104EB000C2F20000FFF760FDFFE702B080BD000016
:104EC00081B0009001B0704782B00190ADF802103F
:104ED00002B0704781B0009001B0704780B592B0C9
:104EE0001190119800680068109011980068C068CF
:104EF0000F901198006840690E9000200D900C9062
:104F0000109800F00F000D900D9888B9FFE79DF8FC
:104F10004000800600280AD5FFE79DF83C00800687
:104F2000002804D5FFE7119801F01AFAE3E1FFE742
:104F30000D98002800F0C280FFE79DF83800C007F8
:104F400038B9FFE7BDF83C0010F4907F00F0B68060
:104F5000FFE79DF84000C00758B1FFE79DF83D000E
:104F6000C00730B1FFE71199086C40F001000864F8
:104F7000FFE79DF84000400700280BD5FFE79DF8AC
:104F80003800C00730B1FFE71199086C40F002000B
:104F90000864FFE79DF84000800700280BD5FFE775
:104FA0009DF83800C00730B1FFE71199086C40F058
:104FB00004000864FFE79DF840000007002811D5B1
:104FC000FFE79DF83C008006002805D4FFE79DF828
:104FD0003800C00730B1FFE71199086C40F00800B5
:104FE0000864FFE71198006C002866D0FFE79DF881
:104FF0004000800600280AD5FFE79DF83C008006A7
:10500000002804D5FFE7119801F0AAF9FFE71198ED
:1050100000684069C0F380100C901198006C000784
:10502000002804D4FFE70C9800283ED0FFE7119831
:1050300001F038F9119800684069400600282FD522
:10504000FFE7FFE7FFE71198006850E8050F20F041
:1050500040000B90FFE70B991198026842E8051099
:105060000028F0D1FFE7FFE71198806B98B1FFE7C8
:105070001198816B46F28520C0F6000008651198F2
:10508000806BFDF7C9F928B1FFE71198806B016DBE
:105090008847FFE703E01198FFF71CFFFFE703E0F5
:1050A0001198FFF717FFFFE706E01198FFF712FFCF
:1050B000119900200864FFE7FFE71CE11198006BDD
:1050C000012840F0F880FFE79DF84000C006002866
:1050D00040F1F180FFE79DF83C00C006002840F158
:1050E000EA80FFE7FFE700200A9011980068006857
:1050F0000A901198006840680A900A98FFE7119892
:1051000000684069400600287ED5FFE71198806B53
:1051100000684068ADF82600BDF82600002872D06F
:10512000FFE7BDF826001199898D88426BDAFFE709
:10513000BDF826001199C8851198806BC069B0F53B
:10514000807F58D0FFE7FFE7FFE71198006850E83D
:10515000030F20F480700890FFE708991198026807
:1051600042E803100028F0D1FFE7FFE7FFE7FFE781
:105170001198006850E8050F20F001000790FFE744
:1051800007991198026842E805100028F0D1FFE75E
:10519000FFE7FFE7FFE71198006850E8050F20F0F0
:1051A00040000690FFE706991198026842E8051052
:1051B0000028F0D1FFE7FFE71199202081F83E0099
:1051C000119900200863FFE7FFE71198006850E895
:1051D000030F20F010000590FFE705991198026871
:1051E00042E803100028F0D1FFE7FFE71198806B39
:1051F000FDF79CF8FFE71198818DC28D891A89B25D
:10520000FFF762FEFFE776E01199888DC98D401A9D
:10521000ADF812001198C08D00284BD0FFE7BDF803
:105220001200002846D0FFE7FFE7FFE7119800686B
:1052300050E8030F20F490700390FFE70399119852
:10524000026842E803100028F0D1FFE7FFE7FFE71C
:10525000FFE71198006850E8050F20F00100029068
:10526000FFE702991198026842E805100028F0D182
:10527000FFE7FFE71199202081F83E0011990020F7
:105280000863FFE7FFE71198006850E8030F20F07C
:1052900010000190FFE701991198026842E803109D
:1052A0000028F0D1FFE7FFE71198BDF81210FFF7D3
:1052B0000BFEFFE71FE09DF84000000600280AD51E
:1052C000FFE79DF83C000006002804D5FFE7119891
:1052D00001F0C8F90FE09DF84000400600280AD50B
:1052E000FFE79DF83C004006002804D5FFE7119831
:1052F00001F022F8FFE712B080BD000080B582B057
:105300000090009820B9FFE701208DF807003EE0EB
:105310000098806908B1FFE700E0FFE7009890F887
:105320003D0040B9FFE70099002081F83C0000985B
:1053300000F032F8FFE70099242081F83D00009842
:105340000168C86820F40050C860009801F0BAF8FD
:1053500000980168086920F490400861009801688D
:10536000486920F02A00486100980168C86840F444
:105370000050C860009900200864009A202182F83B
:105380003D10009A82F83E108DF80700FFE79DF867
:10539000070002B080BD000080B58EB00D900020E7
:1053A0000C900B900A90099008900D98006841F2BB
:1053B0000001C4F2010188423ED1FFE7FFE700206F
:1053C000079043F64400C4F20200016841F0100166
:1053D0000160006800F0100007900798FFE7FFE702
:1053E0000020069043F63000C4F20200016841F04C
:1053F00001010160006800F0010006900698FFE7D7
:105400004FF4C060089002200990002002900A909A
:1054100003200B9007200C900020C4F2020008A982
:10542000FDF768F9029A252003901146FDF7C4FBA9
:105430000398FDF7B7FB46E00D98006844F2004181
:10544000C4F2000188423DD1FFE7FFE7002005904C
:1054500043F64000C4F20200016841F400310160EB
:10546000006800F4003005900598FFE7FFE7002092
:10547000049043F63000C4F20200016841F00101DB
:105480000160006800F0010004900498FFE70C2020
:10549000089002200990002000900A9003200B90B1
:1054A00007200C900020C4F2020008A9FDF722F9A1
:1054B000009A262001901146FDF77EFB0198FDF72A
:1054C00071FBFFE7FFE70EB080BD000080B584B040
:1054D00002900191ADF80220029890F83E00202839
:1054E00028D1FFE7019820B1FFE7BDF8020020B9FD
:1054F000FFE701208DF80F0020E0FFE7029890F809
:105500003C00012804D1FFE702208DF80F0015E0D0
:105510000299012081F83C00FFE7FFE70299002093
:10552000086302980199BDF8022001F069F88DF82E
:105530000F0003E002208DF80F00FFE79DF80F0039
:1055400004B080BD80B582B00190019840F6F06152
:10555000C2F20001884211D1FFE740F6A070C2F20A
:10556000000000900078FCF739FA009940F6F060EE
:10557000C2F200000122FFF7A9FFFFE702B080BDE1
:1055800080B58AB008900791ADF81A2005930020E5
:105590000290089890F83D00202840F09080FFE7A6
:1055A000079820B1FFE7BDF81A0020B9FFE70120F6
:1055B0008DF8270087E0FFE7089890F83C00012865
:1055C00004D1FFE702208DF827007CE00899012034
:1055D00081F83C00FFE7FFE708990020086408997C
:1055E000212081F83D00FDF74FFA0290BDF81A0026
:1055F00008998884BDF81A000899C88408988068BA
:10560000B0F5805F09D1FFE70898006928B9FFE786
:10561000002004900798039004E00798049000206D
:105620000390FFE7FFE70899002081F83C00FFE7BF
:10563000FFE70898C08C58B3FFE70898029B0599CC
:105640006A4611608021002201F056F820B1FFE780
:1056500003208DF8270036E0049858B9FFE7039837
:1056600000886FF35F20089909684860039802304A
:10567000039008E004980078089909684860049845
:1056800001300490FFE70899C88C0138C884D0E73E
:105690000898029B05996A4611604021002201F09A
:1056A0002BF820B1FFE703208DF827000BE00899C5
:1056B000202081F83D0000208DF8270003E0022023
:1056C0008DF82700FFE79DF827000AB080BD000095
:1056D00081B0009001B0704780B500F0ABFB40F2A4
:1056E0008800C2F20000016840F67870C2F2000043
:1056F00004F002FC80BD000080B500F087FB80BD97
:10570000FFE7FEE783B0029001918DF803200020AF
:105710008DF802008DF80200FFE79DF802009DF869
:105720000310884229DAFFE70298000F092809D8F8
:10573000FFE70298000F303001999DF8022001F830
:10574000120009E00299372000EB117001999DF8D1
:10575000022001F81200FFE7029800010290019870
:105760009DF8021000EB410100204870FFE79DF812
:10577000020001308DF80200CFE703B0704700004F
:1057800080B58CB000200B900A900990089007908B
:10579000FFE70020069043F63000C4F202000168E3
:1057A00041F004010160006800F0040006900698D2
:1057B000FFE7FFE70020059043F63000C4F2020047
:1057C000016841F080010160006800F080000590F0
:1057D0000598FFE7FFE70020049043F63000C4F28D
:1057E0000200016841F001010160006800F0010061
:1057F00004900498FFE740F60000C4F20200039012
:105800004FF40051019101220292FDF725F9019A0E
:1058100002990398079208910021099102210A91A7
:1058200007A9FCF767FF0CB080BD000080B588B009
:105830000021019107910691059104910391029134
:1058400040F6A860C2F2000040F20042C4F200023A
:10585000026041F26F72426081600922C2600161A0
:105860008161FFF711F818B1FFE7FCF72FFBFFE7A5
:105870004FF48050049040F6A860C2F2000004A9E2
:10588000FFF7E4F818B1FFE7FCF720FBFFE7002083
:105890000290039040F6A860C2F2000002A9FEF751
:1058A00073FF18B1FFE7FCF711FBFFE708B080BDFD
:1058B00080B582B040F6F060C2F20000019041F283
:1058C0000001C4F2010101604FF4E13141600021A7
:1058D0008160C16001610C2242618161C161FFF799
:1058E0000DFD18B1FFE7FCF7F1FAFFE702B080BD4C
:1058F00080B582B040F63470C2F20000019044F2EC
:105900000041C4F2000101604FF4165141600021D2
:105910008160C16001610C2242618161C161FFF758
:10592000EDFC18B1FFE7FCF7D1FAFFE702B080BD4C
:1059300080B540F2D070C2F2000040F26401C2F2C1
:105940000001002201F0A8FD18B1FFE7FCF7BEFA44
:10595000FFE740F2D070C2F2000040F28C01C2F2C8
:10596000000102F0F1F918B1FFE7FCF7AFFAFFE729
:1059700040F2D070C2F2000040F26011C2F20001A9
:1059800001F064F818B1FFE7FCF7A0FAFFE740F276
:10599000D070C2F2000002F03BFB18B1FFE7FCF749
:1059A00095FAFFE780BD0000FFE7FEE7FFE7FEE7AF
:1059B00088B0079006910592079800F007000490C0
:1059C0000498C0F10700052803D3FFE704200190E5
:1059D00004E00498C0F107000190FFE701980390EC
:1059E00004980430062803D8FFE70020009003E065
:1059F000049803380090FFE70098029006980399F6
:105A0000012202FA01F101390840029B98400599F0
:105A10009A40013A1140084308B0704780B540F6FB
:105A2000A020C2F20000FDF7ABFB80BD80B586B0C0
:105A300005900491059800680390039802900398DC
:105A4000006C01900298049900EB4110D0F8080B0B
:105A50000090019843F20B01C4F6547188420FD3B1
:105A6000FFE79DF801000006002809D5FFE702982E
:105A7000049900EB41114FF40040C1F8080BFFE717
:105A80000598FEF7D7F8019843F20B01C4F654715C
:105A900088420DD3FFE705980069012808D1FFE788
:105AA0000599086801F57172012103F071F9FFE7AA
:105AB000002006B080BD000080B586B0059004913E
:105AC000059800680390039802900398006C019079
:105AD0000298049900EB4110D0F8080B009005984B
