:020000040800F2
:10000000C01F0020AD01000845380008CD370008AA
:100010004138000839030008D156000800000000EC
:100020000000000000000000000000009D380008F3
:10003000590300080000000059380008D9380008AA
:10004000C7010008C7010008C7010008C701000870
:10005000C7010008C7010008C7010008C701000860
:10006000C7010008C7010008C7010008C701000850
:10007000C7010008C7010008C7010008C701000840
:10008000C7010008C7010008C70100080000000000
:10009000000000000000000000000000C701000890
:1000A000C7010008C7010008C7010008C701000810
:1000B000C7010008A1390008C7010008C7010008EE
:1000C000C7010008C7010008C7010008C7010008F0
:1000D000C7010008413C0008513C00080000000036
:1000E000C7010008C7010008C701000800000000A0
:1000F000000000000000000000000000C701000830
:1001000000000000C7010008C7010008C70100087F
:1001100000000000000000000000000000000000DF
:10012000C7010008C7010008C7010008C70100088F
:10013000C7010008000000000000000000000000EF
:100140000000000000000000000000004938000826
:10015000C7010008C7010008C7010008C70100085F
:10016000C7010008C70100080000000000000000EF
:10017000000000000000000000000000000000007F
:1001800000000000C701000800000000000000009F
:10019000C7010008C7010008DFF80CD000F08EF896
:1001A0000048004751580008C01F002006488047FB
:1001B00006480047FEE7FEE7FEE7FEE7FEE7FEE74C
:1001C000FEE7FEE7FEE7FEE78D390008990100082B
:1001D0002DE9F05F0546002092469B46884606467C
:1001E000814640241BE0284641464746224600F00F
:1001F00054F853465A46C01A914110D31146184636
:10020000224600F03BF82D1A67EB01084F462246C4
:100210000120002100F032F817EB00094E41201EAA
:10022000A4F10104DFDC484631462A464346BDE8D6
:10023000F09F00000649074A0868504343F239021C
:10024000104408604008704701490860704700008A
:10025000000000206D4EC641D2B201E000F8012B33
:10026000491EFBD270470022F6E710B513460A4636
:1002700004461946FFF7F0FF204610BD202A04DB94
:10028000203A00FA02F1002070479140C2F12003A9
:1002900020FA03F3194390407047202A04DB203AE8
:1002A00021FA02F00021704721FA02F3D040C2F196
:1002B000200291400843194670470000064C074D44
:1002C00006E0E06840F0010394E807009847103426
:1002D000AC42F6D3FFF764FF7C5B00089C5B000830
:1002E00070B58C1810F8015B15F0070301D110F8F8
:1002F000013B2A1106D110F8012B03E010F8016B25
:1003000001F8016B5B1EF9D12B0705D40023521EA7
:100310000DD401F8013BFAE710F8013BCB1A921C0F
:1003200003E013F8015B01F8015B521EF9D5A1420D
:10033000D8D3002070BD0000FEE700000020704709
:100340000020704780B540F2C870C2F2000003F090
:100350001DFD002080BD00007047000070470000B8
:1003600040F2BE70C2F200000078B0FA80F040099E
:100370007047000080B580B205F0BCF980BD000078
:1003800040F2A010C2F2000090F8AC2190F8A71142
:100390003AB131B940F6BC72C2F200021268012AC9
:1003A00004D80122C1FA52F180F8A71140F2BE70C0
:1003B000C2F20000072101707047000080B505F00F
:1003C00011FA80BD80B505F019FA80BD2DE9F04124
:1003D00040F2A018C2F2000898F8000098F8011046
:1003E000FF2808BFFF291ED001F07F0140EA012647
:1003F0000020002500F06EFF00204146324600F04C
:100400005DFF40F29D30FFF7B5FF06464FF4677081
:10041000FFF7B0FF40EA06200130A8F8B10180B232
:10042000FFF712FF14E040F29D30FFF7A3FF0546EF
:100430004FF46770FFF79EFF40EA05200130A8F8EF
:10044000B10180B2FFF700FF0120012500F042FF5B
:1004500008F2B1114FF46770022200F02FFF284616
:1004600000F034FF40464FF46771FFF7FCFE0020B8
:100470006FF0FF01FF2200BF08230825082838BFBE
:1004800003464FEA431688BF054601EB4515FF2E8C
:100490004FF0FF06B8BF5E01FF2D08EB400300F1EF
:1004A0000100A8BF154610281E755D75E4D1A8F19E
:1004B0000200102118224FF48063FF26C1F11805B5
:1004C0008A424FF0180738BF00256C01182988BFF1
:1004D0000F46A3EB4717FF2C4FF0FF0438BF6C010A
:1004E000FF2F01F10101A8BF374680F8364080F8A0
:1004F0003770202900F10200E0D1022088F8A7011E
:1005000040F29E30FFF736FF40F2BC71C2F20001AC
:1005100008700120FFF72EFF80F0800040F2BD71CF
:10052000C009C2F200010870BDE8F08170B540F664
:100530009C70C2F200000221016000200025FFF73C
:1005400019FF044601200126FFF714FF44EA0020AA
:100550004FF6FF71411A6FF3DF3008BF084640F6CF
:10056000A071C2F20001086040F6BC70C2F2000047
:10057000056040F2BE70C2F20000057040F6B47033
:10058000C2F20000056040F6AA70C2F200000580C9
:1005900040F2A015C2F2000505F15A0040F24231C6
:1005A000FFF761FE40F29D3085F8AC61FFF7E2FE97
:1005B00004464FF46770FFF7DDFE40EA0420A5F81B
:1005C000B10140F2BC70C2F200000078002808BF00
:1005D000FFF7F8FE70BD000010B540F2A014C2F2A3
:1005E0000004002084F8AC0140F6B470C2F20000B0
:1005F000006840F6B071C2F20001086005F0F4F93D
:10060000022084F8A701FFF7D9FE10BD2DE9F04FB5
:1006100081B040F2A015C2F2000595F8AC010028A7
:1006200000F0C48440F6BC7640F6AA7740F69C748D
:1006300040F6B478C2F20006C2F20007C2F200042B
:100640004FF001094FF0020BC2F2000809E095F8E3
:10065000B01109B1BBE1206095F8AC01002800F0B1
:10066000A5843068002840F0A184FFF777FE4FF0A2
:10067000000A0AE08020802105F0C6F985F8A7B1BC
:100680000AF1010ABAF1220F22D005EB0A0090F814
:100690005A100029F4D001390A0680F85A10EFD117
:1006A000BAF1210FE6D0BAF1200F04D180208021C9
:1006B00005F0A6F9E2E75FEACA6005D409FA0AF094
:1006C00080B205F08DF9D9E7082005F091F9D5E75A
:1006D0003888002840F06D8440F6A071C2F2000115
:1006E00020680968884280F06A84411CA5F8A2014C
:1006F0002160FFF73FFE216885F89D01481C2060BE
:100700000846FFF737FE95F89D1185F89C010A060B
:1007100020D4C1F3C302062A9ED840B2DFE812F00B
:10072000070075008800E8000F013C014A014807F6
:100730007FF592AFB5F89C01B0460646BA468907E8
:100740006FF35F2600F1D681C0B200F04DFC300A95
:10075000D5E100BF48060DD44808C1F34401C206E4
:1007600085F89F111BD409FA01F080B205F034F925
:1007700019E000BFC1F3401000F1200285F89F216D
:1007800001F01F0205EB420185F8A0010028087D59
:10079000497D85F8A12118D105F032F917E000F064
:1007A0000F0005F025F995F8A801A5F8A7B185F87F
:1007B000A90198B995F89D1195F89C01C90740F0D9
:1007C0000F8100EB800040000EE005F01DF995F868
:1007D000A801A5F8A7B185F8A90160B1B5F8AA01EB
:1007E00005EB4000B0F98200306095F89F01284485
:1007F00080F85A9030E795F89C01010600F1FB80E3
:1008000000F07F0032214843EEE795F8A80185F813
:10081000A90100284FF0000085F8A80100F04981E7
:10082000B5F8AA0105EB4000B0F98200306013E78B
:1008300095F8A60150B100EB400105EB8101B1F83C
:100840001E11B5F8A22191423FF406AF0130C1B2AA
:10085000490085F8A60151FA80F005F59171B4467A
:1008600001EB8000002640F80C6C95F8A60195F885
:10087000A83100EB400001EB8000B5F89C11B5F801
:10088000A2216FF3DF21002B20F8042C20F8021C9A
:1008900085F8A93185F8A86100F0FB80B5F8AA11A8
:1008A00005EB410191F8822012F00F0285F8AD218D
:1008B0001EBF0C3802F10042026091F8820000096C
:1008C00085F8AE0100F0E580E91C95F8A62101EB62
:1008D0004000B0F97F0002EB420201EB8201C1F857
:1008E0001701B1F81D0185F8A891A5F8AAB1DDE0BE
:1008F00048070ED52068411C2160FFF73BFD2168A9
:1009000085F89B01481C20600846FFF733FD85F8F9
:100910009A0195F8A80185F8A90100284FF0000078
:1009200085F8A80100F0CD80B5F8AA01002800F0F4
:100930001881012840F0308295F8A60145E24A0767
:100940005ED4C1B24A09072A00F07E81012A00F074
:100950009081002A7FF480AEC90604D595F8B011C5
:1009600000293FF479AE95F8A61100F00F0085F844
:10097000AF01081AC1B2490051FA80F105EB8101BB
:1009800085F8A6010122B1F8200185F8A8214FF0D1
:100990000109A5F8AA215EE64A074ED4B5F89C11D4
:1009A000C1F3C211002985F8AD1100F0EE8040F3CB
:1009B000060017E1B5F89C0140F2FE3202EA400061
:1009C000C1F34101DFE801F0030206A43FE62188FC
:1009D000084440E695F8B01100297FF43DAEF6E7F3
:1009E00040B2002800F07F0000F17E8032214843B1
:1009F00038803160F9E695F89F1100F07F0075E0CE
:100A0000C0F3C20300F0070285F8AD3185F8AE21CE
:100A100001F00301B646BC46DFE811F004004501D1
:100A20004F015B0105F1820131F8133031F81210EA
:100A3000591AB1FA81F1490956E101F00602042A76
:100A400040F07480B5F89C21C2F3821085F8AF01A4
:100A5000C2F3C20002F00701002885F8AD0185F855
:100A6000AE113FF4F9AD05EB41019309B1F88210E5
:100A700003F00703B6460AB2DFE813F00800BA0134
:100A8000C001C601CD01D601DC01E20105EB400049
:100A9000DBE195F8A601002100EB400005EB8000AA
:100AA000B0F8200185F8A891A5F8AA112060664643
:100AB000D2E5480700F1A380B5F89C016FF39F20B1
:100AC000B3E095F8A6016FF00B0100EB400001EBDD
:100AD00080002844D0F82211B1F1FF3F40F3AA80F2
:100AE0000131C0F8221157E195F89F11294481F88E
:100AF0005A00B1E5A85D2E4400F076FA707800F057
:100B000073FA464640F6B4785746C2F20008A3E5A9
:100B100095F8A5110131CAB285F8A511216805EB38
:100B2000420210FA81F0A2F8B21094E501F0070138
:100B3000062940F0EE80C0F3021100F00F020029F8
:100B400085F8AD1185F8AF213FF486AD05EB410383
:100B5000B3F88230002846BF18B2104103FA02F001
:100B600040E095F89D01400700F10A8195F8A60143
:100B7000B5F89C1100EB400005EB80006FF39F215E
:100B8000002908BF4FF0004104E140063FF564AD85
:100B90002068411C2160FFF7EDFB216885F89B016F
:100BA000481C20600846FFF7E5FB95F89C2185F876
:100BB0009A01C2F3C20012F0070185F8AF0185F86F
:100BC000AD113FF449ADD208D5F89A0102F0070201
:100BD000DFE812F008000D00B001B901C401DA012C
:100BE000E301D10105EB4101A1F8820034E505EBF9
:100BF0004101B1F882201044A1F882002CE5880759
:100C000000F1EB802068411C2160FFF7B3FB2168F5
:100C100085F89B01481C20600846FFF7ABFB85F870
:100C20009A01D5F89A0120F07E4000EB8000400048
:100C3000306011E501F00F0005EB4000B0F88210C4
:100C40000131A0F88210A7E0C80604D595F8B001DC
:100C500000283FF401AD95F8A501002800F0C480FC
:100C600005EB4001B1F8E4100138216085F8A501D9
:100C7000F2E4C90604D595F8B01100293FF4ECACB4
:100C800095F8A61100F00F0085F8AF01081AC1B25F
:100C9000490051FA80F105EB8101B1F8201185F886
:100CA000A6012160D8E405F1820131F8133031F852
:100CB0001210591A18BF012116E005F1820131F90D
:100CC000133031F912108B424FF00001B8BF0121EF
:100CD0000AE005F1820131F9133031F912108B422B
:100CE0004FF00001D8BF012195F8B02185F8AF1170
:100CF0001346002A18BF0123C0B285F8B03180091D
:100D000076466746DFE800F002222B3385F8B01103
:100D1000A2E400F00701C0F3C3000238072885F8F9
:100D2000AD113FF699ACDFE800F00595A1B204C51E
:100D3000CBD991E400293FF48FAC05EB4100B0F82A
:100D400082104942A0F88210FFF786BC002A18BF23
:100D5000012201EA020085F8B001FFF77DBC52EAEA
:100D6000010018BF012085F8B001FFF775BC002A0B
:100D700018BF012281EA020085F8B001FFF76CBCC0
:100D800095F8A601D5F89A1100EB400005EB80001C
:100D900021F07C41C0F81A1195F8A60100EB400142
:100DA00005EB8102D2F81611B1F1FF3F05DC01F02D
:100DB0000F0105EB4101B1F9821002F58B72536806
:100DC000B3F1004F06D0994204DB013885F8A60143
:100DD000FFF742BC1089FFF73EBCB5F89C016FF3EA
:100DE0005F203060FFF738BCFFF7F6FBFFF734BC3D
:100DF00005EB4000B0F88220114426E005EB4000EE
:100E0000B0F88220514320E005EB4000B0F9821099
:100E100091FBF2F119E005EB4000B0F9821091FB73
:100E2000F2F303FB121110E005EB4000B0F8822052
:100E300011400AE005EB4000B0F88220114304E0C5
:100E400005EB4000B0F882205140A0F882107646B1
:100E5000FFF702BC00293FF4FFAB05EB4100B0F8FF
:100E60008210C943A0F88210FFF7F6BB95F8A401E1
:100E7000EA1C013002EB410185F8A401B1F87F10B2
:100E8000C0B202EB4000A0F8AF10FFF7E5BB0029AD
:100E90003FF4E2AB95F8A401EA1C02EB4003B3F87F
:100EA000AF3002EB41010138A1F87F3085F8A40191
:100EB000FFF7D2BB85F8A891A5F8AA11FFF7CCBB24
:100EC00000293FF4C9AB05EB4100B0F882100029BE
:100ED00018BF0121A0F88210FFF7BEBB00293FF424
:100EE000BBABB5F8B101A8B9D8F8000005F2B11A4A
:100EF000A5F8B101012000F0EDF94FF467705146FB
:100F0000022200F0DBF9012000F0E0F9B5F8B101B0
:100F1000FFF79AF9FFF78EF995F8AD1105EB41014E
:100F2000B1F9822090FBF2F303FB1200A1F88200DA
:100F3000FFF792BB05EB4101B1F882205043A1F8C5
:100F40008200FFF789BB05EB4101B1F9822000B2B5
:100F500092FBF0F0A1F88200FFF77EBB05EB4101A8
:100F6000B1F9822003B292FBF3F303FB1020A1F846
:100F70008200FFF771BB05EB4101B1F882205040C0
:100F8000A1F88200FFF768BB05EB4101B1F88220B0
:100F90001040A1F88200FFF75FBB05EB4101B1F8FB
:100FA00082201043A1F88200FFF756BB01B0BDE8D4
:100FB000F08F30600020388001B0BDE8F08F002055
:100FC00085F8AC01D8F8000040F6B071C2F200011B
:100FD000086004F009FD022085F8A701FFF7EEF98B
:100FE00001B0BDE8F08F000080B582B08DF8070039
:100FF0000DF10700012104F031FD02B080BD0000B9
:101000002DE9F04381B0002800F12F810446FFF75D
:10101000A5F940F2C67640F2C477C2F20006C2F2E9
:1010200000073188388840F2A0158142C2F20005DD
:101030001BD26C5401318AB28242318040F015815A
:10104000022000F047F940F2C070C2F200000068D0
:101050003A8840F2A011C2F2000100F02FF982207C
:10106000FFF7C2FF01B0BDE8F08340F6A479C2F2F9
:101070000009D9F80010220601F10100C9F80000AA
:101080006C5440F1EB8040F6A8780729C2F20008C2
:101090000BD089B9A52C06D198F8001019B90120F8
:1010A00088F80000D7E0082806D195F8AC010028A0
:1010B00000F05380FE2083E098F80010012940F0F2
:1010C0004880A4F180010022252988F8002000F240
:1010D0009580DFE801F0137B7DB3B69597939393EA
:1010E00093939393939393939393939393939393D0
:1010F0009393939393939393939393AF95F8A601BC
:10110000042600EB400005EB8000D0F81651E8B251
:10111000FFF76AFF013E4FEA1525F8D140F6B0709F
:10112000C2F2000005680426E8B2FFF75DFF013E49
:101130004FEA1525F8D140F69C70C2F200000588F0
:101140000126E8B2FFF750FF013E4FEA1525F8D01F
:101150007CE0C0B2FFF748FF7DE069782878AA7884
:10116000890041EA402040EA521080B204F044FC79
:10117000E878A978000940EAC100C0B204F038FC60
:1011800029796A79E878CB08920843EA001042EAA4
:101190004111C0B2C9B204F033FCA9796879EA7987
:1011A0004B0843EA801001F0010102F07F0242EA9D
:1011B000C111C0B204F028FC022085F8A701FF206D
:1011C000FFF712FF002088F8000044E080203BE099
:1011D000052813D1FFF700FA28786978AA78EB7808
:1011E00040EAC11040F2C071C2F20001086042EA58
:1011F000C310388000203080812025E0002023E0CB
:10120000462021E040F2BC75C2F20005287880F04B
:1012100008002870012000F05DF840F29E30294659
:10122000012200F04BF8012000F050F8FFF7C6F85B
:10123000287809E0012088F8000007E0FFF776F938
:1012400001E0FFF7C9F98320FFF7CEFE822C02D020
:10125000002000F03BF80020C9F80000D9F8000099
:10126000142824BF0020C9F8000001B0BDE8F083B5
:1012700040F6B470C2F2000001680131016040F232
:10128000BE70C2F20000017811B10178013901701D
:1012900040F6BC70C2F20000016869B140F2A011D2
:1012A000C2F2000191F8A71119B10168022938BFF3
:1012B00070470168013901607047000080B513462E
:1012C00082B20846194604F01BFA80BD80B504F0CE
:1012D0006BFA80BD10B502280BD0012815D098B943
:1012E00004F072FA0020C0F60200012104F050FA66
:1012F00010BD04F069FA002818BF10BD0020C0F628
:101300000200012104F044FA10BD04F05DFA4FF42C
:10131000677004F0F1FB4FF467710022044604F09B
:10132000D9F90020C0F60200012104F031FA20466C
:101330004FF46771002204F0E3F9204604F0B4FB97
:1013400010BD0000EFF3108072B600BFFEE7000092
:101350002DE9F04140F67878044643F60C46C2F297
:1013600000080020C4F20206C8F81C0000F004FBCC
:101370003168C90351D43068C0071CBF01203060F8
:10138000306810F4F97F4FD03068C00607D5D8F820
:101390001C0040F01000C8F81C00102030603068BD
:1013A000800607D5D8F81C0040F00800C8F81C00DB
:1013B000202030603068400607D5D8F81C0040F087
:1013C0000400C8F81C00402030603068000607D5D3
:1013D000D8F81C0040F00200C8F81C0080203060E3
:1013E0003068C00508D5D8F81C0040F00100C8F8E6
:1013F0001C004FF480703060306880075CBF0120B3
:10140000BDE8F081D8F81C0040F02000C8F81C00AE
:10141000022030600120BDE8F0810546671C07D03E
:101420005CB90320BDE8F0810020BDE8F08100BF79
:101430003068C0039FD5002FFAD000F09DFA401B02
:10144000A042F5D90320BDE8F081000070B5866D9B
:10145000044600F091FA94F83510022925D105468A
:101460002068216C026822F016020260426922F0B4
:101470008002426109B9A16C19B1016821F008012B
:101480000160016821F00101016000BF206800686F
:10149000C0070ED000F070FA401B0628F6D32020BB
:1014A0006065032084F835000CE080206065012031
:1014B00008E0E06D3F2101FA00F0B060012084F8FF
:1014C00035000020002184F8341070BD90F83510EC
:1014D000022909D1052180F835100068016821F042
:1014E00001010160002070478021416501207047A3
:1014F000B0B5044600F040FA054640F23C50C2F256
:1015000000000078611C18BF044400BF00F034FAEA
:10151000401BA042FAD3B0BD2DE9F04381B040F6A4
:101520007878C2F2000898F81820012A03D1022026
:1015300001B0BDE8F0830546012088F818004CF2A0
:1015400050308946FFF704FF002840F093804FF0A9
:10155000FF31C9F80010296843F610470129C4F289
:10156000020718D128693968000221F440713960F6
:10157000396880B241F0040139603968084340F4A9
:10158000803038604CF25030FFF7E2FE396821F0CD
:101590000401396036E0D5E9026131448E4231D22E
:1015A000F000841C28694FF44072C1B203293968E5
:1015B0004FEA002021F440713960396838BF82B2A7
:1015C00041EA02003860386820F0F8003860386876
:1015D00020433860386840F4803038604CF2503036
:1015E000FFF7B6FE396821F0FA01396040B9D5E954
:1015F0000212013611448E4204F10804D2D301E0F4
:10160000C9F8006057F8101C890517D557F8101C49
:1016100021F4007147F8101C57F8101C41F40061C8
:1016200047F8101C57F8101C21F4006147F8101CF3
:1016300057F8101C41F4007147F8101C57F8101CA3
:10164000490517D557F8101C21F4806147F8101C84
:1016500057F8101C41F4805147F8101C57F8101C23
:1016600021F4805147F8101C57F8101C41F4806198
:1016700047F8101C002188F8181001B0BDE8F0836D
:1016800043F61041C4F20201086840F00042002015
:101690000A6070472DE9F04381B040F67874C2F2D9
:1016A00000049046227E012A03D1022001B0BDE849
:1016B000F0830746012020764CF250301E460D463E
:1016C000FFF746FE002866D143F61049022FC4F208
:1016D000020915D0012F28D0E7BBD9F8000020F46B
:1016E0004070C9F80000D9F80000C9F80000D9F826
:1016F000000040F00100C9F8000085F8008040E0DB
:10170000D9F8000020F44070C9F80000D9F80000B2
:1017100040F40070C9F80000D9F8000040F0010062
:10172000C9F80000C5F800802BE0D9F8000020F4CB
:101730004070C9F80000D9F8000040F48070C9F882
:101740000000D9F8000040F00100C9F80000A5F839
:10175000008016E0D9F8000020F44070C9F80000BD
:10176000D9F8000040F44070C9F80000D9F8000032
:1017700040F00100C9F80000C5F80080BFF36F8F8A
:101780006E604CF25030FFF7E3FDD9F8001021F005
:101790000101C9F800100021217601B0BDE8F083F5
:1017A00043F60440C4F20200C168B1F1FF3FC4BF78
:1017B0000020704740F22311C4F26751016048F6DF
:1017C000AB11CCF6EF510160C068C00F704700004C
:1017D0002DE9F04F82B000F13E4241F2000502F1E6
:1017E000FF77C4F2020507224FEAB726A84208BFD6
:1017F0000422042E38BF4FEAB7224FF0010E002416
:1018000000274FF00009009209E000BF09F101092B
:101810000437B9F1100F04F1020400F0A4800A6843
:101820000EFA09FC12EA0C08F0D0D1F804B00BF063
:10183000030AAAF10102012A14D882680323CE68A0
:1018400003FA04FE22EA0E02A64032438260426896
:10185000CBF3001622EA0C0206FA09F64FF0010E4D
:1018600032434260BAF1030F1DD0C26803238D6872
:1018700003FA04F6B24305FA04F63243BAF1020F52
:10188000C26010D16FF0030202EA59020244D2F89A
:1018900020C007F01C050F230E69AB402CEA0303A0
:1018A000AE4033431362026803234E68A3409A4359
:1018B00006F00303A3401A4316F4403F0260A5D08C
:1018C000002243F644030192C4F202031A6843F66D
:1018D000004C42F480421A601A68C4F2010C02F40F
:1018E00080420192019A29F003024FF6084A6244AD
:1018F000CFF6FF7A52F80A3007F00C060F25B540F4
:10190000AB43009D05FA06F6334342F80A30DCF893
:1019100000204B6842EA0806DD0358BF22EA0806A9
:10192000CCF80060DCF804209D0342EA080658BFAA
:1019300022EA0806CCF80460DCF80820DD0242EA5E
:10194000080643F60C4558BF22EA0806CCF80860A2
:10195000C4F201052A689B0242EA080658BF22EA3F
:1019600008062E6052E702B0BDE8F08F002A08BFDB
:10197000090481617047000040F6B870C2F20000AF
:101980000068704740F23C5040F6B871C2F2000067
:10199000C2F2000100780A68104408607047000035
:1019A00080B543F60040C4F20200016841F40071C2
:1019B0000160016841F480610160016841F4807157
:1019C0000160032000F088F80F2000F005F800F017
:1019D0002BF8002080BD0000B0B540F23C52C2F2AE
:1019E000000240F280011278C2F200014FF47A73D3
:1019F0000968B3FBF2F20446B1FBF2F1084601F0CC
:101A0000F7F80F2C4FF001050CD858B94FF0FF3004
:101A100021460022002500F033F840F24050C2F287
:101A2000000004602846B0BD82B0002043F64001AB
:101A30000190C4F202014A6842F480424A604A6856
:101A400002F480420192019A0090086840F08050B0
:101A50000860086800F080500090009802B070475D
:101A6000002848BF704700F01F01012202FA01F16F
:101A70004EF200124009CEF2000242F820107047E8
:101A800010B54EF60C5CCEF2000CDCF80030C3F35F
:101A9000022E8EF00704042C28BF0424BEF1030399
:101AA0004FF0FF3E0EFA04F438BF0023A1439940E3
:101AB0000EFA03F39A4300F00F03043B114363440F
:101AC00009010C3300F16042B0F1FF3FC8BF02F5DD
:101AD0006443197010BD00004EF60C51CEF20001A7
:101AE0000A684FF6FF031A4060F30A2242F0806052
:101AF00040F0FD70086070477047000002680020E9
:101B00005162704770B5D0F800E0DEF82400D9B11A
:101B1000DEF82830B1F1010C00EB13430CD00EF5C8
:101B2000807100205FFA8CF451F8045F0130C6B276
:101B3000A64203EB1543F7D343EA02400EEB8C01B8
:101B4000C1F80401002070BD40EA0240CEF8280030
:101B5000002070BD80B5D0F8040402F0E1FB80BD28
:101B600080B5C1EBC102D0F8043400EB8200826C76
:101B7000184602F04BFB80BD80B5C1EBC102D0F826
:101B8000043400EB8200D0F80822184602F092FBE1
:101B900080BD000080B5D0F8040402F0C3FB80BD16
:101BA00010B50446080601F00F00C0EBC00104EBBD
:101BB000810205D402F5FE71002382F8FD3104E0B4
:101BC000012302F13C0182F83D3094F8BC230870F7
:101BD000012A04BF022010BD2068012284F8BC2322
:101BE00003F0E8F8002084F8BC0310BDB0B54268EB
:101BF000044601F00F00904284BF0120B0BD0906E9
:101C000009D4C0EBC00104EB810202F5FE71002390
:101C100082F8FD3108E0C0EBC00104EB8102012332
:101C200002F13C0182F83D3094F8BC230025012AE2
:101C30008D70087004BF0220B0BD2068012284F8B6
:101C4000BC2303F0A3FA284684F8BC53B0BD0000BF
:101C5000B0B50546080601F00F00C0EBC00105EB6A
:101C6000810C05D40CF5FE7100248CF8FD4104E0D4
:101C700001240CF13C018CF83D404C780870002C9C
:101C80008A60CB7018BFC880022B04BF0020087187
:101C900095F8BC03012804BF0220B0BD28680122CA
:101CA00085F8BC2302F0B4FF002085F8BC03B0BD6A
:101CB00010B501F00F0CCCEBCC0100EB81044FF020
:101CC000000EC4F814E284F8FDE1D0F810E0C4F886
:101CD0000822C4F81032BEF1010F84F8FCC108BF1D
:101CE000C4F80C22006804F5FE715FFA8EF2BCF1B4
:101CF000000F03D003F090FA002010BD03F09AF912
:101D0000002010BDB0B50446406801F00F058542C3
:101D100084BF0120B0BD080609D4C1EBC10004EBAB
:101D2000800000F5FE71002280F8FD2108E0C5EB7F
:101D3000C50004EB8000012200F13C0180F83D2049
:101D400094F8BC03012201288A700D7004BF0220A0
:101D5000B0BD206884F8BC2303F040FA2DB9206898
:101D6000217C04F5717203F0E3F9002084F8BC03D0
:101D7000B0BD0000B0B501F00F0CCCEBCC0100EB16
:101D80008105294601F83CCF0024D0F810E08C6191
:101D900001244C70CA60BEF1010F4B6108BFEA64B8
:101DA00000685FFA8EF2BCF1000F03D003F034FA42
:101DB0000020B0BD03F03EF90020B0BD2DE9F04F8A
:101DC00089B0D0F800B00746584603F03BFB10B18D
:101DD00009B0BDE8F08F386803F062FB0028F7D047
:101DE000386803F05DFB800704D53868416901F06D
:101DF00002014161386803F053FBC00608973DD5E6
:101E00003868816921F010018161DBF82050C5F349
:101E10004340062805F00F041AD0022829D147F6BE
:101E2000F07015EA000624D00899C4EBC40001EB59
:101E30008007D7F80812350958462A4603F034FBC4
:101E4000D7F8080200EB1610C7F80802089F07E051
:101E500007F571715846082203F026FBC5F30A15F1
:101E6000C4EBC40007EB8000D0F814122944C0F87A
:101E700014123868816941F010018161386803F0FB
:101E80000FFB0003CDF810B040F1DE80386803F09E
:101E9000E5FA002800F0D880064607F571704FF487
:101EA000306500244FF0000807901EE05FEAC9602B
:101EB00042BF0BEB0500102181605FEA896042BFE1
:101EC0000BEB0500202181605FEA894042BF0BEBEC
:101ED00005004FF40051816008F10108760805F112
:101EE000200504F11C0400F0AF80F007F4D038683E
:101EF0005FFA88FA514603F0CBFA8146C00769D0F1
:101F00000BEB050001218160386805EB000C036CC8
:101F1000DCF808203F69012F2AD1170738D497062B
:101F200000F18680089F12F0280F53D143F20B0175
:101F3000C4F654718B4202D312F4004232D1DCF861
:101F400010203919D1E981376FF3DF429A1AC1F8AD
:101F50001422FA18B8F1000FC1F8082206D1D1F8FE
:101F6000101219B9079A012103F0E2F8089F2DE039
:101F700043F20B07C4F65477FF37BB421BD1100462
:101F800058D4089F900644BF2020CCF808001DE0DC
:101F900043F20B00C4F65470089F83421AD312F424
:101FA000004017D04FF40040CCF808005FEA0970F9
:101FB0007FF57CAF12E0089FB8F1000F06D1D7F88B
:101FC000101219B9079A002103F0B2F838465146A9
:101FD000FFF7D2FD5FEA09707FF568AF0BEB0500F4
:101FE00008218160386843F20B02D0F840A02844F1
:101FF000C4F654728168A2F1010BDA4505D911F4D7
:1020000000411CBF4FF400418160089F384600F03A
:10201000F5FADA45DDF810B07FF648AF38690128E7
:102020007FF444AF3868079A012103F081F83DE757
:10203000202001E04FF40040CCF80800089F5FEA40
:1020400009707FF533AFC9E7386803F029FA400318
:1020500040F1BE80386803F0F9F9002800F0B8803C
:1020600083460498002400F5106607F5717002900D
:10207000039605E05FEA5B0B04F1010400F0A88021
:102080005FEACB70F6D03868E1B2079103F0EEF961
:102090000546C00726D0049A04F00F00D2F8341881
:1020A000012303FA00F021EA0000C2F8340806EB2D
:1020B000441083603869012810D1C4EBC40007EBD9
:1020C0008000D0E91112114481643CB9006D28B937
:1020D0003868029A012103F02BF800BF07993846AF
:1020E000FFF73EFD280742BF06EB44100821816040
:1020F000E80642BF06EB441010218160680642BF2B
:1021000006EB441040218160A80742BF06EB441053
:10211000022181602806ADD5C4EBC40007EB800A1C
:10212000D14659F8500FC84658F8041F8842A1D329
:102130003B685AF8442F411A914288BF11460693D2
:1021400003EB4410D0F81829033192B2B2EB910F8F
:1021500028D300F510600AF104070590D8F80000B4
:10216000D9F8001081421DD9DAF800200D1A08981C
:1021700095423968067C88BF1546DDE90602ABB298
:10218000009603F087FA3868D8F8001028443860C1
:102190004819C8F800000598E91C806980B2B0EBC6
:1021A000910FDBD2D9F80000D8F80010089F039EE9
:1021B00088423FF65FAF069B04F00F00D3F8341857
:1021C000012202FA00F021EA0000C3F8340851E7C6
:1021D000386803F065F9049DB0F1FF3F19DCD5F8CC
:1021E000040820F00100C5F8040897F8F40301285A
:1021F00007D1002087F8F40338460021FFF77CFC64
:1022000002E0384600F0DAF93868416901F000412F
:102210004161386803F044F900050BD5D5F808088A
:10222000C00702D0384600F013FA3868416901F45B
:1022300000614161386803F033F9C00456D5D5F820
:102240000408102120F00100C5F80408386805F5DD
:10225000006403F0D1F87868F8B105F510614FF625
:102260007F3200BF8A600B68013823F400130B60D3
:102270000B6843F000630B60C1F80822D1F800320C
:1022800023F40013C1F80032D1F8003243F00063A8
:10229000C1F8003201F12001E4D1E06940F0011001
:1022A000E061386B40B1D4F8840040F00B00C4F812
:1022B000840004F1440006E0606942F22B01084307
:1022C000606104F11000016807F5717241F00B01C3
:1022D0000160206820F4FE6020603868397C02F0DC
:1022E00027FF3868416901F480514161386803F083
:1022F000D7F8800416D5386802F0D0FC386803F0AF
:1023000093F83D68F86000F06DFA3A7B0146284684
:1023100003F034F9384600F03FF93868416901F4B8
:1023200000514161386803F0BBF8000707D5384613
:1023300000F04AF93868416901F0080141613868E4
:1023400003F0AEF8C00208D53846002100F034F89A
:102350003868416901F480114161386803F0A0F8E0
:10236000800208D53846002100F02CF83868416911
:1023700001F400114161386803F092F8400007D57C
:102380003846FFF7E7FB3868416901F08041416159
:10239000386803F085F840077FF51AAD386844685F
:1023A000600702D53846FFF7F5FB386841682143DE
:1023B000416009B0BDE8F08F80B5D0F8040402F0A8
:1023C00005F880BD80B5D0F8040402F00FF880BD98
:1023D0002DE9F04F8BB098B30446056890F8BD0323
:1023E00028B9002084F8BC03204600F091F80320AF
:1023F00084F8BD03E86BC0055CBF00202061206845
:1024000002F010FE206804F11C0A0A90D4E90C5076
:1024100004F1040E9AE8C0079EE80E58CDE9085072
:1024200003A880E8C0030A988DE80058CDF81CA0E6
:1024300002F044FC30B1022084F8BD03012562E0C3
:10244000012560E020680021002503F053F8616851
:1024500061B3012000230022C3EBC30304EB830715
:1024600087F83C20D3B20132A7F84230D3B2994268
:1024700087F83D0087F83F50C7E911553D65EBD817
:1024800000200023002200BFC3EBC30304EB83073B
:1024900087F8FC210132D3B2994287F8FD0187F811
:1024A000FF01C7E98100C7F81002EDD8A0682268D3
:1024B0000A90D4E90C5004F1140E04F1240AD4E972
:1024C00003379EE840589AE80007CDE9085002A873
:1024D00080E8005810460A9ACDE90076CDE90589D2
:1024E000CDF81CA002F0C8FC20B1022084F8BD0386
:1024F000012508E00025012084F8385084F8BD0348
:10250000206802F0A9FC28460BB0BDE8F08F00005F
:10251000B0B586B000680024B0F1A04F0594CDE9B5
:1025200003440294019401D006B0B0BD43F63005D7
:102530000094C4F20205286801A940F00100286057
:10254000286800F00100009000984FF4C0500190FE
:102550000220CDE90204032004900A200590002007
:10256000C4F20200FFF734F96868002140F08000EF
:10257000686000946869002240F48040686168697E
:1025800000F48040009000984320FFF779FA432040
:10259000FFF766FA06B0B0BD10B50446C068022861
:1025A00018BFFEF7CFFED4F80404012101F0A0FF0C
:1025B000D4F8040401F050FF10BD000080B5D0F83D
:1025C000040401F07BFF80BD80B5D0F8040401F065
:1025D0007FFF80BD10B5044690F8BC03012804BFFE
:1025E000022010BD012084F8BC0384F83810206854
:1025F00002F0B2FF002084F8BC0310BD80B5D0F813
:10260000042400F57171104601F088FF80BD0000C0
:1026100010B5044690F8BC03012804BF022010BD89
:10262000A16A20680122012984F8BC2306D1A1698E
:10263000012903D0816B41F48031816302F0D4FE23
:10264000206802F0F9FB002084F8BC0310BD0000F4
:1026500010B50446D0F8040401F0B0FF2068D0F8AB
:10266000001E41F00101C0F8001E206A002808BFCA
:1026700010BD4EF61050CEF20000016841F0060188
:10268000016010BD2DE9F041002800F08B8043F679
:102690000808C4F202080446D8F8F8030D4600F012
:1026A0000700884207D288F8F853D8F8F80300F0FA
:1026B0000700A84276D12068810717D5410705D5C4
:1026C000D8F8001041F4E051C8F80010010705D512
:1026D000D8F8001041F46041C8F80010D8F8001094
:1026E000A26821F0F0011143C8F80010C0073FD1E3
:1026F000D8F8F80300F00700A84207D988F8F85383
:10270000D8F8F80300F00700A8424BD12068410731
:1027100007D5D8F80010E26821F4E0511143C8F859
:102720000010000708D5D8F80000216920F46040A7
:1027300040EAC100C8F8000000F082F8D8F80010A4
:1027400045F66432C1F30311C0F60002515C40F259
:10275000800220FA01F140F24050C2F2000000680D
:10276000C2F200021160FFF737F90020BDE8F081E6
:102770006068811E022907D258F8081C89015CBFD5
:102780000120BDE8F08110E0012807D158F8081CAD
:1027900089035CBF0120BDE8F08106E058F8081C01
:1027A000890702D40120BDE8F081D8F8001021F09B
:1027B00003010843C8F80000FFF7DEF8064641F2BF
:1027C000883700BFD8F80000616800F00C00B0EB5B
:1027D000810F8DD0FFF7D0F8801BB842F2D90320CB
:1027E000BDE8F08140F28000C2F20000006870474E
:1027F00040F2800043F60801C2F20000C4F2020178
:102800000068096845F67432C1F38221C0F60002FF
:10281000515CC8407047000040F2800043F6080158
:10282000C2F20000C4F202010068096845F6743281
:10283000C1F34231C0F60002515CC840704700004D
:1028400010B543F60404C4F20204606800F00C0002
:1028500008280AD0042819BF42F20040C0F2F40050
:1028600047F64000C0F27D1010BD20682168236843
:10287000490247F64001C0F27D1100F03F02C3F368
:1028800088105CBF42F20041C0F2F401A1FB0001DC
:102890000023FDF79DFC21680222C1F3014102EBF8
:1028A0004101B0FBF1F010BD2DE9F04182B00028EC
:1028B00000F0A2800446007843F60006C007C4F288
:1028C000020643D0B06800F00C00042805D130683F
:1028D00080033BD56068C8BB8EE0B06800F00C0098
:1028E000082802D170684002F1D46568B5F5A02FC0
:1028F0000AD0B5F5803F0BD0306820F480303060CE
:10290000306820F4802006E0306840F48020306099
:10291000306840F480303060FFF72EF8002D054617
:1029200011D000BF3068800310D4FFF725F8401B9A
:102930006428F7D922E100BFFFF71EF8401B642886
:102940004FF0030055D830688003F5D42078800715
:102950001AD5B06810F00C0F09D0B06800F00C0068
:10296000082840F08A807068400200F18680306854
:10297000800702D5E06801283ED13068216920F047
:10298000F80040EAC10030602078000738D4207891
:1029900040074CD4A5695DB3B06800F00C0008286E
:1029A00040F09E80012D27D07068E16900F480021C
:1029B0008A4221D1216A00F03F028A421CD147F6A7
:1029C000C071626A0140B1EB821F15D1A26A002377
:1029D000CFF6FF7303EBC23200F440316FF30F0206
:1029E000914209D1E16A00F07060B0EB016F03D150
:1029F000002002B0BDE8F081012002B0BDE8F08106
:102A00006069002840F20000C4F2472057D001213D
:102A1000C0F8801EFEF7B0FF054600BF706F80074C
:102A2000B5D4FEF7A9FF401B0228F7D9A6E0306C09
:102A300010F080580AD100200190306C40F0805096
:102A40003064306C00F080500190019847F200072C
:102A5000C4F200073868C00524D4386840F4807098
:102A60003860FEF789FF05463868C0051AD4FEF7BE
:102A700083FF401B0228F7D980E0E068002851D08E
:102A80000020C4F2472001210160FEF775FF0546D2
:102A9000306880073FF571AFFEF76EFF401B0228DC
:102AA000F6D96BE0A568052D50D0012D52D0306FBE
:102AB00020F001003067306F20F004004DE000216D
:102AC000C0F8801EFEF758FF054600BF706F8007F4
:102AD0007FF55DAFFEF750FF401B0228F6D94DE0B1
:102AE0000027C4F2472700203866FEF745FF022D75
:102AF00005460BD13068800158D5FEF73DFF401BDD
:102B000002284FF00300F5D973E700BF3068800159
:102B10007FF56EAFFEF730FF401B02284FF0030039
:102B2000F4D966E70020C4F2472000210160FEF7D7
:102B300023FF0546306880077FF526AFFEF71CFFB0
:102B4000401B02284FF00300F4D952E7306F40F0E9
:102B500004003067306F40F001003067FEF70CFF73
:102B6000002D054641F2883714D000BF306F800732
:102B700013D4FEF701FF401BB842F7D9032002B07F
:102B8000BDE8F081FEF7F8FE401BB8424FF00300AD
:102B90003FF62FAF306F8007F4D4B8F1000F7FF409
:102BA000F9AE306C20F080503064F3E604F11C057F
:102BB0002FCD08430021CFF6FF7140EA821001EBD0
:102BC000C3316FF30F0140EA0560084370600120D4
:102BD0003866FEF7D1FE0446306880013FF508AF45
:102BE000FEF7CAFE001B02284FF00300F4D900E7ED
:102BF000411E0020B0EB116F1CBF012070474EF248
:102C00001002CEF2000251604EF62351CEF20001C6
:102C1000F0230B700721906011607047704700002F
:102C20007047000010B590F83C20012A4FF00202D6
:102C300040D0012380F83C3080F83D200268D2F873
:102C400004E0D2F808C00C682EF07003234340F66D
:102C5000FF34C4F20004A24253600FDCB2F1804F93
:102C60001DD040F20043C4F200039A4217D040F650
:102C70000003C4F200039A4211D015E040F600436D
:102C8000C4F200039A420AD044F20003C4F20103E2
:102C90009A4204D00023C4F201039A4204D1496845
:102CA0002CF08003194391600121002280F83D102F
:102CB00080F83C20104610BD002804BF012070475A
:102CC00010B5044690F83D0028B9002084F83C0077
:102CD000204600F01FF8022084F83D002068211DE6
:102CE00000F066FE012084F8460084F83E0084F877
:102CF0003F0084F8400084F8410084F8420084F8E2
:102D0000430084F8440084F8450084F83D00002026
:102D100010BD000080B582B0006840F20041C4F2EE
:102D20000001884201D002B080BD0020019043F62E
:102D30004000C4F202000168002241F0020101607B
:102D40000068002100F00200019001981D20FEF7AC
:102D500097FE1D20FEF784FE02B080BD90F83D1066
:102D600001291CBF01207047022180F83D10006836
:102D700040F6FF32C168C4F20002904241F0010106
:102D8000C1600FDCB0F1804F1DD040F20041C4F2B1
:102D90000001884217D040F60001C4F200018842C9
:102DA00011D017E040F60041C4F2000188420AD079
:102DB00044F20001C4F20101884204D00021C4F2AF
:102DC0000101884206D1816801F00701062904BF8C
:102DD00000207047016841F0010101600020704748
:102DE00080B590F83C20012A4FF0020200F0C2802A
:102DF000012380F83C3080F83D20D0F800C04FF629
:102E00007772DCF8083023EA0202CCF808200B685D
:102E10004F2B28DC1F2B43DD202B44D0302B42D0FE
:102E2000402B40F0A980D1F804E0C968DCF82030DC
:102E3000DCF8202022F00102CCF82020DCF8182059
:102E400022F0F00242EA011123F00A0242EA0E02E5
:102E5000CCF81810CCF82020DCF8081041F047011D
:102E600021F030017DE06F2B25DDB3F5005F46D00A
:102E7000B3F5805F77D0702B7ED1D1E901E3C968CB
:102E8000DCF8082043EA0E0322F47F4243EA0121E2
:102E90001143CCF80810DCF8081041F0770160E02D
:102EA0000BB1102B68D1DCF8081021F07001194328
:102EB00041F0070155E0502B34D0602B5CD1D1F8A4
:102EC00004E0C968DCF8203023F01003CCF820308F
:102ED000DCF81830DCF8202023F4704322F0A00244
:102EE00043EA013142EA0E12CCF81810CCF8202047
:102EF000DCF8081041F0670121F0100131E0D1E960
:102F000001E3C968DCF8082043EA0E0322F47F429B
:102F100043EA01211143CCF80810DCF8081041F411
:102F200080411EE0D1F804E0C968DCF82030DCF80C
:102F3000202022F00102CCF82020DCF8182022F01A
:102F4000F00242EA011123F00A0242EA0E02CCF832
:102F50001810CCF82020DCF8081041F0570121F0BF
:102F60002001CCF808100022012180F83D1000213A
:102F700080F83C10104680BD0122F5E77047000044
:102F800010B5044600680169890744BFC1685FEA5B
:102F9000817138D420680169490744BFC1685FEA7C
:102FA00041713CD420680169090744BFC1685FEAE8
:102FB000017141D420680169C90644BFC1685FEA54
:102FC000C16145D420680169C9071CBFC1685FEAB7
:102FD000C1714AD120680169090644BFC1685FEA2E
:102FE000016149D420680169490644BFC1685FEAAC
:102FF000416148D420680169890644BFC1685FEA1D
:10300000816147D410BD6FF0020101610121217778
:103010008069800745D02046FFF7B0FF47E06FF09A
:103020000401016102212177806910F4407F41D0C1
:103030002046FFF7A3FF43E06FF008010161042180
:103040002177C06980073ED02046FFF797FF40E018
:103050006FF01001016108212177C06910F4407FF1
:103060003AD02046FFF78AFF3CE06FF00101016192
:10307000204600F03FF8ADE76FF080010161204687
:10308000FFF7CCFDAEE76FF040010161204600F094
:1030900051F8AFE76FF0200101612046FFF7C0FD56
:1030A00010BD204600F022F8204600F021F8002054
:1030B00020776FE7204600F019F8204600F018F856
:1030C000002020776EE7204600F010F8204600F040
:1030D0000FF8002020776DE7204600F007F8204623
:1030E00000F006F8002020776CE700007047000031
:1030F0007047000040F6A061C2F20001884218BF8C
:10310000704780B540F6AC70C2F200000168B1F5BE
:103110007A7F04BF00210160016801310160FEF780
:10312000A7F840F6A060C2F20000FFF717FEBDE866
:1031300080407047704700007047000070470000F3
:10314000B0B582B0044600680168C368426901F006
:103150002F05202D03F0200505D125B1204600F0D4
:103160009DFC02B0B0BD5FEA017C1EBF02F0010E03
:1031700003F4907212EB0E0277D1226B012A05D173
:1031800011F0100218BF13F0100235D10A0622D533
:1031900013F080021FD094F83D1021292AD1A16894
:1031A000B1F5805F03D12169002900F03881216ADF
:1031B0004A1C226209784160E18C01390A04E184E9
:1031C00018D1C16821F08001C160C16841F040019F
:1031D000C16002B0B0BD49060CD513F0400109D062
:1031E000C16821F04001C160202084F83D002046E4
:1031F00000F0B2FA02B0B0BD002101910168019166
:103200004168019101994069400636D4A08DE18D55
:10321000E28D002A1CBF401A5FEA0041EAD000BFDD
:10322000216851E8031F226821F4907142E80313DA
:10323000002BF5D1216851E8051F226821F001011A
:1032400042E80513002BF5D1202184F83E1000211F
:10325000216300BF216851E8031F226821F010019B
:1032600042E80313002BF5D14AE0C80718BF13F456
:1032700080704BD148074FD455E0A06B0168496876
:103280008AB2002AB6D0A38D9A42B3D2E185C06932
:10329000B0F5807F31D000BF206850E8030F21686F
:1032A00020F4807041E80302002AF5D1206850E83C
:1032B000050F216820F0010041E80502002AF5D140
:1032C000206850E8050F216820F0400041E8050221
:1032D000002AF5D1202084F83E000020206300BFA2
:1032E000206850E8030F216820F0100041E8030235
:1032F000002AF5D1A06BFEF7A9F8A08DE18D401A48
:1033000081B22046FFF718FF02B0B0BD206C40F03C
:1033100001002064480706D5BEF1000F03D0206CE1
:1033200040F002002064880706D5BEF1000F03D0EC
:10333000206C40F004002064BCF1000F06D555EA73
:103340000E0003D0206C40F008002064206C0028A0
:103350003FF450AF11F0200018BF002D02D02046DE
:1033600000F09CFB20684069216C00F0400001F0F7
:103370000801401847D000BF206850E8030F2168BB
:1033800020F4907041E80302002AF5D1206850E84B
:10339000050F216820F0010041E80502002AF5D15F
:1033A000206B01280AD100BF206850E8030F216874
:1033B00020F0100041E80302002AF5D1202084F813
:1033C0003E000020206320684069400622D500BFEF
:1033D000206850E8050F216820F0400041E8050210
:1033E000002AF5D1A06BA8B143F68D21C0F60001EB
:1033F0000165FEF76BF800283FF4FCAEA06B016D91
:10340000884702B0B0BD2046FFF798FE0020206438
:1034100002B0B0BD2046FFF791FE02B0B0BD216AF8
:1034200031F8022B6FF35F2242602162C4E6000094
:10343000002804BF0120704710B5044690F83D00F5
:1034400028B9002084F83C00204600F021F8242010
:1034500084F83D002068C16821F40051C160204615
:1034600000F07EFB2068016921F49041016141690F
:1034700021F02A014161C16841F40051C16000207E
:103480002021206484F83D1084F83E1010BD000017
:1034900010B586B0006844F20042C4F20002002178
:1034A0009042CDE90411CDE90211019122D041F2FF
:1034B0000001C4F2010188424DD1002043F63001E1
:1034C0000090C4F202014A69252442F010024A61C8
:1034D0004A6902F010020092009A0090086840F0D9
:1034E00001000860086800F00100009000984FF4A7
:1034F000C06019E043F630000091C4F20200026996
:10350000262442F400320261026902F40032009281
:10351000009A0091016841F001010160006800F02B
:103520000100009000980C200190022002900020E1
:10353000039003200490072005900020C4F20200AD
:1035400001A9FEF745F9204600210022FEF798FA6E
:103550002046FEF785FA06B010BD0000034690F83D
:103560003E0020280AD100294FF0010018BF002A90
:1035700000D1704793F83C00012801D10220704728
:1035800000201863996222219A85DA85186483F8ED
:103590003E10196883F83C00CA6842F48072CA6021
:1035A0004A6942F001024A61CA6842F02002CA60D8
:1035B0007047000040F6E861C2F20001884218BF7F
:1035C000704710B540F69874C2F200042078FDF7F9
:1035D00017FD40F6E860C2F2000021460122FFF725
:1035E000BDFFBDE8104070472DE9F047044690F854
:1035F0003D0020280ED10F4600294FF0010000F0B9
:10360000A8801646002A08BFBDE8F08794F83C0061
:10361000012802D10220BDE8F087012084F83C0097
:103620004FF0000A21201D46C4F840A084F83D0058
:10363000FEF7A2F9A684E684A1688046B1F5805F12
:1036400007D1206900281CBF38465746B9460746AF
:1036500001E04FF0000984F83CA0E08C00283ED047
:103660006E1C09E087B117F8010B21684860E08CF7
:103670000138E084E08C90B3206800680006F1D443
:10368000AEB175B916E000BF39F8020B21686FF3CF
:103690005F2048600027EAE701680906E2D4002EAF
:1036A000FAD0FEF769F9A0EB0800A84202D820681A
:1036B000F2E700BF206850E8030F216820F4D070C3
:1036C00041E80302002AF5D1206850E8050F21687F
:1036D00020F0010041E80502002AF5D107E020684A
:1036E0000068400631D4DDB16E1C0BD011E0202003
:1036F00084F83D0084F83E00002084F83C0003205C
:10370000BDE8F087206800BF016849061DD4002E7F
:10371000FAD0FEF731F9A0EB0800A842F2D900BFB9
:10372000206850E8030F216820F4D07041E80302BC
:10373000002AF5D1206850E8050F216820F001002B
:1037400041E80502002AF5D1D1E7202084F83D00A8
:103750000020BDE8F08700007047000010B540F67B
:103760007074C2F200040020C4E900004FF0803001
:10377000C4F803000820A07002F040F840F2C870BE
:10378000C2F200002146082200F014FB012818BFF5
:1037900002F028F810BD000080B5FCF7E1FD00281C
:1037A00008BF80BD02F02AF840F2C87040F6707180
:1037B000C2F20000C2F20001082200F0FBFA012868
:1037C00018BF02F00FF8FCF7DBFD80BDFEE700003C
:1037D00080B540F2C87040F26401C2F20000C2F24B
:1037E0000001002200F0D6FC002818BFFDF7AAFD5A
:1037F00040F2C87040F28401C2F20000C2F200013F
:1038000000F004FF002818BFFDF79CFD40F2C870CF
:1038100040F25811C2F20000C2F2000100F0C2FAF8
:10382000002818BFFDF78EFD40F2C870C2F20000FC
:1038300000F00CFF002818BFFDF784FD80BD0000DC
:10384000FEE70000FEE7000080B540F69820C2F2D7
:103850000000FEF7B3FA80BD7047000040F67071BB
:10386000C2F200010A8810430880704740F6707168
:10387000C2F200010A8822EA0000088070470000B6
:1038800040F67070C2F200000021C0E900114FF054
:103890008031C0F803100821817070477047000024
:1038A00040F67071C2F200010880704740F67071F6
:1038B000C2F200018870704740F67072C2F20002D6
:1038C000D07011717047000040F67072C2F20002B1
:1038D000507191717047000080B5FEF753F880BDBC
:1038E000F0B593B007AC20463021FCF7BCFC0025B6
:1038F00043F640000695CDE90455CDE90255019502
:10390000C4F202000168022641F0805101600068A3
:103910000F2700F080500190019847F200000195B8
:10392000C4F20000016866F38F310160006800F4A2
:10393000404001900198012007904FF4803008909A
:103940004FF480000E9090201090042011900520DC
:10395000129020460D960F97FEF7A6FF18B1EFF3D1
:10396000108072B6FEE74FF48050CDE9050502A83D
:103970000121CDE902760495FEF784FE18B1EFF33C
:10398000108072B6FEE713B0F0BD00004EF688500E
:10399000CEF20000016841F4700101607047000040
:1039A00080B540F6A060C2F20000FFF7E9FA80BDE2
:1039B00010B540F2FF7E0368C4F2000E40F2000C26
:1039C0007045C4F2010C0ADD40F60002C4F20002A8
:1039D00090420DD060450BD040F6004204E0B0F1BB
:1039E000804F05D040F20042C4F20002904203D161
:1039F0004A6823F0700313434FF6FF72C4F20002CB
:103A0000904209DC704512DCB0F1804F26D040F2C4
:103A10000042C4F200021FE044F2FF32C4F201028D
:103A200090420FDC604519D044F2000212E040F6EB
:103A30000002C4F20002904210D040F60042C4F2EC
:103A4000000209E044F60002C4F20102904205D0EF
:103A500044F20042C4F20102904203D1CA6823F446
:103A60004073134323F080024B69D1F800E08C6867
:103A70001A4360450260C462C0F828E002D10969B7
:103A8000CCF830100121416110BD000080B5806B81
:103A90000021C185C184FFF751FB80BD80B582B094
:103AA00090F83E1022291ED18268B2F5805F02D1C3
:103AB0000169002948D0816AB2F5805F07D00AB950
:103AC000026922B10268526802F07F0201E00268D6
:103AD00052680A700121826A11448162C18D0139E4
:103AE0000A04C18501D002B080BD0168CA6822F015
:103AF0002002CA60CA6822F48072CA604A6922F051
:103B000001024A61202180F83E10016B012923D176
:103B100000210163016851E8031F026821F01001D0
:103B200042E80313002BF5D101680A68D20606D5D6
:103B3000002201920A680192496801910199818DE0
:103B4000FFF7FAFA02B080BD0168826A49686FF334
:103B50005F2111800221BEE7FFF72CFD02B080BD7E
:103B600010B504460068D4E902C22369016921F452
:103B7000405111430161626943EA0C01E369114359
:103B8000C268194349F20C639A431143C160416909
:103B9000A26921F4407141F20043114340F4806274
:103BA000C4F201039A42416102D1FEF735FE01E001
:103BB000FEF71EFEE16963681922B1F5004FA0FB14
:103BC00002011DD15A00DB0FFCF702FB48F21F5126
:103BD000C5F2EB11A0FB01235A096FF0630302FB4E
:103BE0000300322303EBC000A0FB01014FF4F87087
:103BF00000EA111000EB0210C1F3421108441BE06F
:103C00009A009B0FFCF7E4FA48F21F51C5F2EB1142
:103C1000A0FB01235A096FF0630302FB0300322368
:103C200003EB0010A0FB0101F02000EA511000EBB3
:103C30000210C1F3431108442168886010BD0000E0
:103C400080B540F6E860C2F20000FFF779FA80BD67
:103C500080B540F62C70C2F20000FFF771FA80BD0B
:103C6000D0F8BC120022002081F8682070470000C4
:103C700080B5D0F8BC1239B1D0F8C002C26808785B
:103C800049789047002080BD032080BDB0B58121D8
:103C9000044600F0A9FA002520460221A56300F0A1
:103CA000A3FAD4F8BC02C4F88C5148B1D4F8C002CD
:103CB00080688047D4F8BC0200F0A2FFC4F8BC5270
:103CC0000020B0BDB0B5D0F8BC5265B1696E00241B
:103CD000012906D1D0F8C0026978C26828789047D7
:103CE0006C662046B0BD0320B0BD0000014640F226
:103CF00020100A22C2F200000A807047014640F2FA
:103D0000BC002922C2F200000A807047014640F23E
:103D1000E8002922C2F200000A807047014640F202
:103D20002C102922C2F200000A80704770B50446A8
:103D30006C2000F067FF20B30546C4F8BC020126E2
:103D400020468121032240236687A4F88E6100F07B
:103D50005DFB2046022103224023268700F056FB0C
:103D6000D4F8C002A4F88C614068002685F8686029
:103D70008047204602212A46562300F05BFB30464E
:103D800070BD0020C4F8BC02022070BD80B5D0F820
:103D9000BC222AB10221562300F04CFB002080BD3A
:103DA000032080BD00290EBF0320C0F8C0120020F0
:103DB0007047000080B5D0F8BC329BB194460A46EB
:103DC00090F89C1203291CBF002080BD93F8681056
:103DD00000291CBF012080BD8121634600F0F8FB53
:103DE000002080BD032080BD80B582B0D0F8BC32F9
:103DF0000022ADF80620CBB10A7812F0600217D08D
:103E0000202A2ED14A78A2F1020CBCF1090F35D834
:103E1000DFE80CF0052D343434343438535703F1D3
:103E20005C01012200F0BCF800221DE003221BE02F
:103E300091F801C0BCF10B0F2ED80022DFE80CF086
:103E400006142C2C2C2C302C2C2C455090F89C2219
:103E5000032A4DD10DF10601022200F0A1F8002243
:103E600002E000F079F80322104602B080BD03F1B1
:103E70005801012200F094F80022F5E700F06CF8F8
:103E80000322F1E7CA884FF0010C1946C3F864C059
:103E900000F06CF80022E7E700F05EF80322E3E7A9
:103EA000CA78212A30D0222A37D1CA88D0F8C01245
:103EB000562A096828BF562231E0C8780022D86502
:103EC000D2E7887800229865CEE790F89C22032AF2
:103ED00012D103F16001012200F062F80022C3E771
:103EE00090F89C22032A0BD1887800221866BBE741
:103EF00000F032F80322B7E700F02EF80322B3E710
:103F000000F02AF80322AFE7CA8840F21411C2F287
:103F10000001092A28BF092201E00022002100F047
:103F20003FF80022A0E7000080B5D0F8B8220AB11F
:103F300052689047002080BD80B513460A46002194
:103F400000F078FA002080BD80B513460A460021B3
:103F500000F03EFB002080BD10B58021044600F03B
:103F600009FB2046002100F005FB10BD80B513467B
:103F70000A460321C0F894120021C0E9563300F02C
:103F800059FA002080BD000080B50521C0F89412C8
:103F900000210022002300F04DFA002080BD000027
:103FA00080B513460A460221C0F894120021C0E9E8
:103FB000063300F00DFB002080BD000080B5042119
:103FC000C0F8941200210022002300F001FB002021
:103FD00080BD000010B540F24C54C2F200040A4605
:103FE00002A0214600F09EF8204610BD4375737470
:103FF0006F6D2048494420436F6E6669670000007A
:1040000040F268101222C2F200000A8070470000DD
:1040100010B540F24C54C2F200040A4602A02146F8
:1040200000F080F8204610BD437573746F6D204812
:10403000494420496E746572666163650000000042
:1040400040F27C100422C2F200000A807047000097
:1040500010B540F24C54C2F200040A4602A02146B8
:1040600000F060F8204610BD45617379436F6E0023
:1040700010B540F24C54C2F200040A4602A0214698
:1040800000F050F8204610BD45617379436F6E20F3
:1040900050726F20436F6E74726F6C6C65720000AB
:1040A000B0B547F61020C1F6FF70026883684FF084
:1040B0001A0CD218A1F800C02FD0406840F2801E20
:1040C0006FF001014FF0370CC2F2000E002300BF69
:1040D000140F0CEB1275B2F1204F38BF04F130050C
:1040E0000EEB0104023112010E2925716371EFD12B
:1040F0000EF1100104224FF0370C00230CEB10746A
:10410000B0F1204F4FEA107538BF05F1300401F8C7
:10411000024F0001013A4B70F0D140F28010C2F220
:104120000000B0BD80B5A0B303786BB1431E4FF063
:10413000000C00BF93F802E00CF1010CBEF1000F7F
:1041400003F10103F6D101E04FF0000C5FFA8CFCA3
:10415000022303EB4C03138003220B704A7090F888
:1041600000E0BEF1000F08BF80BD013802234FF010
:10417000000C00BFDAB201F802E042F0010201F8DF
:1041800002C090F802E00233BEF1000F00F101001E
:10419000F0D180BD002804BF0320704780B5002304
:1041A000C0F8B832C0F8C0320029C0F8CC3218BF0D
:1041B000C0F8B412012180F89C12027000F0BEF821
:1041C00080BD000080B5D0F8C402FDF70FFD40F2BD
:1041D0000032C100C0F2013222FA01F1032888BF87
:1041E0000321C8B280BD000080B5D0F8C402FDF73D
:1041F000D7FC40F20032C100C0F2013222FA01F1D4
:10420000032888BF0321C8B280BD0000B0B50446B2
:1042100071B194F89C02032849D1D4F8B8024269DC
:10422000002A44D020469047002808BF0020B0BD97
:10423000D4F89402022833D1D4E9071081420DD971
:104240000B1A204611461A46E361FFF77DFE204611
:1042500000210022002300F0EDF821E00FD1A16938
:1042600081420CD3D4F89802814208D22046002122
:1042700000220025FFF768FEC4F89852E7E794F89B
:104280009C02032805D1D4F8B802C16809B12046C0
:1042900088472046802100F06DF92046FFF774FE24
:1042A00094F8A002012804BF002084F8A002002096
:1042B000B0BD000010B5044669B194F89C02032813
:1042C0001CD1D4F8B8028269C2B1204690470028B8
:1042D00008BF002010BDD4F8940203280ED1D4E901
:1042E000570398420CD9C01AC4F85C01984238BFF1
:1042F0000346204611461A46FFF71EFE002010BD59
:1043000094F89C02032805D1D4F8B802016909B1D8
:10431000204688472046FFF751FE002010BD0000D0
:104320000020704780B5012180F89C12D0F8B812A7
:1043300011B14A6801799047002080BD10B501781D
:1043400009B1002010BD40F69821C2F20001C1F869
:104350000404C0F8C4124FF0A0400822C1E90002D2
:1043600002200022C1E90302C1E906020846C1E9B0
:104370000822C1E90B22FEF72BF8002818BFFCF732
:10438000E1FF40F69824C2F2000420468021FDF7A8
:10439000B5FB204600214022FDF7B4FB2046012159
:1043A0008022FDF7AFFB002010BD0000D0F8C40252
:1043B00001F07F02C2EBC20200EB820000F13E027C
:1043C000090658BF00F5FF721078704780B5D0F825
:1043D000B82242B190F89C32032B02D1126A02B18A
:1043E0009047002080BD032080BD000080B5D0F83C
:1043F000B82242B190F89C32032B02D1526A02B12A
:104400009047002080BD032080BD000080B5944609
:10441000D0F8C4021A466346FDF71AFC40F2003297
:10442000C100C0F2013222FA01F1032888BF032142
:10443000C8B280BD80B5D0F8C402FDF739FC40F2A7
:104440000032C100C0F2013222FA01F1032888BF14
:104450000321C8B280BD0000F0B581B00446012040
:10446000002184F89C02C4F89412D4F8B802616068
:10447000C4F8A412E8B1D4F8BC1221B1426812B158
:10448000204600219047204600210022402300259D
:104490004026FFF7BBFF0127204680210022402352
:1044A000A4F86471C4F86061FFF7B0FFA7842662C6
:1044B00000E00325284601B0F0BD000090F89C12F2
:1044C000042904BF90F89D1280F89C1200207047C8
:1044D00080B5D0F8B81241B190F89C22032A02D1DD
:1044E000C96901B18847002080BD032080BD00005C
:1044F000024600201174704780B5D0F8C402FEF760
:1045000069F840F20032C100C0F2013222FA01F132
:10451000032888BF0321C8B280BD0000B0B500F2F7
:10452000AA250446284600F065F80120C4F8940244
:1045300094F8AA02B4F8B02200F01F010229C4F8CE
:10454000982207D001290AD071B92046294600F0E7
:1045500081F8B0BD2046294600F076FAB0BD20466D
:10456000294600F011FBB0BD00F08001204600F0AC
:1045700001F8B0BD80B5D0F8C402FDF7C3FB40F22E
:104580000032C100C0F2013222FA01F1032888BFD3
:104590000321C8B280BD000080B5D0F8C402FEF788
:1045A00037F840F20032C100C0F2013222FA01F1C4
:1045B000032888BF0321C8B280BD0000014690F8DF
:1045C0009C02042281F89D02002081F89C22704701
:1045D00080B5D0F8C402FDF7CDFB40F20032C10037
:1045E000C0F2013222FA01F1032888BF0321C8B2C8
:1045F00080BD00000A7802704A7842704A88428082
:104600008A888280C988C1807047000010B582B056
:1046100004460020ADF8060059B1CA6AC4F8B812C1
:1046200022B10DF106009047C4F8CC02002002B080
:1046300010BD032002B010BD80B5D0F8B82212B171
:104640001268904780BD032080BD000080B5FFF751
:10465000A3FF80BD70B582B00D460978044611F005
:1046600060010BD0402901D020292AD1D4F8B8020A
:10467000294682682046904705462BE0687809283D
:104680003BD8DFE800F0052A3A443A50683A809176
:1046900094F89C020138022800F2A380E8880228DE
:1046A00040F0DA80D4F8A4020322002808BF0122D7
:1046B000214641F80C2F20460222FFF771FC00250D
:1046C00008E020468021FFF755FF20460021002505
:1046D000FFF750FF284602B070BD94F89C020138E5
:1046E000022800F28880688800250128F2D120463F
:1046F000C4F8A452FFF762FCECE720468021FFF7E4
:1047000039FF204600210025FFF734FFE2E76888E3
:10471000012840F07A800120C4F8A4022046FFF767
:104720004DFC0025D6E7A888002850D1E88800284D
:104730004DD168887F284AD894F89C12032940F00C
:10474000208120468021FFF715FF2046002100250B
:10475000FFF710FFBEE768884FF0FF3101EB102133
:1047600000220629ADF8062000F24081DFE811F0B2
:104770000700870094003E013E01A100AC00D4F880
:10478000B40202682BE1E888012840D194F89C0229
:10479000411E02296AD20025214641F8085F2046C1
:1047A0000122FFF7FDFB95E7688840F24855C2F209
:1047B000000510F0FE0F287033D020468021FFF74F
:1047C000D9FE20460021FFF7D5FE032582E72046CB
:1047D0008021FFF7CFFE204600210025FFF7CAFE0B
:1047E00078E720468021FFF7C5FE204600210025FE
:1047F000FFF7C0FE6EE720468021FFF7BBFE204694
:1048000000210025FFF7B6FE64E7002562E7204699
:104810008021FFF7AFFE204600210025FFF7AAFE0A
:1048200058E794F89C22C1B2032A5CD0022A63D1D3
:10483000002900F0798020466160FFF7FDFE054603
:10484000002800F0B18020468021FFF793FE20462B
:104850000021FFF78FFE3DE720468021FFF78AFE0B
:10486000204600210025FFF785FE33E7032851D1BC
:10487000211D20460122FFF793FB00252AE7217C1A
:10488000D4F8B80200290CBF816AC16A0DF1060094
:1048900088470646022023E0C0B2052800F2A68021
:1048A000DFE800F003898D919599D4F8B40242684D
:1048B00094E0207C002840F09980D4F8B802416B45
:1048C0000DF1060088478EE0207C002840F08E80A5
:1048D000D4F8B802016B0DF10600884706460720A0
:1048E000707001208CE021B3606888422DD1204691
:1048F000FFF764FB0025EDE620468021FFF73AFE36
:1049000020460021FFF736FE29782046FFF70CFBF2
:104910000325DFE620468021FFF72CFE20460021FC
:104920000025FFF727FED5E62046FFF747FB0025C9
:10493000D0E6022084F89C0220466160FFF7F4FA7A
:104940002046FFF73BFB0025C4E6C1B22046FFF737
:10495000EBFA297820466160FFF76EFE05460028D5
:104960006ED020468021FFF705FE20460021FFF78C
:1049700001FE21792046FFF7D7FA022084F89C0235
:10498000A8E600F07F052046294684F89E52FFF7EE
:10499000B3FD2046FFF712FB002D0CBF01200220C3
:1049A00084F89C02002595E62046FFF707FB0320CC
:1049B00084F89C028EE6D4F8B40282680EE0D4F843
:1049C000B402C2680AE0D4F8B402026906E0D4F87E
:1049D000B402426902E0D4F8B402826932B1207CA8
:1049E0000DF1060190470646012009E0204680218E
:1049F000FFF7C0FD204600210026FFF7BBFD002089
:104A000090B1EA886AB1BDF8060078B1904238BF2B
:104A1000024620463146ADF80620FFF7C1FA0025D0
:104A200058E62046FFF7CAFA002553E620468021C3
:104A3000FFF7A0FD20460021FFF79CFD002549E679
:104A40002046FFF7BBFA45E6B0B50D4609780446A7
:104A500011F060010AD0402901D0202975D1D4F885
:104A6000B8022946826820469047B0BD6878297907
:104A700060B1012828D0032867D194F89C0203284C
:104A800033D0022861D1480626D15EE094F89C021A
:104A9000032839D0022808BF5FEA416055D101F0F0
:104AA0007F0000EB800004EB800000F11402090697
:104AB00058BF00F5AA720025156020461146022253
:104AC000FFF76EFA2846B0BD94F89C02032847D041
:104AD00002283AD1480638D02046FFF74BFD204641
:104AE0008021FFF747FD0020B0BD688838B911F07C
:104AF0007F0004D0E88810B92046FFF73BFD204630
:104B0000FFF75CFA0020B0BD01F00F0202EB820259
:104B100011F0800004EB82020CBFB2F86421928C89
:104B20009AB101F07F0202EB820204EB820202F1F1
:104B30001405002808BF02F5AA7548061BD02046B8
:104B4000FFF734FCB8B1012016E020468021FFF7C2
:104B500011FD204600210025FFF70CFD2846B0BDC1
:104B6000688878B9480602D02046FFF72BFB20461C
:104B7000FFF724FA73E70020286020462946022226
:104B8000FFF70EFA0020B0BDB0B50D460978044617
:104B900011F0600118BF402913D194F89C0201382C
:104BA000022803D8A88810F0FE0F16D020468021D6
:104BB000FFF7E0FC204600210025FFF7DBFC28463C
:104BC000B0BD2029E9D020468021FFF7D3FC204644
:104BD00000210025FFF7CEFC0BE0D4F8B8022946EF
:104BE000826820469047E9880546002908BF002DC5
:104BF00001D02846B0BD2046FFF7E0F92846B0BDF9
:104C00007047000040F24C70C2F200007047000094
:104C100080B54B780A78012B02F00F031CD14FF0BE
:104C2000010CD0F81CE80CFA03F343EA0E03C0F8B9
:104C30001C3800EB4210D0F800391B042BD48B68D1
:104C400000F5106091F803C001686FF3DF2343EAB9
:104C50008C4341EA825118E04FF4803CD0F81CE8C4
:104C60000CFA03F343EA0E03C0F81C3800EB4210C1
:104C7000D0F8002B12040ED48A6800F53060C97891
:104C80006FF3DF22036842EA8141194341F080510A
:104C900041F400410160002080BD00000146D0F8D1
:104CA000000940F2FF729043C1F80009D1F80408EE
:104CB00040F480720020C1F80428704782B0049943
:104CC000DDF808C0012940F64051C0F2030134D19B
:104CD000826B4FF6BF7322F480328263C268CFF6D4
:104CE000BD731A40C260C2680B9B22F44012012BB4
:104CF000C26003D1C26842F48012C26000220092F6
:104D0000009A01328A42009238D80269B2F1FF3F1C
:104D1000F6DC00220092026942F00102026100BF4B
:104D2000009A01328A42009228D80269D207F7D14C
:104D30000021BCF1010F3AD131E0C268089B42F07A
:104D40004002C26000220192019A01328A4201921D
:104D500019D80269B2F1FF3FF6DC00220192026924
:104D600042F00102026100BF019A01328A420192BF
:104D700009D80269D207F7D1002105E00321BCF16F
:104D8000010F14D10BE00321826B002B14BF22F41E
:104D9000803242F480328263BCF1010F07D1826815
:104DA00042F006028260826842F020028260084679
:104DB00002B0704780B54B780A78012B2AD100EBFE
:104DC0004211D1F8003947F6000CCEF6334C01F50C
:104DD0001061002B4FF0010E07D50B6843F0006304
:104DE0000B600B6843F080430B6002F00F02D0F8B9
:104DF0003C380EFA02F29343C0F83C38D0F81C3825
:104E000023EA0202C0F81C28086800EA0C0200200D
:104E10000A6080BD00EB421303F53061D3F800EB6C
:104E200047F60003CEF6334303F1707CBEF1FF3F3B
:104E30004FF4803ED9DCD0E70146D0F8000E20F0D8
:104E40000300C1F8000ED1F8040820F0020200208F
:104E5000C1F80428704700000146D0F8000E20F089
:104E60000300C1F8000ED1F8040840F0020200204F
:104E7000C1F80428704700002DE9F04F82B0DDF83A
:104E80004880DDE90D4CDDF82CE000F580720F253F
:104E9000002600BF013D42F8046FFBD1B8F1000FBE
:104EA00007D0826B22F400128263826B42F40022EC
:104EB00010E0D0F8042842F00202C0F80428826B07
:104EC00042F400128263826B22F400228263826BBE
:104ED00022F4802282630022C0F8002ED0F800283D
:104EE000012CC0F8002806D1D0F80028002B18BFEC
:104EF00042F0010203E0D0F8002842F0030240F63D
:104F00004059C0F800280022C0F2030900924FF473
:104F100084620261009A541C4C45009402D80269D4
:104F20009206F7D40022019210220261019A551CC8
:104F30004D45019502D80269D206F7D44FF0000A18
:104F4000C0F810A8C0F814A8C0F81CA8B9B100F5A2
:104F500010674FF67F3B00233E684FF09042002BD6
:104F600008BF4FF0006202EAE67201333A60C7F808
:104F700010A0C7F808B0994207F12007ECD1D1B1D1
:104F800000F530664FF0000A4FF67F3B002300BF6C
:104F900037684FF09042002B08BF4FF0006202EAE2
:104FA000E77201333260C6F810A0C6F808B0994223
:104FB00006F12006ECD1D0F81018BEF1000F21F454
:104FC0008071C0F810184FF0000181616FF08041CE
:104FD000416103D1816941F010018161816943F62A
:104FE0000002C8F23C021143BCF1000F816103D002
:104FF000816941F008018161B8F1010F05D1816932
:1050000041F0804141F00401816100204D454FF0A5
:10501000000188BF01214C4588BF0120084302B030
:10502000BDE8F08F0146806820F0010200208A6010
:1050300070470000F0B54B7891F800C0012B23D1E8
:105040004E6900EB4C1E00254FF6FF74DEF8107918
:10505000CFF6F875CEF20704002E0EF510633ED0A1
:105060003D401D611D6925401D618D6804F100549E
:10507000AE4288BF4D611D6945F400251D614D6933
:105080001E692C40344332E000EB4C13D3F8100B74
:105090006FF31200C3F8100BD3F8100B6FF3DC4062
:1050A000C3F8100B4F6903F53063002F1CBF8F68E6
:1050B0004F611F694FF6FF7047F400271F61CEF262
:1050C00007008F6800F100501E6938403043012A04
:1050D000186114D1C868002818BF58610FE03C401F
:1050E0001C611C6944F400241C611C692C40012AC9
:1050F0001C610BD10869002818BFCEF814094FF0C5
:1051000004411868084318600020F0BDDEF800294B
:1051100042F00442CEF8002949690029F4D00CF08D
:105120000F01012202FA01F100F63403E9E7000061
:10513000D0F840C043F20B03C4F654739C4503D32C
:10514000D0F8003B002B1ED40023C0F8103BD0F851
:10515000103B012943F40023C0F8103BD0F8103B6A
:1051600043F01803C0F8103BD0F8103B43F0C043A5
:10517000C0F8103B07D1C0F8142BD0F8001B41F049
:105180008021C0F8001B0020704700004B780A788F
:10519000012B00EB42100DD1D0F8002922F40012AF
:1051A000C0F80029C97801F0FE01022913D100F5E9
:1051B00010600CE0D0F8002B22F40012C0F8002B95
:1051C000C97801F0FE01022905D100F530600168BF
:1051D00041F0805101600020704700004B780A7850
:1051E000012B00EB421006D1D0F80019002900F580
:1051F000106106D50AE0D0F8001B002900F53061E7
:1052000004D41AB1086820F080400860086840F4AF
:10521000001200200A607047F0B54B7891F800C08A
:10522000012B35D1D1F814E000EB4C1400254FF6DA
:10523000FF76D4F81079CFF6F875CEF20706BEF1F6
:10524000000F04F510634CD03D401D611D693540D1
:105250001D618D681F690EEB0506013EB6FBF5F575
:105260000026C1F6F87606EAC5453D431D61754640
:105270001E696FF3DF4535431D61CD78012D39D1AE
:105280001D6925F0C0451D611D6945F0005530E0E0
:1052900000EB4C13D3F8107B4FF6FF7C6FF3120733
:1052A000C3F8107BD3F8107BC0F2070C6FF3DC4718
:1052B000C3F8107B4F698D68002F03F530634AD027
:1052C0002F44013FB7FBF5F70026C1F6F8761C69BD
:1052D00006EAC746BFB226436F431E6107EA0C06C3
:1052E00040E03E401E611E6946F400261E611E69B4
:1052F00035401D61012A15D10A69002A18BFC4F87A
:105300001429C978012945D1D0F80808D4F8001922
:10531000C0054FF0805058BF4FF000500843C4F80C
:10532000000937E000F510634FEA4C141D5945F0B1
:1053300004451D51CD78012D33D1D0F80858E658D9
:10534000ED054FF0805558BF4FF000553543E550FF
:1053500092B30020F0BD1F6905EA0C0637431F61B8
:105360004FF400261F69012A47EA06071F6103D18F
:10537000CA68002A18BF5A61C97801290AD1D0F831
:1053800008081968C0054FF0805058BF4FF0005012
:10539000084318604FF00441186808431860002063
:1053A000F0BDBEF1000FD4D00CF00F01012202FAC3
:1053B00001F100F63403EFE75FEA0E42C9D0CB6893
:1053C000032212FA8EF700F580504FEA0C31BE0826
:1053D0000122043B012E88BFBA0800BF53F8047FA6
:1053E000013A0F50FAD1B4E70146806840F001025B
:1053F00000208A607047000081B0890100222031BE
:105400000092016140F64051C0F20301009A01325E
:105410008A42009205D802699206F7D4002001B0B2
:105420007047032001B07047D0F8080800F006016B
:1054300080074FF0020058BF0F20002908BF084620
:1054400070470000406900F001007047D0F818185C
:10545000D0F81C08084080B270470000D0F8181837
:10546000D0F81C080840000C70470000D0F810C8A5
:10547000D0F8343801F00F0223FA02F2D20100EB27
:105480004110D2B2D0F8080942EA0C010840704736
:1054900000EB4111D1F8081BD0F814080840704700
:1054A000416980690840704780B5930802F00302A3
:1054B0000DD004394FF4805C012B98BF012300BF4D
:1054C00050F80CE0013B41F804EFF9D1043172B11E
:1054D0004FF4805350F803C0002300BF2CFA03F0B0
:1054E000013A01F8010B100403F10803F6D1084654
:1054F00080BD0000B0B50446C06820F0C040E06048
:1055000091B1012926D1E068002540F00050E0600B
:105510000120FBF7EDFF6069C00705F1010014D120
:10552000312D0546F4D310E0E068002540F08040BE
:10553000E06000BF0120FBF7DBFF6069C00705F1F9
:10554000010002D0312D0546F4D33238B0FA80F094
:105550004009B0BD0120B0BD0246D0F8000801F0FE
:105560007F0120F4FE60C2F80008D2F8000840EA8B
:1055700001110020C2F8001870470000022A0246FC
:105580000DD145F24030CFF6277043F20053084466
:10559000C0F20C0398420DD24FF4705001E04FF46A
:1055A0001050D16821F47051D160D16801430020BE
:1055B000D160704741F64060CFF61B7044F2402343
:1055C0000844C0F20F03984202D24FF46050E8E75B
:1055D000A1F5740044F68073A0F51050C0F21203D8
:1055E000984202D24FF45050DBE7A1F183704DF2A4
:1055F0002063A0F5E740C0F21303984202D24FF4B3
:105600004050CEE74BF26060CFF6E5604EF260337B
:105610000844C0F21603984202D24FF43050C0E75B
:105620004DF20030CFF6CE6047F240730844C0F22E
:105630001B03984202D24FF42050B2E745F6C03027
:10564000CFF6B36049F2C0130844C0F22103984278
:1056500002D24FF41050A4E7A1F1B77047F22053E3
:10566000A0F55850C0F23803984202D24FF40050CF
:1056700097E745F2E040CFF6596049F6E043014430
:10568000C0F241034FF4C050994238BF4FF4E0508C
:1056900087E7000010B5DDF808C0BCF1000F14D199
:1056A0009BB103F1030C00F5805412034FEA9C0EEA
:1056B00001230439BEF1010F88BF4FEA9C0300BFEC
:1056C00051F8040F013B1051FAD1002010BD000029
:1056D000FEE70000002908BF704742F0006242F474
:1056E0000032013812F8013B013900F8013FF9D1CD
:1056F000704700000021C0F60201405C70470000C6
:105700002DE9F04381B08946D10728D1804642F087
:10571000006040F29C1740F40030C2F200075FEADC
:105720005905386016D008F101040126012D98BFF3
:10573000012500BF396834F8012C01200023FBF754
:10574000A9FF68B93868013D00F1020004F10204C4
:105750003860EFD15FEAC97006D1002600E001266B
:10576000304601B0BDE8F08309EB080010F8010CE9
:10577000396800F57F42012000230126FBF78AFFEC
:105780000028EDD13868002602303860E8E70000D4
:1057900080B586B00020009001A86946FBF7BCFEEA
:1057A0005DF8180B80BD000080B540F2BF71C2F2F9
:1057B0000001087800284FF0000008BF80BD087085
:1057C000FBF75EFF80BD000080B540F2BF71C2F202
:1057D00000010878002818BF80BD01200870FBF781
:1057E000DFFF80BD80B540F60000C4F202004FF438
:1057F00000510122FCF7BAF880BD000080B540F6E8
:105800000000C4F202004FF400510022FCF7AEF891
:1058100080BD0000B0B540F600040325C4F20204C8
:1058200020464FF400510022FCF7A0F84FF4967088
:10583000FBF75EFE20464FF400510122FCF796F87C
:105840004FF49670FBF754FE013DE9D1B0BD000066
:1058500088B040F60004C4F20204FCF7A1F8FEF799
:105860003FF8002543F630000595CDE90355CDE915
:1058700001550695C4F202000168012241F00401BD
:10588000016001684FF4005601F004010691069989
:1058900006950168012741F080010160016801F06F
:1058A0008001069106990695016841F001010160A9
:1058B00000684FF4005100F0010006900698204661
:1058C000FCF754F80220049001A92046CDE90167B5
:1058D0000395FBF77DFF40F6A060A4F50131C2F20D
:1058E00000000923CDE90355CDE90155CDE9065561
:1058F00041F26F7280E82600C0E903358561FDF74B
:10590000DBF920B1EFF3108072B600BFFEE74FF471
:105910008050019040F6A060C2F2000001A9FDF79E
:105920005FFA20B1EFF3108072B600BFFEE740F6D9
:10593000A0600026C2F2000006A9CDE90666FDF7C8
:1059400071F920B1EFF3108072B600BFFEE740F6A8
:10595000E860A4F57841C2F200000C254FF4E13272
:1059600080E84600C0E90366C0E90556C661FDF758
:105970005FFD20B1EFF3108072B600BFFEE740F686
:105980002C70A4F5E231C2F2000000234FF416524D
:1059900080E80E00C0E90333C0E90553C361FDF799
:1059A00047FD20B1EFF3108072B600BFFEE7FDF7B0
:1059B0000FFFFDF7D3FEFFF72DFF00F029F8FAF7F0
:1059C00005FD00F035F8FAF7B1FD00BFFAF71EFE4D
:1059D000FDF7E2FEFAE7000080B5FDF73FFF80BD6E
:1059E00080B5FDF743FF80BD80B5FDF749FF80BD61
:1059F00080B5FDF75BFF80BD80B5FDF751FF80BD31
:105A000080B5FDF759FF80BD80B5FDF75DFF80BD16
:105A100080B51D2000210122FCF732F81D20FCF783
:105A20001FF840F6A060C2F20000FDF797F980BDB4
:105A300080B5252000210222FCF722F82520FCF762
:105A40000FF840F6E86040F69871C2F20000C2F22A
:105A500000010122FDF782FD80BD0000002904BF86
:105A60000020704770B540F6E8660C460546C2F265
:105A7000000600BF3046294601220223FDF7B4FD8F
:105A8000013C05F10105F5D170BD02E008C8121F07
:105A900008C1002AFAD170477047002001E001C117
:105AA000121F002AFBD1704710B5002821D0114BDE
:105AB0000022001F196803E0814203D80A464968A2
:105AC0000029F9D152B11368841A9C4204D10068AC
:105AD00018441060104602E0506000E0186039B1D0
