:020000040800F2
:10000000A01E002001010008053800088D370008F7
:1000100001380008E9010008CD5500080000000083
:100020000000000000000000000000004D38000843
:10003000F9010008000000000938000889380008AC
:100040001B0100081B0100081B0100081B01000820
:100050001B0100081B0100081B0100081B01000810
:100060001B0100081B0100081B0100081B01000800
:100070001B0100081B0100081B0100081B010008F0
:100080001B0100081B0100081B0100081B010008E0
:100090004D5500081B0100081B0100081B0100084A
:1000A0001B0100081B0100081B0100081B010008C0
:1000B0001B01000825390008000000001B01000892
:1000C0001B01000800000000000000001B010008E8
:1000D00000000000F9390008093A0008000000009B
:1000E0001B0100081B0100081B010008DFF80CD0F1
:1000F00000F03CF80048004751570008A01E0020BF
:100100000648804706480047FEE7FEE7FEE7FEE7B1
:10011000FEE7FEE7FEE7FEE7FEE7FEE7213900081F
:10012000ED0000080649074A0868504343F23902C7
:10013000104408604008704701490860704700009B
:10014000000000206D4EC641D2B201E000F8012B44
:10015000491EFBD270470022F6E710B513460A4647
:1001600004461946FFF7F0FF204610BD064C074D28
:1001700006E0E06840F0010394E807009847103477
:10018000AC42F6D3FFF7B6FF9C5A0008BC5A0008F1
:1001900070B58C1810F8015B15F0070301D110F849
:1001A000013B2A1106D110F8012B03E010F8016B76
:1001B00001F8016B5B1EF9D12B0705D40023521EF9
:1001C0000DD401F8013BFAE710F8013BCB1A921C61
:1001D00003E013F8015B01F8015B521EF9D5A1425F
:1001E000D8D3002070BD0000FEE70000002070475B
:1001F00000207047002070477047000070470000E3
:1002000040F2C670C2F200000078B0FA80F04009F7
:100210007047000080B580B205F0EAF980BD0000AB
:1002200040F2A810C2F2000090F8AC2190F8A7119B
:100230003AB131B940F69C62C2F200021268012A5A
:1002400004D8013938BF002180F8A71140F2C670E8
:10025000C2F20000022101707047000080B505F075
:1002600041FA80BD80B505F049FA80BD2DE9F04125
:1002700040F2A818C2F2000898F8000098F801109F
:10028000FF2808BFFF291ED001F07F0140EA0126A8
:100290000020002500F06CFF00204146324600F0AF
:1002A0005BFF40F29D30FFF7B5FF06464FF46770E5
:1002B000FFF7B0FF40EA06200130A8F8B10180B294
:1002C000FFF73AFF14E040F29D30FFF7A3FF054629
:1002D0004FF46770FFF79EFF40EA05200130A8F851
:1002E000B10180B2FFF728FF0120012500F040FF97
:1002F00008F2B1114FF46770022200F02DFF28467A
:1003000000F032FF40464FF46771FFF724FF0020F2
:100310006FF0FF01FF2200BF08230825082838BF1F
:1003200003464FEA431688BF054601EB4515FF2EED
:100330004FF0FF06B8BF5E01FF2D08EB400300F150
:100340000100A8BF154610281E755D75E4D1A8F1FF
:100350000200102118224FF48063FF26C1F1180516
:100360008A424FF0180738BF00256C01182988BF52
:100370000F46A3EB4717FF2C4FF0FF0438BF6C016B
:10038000FF2F01F10101A8BF374680F8364080F801
:100390003770202900F10200E0D1022088F8A7017F
:1003A00040F29E30FFF736FF40F2C471C2F2000106
:1003B00008700120FFF72EFF80F0800040F2C57129
:1003C000C009C2F200010870BDE8F08170B540F6C6
:1003D0007C60C2F200000221016000200025FFF7CE
:1003E00019FF044601200126FFF714FF44EA00200C
:1003F0004FF6FF71411A6FF3DF3008BF084640F631
:100400008061C2F20001086040F69C60C2F2000008
:10041000056040F2C670C2F20000057040F69460BC
:10042000C2F20000056040F68A60C2F2000005805A
:1004300040F2A815C2F2000505F15A0040F242311F
:10044000FFF789FE40F29D3085F8AC61FFF7E2FED0
:1004500004464FF46770FFF7DDFE40EA0420A5F87C
:10046000B10140F2C470C2F200000078002808BF59
:10047000FFF7F8FE70BD000010B540F2A814C2F2FC
:100480000004002084F8AC0140F69460C2F2000041
:10049000006840F69061C2F20001086005F02AFA97
:1004A000022084F8A701FFF7D9FE10BD2DE9F04F17
:1004B00081B040F2A815C2F2000595F8AC01002801
:1004C00000F0C38440F69C6640F68A6740F67C6480
:1004D00040F69468C2F20006C2F20007C2F20004BD
:1004E0004FF001094FF0020BC2F2000811E000BF0B
:1004F000B5F8AA0105EB4000B0F98200306095F82C
:100500009F01284480F85A9095F8AC01002800F02B
:100510009C843068002840F09884FFF76FFE4FF00D
:10052000000A0AE08020802105F0F4F985F8A7B1DF
:100530000AF1010ABAF1220F22D005EB0A0090F865
:100540005A100029F4D001390A0680F85A10EFD168
:10055000BAF1210FE6D0BAF1200F04D1802080211A
:1005600005F0D4F9E2E75FEACA6005D409FA0AF0B7
:1005700080B205F0BBF9D9E7082005F0BFF9D5E74F
:100580003888002840F0648440F68061C2F200019F
:1005900020680968884280F06184411CA5F8A201A6
:1005A0002160FFF737FE216885F89D01481C206017
:1005B0000846FFF72FFE95F89D1185F89C010A0665
:1005C00020D4C1F3C302062A9ED840B2DFE812F05D
:1005D00007006C007F00DE00050131013F01480784
:1005E0007FF592AFB5F89C01B0460646BA4689073A
:1005F0006FF35F2600F1C781C0B200F043FC300A00
:10060000C6E100BF48060DD44808C1F34401C20644
:1006100085F89F111BD409FA01F080B205F062F948
:1006200019E000BFC1F3401000F1200285F89F21BE
:1006300001F01F0205EB420185F8A0010028087DAA
:10064000497D85F8A1211AD105F060F919E000F083
:100650000F0005F053F995F8A801A5F8A7B10028F7
:1006600085F8A9017FF444AF95F89D1195F89C0198
:10067000C90740F0FE8000EB800040003EE705F037
:1006800049F995F8A801A5F8A7B1002885F8A901AE
:100690007FF42EAF95F89C01010600F1F58000F083
:1006A0007F003221484329E795F8A80185F8A90180
:1006B00000284FF0000085F8A80100F04381B5F84C
:1006C000AA0105EB4000B0F9820030601CE795F804
:1006D000A60150B100EB400105EB8101B1F81E11FC
:1006E000B5F8A22191423FF40FAF013085F8A60181
:1006F000C0B200EB400005F59171B44601EB8000FB
:10070000002640F80C6C95F8A60195F8A83100EB8E
:10071000400001EB8000B5F89C11B5F8A2216FF301
:10072000DF21002B20F8042C20F8021C85F8A931C9
:1007300085F8A86100F0F680B5F8AA1105EB410133
:1007400091F8822012F00F0285F8AD211EBF0C38FF
:1007500002F10042026091F88200000985F8AE01C2
:1007600000F0E080E91C95F8A62101EB4000B0F90B
:100770007F0002EB420201EB8201C1F81701B1F8E0
:100780001D0185F8A891A5F8AAB1D8E048070ED5B3
:100790002068411C2160FFF73DFD216885F89B0121
:1007A000481C20600846FFF735FD85F89A0195F84A
:1007B000A80185F8A90100284FF0000085F8A801DC
:1007C00000F0C880B5F8AA01002800F01A810128BD
:1007D00040F0308295F8A60145E24A0759D4C1B2EB
:1007E0004A09072A00F08081012A00F09281002A3C
:1007F0007FF48AAEC90604D595F8B01100293FF4FC
:1008000083AE95F8A61100F00F0085F8AF01081A25
:10081000C1B201EB410105EB810185F8A60101227E
:10082000B1F8200185F8A8214FF00109A5F8AA2107
:100830001FE24A074AD4B5F89C11C1F3C21100293E
:1008400085F8AD1100F0F18040F306001AE1B5F82B
:100850009C0140F2FE3202EA4000C1F34101DFE8B0
:1008600001F0A502A0A795F8B011002940F09E80E4
:100870004AE640B2002800F07F0000F17E8032217D
:100880004843388031603AE695F89F1100F07F00C8
:1008900075E0C0F3C20300F0070285F8AD3185F8BA
:1008A000AE2101F00301B646BC46DFE811F00400BA
:1008B0004B015501610105F1820131F8133031F826
:1008C0001210591AB1FA81F149095CE101F00602EE
:1008D000042A40F07B80B5F89C21C2F3821085F891
:1008E000AF01C2F3C20002F00701002885F8AD0194
:1008F00085F8AE113FF408AE05EB41019309B1F85C
:10090000821003F00703B6460AB2DFE813F00800CE
:10091000C001C601CC01D301DC01E201E80105EB15
:100920004000E1E195F8A601002100EB400005EB55
:100930008000B0F8200185F8A891A5F8AA112060E0
:100940006646E1E5480700F1AA80B5F89C016FF31F
:100950009F20BAE095F8A6016FF00B0100EB400074
:1009600001EB80002844D0F82211B1F1FF3F40F3A1
:10097000B1800131C0F822115CE195F89F11294442
:1009800081F85A00C0E5A85D2E4400F07BFA70782B
:1009900000F078FA464640F694685746C2F20008DE
:1009A000B2E595F8B01100297FF4AEAD21880BE0D7
:1009B00095F8A5110131CAB285F8A511216805EB9A
:1009C0004202A2F8B21089B2084452E101F00701D4
:1009D000062940F0ED80C0F3021100F00F0200295B
:1009E00085F8AD1185F8AF213FF48EAD05EB4103DD
:1009F000B3F88230002846BF18B2104103FA02F063
:100A000040E095F89D01400700F1088195F8A601A6
:100A1000B5F89C1100EB400005EB80006FF39F21BF
:100A2000002908BF4FF0004102E140063FF56CADE0
:100A30002068411C2160FFF7EDFB216885F89B01D0
:100A4000481C20600846FFF7E5FB95F89C2185F8D7
:100A50009A01C2F3C20012F0070185F8AF0185F8D0
:100A6000AD113FF451ADD208D5F89A0102F007025A
:100A7000DFE812F008000D00AF01B801C301D90191
:100A8000E201D00105EB4101A1F882003CE505EB54
:100A90004101B1F882201044A1F8820034E58807B2
:100AA00000F1EA802068411C2160FFF7B3FB216858
:100AB00085F89B01481C20600846FFF7ABFB85F8D2
:100AC0009A01D5F89A0120F07E4000EB80004000AA
:100AD000306019E501F00F0005EB4000B0F882101E
:100AE0000131A0F88210A5E0C80604D595F8B00140
:100AF00000283FF409AD95F8A501002800F0C38057
:100B000005EB4001B1F8E4100138216085F8A5013A
:100B1000FAE4C90604D595F8B01100293FF4F4AC05
:100B200095F8A61100F00F0085F8AF01081AC1B2C0
:100B300001EB410105EB8101B1F8201185F8A60117
:100B40002160E1E405F1820131F8133031F812102F
:100B5000591A18BF012116E005F1820131F913304D
:100B600031F912108B424FF00001B8BF01210AE0A9
:100B700005F1820131F9133031F912108B424FF037
:100B80000001D8BF012195F8B02185F8AF111346B7
:100B9000002A18BF0123C0B285F8B031800976461B
:100BA0006746DFE800F002212A3285F8B011ABE495
:100BB00000F00701C0F3C3000238072885F8AD1123
:100BC0003FF6A2ACDFE800F00595A1B204C5CBD991
:100BD0009AE400293FF498AC05EB4100B0F882108C
:100BE0004942A0F882108FE4002A18BF012201EACE
:100BF000020085F8B001FFF787BC52EA010018BF78
:100C0000012085F8B001FFF77FBC002A18BF012240
:100C100081EA020085F8B001FFF776BC95F8A601DD
:100C2000D5F89A1100EB400005EB800021F07C41E3
:100C3000C0F81A1195F8A60100EB400105EB8102FE
:100C4000D2F81611B1F1FF3F05DC01F00F0105EB01
:100C50004101B1F9821002F58B725368B3F1004F74
:100C600006D0994204DB013885F8A601FFF74CBC99
:100C700010892060FFF748BCB5F89C016FF35F2036
:100C80003060FFF741BCFFF7F7FBFFF73DBC05EB1A
:100C90004000B0F88220114426E005EB4000B0F897
:100CA0008220514320E005EB4000B0F9821091FB17
:100CB000F2F119E005EB4000B0F9821091FBF2F37C
:100CC00003FB121110E005EB4000B0F88220114048
:100CD0000AE005EB4000B0F88220114304E005EB88
:100CE0004000B0F882205140A0F882107646FFF70D
:100CF0000BBC00293FF408AC05EB4100B0F88210B2
:100D0000C943A0F88210FFF7FFBB95F8A401EA1CC5
:100D1000013002EB410185F8A401B1F87F10C0B2A7
:100D200002EB4000A0F8AF10FFF7EEBB00293FF444
:100D3000EBAB95F8A401EA1C02EB4003B3F8AF302B
:100D400002EB41010138A1F87F3085F8A401FFF7DB
:100D5000DBBB85F8A891A5F8AA11FFF7D5BB002940
:100D60003FF4D2AB05EB4100B0F88210002918BF68
:100D70000121A0F88210FFF7C7BB00293FF4C4ABE4
:100D8000B5F8B101A8B9D8F8000005F2B11AA5F874
:100D9000B101012000F0ECF94FF4677051460222D6
:100DA00000F0DAF9012000F0DFF9B5F8B101FFF742
:100DB000C3F9FFF7B7F995F8AD1105EB4101B1F9AA
:100DC000822090FBF2F303FB1200A1F88200FFF7F0
:100DD0009BBB05EB4101B1F882205043A1F8820092
:100DE000FFF792BB05EB4101B1F9822000B292FB03
:100DF000F0F0A1F88200FFF787BB05EB4101B1F9E4
:100E0000822003B292FBF3F303FB1020A1F88200CF
:100E1000FFF77ABB05EB4101B1F882205040A1F801
:100E20008200FFF771BB05EB4101B1F88220104051
:100E3000A1F88200FFF768BB05EB4101B1F8822001
:100E40001043A1F88200FFF75FBB01B0BDE8F08F4F
:100E500030600020388001B0BDE8F08F002085F8B8
:100E6000AC01D8F8000040F69061C2F200010860C1
:100E700004F040FD022085F8A701FFF7EFF901B06B
:100E8000BDE8F08F80B582B08DF807000DF1070046
:100E9000012104F069FD02B080BD00002DE9F0439E
:100EA00081B0002800F12F810446FFF7A7F940F236
:100EB000CE7640F2CC77C2F20006C2F2000731884B
:100EC000388840F2A8158142C2F200051BD26C544A
:100ED00001318AB28242318040F01581022000F057
:100EE00047F940F2C870C2F2000000683A8840F248
:100EF000A811C2F2000100F02FF98220FFF7C2FF13
:100F000001B0BDE8F08340F68469C2F20009D9F867
:100F10000010220601F10100C9F800006C5440F1F4
:100F2000EB8040F688680729C2F200080BD089B927
:100F3000A52C06D198F8001019B9012088F80000F6
:100F4000D7E0082806D195F8AC01002800F05380BE
:100F5000FE2083E098F80010012940F04880A4F1B9
:100F600080010022252988F8002000F29580DFE822
:100F700001F0137B7DB3B6959793939393939393DB
:100F80009393939393939393939393939393939331
:100F900093939393939393AF95F8A601042600EB54
:100FA000400005EB8000D0F81651E8B2FFF76AFF69
:100FB000013E4FEA1525F8D140F69060C2F20000DC
:100FC00005680426E8B2FFF75DFF013E4FEA1525EC
:100FD000F8D140F67C60C2F2000005880126E8B234
:100FE000FFF750FF013E4FEA1525F8D07CE0C0B274
:100FF000FFF748FF7DE069782878AA78890041EA00
:10100000402040EA521080B204F07CFCE878A978D5
:10101000000940EAC100C0B204F070FC29796A7985
:10102000E878CB08920843EA001042EA4111C0B2C6
:10103000C9B204F06BFCA9796879EA794B0843EAF4
:10104000801001F0010102F07F0242EAC111C0B23A
:1010500004F060FC022085F8A701FF20FFF712FFD3
:10106000002088F8000044E080203BE0052813D1F0
:10107000FFF702FA28786978AA78EB7840EAC1107D
:1010800040F2C871C2F20001086042EAC310388021
:1010900000203080812025E0002023E0462021E050
:1010A00040F2C475C2F20005287880F0080028706C
:1010B000012000F05DF840F29E302946012200F048
:1010C0004BF8012000F050F8FFF7C8F8287809E045
:1010D000012088F8000007E0FFF778F901E0FFF74A
:1010E000CBF98320FFF7CEFE822C02D0002000F047
:1010F0003BF80020C9F80000D9F80000142824BFEC
:101100000020C9F8000001B0BDE8F08340F694600B
:10111000C2F2000001680131016040F2C670C2F203
:101120000000017811B101780139017040F69C602E
:10113000C2F20000016869B140F2A811C2F20001D8
:1011400091F8A71119B10168022938BF70470168E9
:10115000013901607047000080B5134682B208462D
:10116000194604F04BFA80BD80B504F09DFA80BDAD
:1011700010B502280CD0012817D0A8B904F0A4FAA1
:1011800046F20040C0F60000012104F07FFA10BDD5
:1011900004F09AFA002818BF10BD46F20040C0F6CD
:1011A0000000012104F072FA10BD04F08DFA4FF432
:1011B000677004F027FC4FF467710022044604F0C6
:1011C00007FA46F20040C0F60000012104F05EFA82
:1011D00020464FF46771002204F010FA204604F014
:1011E000E9FB10BDEFF3108072B600BFFEE7000010
:1011F000F0B581B042F20C060446C4F2020600F0DB
:10120000BDFA3168C90715D13068800644BF202077
:1012100030603068C00608D43069C00705D1306836
:10122000400702D4002001B0F0BD3068C00608D4E9
:1012300000200FE00546671C2CD084BB032001B0C2
:10124000F0BD40F65860C2F20000C16941F00201F1
:10125000C16110203168490709D540F65861C2F2D2
:101260000001CA6940F0040042F00102CA6131691C
:10127000C9070BD040F65861C2F20001CA6942F0BA
:101280000402CA61316921F001013161306001203D
:1012900001B0F0BD3068C007B6D0002FFAD000F022
:1012A0006DFA401BA042F5D9C8E70000014690F84E
:1012B0002100022813D10868D1E90FC3026822F087
:1012C0000E020260026822F001020260012000FAB0
:1012D00003F2CCF8042081F82100002002E0042071
:1012E00088630120002281F82020704780B590F8A3
:1012F0002110022923D10268116821F00E0111602A
:101300002F211368C4F202018A4240F20401C4F2A0
:10131000020123F00103136015DD3023C4F2020340
:101320009A421CD04423C4F202039A421AD0582392
:10133000C4F202039A421AD14FF480331FE0042111
:101340008163012080BD0823C4F202039A420CD0BD
:101350001C23C4F202039A4209D110230FE04FF478
:1013600080730CE04FF4805309E0012307E001F1A2
:10137000680C4FF08073624508BF4FF480130B6018
:10138000416B4FF48072028401B18847002080BD18
:10139000B0B5044600F0F2F9054640F24450C2F2FE
:1013A00000000078611C18BF044400BF00F0E6F99B
:1013B000401BA042FAD3B0BD2DE9F04381B040F606
:1013C0005866C2F20006327E012A03D1022001B023
:1013D000BDE8F083054601202C6830764CF2503091
:1013E0008846FFF705FF022C02D120B101204AE018
:1013F000C0B1012047E0002042F21004F061C4F2C5
:101400000204206840F004002060206840F04000A2
:1014100020604CF25030FFF7EBFE216821F0040110
:10142000216030E04FF0FF30C8F80000D5E90270CD
:1014300007EB8020874222D242F21004C4F2020459
:101440004FF00009C6F81C90206840F002002060B0
:101450006760206840F0400020604CF25030FFF799
:10146000C7FE216821F00201216050B9D5E90212BE
:1014700007F5806701EB82218F42E3D303E001206F
:1014800001E0C8F800700021317601B0BDE8F083BA
:1014900042F21001C4F20201086840F0800200200C
:1014A0000A6070472DE9F04F81B040F65869C2F2EA
:1014B0000009924699F81820012A03D1022001B0B0
:1014C000BDE8F08F8046012089F818004CF25030BA
:1014D0009B460E46FFF78CFEA0BB404642F210072B
:1014E000B8F1020F18BF0420C4F20207B8F1010FCF
:1014F00008BF404645424FF000080024C4F12001D7
:10150000C9F81C802AFA04F00BFA01F13A68084382
:10151000B4F1200158BF2BFA01F042F0010139600B
:1015200026F8020B4CF25030FFF762FE39680135A5
:1015300021F0010248F100013A6018B9002904F1D4
:101540001004DBD0002189F8181001B0BDE8F08F3D
:1015500042F20400C4F20200C16809065CBF002028
:10156000704740F22311C4F26751016048F6AB1195
:10157000CCF6EF510160C068C0B2C00970470000EE
:101580002DE9F04F82B041F20002C4F201020E6870
:101590000323904208BF0223002E009300F0E58051
:1015A00040F20C4C40F2004EC4F2010C0022C4F296
:1015B000010E01244FF0000B4FF0000946E040F609
:1015C0000044C4F20104009DA04208BF012502F0BE
:1015D0000C040F27A7402AEA070705FA04F43C4346
:1015E00043F826404E68F303DEF8003054BF23EA88
:1015F000080343EA0803CEF80030DEF80430B403F1
:1016000054BF23EA080343EA0803CEF80430F40287
:10161000DEF8083054BF23EA080343EA0803B402A3
:10162000CEF80830DCF800304FF0010454BF23EA54
:10163000080343EA0803CCF800300E680BF1010BF5
:1016400036FA0BF302F1040200F08F8004FA0BFA71
:1016500016EA0A08F1D04E684FF6FF73C1F2100384
:101660009E4211DC122E51D8DFE806F0340A4246C1
:1016700050505050505050505050505050494D00C4
:10168000D1F80C9042E000BF4FF6FF73C1F2210386
:101690009E420FDC0023C1F211039E421AD00023A8
:1016A000C1F212039E4215D00023C1F221039E42D3
:1016B00010D02BE00023C1F222039E420AD0002367
:1016C000C1F231039E4205D00023C1F232039E4293
:1016D0001CD100BF8B6843B1012B14BFC0F814A00C
:1016E000C0F810A04FF0080910E04FF004090DE019
:1016F000CB6803F1080909E04FF0000906E0CB6868
:1017000003F1040902E0CB6803F10C091346054616
:10171000B8F5807F24BF203B04352E680F279F40FB
:10172000BE4309FA03F333432B60CB79DB067FF525
:1017300084AF41F21804C4F2020423684FEA9B0606
:1017400043F001032360236840F6000403F0010323
:101750000193019BAEF57E7353F826A0C4F20104F9
:10176000A0427FF42CAF002531E702B0BDE8F08F36
:10177000002A08BF090401617047000040F6986024
:10178000C2F200000068704740F2445040F6986191
:10179000C2F20000C2F2000100780A68104408603A
:1017A0007047000080B542F20000C4F202000168F8
:1017B00041F010010160032000F086F80F2000F0D6
:1017C00005F800F02BF8002080BD0000B0B540F215
:1017D0004452C2F2000240F280011278C2F20001CB
:1017E0004FF47A730968B3FBF2F20446B1FBF2F1ED
:1017F000084601F005FA0F2C4FF001050CD858B936
:101800004FF0FF3021460022002500F031F840F271
:101810004850C2F2000004602846B0BD82B041F2D8
:101820001800C4F20200016841F001010160016882
:1018300001F0010101910199416841F0805141603D
:10184000406800F080500090009802B0704700009F
:10185000002848BF704700F01F01012202FA01F181
:101860004EF200124009CEF2000242F820107047FA
:1018700010B54EF60C5CCEF2000CDCF80030C3F371
:10188000022E8EF00704042C28BF0424BEF10303AB
:101890004FF0FF3E0EFA04F438BF0023A1439940F5
:1018A0000EFA03F39A4300F00F03043B1143634421
:1018B00009010C3300F16042B0F1FF3FC8BF02F5EF
:1018C0006443197010BD00004EF60C51CEF20001B9
:1018D0000A684FF6FF031A4060F30A2242F0806064
:1018E00040F0FD700860704780B501F0070C0CEB0C
:1018F0008C0C00EBCC0C0CF1280C01EB810E0906D2
:1019000000EBCE0058BF00F5B47C4AB101208CF842
:101910000C00180CACF80A000020ACF8083080BDB0
:1019200000208CF80C000020ACF8063080BD0000D0
:101930007047000080B501EB8102D0F8E83200EB7F
:10194000C200C26B184602F0F9FA80BD80B501EB07
:101950008102D0F8E83200EBC200D0F87C211846B2
:1019600002F04EFB80BD000010B50446080601F0F1
:10197000070000EB800104EBC10205D402F5B4714D
:10198000002382F8693104E0012302F1280182F882
:10199000293094F8A8220870012A04BF022010BD43
:1019A0002068012284F8A82203F080F8002084F83F
:1019B000A80210BDB0B50446406801F00F02824293
:1019C00084BF0120B0BD080601F0070000EB8001D4
:1019D00004EBC10205D402F5B471002382F8693129
:1019E00004E0012302F1280182F8293094F8A822AA
:1019F0000025012A8D70087004BF0220B0BD206848
:101A0000012284F8A82203F0DFF8284684F8A852BF
:101A1000B0BD0000B0B50546080601F0070000EBB8
:101A2000800105EBC10C05D40CF5B47100248CF8D1
:101A3000694104E001240CF128018CF829404C781C
:101A40000870002C0A61CB7018BFC881022B04BF3C
:101A50000020087195F8A802012804BF0220B0BD3B
:101A60002868012285F8A82202F01CFF002085F8D2
:101A7000A802B0BD10B501F0070C0CEB8C0100EB17
:101A8000C10E00680EF5B4710024CEF87C21CEF8AA
:101A90008031CEF884418EF869418EF868C103F038
:101AA000EBF8002010BD0000B0B50446406801F01E
:101AB0000705854284BF0120B0BD080609D401EBAB
:101AC000810004EBC00000F5B471002280F86921A8
:101AD00008E005EB850004EBC000012200F12801BD
:101AE00080F8292094F8A802012201288A700D703C
:101AF00004BF0220B0BD206884F8A82203F0A2F839
:101B000025B9206804F52C7103F05CF8002084F8F6
:101B1000A802B0BD80B501F0070C0CEB8C0100EB06
:101B2000C10101F828CF00684FF0010C01F1140742
:101B300081F824C04FF0000E87E80C400B6281F85A
:101B400001C003F099F8002080BD00002DE9F04F9E
:101B500085B00446006803F001FD000406D5206846
:101B6000B0F94410B1F1FF3F40F3BA80206803F0B0
:101B7000F5FC400519D52068B0F8441021F48061C7
:101B8000A0F84410204600F0AFFC94F8A802012809
:101B90000BD00120002584F8A80284F82450206886
:101BA000002103F0F9FC84F8A852206803F0D6FC69
:101BB000400406D52068B0F8441021F48041A0F814
:101BC0004410206803F0CAFC800406D52068B0F8F1
:101BD000441021F40051A0F84410206803F0BEFC2A
:101BE000C00416D52068B0F8401021F00401A0F818
:101BF0004010B0F8401021F00801A0F84010204635
:101C000000F084FC2068B0F8441021F48051A0F862
:101C10004410206803F0A2FC000543D520686FF053
:101C20000102011F01A800BF31F8043F87180232EA
:101C30000E2A7B80F8D12168B1F8402042F00102E1
:101C4000A1F84020B1F8402022F00102A1F8402084
:101C5000B1F844205205FBD5B1F844206FF00103E0
:101C600022F48062A1F844200A1F00BFC7187F88B1
:101C700002330E2B22F8047FF8D1B1F8400040F077
:101C80000800A1F84000B1F8440020F40060A1F879
:101C90004400B1F8400040F00400A1F840002046A4
:101CA00000F078FC206803F059FC800509D5206815
:101CB000B0F8441021F40071A0F84410204600F060
:101CC0002BFC206803F04AFCC00506D52068B0F85C
:101CD000441021F48071A0F8441005B0BDE8F08FE5
:101CE00004F52C7140F60F7B009109E02046FFF7C8
:101CF00021FE00BF2068B0F9441000297FF536AFFF
:101D0000B0F8442012F00F094AD030F829804FEA89
:101D1000490A5FEA084140F1668130F81A1040F63E
:101D20000F7501EA0B01803120F81A1009EB8901C7
:101D300004EBC10B9BF874110BF5B476002900F08D
:101D4000A0809BF86B11022940F0AE80B0F85020C3
:101D500031785FEA484302EBC10200EB420200F136
:101D6000DA80B2F80C74DBF880216FF39F27D21B66
:101D70004FF0000338BF1A46CBF8802140F2E480D0
:101D80005FEA486200F1F08030F8212048F2C00399
:101D90002A401A4320F82120002F40F0E68008E175
:101DA0000188D2062BD401EA0B0101F50041018024
:101DB000B0F8501094F8282001EBC20100EB41006C
:101DC000B0F80404E16B6FF39F2060640844E063A3
:101DD00020460021FFF7AEFD94F82400002889D0AA
:101DE000206C002886D194F82400216840F08000FF
:101DF000C0B2A1F84C00002084F824007AE70A055C
:101E00006CD409047FF576AF018801EA0B018031BB
:101E10000180B0F8501094F8682101EBC20100EB8A
:101E20004101B1F80C346FF39F23C4F884318BB1B6
:101E3000D4F87C1171B1B4F86E2103F093FBD4F89F
:101E40007C01D4F884110844C4F87C0120460021A8
:101E5000FFF77CFD2068018809053FF54BAFB0F81E
:101E60005010D4F8783100F20C42002B00F09B8126
:101E70003E2B00F2A38103F0010707EB53039B0203
:101E8000A9E1B0F85010327801EBC20100EB41013A
:101E9000B1F80C746FF39F27002F00F08A80DBF8F5
:101EA0007C11BBF86E2181E0317848F2C00330F834
:101EB00021202A401A4320F8212030F82120B0F8B0
:101EC0005030520403EBC10100EB410136D4B1F8AC
:101ED0000C746FF39F27002F47D16AE0B0F85010C1
:101EE00094F8682101EBC20100EB4101B1F80C3418
:101EF000B4F86E2100996FF39F23C4F8843103F086
:101F000031FB2068018801EA0B0180310180204605
:101F100000F01CFBEEE6B2F80474DBF880216FF3EE
:101F20009F27D21B4FF0000338BF1A46CBF8802101
:101F300020D95FEA48622CD4A7BB3AE0B1F8047418
:101F40006FF39F2777BB34E030F8212043F60F73FF
:101F50001A404CF28003A3F500535A4020F8212088
:101F60005FEA48627FF510AF1FB3DBF87C11BBF866
:101F700072211BE030F8212043F60F731A404CF217
:101F80008003A3F500535A4020F821205FEA4862FD
:101F9000D2D530F8212048F2C0032A401A4320F855
:101FA000212037B1DBF87C11BBF870213B4603F0F0
:101FB000D9FADBF88411DBE95F0239443844CBF805
:101FC0008411CBF87C011AB1DBF87801B84204D94E
:101FD00031782046FFF7BAFC03E02068314602F072
:101FE0004BFE40F60F7B5FEA08607FF583AE20680A
:101FF00009EB890130F81A3004EBC10203EA0B0146
:1020000001F5004120F81A1092F82B1002F1280671
:10201000002918BF03291CD1B0F850303178176C53
:1020200003EBC10300EB4303B3F8043400256FF363
:102030009F23FF1A38BF2F4617647FF657AED16B28
:10204000576C1944D163F9185164314602F014FEFB
:1020500050E6022902D15FEAC851DDD5B0F8503010
:1020600031785FEA486703EBC10338D400F20C49CA
:1020700039F81370136C6FF39F27DB1B4FF00005CB
:1020800038BF2B46136464D95FEA484308D430F85C
:1020900021304CF2800503EA0B032B4320F821305A
:1020A000154615F84C3F012B40F07481134653F848
:1020B000488F53E904EC53F804ACBC44BA44F045EF
:1020C00043F80CCC43F804AC80F0C380B8F1000FA7
:1020D00000F00C810027C6461F602F7009E100F256
:1020E000044939F81370136C6FF39F27DB1B4FF013
:1020F000000538BF2B46136442D95FEA484308D530
:1021000030F821304CF2800503EA0B032B4320F812
:102110002130134613F84C5F012D40F03B811546EA
:1021200055F848EF55E904AC55F8048CBC44B84464
:10213000D64545F80CCC45F8048C80F08E804FF0E5
:102140000008BEF1000F83F8008040F08980BE4691
:1021500088E092F82920012A49D0002A40F09D8089
:10216000B0F8503000EB01173B44B3F8047427F487
:10217000F847A3F80474B3F8047447F400473CE04C
:1021800092F82920012A4AD0002A40F09580B0F820
:10219000503009EB0117FD5A25F4F845FD52FD5A60
:1021A00045F4004540E08B5A48F2000723F4F84319
:1021B0008B528B5ACFF6FF773B430CE05F09DE066C
:1021C0004FF0FF3608BF06EB531748F20003CFF677
:1021D000FF7343EA87238B52018843F60F72114045
:1021E0004CF28002A2F580525140018082E5B0F8A5
:1021F000503000EB01173B440027012AA3F8047478
:1022000045D0002A49D1B0F8500009EB0112135A09
:1022100023F4F8431352135A43F400433CE0B0F85C
:10222000503009EB01170025012AFD523CD0002A4D
:1022300042D1B0F8502000EB01101044B0F80C244B
:1022400022F4F842A0F80C24B0F80C2442F4004226
:1022500030E0A8EB0E051D604BE0AEEB0A08D64659
:10226000C5F8008092F82930012B37D0E3BBB0F8D5
:102270005050BEF1000F09EB011157D0BEF13E0FD7
:1022800064D80EF0010303EB5E039B026BE0B0F831
:10229000500009EB0112002313522046FFF74AFBBE
:1022A0005FEA48400ED575E0B0F8502000EB011011
:1022B00010440022A0F80C242046FFF73BFB5FEA05
:1022C000484067D5206831784CF2800330F82120EF
:1022D00002EA0B021A4320F821205BE0B0F85030EC
:1022E00009EB011121F803E0128E4EE000232B7060
:1022F000BE4692F82930012B11D0002B44D1B0F802
:102300005070BEF1000F09EB011117D0BEF13E0F66
:102310002CD80EF0010303EB5E039B0233E0B0F810
:10232000503009EB011121F803E02DE06B5A23F442
:10233000F8436B526B5A43F4004314E07B5A23F486
:10234000F8437B527B5A43F400431CE05FEACE67BC
:102350004FEA5E134FF0FF3708BF07EB5E134FF4F1
:10236000004747EA83236B52128E0EE05FEACE6588
:102370004FEA5E134FF0FF3508BF05EB5E134FF4D5
:10238000004545EA83237B52528E1FFA8EF3614645
:1023900003F00AF92068317840F63F7330F82120C5
:1023A0001A4048F2C003103B5A4020F82120A1E413
:1023B000F0B585B0F8B1044690F8A90228B900201C
:1023C00084F8A802204600F06DF8032084F8A902E2
:1023D000206802F0EDFB94E82F50D4E907678DE800
:1023E0002050CDE9036702F05FFB30B1022084F892
:1023F000A902012552E0012550E0206800210025B6
:1024000003F0C8F8616859B301200023002200BF1F
:1024100003EB830304EBC30787F82820D3B2013210
:10242000FB86D3B2994287F8290087F82B50C7E979
:102430000E553D64ECD800200023002203EB8303FB
:1024400004EBC30787F868210132D3B2994287F8B9
:10245000690187F86B01C7E95E00C7F88001EDD814
:1024600004F10807D4E9056520688CCFD4E907CECC
:10247000CDE9007602AE86E8205002F08BFB20B159
:10248000022084F8A902012508E00025012084F833
:10249000245084F8A902206802F07AFB284605B08F
:1024A000F0BD000080B582B0006845F60041C4F27E
:1024B0000001884201D002B080BD41F21C00C4F28C
:1024C00002000168002241F400010160006800215F
:1024D00000F40000019001981420FFF7C9F91420BE
:1024E000FFF7B6F902B080BD10B504468068022837
:1024F00018BFFEF777FED4F8E802012101F076FE5E
:10250000D4F8E80201F030FE10BD000080B5D0F82C
:10251000E80201F053FE80BD80B5D0F8E80201F07A
:1025200057FE80BD10B5044690F8A802012804BFEC
:10253000022010BD012084F8A80284F8241020682D
:1025400003F02AF8002084F8A80210BD80B5D0F866
:10255000E82200F52C71104601F05EFE80BD0000FF
:1025600010B5044690F8A802012804BF022010BD4F
:102570002068012184F8A81202F0DEFF2046012124
:10258000FFF7D6F9206802F001FB002084F8A802CA
:1025900010BD000010B50446D0F8E80201F090FE2E
:1025A000A069002808BF10BD4EF61050CEF2000002
:1025B000016841F00601016010BD00002DE9F04105
:1025C00082B00446007841F21C06C007C4F202063D
:1025D0004AD0306810F0805808D1306840F0805000
:1025E0003060306800F080500190019847F2000799
:1025F000C4F200073868C00512D4386840F480700F
:102600003860FFF7BBF805463868C00508D4FFF707
:10261000B5F8401B6428F7D9032002B0BDE8F0816B
:10262000706810F4407012D0616801F44071884203
:102630000DD0706840F24042C4F24222012320F4DF
:10264000407113600023C0071360716029D1706866
:10265000616820F440700843B8F1000F706003D146
:10266000306820F0805030602068810707D556F828
:10267000181CA26821F44041114346F8181CC006FA
:1026800003D4002002B0BDE8F08156F8180CE168D0
:1026900020F48000084346F8180C002002B0BDE882
:1026A000F081FFF76BF8054641F2883770688007C4
:1026B000CDD4FFF763F8401BB8424FF00300F5D9C3
:1026C000ECE700002DE9F04381B0002800F08580A0
:1026D00042F20008C4F202080446D8F800000D4691
:1026E00000F0070088420CD2D8F8000020F0070064
:1026F0002843C8F80000D8F8000000F00700A842FE
:102700006BD1206841F204098107C4F2020917D590
:10271000410705D5D9F8001041F4E061C9F800106F
:10272000010705D5D9F8001041F46051C9F800102F
:10273000D9F80010A26821F0F0011143C9F8001087
:10274000C00741D1D8F8000000F00700A8420CD91A
:10275000D8F8000020F007002843C8F80000D8F897
:10276000000000F00700A84237D12068410707D5D4
:10277000D9F80010E26821F4E0611143C9F80010B3
:10278000000708D5D9F80000216920F4605040EA1C
:10279000C100C9F80000D9F8002002F00C00082898
:1027A00041F20020C0F27A004ED145F68A23C2F3EE
:1027B0008341C0F60003595CD20339D440F60010BF
:1027C000C0F23D0048433FE06068022809D001287C
:1027D00029D159F8041C890307D4012001B0BDE8B0
:1027E000F08359F8041C8901F7D5D9F8001021F0BD
:1027F00003010843C9F80000FEF7C0FF064641F296
:10280000883700BFD9F80000616800F00C00B0EB19
:10281000810F97D0FEF7B2FF801BB842F2D9032098
:1028200001B0BDE8F08359F8041C8907D5D5DCE771
:10283000D9F8002045F67023C2F34042C0F60003E9
:102840009A5C4843B0FBF2F0D9F8001045F67222CA
:10285000C1F30311C0F60002515C40F2800220FA7D
:1028600001F140F24850C2F200000068C2F20002DA
:102870001160FEF7ABFF002001B0BDE8F08300005F
:1028800040F2800041F20401C2F20000C4F20201F1
:102890000068096845F68222C1F30221C0F60002F1
:1028A000515CC8407047000040F2800041F20401D2
:1028B000C2F20000C4F202010068096845F68222F3
:1028C000C1F3C221C0F60002515CC840704700004D
:1028D0002DE9F04182B0002800F0D780044600784E
:1028E00041F20006C007C4F2020644D0706800F04E
:1028F0000C00042817D0706800F00C00082802D1E2
:102900007068C0030FD465682DB1B5F5A02F10D045
:10291000B5F5803F11D0306820F4803030603068E9
:1029200020F480200CE03068800324D5606810BB60
:10293000ABE0306840F480203060306840F4803094
:102940003060FEF71BFF002D054611D03068800374
:1029500011D4FEF713FF401B6428F7D916E100BF1E
:10296000FEF70CFF401B64284FF0030000F28A8042
:1029700030688003F4D42078800718D5706810F090
:102980000C0F07D0706800F00C00082827D1706881
:10299000C00324D43068800702D52069012874D18F
:1029A0003068616920F0F80040EAC10030602078AA
:1029B00000074FD5A06940B30020C4F24220012196
:1029C000C0F88014FEF7DAFE054600BF706A800783
:1029D0002DD4FEF7D3FE401B0228F7D9D6E020699C
:1029E000002840F20000C4F2422000F0A68001213D
:1029F0000160FEF7C3FE054630688007D0D4FEF7BD
:102A0000BDFE401B0228F7D9C0E00020C4F24220DE
:102A10000021C0F88014FEF7B1FE0546706A8007F9
:102A200018D5FEF7ABFE401B0228F7D9AEE040F206
:102A30008000C2F20000006844F6D351C1F2620186
:102A4000A0FB0101480A019000BF0198411E002827
:102A50000191F9D1207840071BD4E5698DB17068E8
:102A600000F00C00082846D1012D0ED07068216AB4
:102A700000F480328A4208D1616A00F47010884202
:102A800003D1002002B0BDE8F081012002B0BDE812
:102A9000F081F06910F0805808D1F06940F0805062
:102AA000F061F06900F080500090009847F2000754
:102AB000C4F200073868C0050FD4386840F480704D
:102AC0003860FEF75BFE05463868C00505D4FEF7A2
:102AD00055FE401B6428F7D958E0E5681DB1052D67
:102AE0003CD0012D3ED0306A20F001003062306AC7
:102AF00020F0040039E00027C4F2422700203866A5
:102B0000FEF73CFE022D05460CD100BF3068800167
:102B100054D5FEF733FE401B02284FF00300F5D9D1
:102B2000B0E700BF30688001ABD5FEF727FE401B41
:102B300002284FF00300F5D9A4E700210160FEF759
:102B40001DFE0546306880077FF531AFFEF716FEA3
:102B5000401B02284FF00300F4D993E7306A40F09D
:102B600004003062306A40F001003062FEF706FE79
:102B7000002D054641F2883714D000BF306A800727
:102B800013D4FEF7FBFD401BB842F7D9032002B077
:102B9000BDE8F081FEF7F2FD401BB8424FF00300A4
:102BA0003FF670AF306A8007F4D4B8F1000F7FF4BD
:102BB00054AFF06920F08050F0614EE7206AB0F524
:102BC000803F05D17168A26821F400311143716022
:102BD0007168626A21F47411104308437060012027
:102BE0003866FEF7CBFD0446306880013FF549AFFB
:102BF000FEF7C4FD001B02284FF00300F4D941E7A3
:102C0000411E0020B0EB116F1CBF012070474EF237
:102C10001002CEF2000251604EF62351CEF20001B6
:102C2000F0230B700721906011607047704700001F
:102C30007047000010B590F83C20012A4FF00202C6
:102C400028D0012380F83C3080F83D200268D2F87B
:102C500004E0D2F808C00C682EF070032343B2F1F0
:102C6000804F53600BD042F60043C4F201039A42F6
:102C700005D040F20043C4F200039A4204D14968EF
:102C80002CF08003194391600121002280F83D104F
:102C900080F83C20104610BD002804BF012070477A
:102CA00010B5044690F83D0028B9002084F83C0097
:102CB000204600F051F8022084F83D00206842F6DA
:102CC000004C0268B0F1804FC4F2010C18BF60459F
:102CD00004D1A36822F070021A4305E040F20043D9
:102CE000C4F200039842F4D0B0F1804F18BF6045A1
:102CF00004D1236922F440721A4305E040F20043F4
:102D0000C4F200039842F4D0A16922F08002D4F802
:102D100004E0E368114360450160C362C0F828E045
:102D200002D16169CCF8301001214161002084F8A2
:102D3000461084F83E1084F83F1084F8401084F860
:102D4000411084F8421084F8431084F8441084F849
:102D5000451084F83D1010BD80B582B0006840F287
:102D60000041C4F20001884201D002B080BD41F2AE
:102D70001C00C4F202000168002241F0020101605F
:102D80000068002100F00200019001981D20FEF76C
:102D90006FFD1D20FEF75CFD02B080BD90F83D1078
:102DA00001291CBF01207047022180F83D100068F6
:102DB000C168B0F1804F41F00101C1600BD042F613
:102DC0000041C4F20101884205D040F20041C4F242
:102DD0000001884206D1816801F00701062904BF7D
:102DE00000207047016841F0010101600020704738
:102DF00080B590F83C20012A4FF0020200F0C0801C
:102E0000012380F83C3080F83D20D0F800C04FF618
:102E10007772DCF8083023EA0202CCF808200B684D
:102E20003F2B1CDD5F2B20DD602B4FD0B3F5005F07
:102E30006CD0702B40F09E80D1E901E3C968DCF8CA
:102E4000082043EA0E0322F47F4243EA01211143A2
:102E5000CCF80810DCF8081041F0770188E01F2B4F
:102E600028DC5BB3102B29D084E0402B61D0502BA1
:102E700040F08080D1F804E0C968DCF82030DCF84C
:102E8000202022F00102CCF82020DCF8182022F0CB
:102E9000F00242EA011123F00A0242EA0E02CCF8E3
:102EA0001810CCF82020DCF8081041F0570121F070
:102EB00020015DE0202B01D0302B5BD1DCF8081025
:102EC00021F07001194341F0070151E0D1F804E00D
:102ED000C968DCF8203023F01003CCF82030DCF88F
:102EE0001830DCF8202023F4704322F0A00243EADB
:102EF000013142EA0E12CCF81810CCF82020DCF890
:102F0000081041F0670121F0100131E0D1E901E33F
:102F1000C968DCF8082043EA0E0322F47F4243EA42
:102F200001211143CCF80810DCF8081041F480416D
:102F30001EE0D1F804E0C968DCF82030DCF820207D
:102F400022F00102CCF82020DCF8182022F0F00258
:102F500042EA011123F00A0242EA0E02CCF81810EC
:102F6000CCF82020DCF8081041F0470121F03001B6
:102F7000CCF808100121002280F83D1080F83C2098
:102F8000104680BD7047000010B504460068016916
:102F9000890744BFC1685FEA817138D4206801693C
:102FA000490744BFC1685FEA41713CD420680169A8
:102FB000090744BFC1685FEA017141D42068016913
:102FC000C90644BFC1685FEAC16145D42068016990
:102FD000C9071CBFC1685FEAC1714AD12068016995
:102FE000090644BFC1685FEA016149D420680169EC
:102FF000490644BFC1685FEA416148D4206801695D
:10300000890644BFC1685FEA816147D410BD6FF093
:1030100002010161012121778069800745D02046A6
:10302000FFF7B0FF47E06FF0040101610221217753
:10303000806910F4407F41D02046FFF7A3FF43E0B2
:103040006FF00801016104212177C06980073ED03B
:103050002046FFF797FF40E06FF010010161082163
:103060002177C06910F4407F3AD02046FFF78AFFED
:103070003CE06FF001010161204600F03FF8ADE750
:103080006FF0800101612046FFF7D0FDAEE76FF0E1
:1030900040010161204600F051F8AFE76FF02001D8
:1030A00001612046FFF7C4FD10BD204600F022F864
:1030B000204600F021F8002020776FE7204600F03E
:1030C00019F8204600F018F8002020776EE7204617
:1030D00000F010F8204600F00FF8002020776DE790
:1030E000204600F007F8204600F006F80020207780
:1030F0006CE70000704700007047000040F6805108
:10310000C2F20001884218BF704780B540F68C605B
:10311000C2F200000168B1F57A7F04BF00210160AE
:10312000016801310160FDF7F1FF40F68050C2F205
:103130000000FFF733FEBDE8804070477047000095
:103140007047000070470000B0B582B001680546C6
:103150000868CB684C6900F02F02202A03F0200297
:1031600005D122B1284600F0EDFB02B0B0BD5FEA08
:10317000007C1EBF04F0010E03F4907414EB0E04E7
:1031800063D12A6B012A05D110F0100218BF13F089
:10319000100235D1020622D513F080021FD095F817
:1031A0003D0021282AD1A868B0F5805F03D12869A5
:1031B000002800F0EC80286A421C2A6200784860EF
:1031C000E88C01380204E88418D1C86820F0800037
:1031D000C860C86840F04000C86002B0B0BD40069A
:1031E0000CD513F0400009D0C86820F04000C8603A
:1031F000202085F83D00284600F08EFA02B0B0BDD0
:103200000020019008680190486801900198486981
:10321000400622D4A88DEA8DEB8D002B1CBF801AAE
:103220005FEA0042EAD0CA6822F49072CA604A6932
:1032300022F001024A61202285F83E2000222A6302
:10324000CA6822F01002CA602EE0C10718BF13F44A
:1032500080712FD1410733D439E0A86B02685268DE
:1032600093B2002BCAD0AC8DA342C7D2EA85826943
:10327000202A16D0CA6822F48072CA604A6922F0F5
:1032800001024A614A6922F040024A61202285F81F
:103290003E2000222A63CA6822F01002CA60FEF7AC
:1032A00005F8A88DE98D401A81B22846FFF748FF3E
:1032B00002B0B0BD296C41F001012964410706D577
:1032C000BEF1000F03D0296C41F00201296481078F
:1032D00006D5BEF1000F03D0296C41F0040129642A
:1032E000BCF1000F06D552EA0E0103D0296C41F063
:1032F00008012964296C00293FF480AF10F02000F8
:1033000018BF002A02D0284600F01CFB286841693B
:103310002A6C01F0400102F0080289182BD0C16824
:1033200021F49071C160416921F001014161296B73
:10333000012903D1C16821F01001C160202185F865
:103340003E1000212963416949061BD5416921F0DE
:1033500040014161A86BA8B143F63511C0F60001E8
:103360004163FDF7C3FF00283FF448AFA86B416BF2
:10337000884702B0B0BD2846FFF7E4FE002028646D
:1033800002B0B0BD2846FFF7DDFE02B0B0BD286A2E
:1033900030F8022B6FF35F224A60286210E70000CA
:1033A000002804BF0120704710B5044690F83D0086
:1033B00028B9002084F83C00204600F05FF8242063
:1033C00084F83D002068D4E90212C36823F4005356
:1033D000C360036923F440531A430261D4E9042310
:1033E0001143C268194341F20C639A431143C1600F
:1033F0004169A26921F44071114343F60002C4F20D
:1034000001029042416102D0FFF73AFA01E0FFF772
:103410004BFA6268192148439100B0FBF1F048F281
:103420001F51C5F2EB11A0FB01235A096FF0630392
:1034300002FB0300322303EB0010A0FB0101F02389
:1034400003EA5113206803EB0212C1F34311114444
:103450008160016921F490410161416921F02A01F3
:103460004161C16841F40051C16000202021206405
:1034700084F83D1084F83E1010BD0000B0B586B051
:10348000006844F2004140F60004C4F20001C4F2B6
:10349000010488424FF00001CDE90411CDE9021189
:1034A0002BD043F60001C4F20101884257D141F20A
:1034B0001800C4F20200016841F480410160016813
:1034C00001F4804101910199016841F0040101601A
:1034D000006802A900F00400019001984FF4007008
:1034E000029002200390032005902046FEF748F842
:1034F0004FF480600290252522E041F21800C4F2CA
:103500000200416841F400314160416801F400313A
:1035100001910199016841F004010160006802A96C
:1035200000F0040001900198042002900220039012
:10353000032005902046FEF723F808202625029058
:103540000020CDE9030002A92046FEF719F828461D
:1035500000210022FEF78CF92846FEF779F906B023
:10356000B0BD0000034690F83E0020280AD1002993
:103570004FF0010018BF002A00D1704793F83C00BB
:10358000012801D10220704700201863996222218E
:103590009A85DA85186483F83E10196883F83C0030
:1035A000CA6842F48072CA604A6942F001024A6104
:1035B000CA6842F02002CA607047000040F6C85155
:1035C000C2F20001884218BF704710B540F6786417
:1035D000C2F200042078FDF761FC40F6C850C2F248
:1035E000000021460122FFF7BDFFBDE810407047F3
:1035F0002DE9F047044690F83D0020280ED10F46F3
:1036000000294FF0010000F085801646002A08BF0F
:10361000BDE8F08794F83C00012802D10220BDE803
:10362000F087012084F83C004FF0000A21201D465D
:10363000C4F840A084F83D00FEF7A0F8A684E68414
:10364000A1688046B1F5805F07D1206900281CBFC2
:1036500038465746B946074601E04FF0000984F85E
:103660003CA0E08C48B36E1C0AE000BF87B117F89D
:10367000010B21684860E08C0138E084E08CE0B107
:10368000206800680006F1D4AEB175B91DE000BF36
:1036900039F8020B21686FF35F2048600027EAE7E2
:1036A00001680906E2D4002EFAD0FEF767F8A0EB15
:1036B0000800A84209D82068F2E7206800684006A0
:1036C00024D415B16E1C14D019E02068C16821F40F
:1036D000D071C160416921F001014161202084F86D
:1036E0003D0084F83E00002084F83C000320BDE843
:1036F000F08720680168490608D4002EFAD0FEF74A
:103700003DF8A0EB0800A842F3D9DEE7202084F8BA
:103710003D000020BDE8F0877047000010B540F67E
:103720005064C2F200040020C4E900004FF0803071
:10373000C4F803000820A07001F0E0FF40F2D07050
:10374000C2F200002146082200F0FCF9012818BF4F
:1037500001F0C8FF10BD000080B5FCF751FD002846
:1037600008BF80BD01F0CAFF40F2D07040F6506142
:10377000C2F20000C2F20001082200F0E3F90128C1
:1037800018BF01F0AFFFFCF74BFD80BDFEE7000066
:1037900080B540F2D07040F26401C2F20000C2F283
:1037A0000001002200F08EFB002818BFFDF71AFD73
:1037B00040F2D07040F28401C2F20000C2F2000177
:1037C00000F0A6FD002818BFFDF70CFD40F2D070F8
:1037D00040F26011C2F20000C2F2000100F0AAF94A
:1037E000002818BFFDF7FEFC40F2D070C2F20000C6
:1037F00000F0A4FD002818BFFDF7F4FC80BD000018
:10380000FEE70000FEE700007047000040F6506150
:10381000C2F200010A8810430880704740F65061E8
:10382000C2F200010A8822EA000008807047000006
:1038300040F65060C2F200000021C0E900114FF0D4
:103840008031C0F803100821817070477047000074
:1038500040F65061C2F200010880704740F65061A6
:10386000C2F200018870704740F65062C2F2000256
:10387000D07011717047000040F65062C2F2000231
:10388000507191717047000080B5FDF77DFF80BDDC
:1038900070B594B00AAC20462821FCF75CFC0120EE
:1038A0000A900E904FF4E01000254FF4803102266C
:1038B000139020460995CDE90755CDE90555CDE989
:1038C0000355CDE90155CDE90B15CDE91161FEF7A1
:1038D000FFFF20B1EFF3108072B600BFFEE70F20AC
:1038E000CDE905064FF48060CDE9080505A8022161
:1038F0000795FEF7E7FE20B1EFF3108072B600BF28
:10390000FEE7102001900020049001A8FEF756FE6B
:1039100018B1EFF3108072B6FEE714B070BD00006E
:103920007047000080B540F68050C2F20000FFF7FB
:103930002BFB80BD80B5406A0021C185C184FFF7A3
:1039400001FC80BD80B582B090F83E1022291ED1C6
:103950008268B2F5805F02D10169002940D0816A96
:10396000B2F5805F07D00AB9026922B102685268D5
:1039700002F07F0201E0026852680A700121826A47
:1039800011448162C18D01390A04C18501D002B0A0
:1039900080BD0168CA6822F02002CA60CA6822F4A9
:1039A0008072CA604A6922F001024A61202280F8CE
:1039B0003E20026B012A1BD100220263CB6823F058
:1039C0001003CB600B68DB0605D501920A680192F3
:1039D000496801910199818DFFF7B2FB02B080BD6A
:1039E0000168826A49686FF35F2111800221C6E78E
:1039F000FFF7E4FD02B080BD80B540F6C850C2F2CA
:103A00000000FFF7A1FB80BD80B540F60C60C2F25C
:103A10000000FFF799FB80BDD0F8B812002200200B
:103A200081F8682070470000B0B50446D0F8BC02A9
:103A3000D4F8B852C26828786978904720460221A5
:103A40002A46562300F07EFB0020B0BDB0B5812190
:103A5000044600F061FA002520460221E56200F0EC
:103A60005BFAD4F8B802C4F8805148B1D4F8BC026B
:103A700080688047D4F8B80200F00CFFC4F8B85250
:103A80000020B0BD10B5D0F8B842616E012907D151
:103A9000D0F8BC026178C268207890470020606648
:103AA000002010BD014640F220101222C2F2000098
:103AB0000A807047014640F2BC002922C2F2000091
:103AC0000A807047014640F2E8002922C2F2000055
:103AD0000A807047014640F234102922C2F20000E9
:103AE0000A80704770B5812103224023044600F00C
:103AF00015FB01252046022103224023E56200F048
:103B00000DFB6C20C4F8805100F0C6FEC4F8B8026A
:103B100068B10646D4F8BC020025406886F86850B3
:103B20008047204602213246562300F00BFB2846F0
:103B300070BD000000290EBF0220C0F8BC1200209A
:103B40007047000080B590F89C32032B0DD194464D
:103B50000A46D0F8B81291F8681000291CBF01205D
:103B600080BD8121634600F0B5FB002080BD0000D0
:103B700080B582B00A78D0F8B8C2002312F0600293
:103B8000ADF806300FD0202A3CD14A78023A092AF3
:103B900038D8DFE802F0053C3737373737444C5028
:103BA0000CF15C0135E04A780B2A2BD8DFE802F0F3
:103BB000062A2A2A2A2A0E2A2A2A1B2290F89C221E
:103BC000032A1FD10DF10601022223E0CA78212A1F
:103BD00035D0222A3CD1CA88D0F8BC12562A0968AE
:103BE00028BF562216E090F89C22032A0AD10CF135
:103BF00060010EE090F89C22032A03D18878CCF86B
:103C0000600009E000F040F8022002B080BD0CF135
:103C10005801012200F05CF8002002B080BDCA8883
:103C200001236146CCF8643000F038F8F4E7C87836
:103C3000CCF85C00F0E78878CCF85800ECE7CA884C
:103C400040F21411C2F20001092A28BF0922E1E75B
:103C500000220021DEE7000080B5D0F8B4225268CF
:103C60009047002080BD000080B513460A46002121
:103C700000F068FA002080BD80B513460A46002196
:103C800000F028FB002080BD10B58021044600F024
:103C9000F3FA2046002100F0EFFA10BD80B513467C
:103CA0000A460321C0F894120021C0E9573300F0FE
:103CB00049FA002080BD000080B50521C0F89412AB
:103CC00000210022002300F03DFA002080BD00000A
:103CD00080B513460A460221C0F894120021C0E9BB
:103CE000073300F0F7FA002080BD000080B5042102
:103CF000C0F8941200210022002300F0EBFA00200B
:103D000080BD000010B540F25454C2F200040A46CF
:103D100002A0214600F09EF8204610BD4375737442
:103D20006F6D2048494420436F6E6669670000004C
:103D300040F270101222C2F200000A8070470000A8
:103D400010B540F25454C2F200040A4602A02146C3
:103D500000F080F8204610BD437573746F6D2048E5
:103D6000494420496E746572666163650000000015
:103D700040F284100422C2F200000A807047000062
:103D800010B540F25454C2F200040A4602A0214683
:103D900000F060F8204610BD45617379436F6E00F6
:103DA00010B540F25454C2F200040A4602A0214663
:103DB00000F050F8204610BD45617379436F6E20C6
:103DC00050726F20436F6E74726F6C6C657200007E
:103DD000B0B54FF2E870C1F6FF70026883684FF02B
:103DE0001A0CD218A1F800C02FD0406840F2881EEB
:103DF0006FF001014FF0370CC2F2000E002300BF3C
:103E0000140F0CEB1275B2F1204F38BF04F13005DE
:103E10000EEB0104023112010E2925716371EFD1FD
:103E20000EF1100104224FF0370C00230CEB10743C
:103E3000B0F1204F4FEA107538BF05F1300401F89A
:103E4000024F0001013A4B70F0D140F28810C2F2EB
:103E50000000B0BD10B5A0B303786BB1431E4FF0A6
:103E6000000C00BF93F802E00CF1010CBEF1000F52
:103E700003F10103F6D101E04FF0000C5FFA8CFC76
:103E8000022303EB4C03138003220B704A7090F85B
:103E900000E0BEF1000F08BF10BD013802234FF053
:103EA000000C00BFDAB242F0010401F802E001F8B0
:103EB00004C090F802E00233BEF1000F00F10100EF
:103EC000F0D110BD002804BF0220704780B5D0F8A3
:103ED000B432002B1CBF0023C0F8B432002918BF35
:103EE000C0F8B012012180F89C12027000F0CCF8EA
:103EF000002080BD80B5D0F8C002FDF75BFD40F228
:103F000000220223C100C0F20122042838BF22FA95
:103F100001F3D8B280BD000080B5D0F8C002FDF733
:103F200023FD40F200220223C100C0F20122042836
:103F300038BF22FA01F3D8B280BD0000B0B5044604
:103F400069B1D4F8B40242693AB194F89C020328EA
:103F500003D120469047002050E00220B0BDD4F8A5
:103F60009402002818BF042804D12046802100F0C4
:103F700083F93AE0022838D1D4E90810814208D9FF
:103F8000081A83B22062204611461A46FFF774FED3
:103F900013E0E169814217D3B1FBF0F202FB10108C
:103FA00090B9D4F8980281420ED220460021002216
:103FB0000025FFF761FEC4F8985220460021002238
:103FC000002300F0BFF810E0D4F8B402C16829B1B2
:103FD00094F89C02032801D120468847204680217E
:103FE00000F04AF92046FFF767FE94F8A002012886
:103FF0004FF0000004BF84F8A002B0BDB0BD0000C7
:10400000B0B5044669B1D4F8B40282693AB194F803
:104010009C02032803D12046904700251AE0022085
:10402000B0BDD4F894020025052815D0032811D17D
:10403000D4E95810814217D9091AC4F86011814295
:1040400038BF084683B2204611461A46FFF70CFED9
:104050000020B0BD2846B0BD20460021C4F89452CF
:1040600000F00AF92846B0BDD4F8B402016929B1BC
:1040700094F89C02032801D1204688472046FFF788
:1040800035FE0020B0BD000010B5044640F6942077
:1040900045F60041C2F20000C4F2000108220223EA
:1040A00080E80E000021C0F8E842C4F8C002C0E970
:1040B00006110162FEF77CF9002818BFFDF792F89F
:1040C000D4F8C002002100221823FDF70DFCD4F81B
:1040D000C002802100225823FDF706FCD4F8C0025C
:1040E000812100229823FDF7FFFBD4F8C0020221B2
:1040F0000022D823FDF7F8FB002010BDD0F8C00245
:1041000001F07F0202EB820200EBC20000F12A0202
:10411000090658BF00F5B5721078704780B594460F
:10412000D0F8C0021A466346FDF774FC40F2002244
:104130000223C100C0F20122042838BF22FA01F391
:10414000D8B280BD80B5D0F8C002FDF793FC40F234
:1041500000220223C100C0F20122042838BF22FA43
:1041600001F3D8B280BD0000F0B581B0002100227B
:104170004023044600254026FFF7D0FF01272046B4
:10418000802100224023C4F85871C4F86461FFF70D
:10419000C5FFD4F8B802A761666284F89C72C4F8BF
:1041A00094526560C4F8A45228B1D4F8B402002136
:1041B000426820469047002001B0F0BD90F89C1264
:1041C000042904BF90F89D1280F89C1200207047CB
:1041D00080B590F89C12032905D1D0F8B412C969B2
:1041E000002918BF8847002080BD0000024600203B
:1041F0001174704780B5D0F8C002FEF793F940F211
:1042000000220223C100C0F20122042838BF22FA92
:1042100001F3D8B280BD0000B0B500F52A750446A0
:10422000284600F069F894F8A8020121B4F8AE22FB
:10423000C4F8941200F01F010229C4F8982208D093
:1042400001290CD089B92046294600F07DF80020CC
:10425000B0BD2046294600F045FA0020B0BD2046FA
:10426000294600F0DDFA0020B0BD00F080012046B4
:1042700000F002F80020B0BD80B5D0F8C002FDF714
:1042800013FC40F200220223C100C0F201220428E4
:1042900038BF22FA01F3D8B280BD000080B5D0F853
:1042A000C002FEF75DF940F200220223C100C0F215
:1042B0000122042838BF22FA01F3D8B280BD0000E1
:1042C000014690F89C02042281F89D02002081F8AA
:1042D0009C22704780B5D0F8C002FDF71BFC40F26D
:1042E00000220223C100C0F20122042838BF22FAB2
:1042F00001F3D8B280BD00000A7802704A7842709B
:104300004A8842808A888280C988C18070470000BC
:1043100000290EBF0220C0F8B41200207047000030
:1043200080B5D0F8B42232B112689047002818BF87
:104330000120400080BD022080BD000080B5FFF755
:10434000ADFF002080BD000070B582B00D46097839
:10435000044611F060010AD0402901D0202928D15B
:10436000D4F8B402294682682046904729E068784C
:10437000092839D8DFE800F005283841384B623881
:104380007A8B94F89C020138022800F29B80E8881E
:10439000022840F0CE80D4F8A4020322002808BFEF
:1043A0000122214641F80C2F20460222FFF790FC03
:1043B00007E020468021FFF75FFF20460021FFF73E
:1043C0005BFF002002B070BD94F89C020138022807
:1043D00000F2818068880128F3D10020C4F8A4028B
:1043E0002046FFF783FCECE720468021FFF744FFDF
:1043F00020460021FFF740FFE3E768880128E0D16D
:104400000120C4F8A4022046FFF770FCD9E7A88871
:1044100000284ED1E88800284BD168887F2848D8EA
:1044200094F89C12032940F00D8120468021FFF76B
:1044300023FF20460021FFF71FFFC2E768884FF0E7
:10444000FF3101EB102100220629ADF8062000F211
:104450002281DFE811F007007F008C00200120019D
:104460009900A400D4F8B00202680DE1E8880128A0
:104470003AD194F89C02411E022963D200202146C1
:1044800041F8080F20460122FFF722FC99E76888CF
:1044900040F25055C1B2C2F20005022928702CD357
:1044A00020468021FFF7E8FE20460021FFF7E4FECA
:1044B00087E720468021FFF7DFFE20460021FFF737
:1044C000DBFE7EE720468021FFF7D6FE2046002156
:1044D000FFF7D2FE75E720468021FFF7CDFE20468C
:1044E0000021FFF7C9FE6CE720468021FFF7C4FEDC
:1044F00020460021FFF7C0FE63E794F89C020328E2
:104500005BD0022861D1002900F07580032084F877
:104510009C0220466160FFF703FF022840F07A808A
:1045200020468021FFF7A8FE20460021FFF7A4FEC9
:1045300047E720468021FFF79FFE20460021FFF736
:104540009BFE3EE703284DD1211D20460122FFF7A7
:10455000BFFB36E7217CD4F8B40200290CBF816A86
:10456000C16A0DF1060088470646022022E0C0B26B
:10457000052800F29080DFE800F003777B8E7F83D0
:10458000D4F8B00242687EE0207C002840F08380AE
:10459000D4F8B402416B0DF10600884778E0207C26
:1045A000002878D1D4F8B402016B0DF106008847D9
:1045B000064607207070012077E001B3606801288B
:1045C0002CD12046FFF792FBFBE620468021FFF727
:1045D00053FE20460021FFF74FFE29782046FFF7C3
:1045E0003BFBEEE620468021FFF746FE20460021F9
:1045F000FFF742FEE5E62046FFF778FBE1E6022002
:1046000084F89C0220466160FFF726FB2046FFF7F6
:104610006DFBD6E62046FFF769FBD2E6C1B2204625
:10462000FFF71AFB297820466160FFF779FE022820
:1046300054D120468021FFF71FFE20460021FFF7BE
:104640001BFEBEE600F07F052046294684F89E52F8
:10465000FFF7D0FD2046FFF749FB002D0CBF0120DE
:10466000022084F89C02ACE6D4F8B00282680AE02A
:10467000D4F8B002C26806E0D4F8B002426902E0A1
:10468000D4F8B002826932B1207C0DF10601904766
:104690000646012009E020468021FFF7EDFD204677
:1046A00000210026FFF7E8FD002000283FF489AE36
:1046B000BDF8060050B1EA8842B1904238BF0246C8
:1046C00020463146ADF80620FFF702FBE8880028B7
:1046D0007FF477AE2046FFF709FB72E62046FFF72E
:1046E00005FB6EE6B0B50A460978044611F0600194
:1046F0000BD0402901D020291FD1D4F8B402114693
:104700008368204698470020B0BD50781179F0B1F9
:10471000012836D0032863D194F89C02032834D1B1
:10472000508800286ED111F07F006BD0D08800280F
:1047300068D12046FFF7A0FD64E020468021FFF706
:104740009BFD20460021FFF797FD0020B0BD94F8A7
:104750009C02032823D0022808BF5FEA41603FD1B2
:1047600001F07F0000EB800004EB800000F11402F8
:10477000090658BF00F5AA720020106020461146B5
:1047800049E094F89C02032834D0022828D1480636
:1047900026D02046FFF770FD2046802126E001F05C
:1047A0000F0202EB820211F0800004EB820214BFC0
:1047B0009269D2F858219AB101F07F0202EB82028D
:1047C00004EB820202F11405002808BF02F5AA7565
:1047D00048061CD02046FFF791FCC0B1012017E02D
:1047E00020468021FFF748FD20460021FFF744FDC9
:1047F0000020B0BD50880028A7D1480602D020462E
:10480000FFF778FB2046FFF771FA0020B0BD0020CB
:104810002860204629460222FFF75AFA0020B0BD40
:10482000B0B50D460978044611F0600118BF402963
:1048300012D194F89C020138022803D8A88810F0FD
:10484000FE0F14D020468021FFF716FD20460021E0
:10485000FFF712FD0020B0BD2029EAD020468021BC
:10486000FFF70AFD20460021FFF706FD0AE0D4F815
:10487000B4022946826820469047E988002908BF8B
:10488000002801D00020B0BD2046FFF72FFA0020FD
:10489000B0BD00007047000040F25470C2F200004A
:1048A00070470000F0B50C78024691F803E000EB89
:1048B000840730F8240047F27063BEF1030F20EA4A
:1048C000030307D80020DFE80EF002070D0A43F4C7
:1048D000007306E0012005E043F4806301E043F447
:1048E000C063002048F28005CFF6FF752B433B8064
:1048F0003B8840F60F76334023432B433B800B7BB2
:1049000048F2800C002B44D03B8840F60F652B40CA
:104910000CF580752B433B80B2F850300D8902EBCB
:104920000414234425F00105A3F80054B2F85020E4
:104930004B89224423F00103A2F8083449783A88CD
:10494000002902F4804148D039B1398840F60F720D
:1049500011400CF58042114339803988490607D54A
:10496000398840F60F7211400CF140021143398032
:10497000398840F63F7211400CF120024A40BEF1E6
:10498000010F08BF41EA0C023A80398843F60F72E2
:1049900042E04D78B2F85030002D4FEA041440D078
:1049A000C98822441A4421F00101A2F80014398870
:1049B000490607D5398840F60F7211400CF14002C4
:1049C00011433980398840F63F72BEF1010F01EA88
:1049D000020122D00CF1200262E039B1398840F6A0
:1049E0000F7211400CF58042114339803988490615
:1049F00007D5398840F60F7211400CF1400211437F
:104A00003980398843F60F7211400CF540525140FD
:104A10003980398840F63F72114041EA0C013980F3
:104A2000F0BDCD881619334425F00105A3F80854CC
:104A3000B2F850200B6906F20C413BB13E2B10D866
:104A400003F0010606EB53039B0217E0535A48F2AA
:104A5000000623F4F8435352535ACFF6FF763343FC
:104A60000CE05E094FF0FF35DC0608BF05EB53167E
:104A700048F20003CFF6FF7343EA86235352398886
:104A8000490407D5398840F60F7211400CF5804271
:104A900011433980398843F60F7211400CF54052AA
:104AA00051403980F0BD000000207047B0B50C784F
:104AB0004B78097B024630F824004CF2800C4CF213
:104AC000800500294FEA44013AD0002B00F48040D1
:104AD00040D040B132F8110040F60F73184040EA60
:104AE0000C0022F8110032F8110043F60F7E400648
:104AF00040F63F7009D532F8113040F60F7423406C
:104B0000ACF57F54234322F8113032F8113040F6CF
:104B10000F7423402B43ACF5804522F8113032F856
:104B200011301840284322F8110032F81100ACF57A
:104B3000804300EA0E000343002022F81130B0BD8C
:104B4000EBB1400640F63F7EEFD5ACF57F5540F621
:104B50000F70E4E740B132F8110040F60F731840CF
:104B600040EA0C0022F8110032F81100ACF57F5534
:104B7000400640F63F7E43F60F70BCD4C5E74004C4
:104B800043F60F7ED1D540F60F70C8E7002070477E
:104B90000020704701460120A1F8400000220020BB
:104BA000A1F84020A1F84420A1F85020704700004F
:104BB0000146B0F8400044F2FF0202400020A1F894
:104BC000402070470020704780B50A7B0AB1002062
:104BD00080BD0A784B7830F822C04FEA4202B3B168
:104BE0005FEA4C6348F2A00E0BD530F812C040F6D5
:104BF0000F730CEA030C0EF1200343EA0C0320F8B8
:104C00001230C9780129E2D040F63F7110E05FEA26
:104C10004C414BF2800E09D530F8121040F60F735C
:104C200019400EF58053194320F8121043F60F7106
:104C300030F81230194081EA0E0120F812100020DD
:104C400080BD000002460B78487832F823C040F659
:104C50003F71002848F2900008BF43F60F71CFF66D
:104C6000FF7008BF00F57F6001EA0C0141400020A1
:104C700022F82310704700002DE9F04F4B78012BEC
:104C800045D18A69D1F810E00F7B724588BF724622
:104C9000002F5CD0CF78022F40F0968091F800A0D2
:104CA0000C6A30F82A7040F60F654FEA4A067445E0
:104CB00007EA050740F2DE8048F2B005CFF6FF753F
:104CC000D0352F43A4EB020920F81670C1F82090CC
:104CD00030F8167048F2B00C7F0600F12E81012BDF
:104CE00000F06981002B40F04183B0F8506000EB88
:104CF0000A14002A04F2044700F01C833E2A00F242
:104D0000298302F0010404EB5204A4022DE30A7B80
:104D1000EAB3CA78012A00F08980022A40F0A7800D
:104D2000002B40F06E81B0F850600A780F6906449D
:104D30001201002F06F2044600F032813E2F00F2ED
:104D4000528107F0010505EB5707BF0258E1130434
:104D500010D0CB884F6900EB430693B201335B0858
:104D6000023F06F57F7600BF37F8025F013B26F869
:104D7000045FF9D1B0F850300F78034403EB071308
:104D800048F2B00CA3F8042440F63F72CAE08E69E2
:104D90000A69B31A38BF002388BF16468B61B0F882
:104DA00050700B78074448F2B0021B01002E07F246
:104DB0000C4700F09D803E2E00F2A28006F0010517
:104DC00005EB5606B602A6E091F8008040F60F66A5
:104DD00030F8287048F2B00C374048F2B006CFF6F1
:104DE000FF763743D03720F828700F6AA7EB020B05
:104DF000C1F820B030F828707F0662D4012B00F093
:104E0000BF80002B40F0BB81B0F8506000EB08146D
:104E1000002A04F2044700F096813E2A00F2A381A2
:104E200002F0010404EB5204A402A7E10F698A69AD
:104E3000D61B38BF002688BF3A46012B8E6100F092
:104E40009380002B40F01081B0F850700E7807442A
:104E50003601002A07F2044700F0B5803E2A00F22E
:104E6000F78002F0010505EB5205AD02FBE00120E1
:104E7000BDE8F08F48F2B002CFF6FF72303A3A4305
:104E800020F81620B0F8502000EB0A1348F2B00CBE
:104E90001A442304A2F804446FD00A894B6900EB3A
:104EA0004207A2B201325208023B07F57F7700BFEA
:104EB00033F8026F013A27F8046FF9D140F63F72D8
:104EC00030E0012B64D0002B40F0A681B0F8506098
:104ED00000EB0815002A05F20C4700F03C813E2A41
:104EE00000F28D8102F0010505EB5205AD0292E161
:104EF000DE5B26F4F846DE53DE5B46F400460AE04D
:104F000075094FF0FF3CF40608BF0CEB56154FF443
:104F1000004646EA8526DE5342F6D07302EB030CC8
:104F200043F60F72097830F821301A4082EA0C02F9
:104F300020F821200020BDE8F08F012B4BD0002B62
:104F400040F06582B0F8506000EB0A14002A04F2C9
:104F50000C4700F0F7813E2A00F24D8202F0010476
:104F600004EB5204A40251E2B0F850700E780744EA
:104F700007EB0617A7F8042476E040F63F72D1E766
:104F8000B0F8504000EB08152C44A4F80424F6E0D7
:104F9000B0F8505000EB08163544A5F80C243BE15E
:104FA000975B48F2000527F4F8479753975BCFF6D5
:104FB000FF752F4324E0B0F8504000EB0A152C4455
:104FC000A4F80424D2E1F55B25F4F845F553F55B2C
:104FD00045F4004547E0B0F8504000EB0A152C447A
:104FE000A4F80C2413E27D094FF0FF3CFC0608BF37
:104FF0000CEB571548F20007CFF6FF7747EA8527F5
:105000009753012B12D0002B69D1B0F850300A7899
:105010000F690344120103F20C438FB13E2F52D8A3
:1050200007F0010606EB5707BF0257E0B0F8502023
:105030000B7802440F6902EB0312A2F80C744EE0E5
:10504000D75A27F4F847D752D75A47F4004745E0D4
:105050005509D4064FF0FF3C08BF0CEB52154FF436
:10506000004444EA8525F55348F2B006012B42F688
:10507000D07710D0D3B9B0F850700B7807441B012B
:1050800007F20C47BAB13E2A4CD802F0010505EBF5
:105090005202920251E0B0F850300D78034403EB15
:1050A000051306EB070CA3F80C2439E7A7F5E0423B
:1050B000A2F5756C34E7DA5B22F4F842DA53DA5B76
:1050C00042F4004239E07E094FF0FF35FC0608BF8C
:1050D00005EB57164FF4004747EA8627D752CA69AF
:1050E00042F6D073CAB10F7844F2400530F8272059
:1050F00002EA0506AE4248F2B00218BF002E7FF465
:105100000DAF7B0030F8137040F60F76374002F198
:105110001006374320F81370FEE6A3F5E042A2F52F
:10512000756CFDE655094FF0FF3CD40608BF0CEB4B
:1051300052154FF4004242EA8522DA5342F6D07209
:1051400006EB020CECE6F45B24F4F844F453F45B55
:1051500044F4004412E0F55B25F4F845F553F55BA3
:1051600045F4004557E05409D5064FF0FF3908BF14
:1051700009EB52144FF4004545EA8424F453D1F866
:105180001490140410D00C8995B200EB440401353E
:105190006F08A9F1020504F57F7600BF35F8024FCC
:1051A000013F26F8044FF9D109EB02060024F3452C
:1051B0004E6184BFABEB02049346BBF1000F0C625F
:1051C00012D0012B13D0002B73D1B0F8502000EB7C
:1051D0000813BBF13E0F03F20C435CD80BF0010740
:1051E00007EB5B07BF0263E040F63F729AE6B0F858
:1051F000502000EB08131A44A2F80CB459E0D5066D
:105200004FEA521A4FF400454FF0FF3908BF09EB3F
:10521000521A45EA8A25F553D1F8149015040FD097
:105220004D8900EB450695B201356F08A9F10205DD
:1052300006F57F7635F8024F013F26F8044FF9D185
:1052400009EB02060024F3454E6184BFABEB020478
:105250009346BBF1000F0C6212D0012B13D0002B30
:105260004ED1B0F8502000EB0813BBF13E0F03F213
:10527000044337D80BF0010707EB5B07BF023EE0A2
:1052800040F63F724EE6B0F8502000EB08131A4487
:10529000A2F804B434E04FEA5B174FF0FF355FEA41
:1052A000CB6408BF05EB5B174FF4004545EA872741
:1052B000D7525FEA0B4212D04A89B31E00EB420775
:1052C0001FFA8BF20132520807F57F7733F8026F2D
:1052D000013A27F8046FF9D140F63F7222E640F612
:1052E0003F721FE64FEA5B174FF0FF355FEACB6472
:1052F00008BF05EB5B174FF4004545EA8727D752F7
:105300005FEA0B4213D00A89B31E00EB42071FFA73
:105310008BF20132520807F57F7700BF33F8026F36
:10532000013A27F8046FF9D140F63F72FAE540F6EA
:105330003F72F7E5F45B24F4F844F453F45B44F46F
:10534000004412E0F45B24F4F844F453F45B44F4B6
:1053500000445BE05409D5064FF0FF3808BF08EB66
:1053600052144FF4004545EA8424F453D1F81480D4
:1053700014040FD00C8995B200EB440401356F087A
:10538000A8F1020604F57F7436F8025F013F24F8A5
:10539000045FF9D108EB02060024F1454E6184BF99
:1053A000A9EB02049146012B0C6214D0002B40F0B3
:1053B0008180B0F8502000EB0A13B9F1000F03F21E
:1053C0000C4310D0B9F13E0F66D809F0010707EB86
:1053D0005907BF026DE0B0F8502000EB0A131A44E1
:1053E000A2F80C9466E0D75A27F4F847D752D75A58
:1053F00047F400475DE05409D5064FF0FF3808BF79
:1054000008EB52144FF4004545EA8424F453D1F8D4
:105410001480140410D04C8995B200EB440401357B
:105420006F08A8F1020604F57F7400BF36F8025F2A
:10543000013F24F8045FF9D108EB02060024F1458E
:105440004E6184BFA9EB02049146012B0C6213D07C
:10545000002B57D1B0F8502000EB0A13B9F1000F20
:1054600003F2044310D0B9F13E0F3DD809F0010713
:1054700007EB5907BF0244E0B0F8502000EB0A13D5
:105480001A44A2F804943DE0D75A27F4F847D752BB
:10549000D75A47F4004734E04FEA59174FF0FF3529
:1054A0005FEAC96408BF05EB59174FF4004545EAA8
:1054B0008727D7525FEA094213D04A891FFA89F336
:1054C00000EB420201335B08B71E02F57F7600BF96
:1054D00037F8022F013B26F8042F40F63F72F7D130
:1054E00020E540F63F721DE54FEA59174FF0FF35B2
:1054F0005FEAC96408BF05EB59174FF4004545EA58
:105500008727D7525FEA094213D00A891FFA89F325
:1055100000EB420201335B08B71E02F57F7600BF45
:1055200037F8022F013B26F8042F40F63F72F7D1DF
:10553000F8E440F63F72F5E401460020A1F844008B
:105540004FF43F420020A1F84020704780B540F65C
:105550009420C2F20000FCF7F9FA80BDB0F84400D4
:105560007047000000EB4200022B00F580620BD375
:1055700058080239043A00BF32F804CF013821F844
:1055800002CFF9D102310432D8071CBF108808704D
:105590007047000000207047002904BF8021A0F858
:1055A0004C10002070470000002B08BF704700EB34
:1055B0004202581C4008023902F57F7231F8023F5E
:1055C000013822F8043FF9D170470000FEE70000DF
:1055D000002908BF704702F1006202F5C842013895
:1055E00012F8013B013900F8013FF9D17047000082
:1055F00046F20041C0F60001405C70472DE9F043DF
:1056000081B08946D10728D1804602F1006040F27E
:10561000A41700F5C840C2F200075FEA59053860D8
:1056200016D008F101040126012D98BF012500BF05
:10563000396834F8012C01200023FBF733FF68B9E7
:105640003868013D00F1020004F102043860EFD136
:105650005FEAC97006D1002600E00126304601B09D
:10566000BDE8F08309EB080010F8010C396800F57B
:105670007F42012000230126FBF714FF0028EDD113
:105680003868002602303860E8E7000080B586B050
:105690000022CDE9040102A801A9CDE90122FBF70E
:1056A0008BFE019806B080BD80B540F2C771C2F292
:1056B0000001087800284FF0000008BF80BD087086
:1056C000FBF7E6FE80BD000080B540F2C771C2F274
:1056D00000010878002818BF80BD01200870FBF782
:1056E00037FF80BD80B541F20000C4F201004FF4E5
:1056F00000510122FCF73CF880BD000080B541F26A
:105700000000C4F201004FF400510022FCF730F811
:1057100080BD0000B0B541F200040325C4F20104CD
:1057200020464FF400510022FCF722F84FF4967007
:10573000FBF72EFE20464FF400510122FCF718F82B
:105740004FF49670FBF724FE013DE9D1B0BD000097
:1057500086B041F20004C4F20104FCF723F8FEF71E
:1057600097F8002541F21800CDE90455CDE902551E
:10577000C4F202000168012241F0200101600168C9
:105780004FF4005601F020010091009901680127B3
:1057900041F010010160016801F0100100910099D1
:1057A000016841F008010160016801F00801009101
:1057B0000099016841F00401016000684FF4005154
:1057C00000F00400009000982046FBF7D1FF032072
:1057D000059002A92046CDE902670495FBF7D0FEAB
:1057E000FDF7D6FF40F6C85004F52051C2F2000084
:1057F0004FF4E1370C26C0E90017C0E90255C0E9B3
:105800000456C0E90655FDF7CBFD20B1EFF310803B
:1058100072B600BFFEE740F60C60A4F54C41C2F240
:105820000000C0E90017C0E90255C0E90456C0E90C
:105830000655FDF7B5FD20B1EFF3108072B600BF3D
:10584000FEE740F680500021A4F58632C2F2000047
:1058500041F61F430927CDE90411CDE90211CDE935
:105860000011C0E90023C0E9021701618161FDF761
:1058700013FA20B1EFF3108072B600BFFEE74FF4C9
:105880008050029040F68050C2F2000002A9FDF75D
:10589000AFFA20B1EFF3108072B600BFFEE7002030
:1058A000CDE9000040F68050C2F200006946FDF7E5
:1058B000C1F920B1EFF3108072B600BFFEE7FDF72B
:1058C0002DFFFFF727FF00F029F8FAF7CFFC00F0D3
:1058D00035F8FAF77BFD00BFFAF7E8FDFDF73CFF6E
:1058E000FAE7000080B5FDF791FF80BD80B5FDF7B8
:1058F00095FF80BD80B5FDF79BFF80BD80B5FDF7AE
:10590000ADFF80BD80B5FDF7A3FF80BD80B5FDF77D
:10591000ABFF80BD80B5FDF7AFFF80BD80B51D201A
:1059200000210122FBF7A4FF1D20FBF791FF40F6A9
:105930008050C2F20000FDF731FA80BD80B525200D
:1059400000210222FBF794FF2520FBF781FF40F6A0
:10595000C85040F67861C2F20000C2F20001012294
:10596000FDF700FE80BD0000002904BF0020704745
:1059700070B540F6C8560C460546C2F2000600BF98
:105980003046294601220223FDF732FE013C05F193
:105990000105F5D170BD02E008C8121F08C1002A38
:1059A000FAD170477047002001E001C1121F002AA0
:1059B000FBD1704710B5002821D0114B0022001FE9
:1059C000196803E0814203D80A4649680029F9D1E1
:1059D00052B11368841A9C4204D1006818441060C4
:1059E000104602E0506000E0186039B102680B1AFE
:1059F000934203D10B681A4402604968416010BDAC
:105A000004000020F0B50B30154D20F007010024F4
:105A1000144A0FE003688B420BD38B4205D95E1A00
:105A200043184768C3E9006700E04368136002C099
:105A300004E0021D10680028ECD12046002802D1A5
:105A4000286808B10020F0BD064A07481060074AE0
:105A5000121A22F00702C0E9002401202860D7E7CB
:105A60000800002004000020A40E0020A016002042
:105A7000010200000000000000000102030406070C
:105A800008090000000001020304020304050607E0
:105A900008090A0B0C0D0E0F10100000C05A000868
:105AA000000000205005000090010008C85B0008BD
:105AB0005005002050190000A65900080000000001
:105AC000C1100805010905A1011514250135102192
:105AD000450175019510050919012910810205017B
