:020000040800F2
:10000000A01200200101000831390008B5380008AD
:100010002D390008E901000895580008000000008B
:100020000000000000000000000000007939000816
:10003000F90100080000000035390008B539000852
:100040001B0100081B0100081B0100081B01000820
:100050001B0100081B0100081B0100081B01000810
:100060001B0100081B0100081B0100081B01000800
:100070001B0100081B0100081B0100081B010008F0
:100080001B0100081B0100081B0100081B010008E0
:10009000455700081B0100081B0100081B01000850
:1000A0001B0100081B0100081B0100081B010008C0
:1000B0001B010008BD390008000000001B010008FA
:1000C0001B01000800000000000000001B010008E8
:1000D000000000008D3A0008993A00080000000076
:1000E0001B0100081B0100081B010008DFF80CD0F1
:1000F00000F03CF800480047E15A0008A012002038
:100100000648804706480047FEE7FEE7FEE7FEE7B1
:10011000FEE7FEE7FEE7FEE7FEE7FEE7B939000887
:10012000ED0000080649074A0868504343F23902C7
:10013000104408604008704701490860704700009B
:10014000000000206D4EC641D2B201E000F8012B44
:10015000491EFBD270470022F6E710B513460A4647
:1001600004461946FFF7F0FF204610BD064C074D28
:1001700006E0E06840F0010394E807009847103477
:10018000AC42F6D3FFF7B6FFAC5D0008CC5D0008CB
:1001900070B58C1810F8015B15F0070301D110F849
:1001A000013B2A1106D110F8012B03E010F8016B76
:1001B00001F8016B5B1EF9D12B0705D40023521EF9
:1001C0000DD401F8013BFAE710F8013BCB1A921C61
:1001D00003E013F8015B01F8015B521EF9D5A1425F
:1001E000D8D3002070BD0000FEE70000002070475B
:1001F00000207047002070477047000070470000E3
:1002000040F2A810C2F2000090F8AC2190F8A711BB
:1002100042B139B940F24852C2F20002D268012A12
:1002200088BF7047013938BF002180F8A711704797
:1002300080B505F0E3FB80B280BD000080B500789A
:1002400005F02AFBC0B280BD05F0F2BB05F0FABB99
:100250002DE9F04140F2A818C2F2000898F8000019
:1002600098F80110FF2808BFFF291AD001F07F017C
:1002700040EA0124002000F0DFFF7CB1002502E00D
:100280000135AC420AD02846FFF7D8FF18F8051010
:100290008842F5D0284600F0C1FFF1E7002000F0C9
:1002A000C9FF40464FF46771FFF755FF4FF4677081
:1002B000FFF7BEFF0130A8F8B10180B2FFF73CFFA5
:1002C000012000F0B9FFB8F8B1114FF4677000F0E9
:1002D000A3FF012000F0AEFF00200821082208281B
:1002E00038BF02464FEA42134FF0080588BF054663
:1002F000FF2B4FF0FF0338BF530108EB400213758B
:100300006B015375431C0825082B38BF1D464FEA67
:10031000451498BF0B46FF2C4FF0FF044FEA4313E0
:1003200038BF6C01D375831C08259475082B38BF22
:100330001D464FEA451498BF0B46FF2C4FF0FF04B3
:100340004FEA431338BF6C015376C31C082514765B
:10035000082B38BF1D464FEA451498BF0B46FF2CAB
:100360004FF0FF0400F1040038BF6C015B0110285E
:100370009476D376B2D14FF0000C18214FF4806EF2
:10038000FF23002505F11006C6F11804B1424FF015
:10039000180038BF64466701182E88BF3046AEEBA0
:1003A0004010FF2F4FF0FF0738BF6701FF2828BF1D
:1003B000184608EB450484F8350005F1110084F86F
:1003C0003470C0F11807814238BF67467801172E94
:1003D00098BF1726F643FF284FF0FF000EEB461696
:1003E00038BF7801FF2E28BF1E4684F8360005F17D
:1003F0001200C0F11807814284F8376038BF6746A1
:100400007E01182898BF0846AEEB4010FF2E4FF033
:10041000FF0638BF7E01FF2828BF184684F8390040
:1004200005F11300C0F1180781424FF0180284F85B
:10043000386038BF67467E01182888BF0246AEEB99
:100440004212FF2E4FF0FF0638BF7E01FF2A28BF61
:100450001A461F2805F1040584F83A6084F83B2009
:1004600090D1032088F8A70140F29E30FFF7E6FE06
:1004700040F24854C2F2000460700120FFF7DEFE33
:1004800080F08000C009A070BDE8F081F0B581B0B7
:1004900040F24855C2F200050220686100200026A3
:1004A000FFF7CCFE044601200127FFF7C7FE44EA10
:1004B00000204FF6FF71411A6FF3DF3040F2A814AD
:1004C00008BF0846C2F20004A86104F15A0040F2D5
:1004D0004231EE602E702E61AE80FFF73CFE4FF48D
:1004E000677084F8AC71FFF7A3FEA4F8B1016878D7
:1004F00000281CBF01B0F0BD01B0BDE8F040FFF71F
:10050000A5BE000010B540F2A814C2F200040020FD
:1005100084F8AC0140F24850C2F200000169C161A8
:1005200005F0DEFB032084F8A701BDE81040FFF7CB
:100530008BBE00002DE9F04F81B040F2A814C2F24A
:10054000000494F8AC01002800F0D08440F2485533
:10055000C2F200054FF0000B6FF00B074FF00108DF
:1005600003264FF0320912E094F8A60100EB400098
:1005700007EB800184F8A8816018A4F8AAB1B0F84C
:100580002C01686194F8AC01002800F0AF84E868A1
:10059000002840F0AB84FFF731FE94F85A0038B1E0
:1005A000013884F85A0000064FF0000A14D103E025
:1005B0004FF0000A10E000BF5FEACA6006D408FAF4
:1005C0000AF080B203F0C0F98AE000BF082003F00F
:1005D000DBF985E00AF1010ABAF1210F18D004EB2A
:1005E0000A0090F85B100029F4D001390A0680F85F
:1005F0005B10EFD10AF1010ABAF1200F6AD0BAF10B
:10060000210FD9D18020802103F0CCF984F8A76193
:10061000A888002840F06E84D5E90501884280F062
:100620006F84411CA4F8A2016961FFF707FE6969A4
:1006300084F89D01481C68610846FFF7FFFD94F8A7
:100640009D1184F89C010A061ED4C1F3C302062A38
:1006500098D840B2DFE812F008007E009000A200B7
:10066000C800F200000100BF48077FF58BAFB4F867
:100670009C01890707466FF35F2700F1C181C0B273
:1006800000F04EFC380AC0E148060DD44808C1F31A
:100690004401C20684F89F1126D408FA01F080B202
:1006A00003F04AF924E000BFC1F3401000F120023A
:1006B00084F89F2101F01F0204EB420184F8A0019D
:1006C0000028087D497D84F8A12123D103F062F937
:1006D00022E000BF8020802103F05CF94FF0200A67
:1006E00084F8A76178E700BF00F00F0003F04CF931
:1006F00094F8A801A4F8A76184F8A90198B994F81E
:100700009D1194F89C01C90740F0B88000EB80006F
:1007100040000EE003F046F994F8A801A4F8A761A0
:1007200084F8A90160B1B4F8AA0104EB4000B0F963
:100730008200E86094F89F01204480F85A8021E705
:1007400094F89C01010600F1A38000F07F0000FBFB
:1007500009F0EEE794F8A80184F8A8B1002884F81D
:10076000A90100F0E580B4F8AA0104EB4000B0F95B
:100770008200E86006E700BF94F8A611002900F0A7
:10078000DF8001EB410004EB8000B0F81E21B4F8DB
:10079000A20182423FF4F6AED4E000BF48070ED576
:1007A0006869411C6961FFF749FD696984F89B012B
:1007B000481C68610846FFF741FD84F89A0194F8E7
:1007C000A80184F8A8B1002884F8A90100F00681E6
:1007D000B4F8AA01002800F04F81012840F070828F
:1007E00094F8A60185E200BF4A0759D4C1B24A096C
:1007F000072A00F0B781012A00F0CA81002A7FF49D
:10080000C1AEC90604D594F8B01100293FF4BAAEC0
:1008100094F8A61100F00F0084F8AF01081AC1B2D5
:1008200001EB410104EB810184F8A601B1F820013C
:1008300084F8A881A4F8AA81A3E600BF4A074BD494
:10084000B4F89C11C1F3C211002984F8AD1100F075
:10085000278140F3060051E1B4F89C0140F2FE32DA
:1008600002EA4000C1F34101DFE801F0D902D4DC23
:1008700094F8B011002940F0D28083E640B20028FD
:1008800006D4C0B200FB09F0A880C5F80C9051E76F
:1008900094F89F1100F07F00214481F85A0071E61E
:1008A000C0F3C20300F0070284F8AD3184F8AE2132
:1008B00001F00301DFE811F00400860190019C01C2
:1008C00004F1820131F8133031F81210591AB1FADB
:1008D00081F1490997E100BF01F00602042A40F0C6
:1008E000AF80B4F89C21C2F3821084F8AF01C2F348
:1008F000C20002F00701002884F8AD0184F8AE11AF
:100900003FF440AE04EB41019309B1F8821003F0CB
:1009100007030AB2DFE813F00800020208020E0221
:100920001602200226022C0204EB400025E200BF42
:10093000480700F1F180B4F89C016FF39F2001E1BA
:10094000B4F8A201013184F8A611C9B201EB41014A
:1009500004F5917202EB810141F80CBC94F8A611E8
:1009600094F8A83101EB410107EB81010A441081A1
:10097000B4F89C01002B6FF3DF20508184F8A9317B
:1009800084F8A8B13FF4F6ADB4F8AA0104EB400036
:1009900090F8821011F00F0184F8AD111CBF01F125
:1009A0000041116090F88200000984F8AE013FF424
:1009B000DBADE11C94F8A62101EB4000B0F97F000B
:1009C00002EB420201EB8201C1F81701B1F81D01EF
:1009D000022184F8A881A4F8AA11D2E594F8A6010E
:1009E00000EB400007EB80002044D0F82211B1F169
:1009F000FF3F40F3AD800131C0F8221160E100BF3C
:100A0000E05D274400F08CFA787800F089FA6FF006
:100A10000B07B7E594F8B01100297FF4B3ADA98AAC
:100A20000CE000BF94F8A5110131CAB284F8A511F9
:100A3000696904EB4202A2F8B21089B20844A0E549
:100A400001F00701062940F0F580C0F3021100F023
:100A50000F02002984F8AD1184F8AF213FF492AD64
:100A600004EB4103B3F88230002846BF18B21041AE
:100A700003FA02F042E000BF94F89D01400700F144
:100A8000138194F8A601B4F89C1100EB400004EB2C
:100A900080006FF39F21002908BF4FF000410DE156
:100AA00040063FF56FAD6869411C6961FFF7C6FB01
:100AB000696984F89B01481C68610846FFF7BEFB22
:100AC00094F89C2184F89A01C2F3C20012F0070145
:100AD00084F8AF0184F8AD113FF454ADD208D4F8D6
:100AE0009A0102F00702DFE812F009000F00BF01CF
:100AF000C901D501ED01F701E30100BF04EB41019C
:100B0000A1F882003EE500BF04EB4101B1F882206C
:100B10001044A1F8820035E5880700F1F380686988
:100B2000411C6961FFF78AFB696984F89B01481CD5
:100B300068610846FFF782FB84F89A01D4F89A01AD
:100B400020F07E4000EB80004000E8601AE500BF26
:100B500001F00F0004EB4000B0F882100131A0F862
:100B60008210ADE0C80604D594F8B00100283FF427
:100B700009AD94F8A501002800F0CC8004EB4001F9
:100B8000B1F8E4100138696184F8A501FAE400BF06
:100B9000C90604D594F8B01100293FF4F3AC94F8D9
:100BA000A61100F00F0084F8AF01081AC1B201EBE2
:100BB000410104EB8101B1F8201184F8A6016961BB
:100BC000E0E400BF04F1820131F8133031F8121073
:100BD000591A18BF012116E004F1820131F91330CE
:100BE00031F912108B424FF00001B8BF01210AE029
:100BF00004F1820131F9133031F912108B424FF0B8
:100C00000001D8BF012194F8B02184F8AF11134638
:100C1000002A18BF0123C0B284F8B03180096FF0F8
:100C20000B07DFE800F003252F3700BF84F8B01171
:100C3000A8E400BF00F00701C0F3C3000238072892
:100C400084F8AD113FF69EACDFE800F0069EAABC2A
:100C500004D0D6E4FFF796BC00293FF493AC04EB34
:100C60004100B0F882104942A0F88210FFF78ABC18
:100C7000002A18BF012201EA020084F8B001FFF740
:100C800081BC00BF52EA010018BF012084F8B00106
:100C9000FFF778BC002A18BF012281EA020084F81D
:100CA000B001FFF76FBC00BF94F8A601D4F89A1109
:100CB00000EB400004EB800021F07C41C0F81A11E9
:100CC00094F8A60100EB400104EB8102D2F8161162
:100CD000B1F1FF3F05DC01F00F0104EB4101B1F977
:100CE000821002F58B725368B3F1004F06D099421F
:100CF00004DB013884F8A601FFF744BC1089FFF734
:100D000040BC00BFB4F89C016FF35F20E860FFF7C0
:100D100039BC00BFFFF7F6FBFFF734BC04EB400023
:100D2000B0F88220114428E004EB4000B0F88220A3
:100D3000514322E004EB4000B0F9821091FBF2F144
:100D40001BE000BF04EB4000B0F9821091FBF2F30E
:100D500003FB121111E000BF04EB4000B0F8822049
:100D600011400AE004EB4000B0F88220114304E097
:100D700004EB4000B0F882205140A0F882106FF0E0
:100D80000B07FFF7FFBB00BF00293FF4FBAB04EBF1
:100D90004100B0F88210C943A0F88210FFF7F2BBFF
:100DA00094F8A401E21C013002EB410184F8A40193
:100DB000B1F87F10C0B202EB4000A0F8AF10FFF70F
:100DC000E1BB00BF00293FF4DDAB94F8A401E21CB5
:100DD00002EB4003B3F8AF3002EB41010138A1F858
:100DE0007F3084F8A401FFF7CDBB00BF84F8A88151
:100DF000A4F8AA11FFF7C6BB00293FF4C3AB04EB6C
:100E00004100B0F88210002918BF0121A0F882101B
:100E1000FFF7B8BB00293FF4B5ABB4F8B10190B906
:100E20002869A4F8B101012000F006FAB4F8B11164
:100E30004FF4677000F0F0F9012000F0FBF9B4F80E
:100E4000B101FFF779F9FFF76DF994F8AD1104EBF3
:100E50004101B1F9822090FBF2F303FB1200A1F8EB
:100E60008200FFF78FBB00BF04EB4101B1F8822085
:100E70005043A1F88200FFF785BB00BF04EB41019E
:100E8000B1F9822000B292FBF0F0A1F88200FFF7E6
:100E900079BB00BF04EB4101B1F9822003B292FBA0
:100EA000F3F303FB1020A1F88200FFF76BBB00BF38
:100EB00004EB4101B1F882205040A1F88200FFF715
:100EC00061BB00BF04EB4101B1F882201040A1F8E2
:100ED0008200FFF757BB00BF04EB4101B1F882204D
:100EE0001043A1F88200FFF74DBB00BF01B0BDE881
:100EF000F08F00BFE8600020A88001B0BDE8F08F4F
:100F0000002084F8AC012869E86104F0E9FE0320C0
:100F100084F8A70101B0BDE8F04FFFF795B90000D4
:100F200080B582B08DF807000DF10700012104F0B3
:100F300001FF02B080BD000070B5002842D4044615
:100F4000FFF75CF940F24855C2F20005E9882889AC
:100F5000814229D240F2A816C2F20006745401312F
:100F60008142E98018BF70BD0020002400F064F9C0
:100F70002889EC8080B1286A002100BF89B2715CA9
:100F800000F04CF9E8882B89411C286A8AB20130AC
:100F90009A42E9802862F1D3002000F04BF98220C8
:100FA000BDE87040FFF7BCBF696A40F2A816481C54
:100FB000C2F2000622066862745405D4142824BFC5
:100FC0000020686270BD00BF072900F06B80002917
:100FD00040F06E80E978A52C08BF002900F07280EF
:100FE000002900F06980A4F1800100222529EA701F
:100FF00000F2E280DFE811F02600A600CA00E60059
:10100000EA00AC00B200E000E000E000E000E00038
:10101000E000E000E000E000E000E000E000E000D0
:10102000E000E000E000E000E000E000E000E000C0
:10103000E000E000E000E000E000E000E000E000B0
:10104000E000660096F8A60100EB400006EB800089
:10105000D0F81641E0B2FFF763FFC4F30720FFF7B3
:101060005FFFC4F30740FFF75BFF200EFFF758FF59
:10107000EC69E0B2FFF754FFC4F30720FFF750FF1D
:10108000C4F30740FFF74CFF200EFFF749FF6C69E0
:10109000E0B2FFF745FFC4F30720FFF741FF002050
:1010A000686270BD96F8AC0190B1FE2043E000BFCD
:1010B000E97800297FF497AFC0B2FFF731FF002035
:1010C000686270BD0120E8700020686270BD00BFDA
:1010D00071783078B278890041EA402040EA5210B5
:1010E00080B202F04BFCF078B178000940EAC10010
:1010F000C0B202F049FC31797279F078CB089208DD
:1011000043EA001042EA4111C0B2C9B202F042FC07
:10111000B1797079F2794B0843EA801001F001014E
:1011200002F07F0242EAC111C0B202F03BFC032090
:1011300086F8A701FF20FFF7F3FE0020E8700020EB
:10114000686270BD8020FFF7EBFE0020686270BD12
:101150004620FFF7E5FE0020686270BD687880F0E9
:1011600008006870012000F067F8697840F29E304E
:1011700000F054F8012000F05DF8FFF765F868789A
:10118000FFF7CEFE0020686270BD00BF052813D1B6
:10119000FFF7B8F930787178B278F37840EAC11087
:1011A000286242EAC31028810020E8808120FFF7EE
:1011B000B7FE0020686270BD0020FFF7B1FE00207E
:1011C000686270BDFFF762F902E000BFFFF79AF9AD
:1011D0008320FFF7A5FE0020686270BD40F24850F2
:1011E000C2F20000016901310161017811B1017899
:1011F00001390170C16869B140F2A811C2F2000161
:1012000091F8A71119B1C168022938BF7047C168A8
:101210000139C160704700007047000080B582B09E
:1012200002788DF807100DF10700012104F03AFB58
:1012300002B080BD7047000070470000EFF31080DF
:1012400072B600BFFEE7000070B542F20C0604461D
:10125000C4F2020600F06CFA3168C90718D1306890
:10126000800644BF202030603068C00607D4306953
:10127000C00704D1306840075CBF002070BD3068F3
:10128000C00623D40020316849072BD434E000BFC6
:10129000002C47D00546601C0ED13068C007DED058
:1012A0003068C0071CBF30685FEAC070D7D03068B4
:1012B000C007F2D1D3E700BF00F03AFA401BA042CA
:1012C00030D83068C007F7D1C9E700BF40F670607A
:1012D000C2F20000C16941F00201C1611020316811
:1012E000490709D540F67061C2F20001CA6940F0B1
:1012F000040042F00102CA613169C90702D13060BD
:10130000012070BD40F67061C2F20001CA6942F06E
:101310000402CA61316921F00101316130600120AC
:1013200070BD00BF032070BD014690F82100022867
:1013300016D10868D1E90FC3026822F00E020260DC
:10134000026822F001020260012000FA03F2CCF8E8
:10135000042081F821000020002281F8202070471D
:10136000042088630120002281F8202070470000BB
:1013700080B590F82110022924D10268116821F06B
:101380000E0111602F211368C4F202018A4240F25B
:101390000401C4F2020123F00103136016DD3023BF
:1013A000C4F202039A421DD04423C4F202039A42BB
:1013B0001CD05823C4F202039A421DD14FF480334B
:1013C00022E000BF04218163012080BD0823C4F214
:1013D00002039A420ED01C23C4F202039A420BD19C
:1013E000102311E04FF480730EE000BF4FF48053E0
:1013F0000AE000BF012307E001F1680C4FF08073A1
:10140000624508BF4FF480130B60416B4FF480724C
:10141000028401B18847002080BD0000B0B50446B9
:1014200000F086F9054640F20400C2F200000078A0
:10143000611C18BF044400BF00F07AF9401BA042B1
:10144000FAD3B0BD2DE9F04F81B040F67069C2F219
:101450000009924699F81820012A03D1022001B010
:10146000BDE8F08F8046012089F818004CF250301A
:101470009B460E46FFF7E8FEA0BB404642F210072F
:10148000B8F1020F18BF0420C4F20207B8F1010F2F
:1014900008BF404645424FF000080024C4F1200137
:1014A000C9F81C802AFA04F00BFA01F13A680843E3
:1014B000B4F1200158BF2BFA01F042F0010139606C
:1014C00026F8020B4CF25030FFF7BEFE39680135AA
:1014D00021F0010248F100013A6018B9002904F135
:1014E0001004DBD0002189F8181001B0BDE8F08F9E
:1014F00042F20400C4F20200C16809065CBF002089
:10150000704740F22311C4F26751016048F6AB11F5
:10151000CCF6EF510160C068C0B2C009704700004E
:101520002DE9F04F82B041F20002C4F201020E68D0
:101530000323904208BF0223002E009300F0EE80A8
:1015400040F20C4C4FF6FF7EC4F2010C0022012445
:10155000C1F2100E4FF0000B4FF000094AE000BF3F
:1015600040F60044C4F20104009DA04208BF0125DA
:1015700002F00C040F27A7402AEA070705FA04F433
:101580003C4343F82640D1F804A040F20045C4F2A1
:1015900001055FEACA332B6854BF23EA080343EA14
:1015A00008032B606B685FEA8A3454BF23EA0803A0
:1015B00043EA08036B605FEACA24AB6854BF23EABE
:1015C000080343EA08035FEA8A24AB60DCF80030D2
:1015D0004FF0010454BF23EA080343EA0803CCF8A0
:1015E00000300E680BF1010B36FA0BF302F1040226
:1015F00000F0948004FA0BF816EA080FF1D04E6858
:10160000764511DC122E55D8DFE806F0340A44483E
:10161000545454545454545454545454544C5000EA
:10162000D1F80C9046E000BF4FF6FF73C1F22103E2
:101630009E420FDC0023C1F211039E421AD0002308
:10164000C1F212039E4215D00023C1F221039E4233
:1016500010D02FE00023C1F222039E420AD00023C3
:10166000C1F231039E4205D00023C1F232039E42F3
:1016700020D100BF8B684BB1012B14BFC0F8148080
:10168000C0F810804FF0080914E000BF4FF00409C3
:1016900010E000BFCB6803F108090BE04FF0000930
:1016A00008E000BFCB6803F1040903E0CB6803F155
:1016B0000C0900BF13460546BBF1080F24BF203BB1
:1016C00004352E680F279F40BE4309FA03F33343C6
:1016D0002B60CB79DB067FF584AF41F21804C4F2AE
:1016E000020423684FEA9B0643F00103236023684A
:1016F00040F6000403F001030193019B40F2004314
:10170000C4F20103A3F57E7353F826A0C4F20104CA
:10171000A0427FF425AF00252AE700BF02B0BDE854
:10172000F08F0000002A08BF090401617047000023
:1017300040F69860C2F200000068704740F2040072
:1017400040F69861C2F20000C2F2000100780A6817
:10175000104408607047000080B542F20000C4F2F7
:101760000200016841F010010160032000F082F8DE
:101770000F2000F005F800F027F8002080BD0000E1
:1017800070B540F20406C2F2000640F280013278E1
:10179000C2F200014FF47A730968B3FBF2F2044617
:1017A000B1FBF2F1084601F069FA0F2C4FF0010588
:1017B00008D838B94FF0FF3021460022002500F04C
:1017C0002DF87460284670BD82B041F21800C4F252
:1017D0000200016841F001010160016801F00101AE
:1017E00001910199416841F080514160406800F0E9
:1017F00080500090009802B070470000002848BF59
:10180000704700F01F01012202FA01F14EF20012AE
:101810004009CEF2000242F82010704710B54EF693
:101820000C5CCEF2000CDCF80030C3F3022E8EF01C
:101830000704042C28BF0424BEF103034FF0FF3E2D
:101840000EFA04F438BF0023A14399400EFA03F3C3
:101850009A43114300F00F02043A624409010C322A
:1018600000F16043B0F1FF3FC8BF03F5644211705F
:1018700010BD00004EF60C51CEF200010A684FF682
:10188000FF031A4060F30A2242F0806040F0FD70CE
:101890000860704780B501F0070C0CEB8C0C00EB76
:1018A000CC0C01EB810E0CF1280C00EBCE000906EC
:1018B00058BF00F5B47C0020002A19BFCCF80830CE
:1018C0000121ACF8063000218CF80C1080BD00001E
:1018D0007047000001EB8102D0F8E83200EBC20053
:1018E000C26B184602F03ABC01EB8102D0F8E83234
:1018F00000EBC200D0F87C21184602F095BC000035
:1019000010B50446080601F0070000EB800104EB67
:10191000C10205D402F5B471002382F8693104E0F4
:10192000012302F1280182F8293094F8A8220870D6
:10193000012A04BF022010BD2068012284F8A822D9
:1019400003F072F9002084F8A80210BDB0B5044677
:10195000406801F00F02824284BF0120B0BD08063A
:1019600001F0070000EB800104EBC10206D402F590
:10197000B471002382F8693105E000BF012302F150
:10198000280182F8293094F8A8220025012A8D70B8
:10199000087004BF0220B0BD2068012284F8A8228C
:1019A00003F0D2F9284684F8A852B0BDB0B5054678
:1019B000080601F0070000EB800105EBC10C05D41F
:1019C0000CF5B47100248CF8694104E001240CF199
:1019D00028018CF829404C780870002C0A61CB70E3
:1019E00018BFC881022B04BF0020087195F8A80217
:1019F000012804BF0220B0BD2868012285F8A82272
:101A000003F000F8002085F8A802B0BD10B501F081
:101A1000070C0CEB8C0100EBC10E00680EF5B471E5
:101A20000024CEF87C21CEF88031CEF884418EF8A7
:101A300069418EF868C103F0DFF9002010BD000095
:101A4000B0B50446406801F00705854284BF012017
:101A5000B0BD08060AD401EB810004EBC00000F51C
:101A6000B471002280F8692109E000BF05EB850010
:101A700004EBC000012200F1280180F8292094F82D
:101A8000A802012201288A700D7004BF0220B0BD97
:101A9000206884F8A82203F095F91DB1002084F88D
:101AA000A802B0BD206804F52C7103F04BF90020AA
:101AB00084F8A802B0BD000080B501F0070C0CEB63
:101AC0008C0100EBC10101F828CF00684FF0010C38
:101AD00001F1140781F824C04FF0000E87E80C4094
:101AE0000B6281F801C003F087F9002080BD00007F
:101AF0002DE9F04F81B00446006803F029FE000490
:101B000002D4206807E000BF2068B0F94410B1F1AA
:101B1000FF3F40F3D78003F01BFE400519D5206836
:101B2000B0F8441021F48061A0F84410204600F081
:101B3000D9FC94F8A80201280BD00120002584F8D4
:101B4000A80284F824502068002103F057FE84F88E
:101B5000A852206803F0FCFD01462068490405D521
:101B6000B0F8441021F48041A0F8441003F0F0FDD7
:101B700001462068890405D5B0F8441021F40051CD
:101B8000A0F8441003F0E4FD01462068C90411D414
:101B900003F0DEFD000527D4206803F0D9FD8005A1
:101BA00076D4206803F0D4FDC00500F1818001B037
:101BB000BDE8F08FB0F8401021F00401A0F840100B
:101BC000B0F8401021F00801A0F84010204600F0C5
:101BD0009BFC2068B0F8441021F48051A0F8441018
:101BE00003F0B6FD0005D7D52068B0F800C0B0F806
:101BF00004E0B0F808808789068A858A018B828B89
:101C0000B0F8403043F00103A0F84030B0F8403065
:101C100023F00103A0F84030B0F844305B050CD449
:101C2000B0F844305B055CBFB0F844305FEA435322
:101C300003D4B0F844305B05EED5B0F8443023F45B
:101C40008063A0F84430A0F800C0A0F804E0A0F839
:101C5000088087810682858201838283B0F84010E4
:101C600041F00801A0F84010B0F8441021F40061E0
:101C7000A0F84410B0F8401041F00401A0F8401062
:101C8000204600F07FFC206803F062FD800588D5C7
:101C90002068B0F8441021F40071A0F844102046E8
:101CA00000F036FC206803F053FDC0057FF57FAFE0
:101CB0002068B0F8441021F48071A0F8441001B0FD
:101CC000BDE8F08F04F52C7140F60F7B009109E020
:101CD0002046FFF7FFFD00BF2068B0F9441000293F
:101CE0007FF519AFB0F8442012F00F094AD030F850
:101CF00029804FEA490A5FEA084140F16D8130F8D6
:101D00001A1040F60F7501EA0B01803120F81A1005
:101D100009EB890104EBC10B9BF874110BF5B47648
:101D2000002900F0A1809BF86B11022940F0B080DF
:101D3000B0F8502031785FEA484302EBC10200EB73
:101D4000420200F1DD80B2F80C74DBF880216FF301
:101D50009F27D21B4FF0000338BF1A46CBF88021D3
:101D600040F2E8805FEA486200F1F48030F8212018
:101D700048F2C0032A401A4320F82120002F40F0E7
:101D8000EA800DE10188D2062CD401EA0B0101F5AD
:101D900000410180B0F8501094F8282001EBC201F6
:101DA00000EB4100B0F80404E16B6FF39F20606426
:101DB0000844E06320460021FFF78CFD94F82400DE
:101DC000002889D0206C002886D194F8240021684E
:101DD00040F08000C0B2A1F84C00002084F824003C
:101DE0007AE700BF0A056DD409047FF575AF018855
:101DF00001EA0B0180310180B0F8501094F868219D
:101E000001EBC20100EB4101B1F80C346FF39F23E9
:101E1000C4F8843193B1D4F87C1179B1B4F86E214F
:101E200003F09AFCD4F87C01D4F884110844C4F877
:101E30007C0120460021FFF757FD20680188090535
:101E40003FF54AAFB0F85010D4F8783100F20C42A8
:101E5000002B00F0CB813E2B00F2D48103F0010770
:101E600007EB53039B02DAE1B0F85010327801EB34
:101E7000C20100EB4101B1F80C746FF39F27002FF2
:101E800000F08E80DBF87C11BBF86E2184E000BF8F
:101E9000317848F2C00330F821202A401A4320F854
:101EA000212030F82120B0F85030520403EBC1015A
:101EB00000EB410138D4B1F80C746FF39F27002F69
:101EC00049D16DE0B0F8501094F8682101EBC201DF
:101ED00000EB4101B1F80C34B4F86E2100996FF3B6
:101EE0009F23C4F8843103F037FC2068018801EA9D
:101EF0000B0180310180204600F022FBECE600BFA0
:101F0000B2F80474DBF880216FF39F27D21B4FF0E7
:101F1000000338BF1A46CBF8802121D95FEA486216
:101F20002DD4AFBB3CE000BFB1F804746FF39F2722
:101F300077BB35E030F8212043F60F731A404CF29E
:101F40008003A3F500535A4020F821205FEA48623D
:101F50007FF50CAF27B3DBF87C11BBF872211BE0D7
:101F600030F8212043F60F731A404CF28003A3F59A
:101F700000535A4020F821205FEA4862D1D530F85A
:101F8000212048F2C0032A401A4320F821203FB103
:101F9000DBF87C11BBF870213B4603F0DDFB00E071
:101FA0000027DBF88411DBE95F0239443844CBF8C1
:101FB0008411CBF87C011AB1DBF87801B84205D95D
:101FC00031782046FFF790FC04E000BF20683146DE
:101FD00002F012FF40F60F7B5FEA08607FF57CAEEF
:101FE000206809EB890130F81A3004EBC10203EADA
:101FF0000B0101F5004120F81A1092F82B1002F1A4
:102000002806002918BF03291CD1B0F850303178B8
:10201000176C03EBC10300EB4303B3F80434002552
:102020006FF39F23FF1A38BF2F4617647FF650AE19
:10203000D16B576C1944D163F9185164314602F0E1
:10204000DBFE49E6022902D15FEAC851DDD5B0F8CE
:10205000503031785FEA486703EBC10344D400F2A3
:102060000C4939F81370136C6FF39F27DB1B4FF08B
:10207000000538BF2B46136470D95FEA484308D483
:1020800030F821304CF2800503EA0B032B4320F893
:102090002130154615F84C3F012B40F07B8113464B
:1020A00053F8488F53E904EC53F804ACBC44BA44E9
:1020B000F04543F80CCC43F804AC80F0F180B8F163
:1020C000000F00F02B810027C6461F602F7092F88A
:1020D0002930012B40F0EC80B0F8503009EB0111B1
:1020E00021F803E040E100BF00F2044939F8137021
:1020F000136C6FF39F27DB1B4FF0000538BF2B4697
:1021000013644FD95FEA484308D530F821304CF2C8
:10211000800503EA0B032B4320F82130134613F804
:102120004C5F012D40F03681154655F848EF55E9D2
:1021300004AC55F8048CBC44B844D64545F80CCCE6
:1021400045F8048C80F0C6804FF00008BEF1000F07
:1021500083F8008040F0C180BE46C0E092F829209C
:10216000012A69D0002A74D1B0F8502000EB011385
:102170001A44B2F8043423F4F843A2F80434B2F851
:10218000043443F40043A2F80434B0F8500009EBDF
:102190000112135A23F4F8431352135A43F4004321
:1021A00056E000BF92F82920012A59D0002A64D1B4
:1021B000B0F8502009EB01139F5A27F4F8479F52BB
:1021C0009F5A47F400479F52B0F8502000EB01108F
:1021D0001044B0F80C2422F4F842A0F80C24B0F813
:1021E0000C2442F40042A0F80C2446E08B5A48F23A
:1021F000000723F4F8438B528B5ACFF6FF773B430B
:102200000DE000BF5F09DE064FF0FF3608BF06EBAA
:10221000531748F20003CFF6FF7343EA87238B522C
:10222000018843F60F7211404CF28002A2F58052F1
:102230005140018050E500BFB0F8502000EB011381
:102240001A440023A2F80434B0F8500009EB01123C
:1022500013522046FFF73EFB5FEA484014D599E051
:10226000B0F8502009EB011300279F52B0F850201E
:1022700000EB01101044A0F80C742046FFF72AFB75
:102280005FEA484040F18680206831784CF2800354
:1022900030F8212002EA0B021A4320F8212079E0CD
:1022A000A8EB0E051D6092F82930012B3FF414AF06
:1022B000002B59D1B0F85070BEF1000F09EB01119D
:1022C00034D0BEF13E0F41D80EF0010303EB5E03A4
:1022D0009B0248E0AEEB0A08D646C5F8008092F8AB
:1022E0002930012B12D0002B4ED1B0F85050BEF146
:1022F000000F09EB011121D0BEF13E0F36D80EF0D0
:10230000010303EB5E039B023DE000BFB0F85030D9
:1023100009EB011121F803E036E000BF00232B7028
:10232000BE4692F82930012BC2D1D5E67B5A23F460
:10233000F8437B527B5A43F4004314E06B5A23F476
:10234000F8436B526B5A43F400431CE05FEACE65DE
:102350004FEA5E134FF0FF3508BF05EB5E134FF4F5
:10236000004545EA83237B52528E0EE05FEACE673A
:102370004FEA5E134FF0FF3708BF07EB5E134FF4D1
:10238000004747EA83236B52128E1FFA8EF3614691
:1023900003F03CFA2068317840F63F7330F8212092
:1023A0001A4048F2C003103B5A4020F8212093E421
:1023B000F0B585B0002860D0044690F8A90228B98D
:1023C000002084F8A802204600F068F8032084F872
:1023D000A902206802F0ACFC94E82F50D4E907670A
:1023E0008DE82050CDE9036702F01CFC002841D1A4
:1023F00020680021002503F0FFF9616851B3012036
:102400000023002203EB830304EBC30787F8282093
:10241000D3B20132FB86D3B2994287F8290087F8FC
:102420002B50C7E90E553D64ECD800200023002254
:1024300003EB830304EBC30787F868210132D3B2AF
:10244000994287F8690187F86B01C7E95E00C7F810
:102450008001EDD804F10807D4E9056520688CCF28
:10246000D4E907CECDE9007602AE86E8205002F02E
:1024700051FC38B1022084F8A9020125284605B094
:10248000F0BD00BF0025012084F8245084F8A90283
:10249000206802F03DFC284605B0F0BD80B582B052
:1024A000006845F60041C4F2000188421CBF02B03A
:1024B00080BD41F21C00C4F202000168002241F418
:1024C000000101600068002100F400000190019803
:1024D0001420FFF7A3F9142002B0BDE88040FFF7F5
:1024E0008DB9000010B504468068022818BFFEF7B9
:1024F000A5FED4F8E802012101F08EFFD4F8E8022D
:10250000BDE8104001F046BFD0F8E80201F06CBF12
:10251000D0F8E80201F072BF10B5044690F8A802A6
:10252000012804BF022010BD012084F8A80284F80D
:102530002410206803F062F9002084F8A80210BD7E
:10254000D0F8E82200F52C71104601F07BBF0000A6
:1025500010B5044690F8A802012804BF022010BD5F
:102560002068012184F8A81203F0E2F82046012136
:10257000FFF7AEF9206802F0C9FB002084F8A8023A
:1025800010BD000010B50446D0F8E80201F0B0FF1D
:10259000A069002808BF10BD4EF61050CEF2000012
:1025A000016841F00601016010BD00002DE9F04115
:1025B00082B00446007841F21C06C007C4F202064D
:1025C0004AD0306810F0805808D1306840F0805010
:1025D0003060306800F080500190019847F20007A9
:1025E000C4F200073868C00512D4386840F480701F
:1025F0003860FFF79DF805463868C00508D4FFF736
:1026000097F8401B6428F7D9032002B0BDE8F08199
:10261000706810F4407012D0616801F44071884213
:102620000DD0706840F24042C4F24222012320F4EF
:10263000407113600023C007136071602AD1706875
:10264000616820F440700843B8F1000F706003D156
:10265000306820F0805030602068810707D556F838
:10266000181CA26821F44041114346F8181CC0060A
:1026700004D4002002B0BDE8F08100BF56F8180C69
:10268000E16820F48000084346F8180C002002B0EE
:10269000BDE8F081FFF74CF8054641F2883700BFEE
:1026A00070688007CBD4FFF743F8401BB8424FF067
:1026B0000300F5D9EBE700002DE9F04381B00028D5
:1026C00000F0858042F20008C4F202080446D8F8FF
:1026D00000000D4600F0070088420CD2D8F8000038
:1026E00020F007002843C8F80000D8F8000000F0E8
:1026F0000700A8426BD1206841F204098107C4F2A7
:10270000020917D5410705D5D9F8001041F4E06159
:10271000C9F80010010705D5D9F8001041F460513F
:10272000C9F80010D9F80010A26821F0F001114397
:10273000C9F80010C00741D1D8F8000000F0070028
:10274000A8420CD9D8F8000020F007002843C8F8A8
:102750000000D8F8000000F00700A84237D1206838
:10276000410707D5D9F80010E26821F4E061114370
:10277000C9F80010000708D5D9F80000216920F435
:10278000605040EAC100C9F80000D9F8002002F00A
:102790000C00082841F20020C0F27A0050D145F622
:1027A0009A53C2F38341C0F60003595CD2033BD471
:1027B00040F60010C0F23D00484341E06068022846
:1027C0000AD001282AD159F8041C890308D4012011
:1027D00001B0BDE8F08300BF59F8041C8901F6D5AB
:1027E000D9F8001021F003010843C9F80000FEF7F2
:1027F0009FFF064641F28837D9F80000616800F073
:102800000C00B0EB810F97D0FEF792FF801BB8420F
:10281000F2D9032001B0BDE8F08300BF59F8041CD1
:102820008907D4D5DCE700BFD9F8002045F68053EE
:10283000C2F34042C0F600039A5C4843B0FBF2F09A
:10284000D9F8001045F68252C1F30311C0F6000218
:10285000515C40F2800220FA01F140F20800C2F21D
:1028600000000068C2F200021160FEF789FF00203C
:1028700001B0BDE8F083000040F2800041F20401A5
:10288000C2F20000C4F202010068096845F69252E3
:10289000C1F30221C0F60002515CC840704700003D
:1028A00040F2800041F20401C2F20000C4F20201D1
:1028B0000068096845F69252C1F3C221C0F60002D1
:1028C000515CC840704700002DE9F04182B00028FB
:1028D00068D00446007841F20006C007C4F2020640
:1028E00025D0706800F00C0004281BD0706800F040
:1028F0000C00082802D17068C00313D46068002857
:1029000000F06881B0F5A02F00F07C81B0F5803F29
:1029100000F07C81306820F480303060306820F432
:10292000802076E13068800301D56068D0B32078DC
:10293000800718D5706810F00C0F07D0706800F091
:102940000C0008286ED17068C0036BD43068800713
:1029500002D52069012825D13068616920F0F8008E
:1029600040EAC1003060207800071FD4207840077B
:1029700032D4E56995B1706800F00C00082840F089
:102980008F80012D0ED07068216A00F480328A4257
:1029900008D1616A00F47010884203D1002002B0AF
:1029A000BDE8F081012002B0BDE8F081A0690028F7
:1029B00062D00020C4F242200121C0F88014FEF74A
:1029C000B7FE0546706A800700F18C80FEF7B0FE06
:1029D000401B0228F6D92AE1F06910F0805808D18E
:1029E000F06940F08050F061F06900F08050009094
:1029F000009847F20007C4F200073868C00529D4E0
:102A0000386840F480703860FEF792FE054600BFDB
:102A10003868C0051ED4FEF78BFE401B6428F7D92A
:102A200005E100BF2069002840F20000C4F2422006
:102A300000F0828001210160FEF77AFE054600BFAA
:102A4000306880073FF588AFFEF772FE401B022812
:102A5000F6D9ECE0E068002800F08080052800F05E
:102A60009780012800F09880306A20F001003062E1
:102A7000306A20F0040092E00020C4F242200021DD
:102A8000C0F88014FEF754FE054600BF706A800748
:102A90007FF56CAFFEF74CFE401B0228F6D9C6E06E
:102AA0000027C4F2422700203866FEF741FE022DBF
:102AB00005460BD13068800140F1BE80FEF738FE3C
:102AC000401B02284FF00300F4D968E7306880010A
:102AD0007FF564AFFEF72CFE401B02284FF0030089
:102AE000F4D95CE740F28000C2F20000006844F6CE
:102AF000D351C1F26201A0FB0101480A019000BF5D
:102B000000BF0198411E002801913FF42FAF00BF84
:102B10000198411E002801913FF428AF00BF0198A1
:102B2000411E002801913FF421AF00BF0198411ED2
:102B300000280191E4D119E700210160FEF7F8FDBA
:102B4000054600BF306880077FF50DAFFEF7F0FD4A
:102B5000401B02284FF00300F4D920E7306A20F030
:102B600001003062306A20F004003062FEF7E0FDC0
:102B7000054641F2883700BF306A800720D5FEF74E
:102B8000D7FD401BB8424FF00300F5D907E700BF5F
:102B9000306A40F004003062306A40F00100306278
:102BA000FEF7C6FD054641F2883700BF306A800750
:102BB00006D4FEF7BDFD401BB842F7D937E000BF91
:102BC000B8F1000F7FF4D5AEF06920F08050F061CD
:102BD000CFE600BF306820F480303060306820F4E9
:102BE00080203060FEF7A4FD054600BF30688003FA
:102BF0007FF59DAEFEF79CFD401B64284FF003005F
:102C0000F4D9CCE6306840F480203060306840F47D
:102C100080303060FEF78CFD054600BF30688003D1
:102C20003FF585AEFEF784FD401B6428F6D90320EE
:102C300002B0BDE8F08100BF206AB0F5803F05D149
:102C40007168A26821F40031114371607168626A91
:102C500021F4741110430843706001203866FEF7B8
:102C600067FD0446306880013FF598AEFEF760FDD1
:102C7000001B02284FF00300F4D990E6411E00200B
:102C8000B0EB116F1CBF012070474EF21002CEF264
:102C9000000251604EF62351CEF20001F0230B707A
:102CA0000721906011607047704700007047000076
:102CB00010B590F83C20012A4FF0020225D080F890
:102CC0003D200268D2F804E0D2F808C00C682EF06B
:102CD00070032343B2F1804F53600BD042F60043A0
:102CE000C4F201039A4205D040F20043C4F200034B
:102CF0009A4204D149682CF0800319439160012164
:102D0000002280F83D1080F83C20104610BD0000E5
:102D1000002804BF0120704710B5044690F83D001C
:102D200028B9002084F83C00204600F051F8022029
:102D300084F83D00206842F6004C0268B0F1804FF4
:102D4000C4F2010C18BF604504D1A36822F07002E0
:102D50001A4305E040F20043C4F200039842F4D065
:102D6000B0F1804F18BF604504D1236922F440724E
:102D70001A4305E040F20043C4F200039842F4D045
:102D8000A16922F08002D4F804E0E36811436045B1
:102D90000160C362C0F828E002D16169CCF830104C
:102DA00001214161002084F8461084F83E1084F827
:102DB0003F1084F8401084F8411084F8421084F8E1
:102DC000431084F8441084F8451084F83D1010BD79
:102DD00080B582B0006840F20041C4F20001884230
:102DE0001CBF02B080BD41F21C00C4F202000168A9
:102DF000002241F0020101600068002100F00200A1
:102E0000019001981D20FEF709FD1D2002B0BDE8CC
:102E10008040FEF7F3BC000090F83D1001291CBF74
:102E200001207047022180F83D100068C168B0F1B0
:102E3000804F41F00101C1600BD042F60041C4F265
:102E40000101884205D040F20041C4F200018842ED
:102E500006D1816801F00701062904BF00207047F0
:102E6000016841F0010101600020704780B590F8D1
:102E70003C20012A4FF0020200F0BF8080F83D2084
:102E8000D0F800C04FF67772DCF8083023EA02026F
:102E9000CCF808200B683F2B1CDD5F2B20DD602B5E
:102EA00050D0B3F5005F6DD0702B40F0A080D1E919
:102EB00001E3C968DCF8082043EA0E0322F47F42EC
:102EC00043EA01211143CCF80810DCF8081041F066
:102ED00077018AE01F2B29DC63B3102B2AD086E010
:102EE000402B63D0502B40F08280D1F804E0C968B9
:102EF000DCF82030DCF8202022F00102CCF8202081
:102F0000DCF8182022F0F00242EA011123F00A0254
:102F100042EA0E02CCF81810CCF82020DCF8081099
:102F200041F0570121F020015FE000BF202B01D0CC
:102F3000302B5CD1DCF8081021F07001194341F00E
:102F4000070152E0D1F804E0C968DCF8203023F032
:102F50001003CCF82030DCF81830DCF8202023F403
:102F6000704322F0A00243EA013142EA0E12CCF88B
:102F70001810CCF82020DCF8081041F0670121F08F
:102F8000100132E0D1E901E3C968DCF8082043EA26
:102F90000E0322F47F4243EA01211143CCF80810CA
:102FA000DCF8081041F480411FE000BFD1F804E0D4
:102FB000C968DCF82030DCF8202022F00102CCF8CF
:102FC0002020DCF8182022F0F00242EA011123F060
:102FD0000A0242EA0E02CCF81810CCF82020DCF8E5
:102FE000081041F0470121F03001CCF80810012110
:102FF000002280F83D1080F83C20104680BD000083
:103000007047000010B5016804460869800744BF96
:10301000C8685FEA807039D40869400744BFC8684F
:103020005FEA40703ED40869000744BFC8685FEAA1
:10303000007045D40869C00644BFC8685FEAC06034
:103040004AD40869C0071CBFC8685FEAC07051D184
:103050000869000644BFC8685FEA006052D4086986
:10306000400644BFC8685FEA406053D408698006E0
:1030700046BFC8685FEA806010BD6FF0200220463E
:103080000A61BDE81040FFF711BE00BF6FF00200FB
:103090000861012020778869800743D02046FFF728
:1030A000AFFF45E06FF004000861022020778869D7
:1030B00010F4407F40D02046FFF7A2FF42E000BF5F
:1030C0006FF00800086104202077C86980073DD0B0
:1030D0002046FFF795FF3FE06FF0100008610820E1
:1030E0002077C86910F4407F3AD02046FFF788FF68
:1030F0003CE000BF6FF001000861204600F03EF8A0
:103100002168A5E76FF0800008612046FFF7CCFD3D
:103110002168A4E76FF040000861204600F04CF8F9
:103120002168A3E7204600F025F8204600F024F8A7
:103130002168002020776FE7204600F01BF820462A
:1031400000F01AF82168002020776CE7204600F094
:1031500011F8204600F010F821680020207769E778
:10316000204600F007F8204600F006F8216800200D
:10317000207766E7704700007047000040F69851DE
:10318000C2F20001884218BF704780B540F69460D3
:10319000C2F2000001684A1CB1F57A7F08BF012223
:1031A0000260FEF71BF840F69850C2F20000BDE83E
:1031B0008040FFF731BE00007047000070470000FC
:1031C00070470000B0B582B0026805461068D36849
:1031D000546900F02F01202903F0200106D129B104
:1031E000284602B0BDE8B04000F0F4BB5FEA007CC6
:1031F0001EBF04F0010E03F4907414EB0E0455D1BD
:10320000296B012905D110F0100118BF13F010012E
:1032100036D1010622D513F080011FD095F83D006C
:10322000212841D1A868B0F5805F03D12869002822
:1032300000F0F680286A411C296200785060E88C12
:1032400001380104E8842FD1D06820F08000D060DC
:10325000D06840F04000D06002B0B0BD400623D539
:1032600013F0400020D0D068202120F04000D06032
:10327000284685F83D1002B0BDE8B04000F0D8BA4D
:1032800000200190106801905068019001985069E9
:10329000400613D4A88DE98DEB8D002B1CBF401A7E
:1032A0005FEA004140F0A48002B0B0BDC40718BF7F
:1032B00013F480732CD1430730D436E0A86B016837
:1032C0004B689CB2002CEFD0A98D8C42ECD2EB85E0
:1032D0008369202B17D0D16821F48071D1605169A6
:1032E00021F001015161516921F04001516120211A
:1032F00085F83E1000212963D16821F01001D160CA
:10330000FEF712F8A98DE88D081A81B2284682E0EE
:103310002B6C43F001032B64430706D5BEF1000F6D
:1033200003D02B6C43F002032B64830706D5BEF158
:10333000000F03D02B6C43F004032B64BCF1000F8F
:1033400006D551EA0E0303D02B6C43F008032B641F
:103350002B6C002BA8D010F0200018BF002903D040
:10336000284600F037FB2A685069296C00F04000BD
:1033700001F0080140182DD0D06820F49070D06082
:10338000506920F001005061286B012803D1D068FA
:1033900020F01000D060202085F83E000020286337
:1033A000506940061ED5506920F040005061A86B5E
:1033B000C0B143F6C911C0F600014163FDF7D8FF63
:1033C00000283FF471AFA86B416B02B0BDE8B0407C
:1033D000084700BF2846FFF7F3FE0020286402B02C
:1033E000B0BD00BF284602B0BDE8B040FFF7E8BE60
:1033F000D16821F49071D160516921F001015161CE
:10340000202185F83E1000212963D16821F01003A6
:1034100081B22846D36002B0BDE8B040FFF7CEBE0F
:10342000286A30F8021B6FF35F215160286206E7BB
:10343000002804BF0120704710B5044690F83D00F5
:1034400028B9002084F83C00204600F05FF82420D2
:1034500084F83D002068D4E90212C36823F40053C5
:10346000C360036923F440531A430261D4E904237F
:103470001143C268194341F20C639A431143C1607E
:103480004169A26921F44071114343F60002C4F27C
:1034900001029042416103D0FFF7EEF902E000BF64
:1034A000FFF7FEF96268192148439100B0FBF1F083
:1034B00048F21F51C5F2EB11A0FB01235A096FF02E
:1034C000630302FB0300322303EB0010A0FB0101A6
:1034D000F02303EA5113206803EB0212C1F34311F6
:1034E00011448160016921F490410161416921F039
:1034F0002A014161C16841F40051C16000202021CE
:10350000206484F83D1084F83E1010BDB0B586B03C
:10351000006844F2004140F60004C4F20001C4F225
:10352000010488424FF00001CDE90411CDE90211F8
:103530002CD043F60001C4F20101884258D141F277
:103540001800C4F20200016841F480410160016882
:1035500001F4804101910199016841F00401016089
:10356000006802A900F00400019001984FF4007077
:10357000029002200390032005902046FDF7D0FF23
:103580004FF480600290252523E000BF41F218002F
:10359000C4F20200416841F400314160416801F425
:1035A000003101910199016841F004010160006856
:1035B00002A900F00400019001980420029002206A
:1035C0000390032005902046FDF7AAFF082026253A
:1035D00002900020CDE9030002A92046FDF7A0FFDC
:1035E000284600210022FEF719F92846FEF706F9C1
:1035F00006B0B0BD034690F83E0020280AD100294D
:103600004FF0010018BF002A00D1704793F83C002A
:10361000012801D1022070470020186399622221FD
:103620009A85DA85186483F83E10196883F83C009F
:10363000CA6842F48072CA604A6942F001024A6173
:10364000CA6842F02002CA607047000040F6E051AC
:10365000C2F20001884218BF704710B540F690646E
:10366000C2F200042078FDF767FC40F6E050C2F299
:10367000000021460122BDE81040FFF7BBBF00005B
:103680002DE9F04381B0044690F83D0020280DD18B
:103690000F4600294FF0010000F092801646002AE4
:1036A00000F08E8094F83C00012803D1022001B084
:1036B000BDE8F083012084F83C004FF00009212090
:1036C0001D46C4F8409084F83D00FEF731F8A6840A
:1036D000E684A1688046B1F5805F25D12069002885
:1036E0001CBF38464F463E46074684F83C90E08C67
:1036F00000B3681C20D0002D66D120680BE000BF0D
:1037000036F8021B00276FF35F214160E18C01391D
:10371000E184E18C81B30168090675D5002FEFD0F3
:1037200017F8011BF1E700BF002684F83C90E08CFD
:103730000028DED120681FE0206802E00168090649
:1037400009D40168090606D4016809065CBF01684E
:103750005FEA0161F2D51FB117F8011B05E000BF58
:1037600036F8021B00276FF35F214160E18C0139BD
:10377000E184E18C0029E4D1016849061CD4002DC4
:1037800042D0691C0ED10168490615D4016849066A
:103790005CBF01685FEA41610ED401684906F2D559
:1037A0000AE000BFFDF7C4FFA0EB08012068A942B2
:1037B0002AD800684006F5D5202084F83D00002076
:1037C00001B0BDE8F08300BF206800BF01680906B2
:1037D00008D4FDF7ADFFA0EB08012068A942F5D998
:1037E00012E000BF17B117F8011B04E036F8021B06
:1037F00000276FF35F214160E18C0139E184E18CA6
:103800000029E3D1B8E700BFC16821F4D071C160DD
:10381000416921F001014161202084F83D0084F8D4
:103820003E00002084F83C00032001B0BDE8F08396
:103830007047000010B540F6686448F2800000212F
:10384000C2F20004C0F28000C8F20801C4E900100E
:1038500002F0F8F840F2E870C2F2000021460822B7
:1038600000F0B6F9012808BF10BDBDE8104002F015
:10387000DFB8000010B540F24854C2F200042078CE
:10388000002818BF10BD02F0DDF840F2E87040F6E5
:103890006861C2F20000C2F20001082200F098F94B
:1038A000012818BF02F0C4F8FCF7AAFC022020701F
:1038B00010BD0000FEE7000080B540F2E87040F265
:1038C0006401C2F20000C2F20001002200F00AFC12
:1038D000002818BFFDF7B2FC40F2E87040F2840106
:1038E000C2F20000C2F2000100F02AFE002818BF58
:1038F000FDF7A4FC40F2E87040F26011C2F2000053
:10390000C2F2000100F05CF9002818BFFDF796FC38
:1039100040F2E870C2F2000000F028FE002808BF64
:1039200080BDBDE88040FDF789BC0000FEE70000D7
:10393000FEE700007047000040F66861C2F2000137
:103940000A8810430880704740F66861C2F200019F
:103950000A8822EA000008807047000040F668608C
:10396000C2F2000000214FF40022C0E900214FF014
:103970008031C0F8031070477047000040F668615E
:10398000C2F200010880704740F66861C2F200018F
:103990008870704740F66862C2F20002D070117100
:1039A0007047000040F66862C2F2000250719171E7
:1039B00070470000FDF7C2BE7047000040F6985007
:1039C000C2F20000FFF71EBB406A0021C185C1841E
:1039D000FFF7F6BB81B090F83E10222920D1836812
:1039E000B3F5805F08D10169002941D000F12801B9
:1039F0000A6803685B680AE0014651F8282F13B98A
:103A00000369002BF5D003685B6803F07F03137034
:103A10000A6801320A60C18D01390A04C18501D0EA
:103A200001B070470168CA6822F02002CA60CA6803
:103A300022F48072CA604A6922F001024A6120229F
:103A400080F83E20026B012A1CD100220263CB6861
:103A500023F01003CB600B68DB0605D500920A68E3
:103A60000092496800910099818D01B0FFF7A6BBD3
:103A70000168826A49686FF35F2122F8021B826243
:103A8000C9E700BF01B0FFF7E1BD000040F6E0501C
:103A9000C2F20000FFF796BB40F62460C2F20000BD
:103AA000FFF790BBD0F8B8120022002081F8682000
:103AB00070470000B0B50446D0F8BC02D4F8B85244
:103AC000C268287869789047204602212A46562302
:103AD00000F04EFC0020B0BDB0B58121044600F0DE
:103AE0002BFB002520460221E56200F025FBD4F8DF
:103AF000B802C4F8805148B1D4F8BC02806880474D
:103B0000D4F8B80200F076FFC4F8B8520020B0BD77
:103B100010B5D0F8B842616E012907D1D0F8BC02C7
:103B20006178C2682078904700206066002010BD50
:103B3000014640F220101222C2F200000A807047B3
:103B4000014640F2BC002922C2F200000A80704700
:103B5000014640F2E8002922C2F200000A807047C4
:103B6000014640F234102922C2F200000A80704758
:103B700070B5812103224023044600F0E5FB0125B6
:103B80002046022103224023E56200F0DDFB6C2089
:103B9000C4F8805100F030FFC4F8B80268B106469E
:103BA000D4F8BC020025406886F86850804720465B
:103BB00002213246562300F0DBFB284670BD000090
:103BC00000290EBF0220C0F8BC1200207047000080
:103BD00080B590F89C32032B0DD194460A46D0F85C
:103BE000B81291F8681000291CBF012080BD812106
:103BF000634600F087FC002080BD000080B582B0E5
:103C00000A78D0F8B8C2002312F06002ADF806308E
:103C100010D0202A4AD14A78023A092A46D8DFE849
:103C200002F0054B4545454545535D630CF15C018C
:103C300044E000BF4A780B2A38D8DFE802F00737A3
:103C40003737373713373737252D00BF90F89C2289
:103C5000032A2BD10DF10601022200F09FF800206B
:103C600002B080BDCA78212A44D0222A50D1CA8805
:103C7000D0F8BC12562A096828BF562200F08EF8E8
:103C8000002002B080BD00BF90F89C22032A0DD115
:103C90000CF1600112E000BF90F89C22032A05D1CC
:103CA0008878CCF86000002002B080BD00F050F8A9
:103CB000022002B080BD00BF0CF15801012200F0CB
:103CC0006DF8002002B080BDCA8801236146CCF89F
:103CD000643000F049F8002002B080BDC878CCF80C
:103CE0005C00002002B080BD8878CCF8580000202D
:103CF00002B080BDCA8840F21411C2F20001092A44
:103D000028BF092200F04AF8002002B080BD00BFA1
:103D10000022002100F042F8002002B080BD000027
:103D200080B5D0F8B42252689047002080BD0000D2
:103D300080B513460A46002100F01AFB002080BD22
:103D400080B513460A46002100F0DCFB002080BD50
:103D500010B58021044600F0A7FB20460021BDE8F5
:103D6000104000F0A1BB000080B513460A460321B5
:103D7000C0F894120021C0E9573300F0F9FA00208E
:103D800080BD000080B50521C0F8941200210022FA
:103D9000002300F0EDFA002080BD000080B513463E
:103DA0000A460221C0F894120021C0E9073300F04E
:103DB000A9FB002080BD000080B50421C0F894124A
:103DC00000210022002300F09DFB002080BD0000A8
:103DD00010B540F27454C2F200040A4602A0214613
:103DE00000F012F9204610BD437573746F6D2048C2
:103DF000494420436F6E66696700000040F270100E
:103E00001222C2F200000A807047000010B540F292
:103E10007454C2F200040A4602A0214600F0F4F8ED
:103E2000204610BD437573746F6D20484944204986
:103E30006E746572666163650000000040F2841074
:103E40000422C2F200000A807047000010B540F260
:103E50007454C2F200040A4602A0214600F0D4F8CD
:103E6000204610BD45617379436F6E0010B540F276
:103E70007454C2F200040A4602A0214600F0C4F8BD
:103E8000204610BD45617379436F6E2050726F20DC
:103E9000436F6E74726F6C6C65720000B0B54FF258
:103EA000E870C1F6FF70026883684FF01A0C9B1827
:103EB000A1F800C000F0A3804FF0370C1A0F0CEBF4
:103EC00013714068B3F1204F38BF02F1300140F266
:103ED0008812C2F20002917019014FF0000E0CEB33
:103EE000117582F803E0C3F30364B1F1204F38BFCA
:103EF00004F13005190215710CEB117582F805E01B
:103F0000C3F30354B1F1204F38BF04F13005190356
:103F100095710CEB117582F807E0C3F30344B1F11E
:103F2000204F38BF04F13005190415720CEB1175E0
:103F300082F809E0C3F30334B1F1204F38BF04F134
:103F40003005190595720CEB117582F80BE0C3F37F
:103F50000324B1F1204F38BF04F130051906157361
:103F6000C3F303140CEB1175B1F1204F4FEA037149
:103F700003F00F0382F80DE038BF04F1300503F1C0
:103F80003704957382F80FE0B1F1204F38BF03F189
:103F90003004010F0CEB1073147482F811E0B0F1CF
:103FA000204F38BF01F1300301010CEB1174937401
:103FB00082F813E0C0F30363B1F1204F38BF03F17F
:103FC000300401021475C0F303530CEB1174B1F10A
:103FD000204F4FEA003182F815E038BF03F130047A
:103FE0000CEB1173947582F817E0C0F30340B1F144
:103FF000204F38BF00F13003137682F819E040F209
:104000008810C2F20000B0BD10B5002868D0037857
:10401000B3B100F1020E4FF0000C00BF1EF8013CDE
:1040200093B19EF800309BB19EF80130A3B19EF889
:1040300002300CF1040C002B0EF1040EEED10DE059
:104040004FF0000C0AE000BF4CF0010C06E000BF8E
:104050004CF0020C02E000BF4CF0030C5FFA8CFC49
:10406000022303EB4C03138003220B704A7090F879
:1040700000E0BEF1000F33D0023002224FF0000CFE
:104080001AE000BF141DE4B244F0010E0B5501F814
:104090000EC04378002B08BF10BD941DE4B244F05D
:1040A000010E0B5501F80EC090F802E00832BEF187
:1040B000000F00F1040013D0D3B243F0010401F863
:1040C00003E001F804C010F8013C4BB1941CE4B2C9
:1040D00044F0010E0B5501F80EC00378002BD1D12E
:1040E00010BD0000002804BF0220704780B5D0F842
:1040F000B432002B1CBF0023C0F8B432002918BF13
:10410000C0F8B012012180F89C12027000F0D2F8C1
:10411000002080BD80B5D0F8C002FDF717FC40F24A
:1041200000220223C100C0F20122042838BF22FA73
:1041300001F3D8B280BD000080B5D0F8C002FDF711
:10414000DFFB40F200220223C100C0F2012204285A
:1041500038BF22FA01F3D8B280BD0000B0B50446E2
:1041600071B1D4F8B402426942B194F89C020328B8
:1041700004D120469047002054E000BF0220B0BD8B
:10418000D4F89402002818BF042805D120468021C5
:1041900000F08AF93DE000BF02283AD1D4E90810C6
:1041A000814209D9081A83B22062204611461A4674
:1041B000FFF7C6FD14E000BFE169814218D3B1FBEF
:1041C000F0F202FB101098B9D4F8980281420FD295
:1041D0002046002100220025FFF7B2FDC4F89852C6
:1041E000204600210022002300F0C2F811E000BFA9
:1041F000D4F8B402C16829B194F89C02032801D113
:10420000204688472046802100F04EF92046FFF7DF
:10421000B9FD94F8A00201284FF0000004BF84F813
:10422000A002B0BDB0BD0000B0B5044671B1D4F875
:10423000B402826942B194F89C02032804D120465A
:10424000904700251CE000BF0220B0BDD4F89402C6
:104250000025052816D0032812D1D4E95810814230
:1042600018D9091AC4F86011814238BF084683B2D0
:10427000204611461A46FFF75BFD0020B0BD00BF87
:104280002846B0BD20460021C4F8945200F00CF935
:104290002846B0BDD4F8B402016929B194F89C0253
:1042A000032801D1204688472046FFF785FD0020DE
:1042B000B0BD000010B5044640F6AC2045F6004104
:1042C000C2F20000C4F200010822022380E80E00BE
:1042D0000021C0F8E842C4F8C002C0E9061101623A
:1042E000FEF766F8002818BFFCF7A8FFD4F8C00254
:1042F000002100221823FDF7CDFAD4F8C002802156
:1043000000225823FDF7C6FAD4F8C002812100220A
:104310009823FDF7BFFAD4F8C00202210022D82367
:10432000FDF7B8FA002010BDD0F8C00201F07F02FE
:1043300002EB820200EBC20000F12A02090658BF1C
:1043400000F5B5721078704780B59446D0F8C00279
:104350001A466346FDF72AFB40F200220223C10001
:10436000C0F20122042838BF22FA01F3D8B280BD7E
:1043700080B5D0F8C002FDF749FB40F200220223CD
:10438000C100C0F20122042838BF22FA01F3D8B2DA
:1043900080BD0000F0B581B000210022402304461A
:1043A00000254026FFF7D0FF01272046802100226C
:1043B0004023C4F85871C4F86461FFF7C5FFD4F80E
:1043C000B802A761666284F89C72C4F89452656072
:1043D000C4F8A45228B1D4F8B4020021426820469F
:1043E0009047002001B0F0BD90F89C12042904BF52
:1043F00090F89D1280F89C120020704780B590F8CC
:104400009C12032905D1D0F8B412C969002918BF3C
:104410008847002080BD00000246002011747047CC
:1044200080B5D0F8C002FEF777F840F200220223F0
:10443000C100C0F20122042838BF22FA01F3D8B229
:1044400080BD0000B0B500F52A750446284600F08E
:104450006BF894F8A8020121B4F8AE22C4F89412C3
:1044600000F01F010229C4F8982209D001290DD0BB
:1044700091B92046294600F07FF80020B0BD00BF6A
:104480002046294600F0D4F90020B0BD2046294638
:1044900000F074FA0020B0BD00F08001204600F06A
:1044A00003F80020B0BD000080B5D0F8C002FDF7D1
:1044B000C7FA40F200220223C100C0F20122042800
:1044C00038BF22FA01F3D8B280BD000080B5D0F821
:1044D000C002FEF73DF840F200220223C100C0F204
:1044E0000122042838BF22FA01F3D8B280BD0000AF
:1044F000014690F89C02042281F89D02002081F878
:104500009C22704780B5D0F8C002FDF7D5FA40F282
:1045100000220223C100C0F20122042838BF22FA7F
:1045200001F3D8B280BD00000A7802704A78427068
:104530004A8842808A888280C988C180704700008A
:1045400000290EBF0220C0F8B412002070470000FE
:1045500080B5D0F8B4223AB112689047002818BF4D
:104560000120400080BD00BF022080BD80B5FFF764
:10457000ADFF002080BD0000B0B582B00D460978C7
:10458000044611F060010DD0402902D0202940F0EE
:104590004381D4F8B402294682682046904700201F
:1045A00002B0B0BD6878092800F23681DFE810F06B
:1045B0000A00240034013000340138005C0034016A
:1045C0007200800094F89C020138022800F22481D5
:1045D000E888022840F02081D4F8A40203220028B1
:1045E00008BF0122214641F80C2F20460222FFF786
:1045F000D5FB002002B0B0BD94F89C02013802281F
:1046000000F20A8168880128C9D1002004E000BFB7
:1046100068880128C3D10120C4F8A402F6E000BFD5
:10462000A888002840F0F880E888002840F0F4804E
:1046300068887F2800F2F08094F89C12032900F02B
:10464000EB80C5B284F89E0220462946FFF7E8FEBB
:104650002046FFF7B1FB002D0CBF0120022084F89B
:104660009C02002002B0B0BD68884FF0FF3101EB22
:10467000102100220629ADF8062000F2CD80DFE8E7
:1046800001F005414FCBCB5D670000BFD4F8B0020D
:104690000268A5E0E888012840F0BE8094F89C02FA
:1046A000411E022922D20020214641F8080F21E0B4
:1046B000688840F27055C1B2C2F200050229287024
:1046C00080F0AA8094F89C0203284FD002285DD184
:1046D000002900F09B80032084F89C022046616042
:1046E000FFF736FF022840F0918095E0032840F064
:1046F0009380211D20460122FFF750FB002002B0CD
:10470000B0BD00BF217CD4F8B40200290CBF816A7F
:10471000C16A0DF1060088470146022023E000BF70
:10472000C0B2052800F27880DFE800F0044A4E7637
:10473000525600BFD4F8B002426850E0207C0028F6
:104740006AD1D4F8B402416B0DF1060088474BE002
:10475000207C002860D1D4F8B402016B0DF1060072
:1047600088470146072048703FE000BFF1B160680C
:1047700001284BD0C1B22046FFF7D2FA2978204653
:104780006160FFF7E5FE022840D145E02046802128
:10479000FFF78AFE20460021FFF786FE2978204693
:1047A000FFF7BEFA002002B0B0BD00BF022084F8BF
:1047B0009C02002060602046FFF7B2FA26E000BFAE
:1047C000D4F8B00282680AE0D4F8B002C26806E009
:1047D000D4F8B002426902E0D4F8B0028269DAB1DA
:1047E000207C0DF1060190470146BDF8060048B156
:1047F000EA883AB1904238BF02462046ADF806201A
:10480000FFF7CCFAE88800287FF4C9AE2046FFF70E
:10481000D3FA002002B0B0BD20468021FFF744FE4D
:1048200020460021FFF740FE002002B0B0BD00008E
:10483000B0B50A460978044611F060010CD0402951
:1048400001D0202920D1D4F8B40211468368204633
:1048500098470020B0BD00BF50781179F0B1012811
:1048600036D0032868D194F89C02032834D15088AC
:10487000002873D111F07F0070D0D08800286DD14E
:104880002046FFF711FE69E020468021FFF70CFE6D
:1048900020460021FFF708FE0020B0BD94F89C02DE
:1048A000032827D0022808BF5FEA416044D101F005
:1048B0007F0000EB800004EB800000F11402090689
:1048C00058BF00F5AA7200201060204611464FE044
:1048D00094F89C02032839D002282DD148062BD009
:1048E0002046FFF7E1FD20468021FFF7DDFD002097
:1048F000B0BD00BF01F00F0202EB820211F0800098
:1049000004EB820214BF9269D2F85821A2B101F0DF
:104910007F0202EB820204EB820202F114050028FE
:1049200008BF02F5AA7548061ED02046FFF7FCFC1A
:10493000D0B1012019E000BF20468021FFF7B4FD6F
:1049400020460021FFF7B0FD0020B0BD50880028B0
:10495000A2D1480602D02046FFF7DCFB2046FFF735
:104960002BFA0020B0BD00BF002028602046294659
:104970000222FFF713FA0020B0BD0000B0B50D46CB
:104980000978044611F0600118BF402912D194F84B
:104990009C020138022803D8A88810F0FE0F15D019
:1049A00020468021FFF780FD20460021FFF77CFD97
:1049B0000020B0BD2029EAD020468021FFF774FDF9
:1049C00020460021FFF770FD0BE000BFD4F8B402D1
:1049D0002946826820469047E988002908BF0028B8
:1049E00002D00020B0BD00BF2046FFF7E5F900204F
:1049F000B0BD00007047000040F27470C2F20000C9
:104A000070470000F0B50C78024691F803E000EB27
:104A1000840730F8240047F27063BEF1030F20EAE8
:104A2000030309D80020DFE80EF00309100D00BFD2
:104A300043F4007308E000BF012006E043F4806304
:104A400002E000BF43F4C063002048F28005CFF6C7
:104A5000FF752B433B803B8840F60F763340234362
:104A60002B433B800B7B48F2800C002B44D03B88CF
:104A700040F60F652B400CF580752B433B80B2F858
:104A800050300D8902EB0414234425F00105A3F8EE
:104A90000054B2F850204B89224423F00103A2F8BD
:104AA000083449783A88002902F480414AD039B163
:104AB000398840F60F7211400CF58042114339805D
:104AC0003988490607D5398840F60F7211400CF134
:104AD000400211433980398840F63F7211400CF191
:104AE00020024A40BEF1010F08BF41EA0C023A80A1
:104AF000398843F60F7244E04D78B2F85030002DFB
:104B00004FEA041442D0C98822441A4421F001011A
:104B1000A2F800143988490607D5398840F60F7283
:104B200011400CF1400211433980398840F63F7240
:104B3000BEF1010F01EA020124D00CF12002514024
:104B40003980F0BD39B1398840F60F7211400CF54B
:104B50008042114339803988490607D5398840F6A3
:104B60000F7211400CF1400211433980398843F62D
:104B70000F7211400CF5405251403980398840F68F
:104B80003F72114041EA0C013980F0BDCD88161901
:104B9000334425F00105A3F80854B2F850200B69FE
:104BA00006F20C4163B13E2B1AD803F0010606EB66
:104BB00053039B025352398849042AD521E000BF90
:104BC000535A48F2000623F4F8435352535ACFF68F
:104BD000FF7633435352398849041AD511E000BF98
:104BE0005E094FF0FF35DC0608BF05EB531648F2AF
:104BF0000003CFF6FF7343EA8623535239884904F2
:104C000007D5398840F60F7211400CF580421143E8
:104C10003980398843F60F7211400CF540525140EB
:104C20003980F0BD00207047B0B50C784B78097B17
:104C3000024630F824004CF2800C4CF2800500292A
:104C40004FEA44013AD0002B00F4804040D040B1FC
:104C500032F8110040F60F73184040EA0C0022F8B9
:104C6000110032F8110043F60F7E400640F63F7007
:104C700009D532F8113040F60F742340ACF57F545B
:104C8000234322F8113032F8113040F60F742340DC
:104C90002B43ACF5804522F8113032F81130184022
:104CA000284322F8110032F81100ACF5804300EAE5
:104CB0000E000343002022F81130B0BDF3B14006CE
:104CC00040F63F7EEFD5ACF57F5540F60F70E4E738
:104CD00040B132F8110040F60F73184040EA0C0062
:104CE00022F8110032F81100ACF57F55400640F66D
:104CF0003F7E43F60F70BCD4C5E700BF400443F6C7
:104D00000F7ED0D540F60F70C7E700000020704737
:104D10000020704701460120A1F840000022002039
:104D2000A1F84020A1F84420A1F8502070470000CD
:104D30000146B0F8400044F2FF0202400020A1F812
:104D4000402070470020704780B50A7B12B10020D8
:104D500080BD00BF0A784B7830F822C04FEA42028B
:104D6000B3B15FEA4C6348F2A00E0BD530F812C025
:104D700040F60F730CEA030C0EF1200343EA0C0318
:104D800020F81230C9780129E1D040F63F7110E0D7
:104D90005FEA4C414BF2800E09D530F8121040F614
:104DA0000F7319400EF58053194320F8121043F683
:104DB0000F7130F81230194081EA0E0120F81210FC
:104DC000002080BD02460B78487832F823C040F6B8
:104DD0003F71002848F2900008BF43F60F71CFF6EC
:104DE000FF7008BF00F57F6001EA0C014140002020
:104DF00022F82310704700002DE9F04F81B04A7867
:104E0000012A55D18A69D1F810900F7B4A4588BF95
:104E10004A46002F48F2801B6CD0CF78022F40F01A
:104E2000A9800D780C6A30F8257040F60F664FEABD
:104E3000450E4C4507EA060740F2008147EA0B079A
:104E4000A4EB020820F81E70C1F8208030F81E7014
:104E5000B0F850607F064FEA051700EB070300F13A
:104E60005D819F190093A7F80424D1F814A01704BA
:104E700000F088830F894FF0FF3600EB470707F5F6
:104E8000806B97B20137C7F3410506EB5704002D3D
:104E90004FEA5707D44600F062833CF8023B5E4677
:104EA000012D26F8043B40F03B82013FB34656E318
:104EB0000B7B002B42D0CB78012B00F09D80022B86
:104EC00040F0B880002A40F0F381B0F850300A7802
:104ED0000F6903441201002F03F2044300F0A28182
:104EE0003F2F80F0D18107F0010606EB5707BF0284
:104EF000D7E100BF130400F06381CB88D1F814C060
:104F000000EB430303F5806893B201334FF0FF37A2
:104F1000C3F3410407EB530E002C4FEA530300F098
:104F20003C81674637F8025B4646012C26F8045B55
:104F300040F01C81013BBC46B0462EE18B690A69FA
:104F40009F1A38BF00278F61B0F850700E78074461
:104F500088BF13463201002B07F20C4700F0C680D1
:104F60003E2B00F2CD8003F0010606EB53039B02BB
:104F7000D353C9E10F7840F60F6530F827604FEA48
:104F8000470E2E4046EA0B0620F827600E6AB41A38
:104F90000C6230F82760B0F850503F01760600EB05
:104FA00007087BD408EB0503A3F80424D1F814A068
:104FB000130400F0EF810B89CDF800E000EB430310
:104FC00003F5806B93B25F1C4FF0FF33C7F34105CD
:104FD00003EB570E002D4FEA5707D44600F0C5816A
:104FE0003CF8023B5E46012D26F8043B40F0F4807D
:104FF000013FB346B9E100BF0F698B69DE1B38BFC3
:10500000002688BF3B46002A8E6140F07D81B0F8C3
:1050100050700A7807441201002B07F2044700F091
:105020001B813F2B80F05C8103F0010606EB5303EC
:105030009B0262E1012001B0BDE8F08FABF5807208
:105040003A4320F81E20B0F8502000EB05131A4414
:105050002304A2F8044400F021830B894A6900EB81
:10506000430101F58067A1B201314FF0FF33C1F375
:10507000410503EB510C002D4FEA510100F0C981AD
:10508000164636F8024B3B46012D23F8044B40F000
:10509000B180013932461F46BBE100BF08EB05076E
:1050A000A7F80C24D1F814A0170400F0E5814F896B
:1050B00095B26E1C4FF0FF3500EB470705EB56032A
:1050C000C6F3410507F5806C002D4FEA560759D00D
:1050D0005646CDF800E036F802EBE346012D2BF8FA
:1050E00004EB40F09180013FDC46B0E1D35B23F458
:1050F000F843D353D35B43F40043D35304E100BFDD
:105100005E094FF0FF35DC0608BF05EB53164FF480
:10511000004343EA8623D353F6E000BF9F19009370
:10512000A7F80C24D1F814A0170400F083824F894B
:105130004FF0FF3600EB470707F5806B97B201375A
:10514000C7F3410506EB5704002D4FEA5707D44635
:1051500000F05D823CF8023B5E46012D26F8043BE0
:1051600040F0EC80013FB34651E200BFBCF8025072
:10517000022CA8F8045007D108F108080CF1040C1F
:10518000023B0AE0564666E1BCF804400CF1060C0E
:10519000A8F8084008F10C08033BBEF1030F0FD339
:1051A000ACF10807A8F1100637F8085F043B26F8B1
:1051B000105F7D88B580BD883581FD88B581F3D1CC
:1051C000B0F850300978034403EB0113A3F804242A
:1051D0004FEA410E62E200BFBAF80230022DABF88E
:1051E000043040F0B9800BF1080B0AF1040C023FC7
:1051F000BBE000BF5388022DBB8040F0058108371B
:105200000432023905E100BFBAF80260022DACF8A1
:10521000046040F013810CF1080C0AF10406023F0F
:1052200015E100BFD75A27F4F847D752D75A47F4A9
:105230000047D752B0F8503003441A44B2F80C3447
:1052400023F4F843A2F80C34B2F80C3443F40043CE
:10525000A2F80C342CE000BFD35B23F4F843D35303
:10526000D35B43F40043D353B0F8503003441A44A3
:10527000B2F80C3423F4F843A2F80C34B2F80C342E
:1052800043F400433EE000BF7E094FF0FF35FC06CB
:1052900008BF05EB571648F20007CFF6FF7747EA3D
:1052A0008627D752B0F8503003441A44A2F80C7441
:1052B000CA694AB30A7844F2400730F822303B40CA
:1052C000BB4200D003BB520030F8123040F60F77DB
:1052D0003B40A3F5FD43C03B20F8123014E000BF73
:1052E0005E094FF0FF35DC0608BF05EB531648F2A8
:1052F0000003CFF6FF7343EA8623D353B0F8507010
:1053000007443A44A2F80C34097843F60F7200EBD4
:10531000810048F28011CFF6FF7101F53C51C3E1E5
:10532000BAF80260022DABF8046040F00F810BF177
:10533000080B0AF1040C023F11E100BFBAF8026049
:10534000022DABF8046040F059810BF1080B0AF113
:10535000040C023F5BE100BFBAF804300AF1060C0E
:10536000ABF808300BF10C0B033FBEF1030FDDF877
:1053700000E00FD3ACF10806ABF1100536F8083F9A
:10538000043F25F8103F7388AB80B3882B81F388E6
:10539000AB81F3D10AEB020600234C454E6184BF7A
:1053A000A31A1446002C0B6200F07681B0F850204E
:1053B0002304424448F2801BA2F80C4400F06E81A2
:1053C00049894FF0FF3200EB410101F58067A1B23E
:1053D0000131C1F3410402EB5103002C4FEA5101AA
:1053E00000F0858036F8025B3A46012C22F8045B17
:1053F00002D1013917467AE036F8022B022CBA8026
:1054000070D10837023972E0938806323B810C373D
:105410000339BCF1030FC0F04181083AA7F1100332
:1054200032F8087F043923F8107F57889F809788C7
:105430001F81D7889F81F3D130E100BFBAF80460A3
:10544000033FACF808600CF10C0C0AF10606DDF81D
:1054500000E048F2801B032B0ED3083EACF1100590
:1054600036F8083F043F25F8103F7388AB80B388B7
:105470002B81F388AB81F3D10AEB020600234C4564
:105480004E6184BFA31A1446002C0B6200F0068103
:10549000B0F8502023044244A2F8044400F0FE80F7
:1054A00009894FF0FF3200EB410101F58067A1B29D
:1054B0000131C1F3410402EB51034FEA510184B3BE
:1054C00036F8025B3A46012C22F8045B02D101391E
:1054D000174626E036F8022B022CBA801CD108377A
:1054E00002391EE036F8022B03393A810C37032BC0
:1054F000C0F0D480A6F10803A7F1100233F8087FAA
:10550000043922F8107F5F8897809F881781DF8891
:105510009781F3D1C2E000BF36F8022B03393A81FC
:105520000C37032BC0F0BA80A6F10803A7F11002D4
:1055300033F8087F043922F8107F5F8897809F88AE
:105540001781DF889781F3D1A8E000BFBAF8046023
:105550000AF1060CABF808600BF10C0B033F032CAF
:1055600010D3ACF10806ABF1100500BF36F8084FB8
:10557000043F25F8104F7488AC80B4882C81F488DF
:10558000AC81F3D10AEB020600274E61C84588BF03
:10559000A8EB02070F62B0F8503088BF9046009A1F
:1055A0001A445FEA0843A2F80C8475D049894FF089
:1055B000FF3200EB410101F580671FFA88F10131EC
:1055C000C1F3410402EB5103002C4FEA510148F2B0
:1055D000801B00F07E8036F8025B3A46012C22F8F0
:1055E000045B03D10139174673E000BF36F8022B84
:1055F000022CBA8068D1083702396AE0BAF8046030
:105600000AF1060CABF808600BF10C0B033F032CFE
:1056100010D3ACF10806ABF1100500BF36F8084F07
:10562000043F25F8104F7488AC80B4882C81F4882E
:10563000AC81F3D10AEB020600274E61C84588BF52
:10564000A8EB02070F62B0F8503088BF9046009A6E
:105650001A445FEA0843A2F804841DD009894FF078
:10566000FF3200EB410101F580671FFA88F101313B
:10567000C1F3410402EB5103002C4FEA510148F2FF
:10568000801B40D036F8025B3A46012C22F8045BBE
:1056900012D10139174636E048F2801B00EB4E006C
:1056A000ABF1D00140F63F7203881A4051400180AF
:1056B000002001B0BDE8F08F36F8022B022CBA8032
:1056C0001CD1083702391EE036F8022B03393A8123
:1056D0000C37032BE2D3A6F10803A7F1100200BF99
:1056E00033F8087F043922F8107F5F8897809F88FD
:1056F0001781DF889781F3D1D0E700BF36F8022BFE
:1057000003393A810C37032BC8D3A6F10803A7F15C
:10571000100200BF33F8087F043922F8107F5F8839
:1057200097809F881781DF889781F3D1B6E70000C3
:1057300001460020A1F844004FF43F420020A1F8A8
:105740004020704740F6AC20C2F20000FCF7D0B910
:10575000B0F844007047000070B500EB4200022B27
:1057600000F5806441D34FF0FF32C3F34105580880
:1057700002EB530C55B1224632F8046B8E46012DD4
:105780002EF8026B08D1013817E000BF2246BCF1A9
:10579000030F14462AD315E0A288022D4A8005D1B2
:1057A00001F1040E04F10802023806E0228901F139
:1057B000060E8A8004F10C0203387146BCF1030F17
:1057C000144613D332F8106B043821F8086B32F802
:1057D0000C6C21F8066C32F8086C21F8046C32F875
:1057E000046C21F8026CEDD114468E46D8071CBF1C
:1057F00020888EF8000070BD00207047002904BF8B
:105800008021A0F84C10002070470000B0B5002B9C
:105810003ED000EB420000F5806E581C4FF0FF3286
:10582000C0F3410302EB500C4FEA5000EBB10A46C3
:1058300032F8025B7446012B24F8045B04D1013872
:105840001146A64611E000BF4A88022BAEF804209C
:1058500004D10EF1080E0431023806E08A880631C0
:10586000AEF808200EF10C0E0338BCF1030F38BF60
:10587000B0BD0839AEF1100231F8083F043822F803
:10588000103F4B8893808B881381CB889381F3D111
:10589000B0BD0000FEE7000046F20041C0F6000186
:1058A000405C70472DE9F04F87B040F2A41AC2F275
:1058B000000ADAF800B0ABF10066A6F5C8469642D9
:1058C00010D10024CDE90544CDE90344029451B13F
:1058D0004A1E032A01F003030AD200264FEA5109A7
:1058E00083BB5CE00224204607B0BDE8F08F00BF18
:1058F00021F00302C2F1000E02AA02F1020800F137
:1059000001096FF00302019309EB020708EB0203A0
:105910005E88FC783D79344497F805C004EB052493
:105920009D88BF7905EB0C06043206EB07270EEBCA
:10593000020604365C809F80E6D1019B161D4FEA6B
:10594000510963B3855D4FF0080E26F001040DF197
:1059500008080EEAC60238F8041005FA02F21144EB
:10596000012B28F804101AD0711C425C0EEAC10504
:1059700021F0010138F80140AA402244022B28F806
:1059800001200CD0B11C0822405C02EAC10221F0C7
:10599000010138F801609040304428F801005FFAB6
:1059A00089F62EB3BDF808200120594600230124B2
:1059B000FBF748FD002896D1012002ACDAF8001070
:1059C000054602318642CAF8001009D034F8152085
:1059D00001200023FBF736FD002805F10100EDD082
:1059E0000024B54238BF0124204607B0BDE8F08F3F
:1059F0000024204607B0BDE8F08F0000B0F9000099
:105A00007047000046F20000C0F60000006840F257
:105A1000E4710130C2F200010880704780B540F2A5
:105A2000E670C2F2000001210170FBF761FD80BD4C
:105A300041F20000C4F201004FF400510122FBF7D3
:105A400071BE000041F20000C4F201004FF40051A9
:105A50000022FBF767BE000010B541F20004C4F25B
:105A6000010420464FF400510022FBF75BFE4FF487
:105A70009670FBF7D3FC20464FF400510122FBF750
:105A800051FE4FF49670FBF7C9FC20464FF40051CD
:105A90000022FBF747FE4FF49670FBF7BFFC204651
:105AA0004FF400510122FBF73DFE4FF49670FBF7D7
:105AB000B5FC20464FF400510022FBF733FE4FF4B3
:105AC0009670FBF7ABFC20464FF400510122FBF728
:105AD00029FE4FF49670BDE81040FBF79FBC000014
