:10000000B7C00000D1C00000CFC00000CDC00000CC
:10001000CBC00000C9C00000C7C00000C5C00000C0
:10002000C3C00000C2C00000BFC000000C94CE0ED0
:10003000BBC00000B9C00000B7C00000B5C00000E0
:10004000B3C00000B1C00000AFC00000ADC00000F0
:10005000ABC0000003C10000A7C00000D1C0000079
:10006000A3C00000A1C000009FC000009DC0000010
:100070009BC0000099C0000097C0000095C0000020
:1000800093C0000091C000008FC000008DC0000030
:100090008BC0000089C0000005010905A101150001
:1000A0002501350045017501951005091901291033
:1000B000810205012507463B017504950165140978
:1000C00039814265009501810126FF0046FF000944
:1000D000300931093209357508950481020600FF9F
:1000E0000920950181020A212695089102C012017A
:1000F0000002000000400D0F92000001010200010B
:1001000009022900010100A0FA090400000203000D
:1001100000000921110100012256000705020340D9
:100120000001070581034000010403090410034591
:100130000061007300790043006F006E0000002E24
:1001400003450061007300790043006F006E0020DA
:1001500000500072006F00200043006F006E0074BA
:100160000072006F006C006C0065007200000000FF
:1001700011241FBECFEFD2E0DEBFCDBF12E0A0E062
:10018000B1E0E4E9F4E202C005900D92A239B107B2
:10019000D9F712E0A2E9B2E001C01D92A63CB10776
:1001A000E1F783D00C9448122BCF1F920F920FB619
:1001B0000F9211242F933F934F935F936F937F93ED
:1001C0008F939F93AF93BF93EF93FF931D9907C0B6
:1001D00030D2882311F0A3D202C00E94E30AFF911B
:1001E000EF91BF91AF919F918F917F916F915F91AF
:1001F0004F913F912F910F900FBE0F901F90189528
:100200001F920F920FB60F9211242F933F934F938B
:100210005F936F937F938F939F93AF93BF93EF936E
:10022000FF938091C80087FD03C08FEF9FEF03C04D
:100230008091CE0090E00E94370BFF91EF91BF912B
:10024000AF919F918F917F916F915F914F913F916E
:100250002F910F900FBE0F901F9018951F920F9225
:100260000FB60F9211242F933F934F935F936F9389
:100270007F938F939F93AF93BF93EF93FF9386B535
:100280008A5F86BD9ED13FD1FF91EF91BF91AF9123
:100290009F918F917F916F915F914F913F912F919E
:1002A0000F900FBE0F901F901895F0D011D1259888
:1002B0002D9A80916B00806280936B008091680022
:1002C0008160809368000E940F0ADDD03FD2C4D0C5
:1002D000FDCFDA019330B1F0943028F4913041F041
:1002E000923079F50AC0913211F1923251F524C061
:1002F000EEEEF0E022E130E028C0E0E0F1E029E2BB
:1003000030E023C0813049F0813018F08230C9F4E8
:100310000AC0E9E2F1E0849103C0EDE2F1E08491EA
:10032000282F30E012C0EFE3F1E08491F9CFE2E151
:10033000F1E029E030E009C0E8E9F0E026E530E04E
:1003400004C0E0E0F0E020E030E0ED93FC93C90170
:1003500008959093B2028093B10208952091B10262
:100360003091B202282B392B3093B2022093B10284
:100370000895809590952091B1023091B202282382
:1003800039233093B2022093B10208958093B302CF
:1003900008958093B4026093B50208958093B602E5
:1003A0006093B702089508950895DF93CF93CDB772
:1003B000DEB728970FB6F894DEBF0FBECDBF809191
:1003C000BD02843099F582E08093E9008091E800D5
:1003D00082FF05C08091E8008B778093E8008091D0
:1003E0009302882319F581E08093E9008091E80069
:1003F00080FF1CC0DE011196E1EBF2E088E0019085
:100400000D928150E1F7CE01019668E070E040E086
:1004100050E00E94A90D882349F48091E8008E776E
:100420008093E800EBD082E08093930228960FB689
:10043000F894DEBF0FBECDBFCF91DF91089582E06B
:1004400060EC42E30E94FB0D81E061EC42E30C941E
:10045000FB0D0C94DA0C0895A8DF0C94E81088E0EA
:10046000E1EBF2E0DF01982F1D929A95E9F790E811
:100470009093B4029093B5029093B6029093B70212
:100480008093B3020895EBDF0C94BF0E84B7877F8F
:1004900084BF88E10FB6F8948093600010926000EA
:1004A0000FBE80E090E020E80FB6F8942093610042
:1004B000809361000FBEF89485B5836085BD86E0AA
:1004C00086BDEEE6F0E080818160808378940895B7
:1004D00088E090E09093CD008093CC0086E08093FC
:1004E000CA001092C800E9ECF0E088E18083539ADA
:1004F0005A9A8081806880838AB180638AB98BB17F
:1005000080638BB9089580919202882351F0809185
:10051000920281508093920280919202882309F482
:100520005C9A08955D9808955D9A089582E380939A
:1005300092025C980895982F8091C80085FFFCCFA7
:100540009093CE00F3CF8BCF08950C94C1110895F2
:100550000C94AE1108950C94B31108950C94A61147
:1005600008958091A4029091A502A091A602B09155
:10057000A7020097A105B10519F180917F02882398
:1005800061F08091A4029091A502A091A602B09181
:10059000A7020297A105B10598F08091A40290915D
:1005A000A502A091A602B091A7020197A109B109E5
:1005B0008093A4029093A502A093A602B093A702F1
:1005C00008958091AC029091AD02A091AE02B091DD
:1005D000AF020196A11DB11D8093AC029093AD02B4
:1005E000A093AE02B093AF0280919302882329F0CA
:1005F00080919302815080939302B3CF80918402C3
:10060000882381F080917F02882361F48091A40285
:100610009091A502A091A602B091A7020297A10510
:10062000B10530F480917F028111815080937F0267
:10063000089590E080918402813009F491E0892F3F
:100640000895E62F662309F469C0833071F1843080
:1006500030F48130B1F0F0E08230E8F40BC0853046
:10066000E1F1853078F1863009F441C0873009F036
:1006700055C049C0EE0FFF1FEE57FE4F5183408318
:100680000895F0E0EE0FFF1FEE57FE4F808191813D
:10069000840F951F35C0EE0FFF1FEE57FE4F808170
:1006A0009181BA010E94FD102BC0F0E0EE0FFF1FF8
:1006B000EE57FE4F80819181BA010E94281171830B
:1006C00060830895F0E0EE0FFF1FEE57FE4F80812C
:1006D0009181BA010E94281113C0F0E0EE0FFF1FB4
:1006E000EE57FE4F808191818423952309C0F0E06D
:1006F000EE0FFF1FEE57FE4F80819181842B952BCB
:10070000918380830895F0E0EE0FFF1FEE57FE4FB8
:100710008081918184279527918380830895109209
:1007200084028091AC029091AD02A091AE02B09192
:10073000AF0280939E0290939F02A093A002B09379
:10074000A10201DF83E080937F02EECE2F923F92E1
:100750004F925F926F927F928F929F92AF92BF92D1
:10076000CF92DF92EF92FF920F931F93CF93DF937D
:10077000B1E08B2E912CA3E0EA2EF1E02F2E312C4C
:10078000A12CB12CC12CE0E8DE2EFF24F39472E8FA
:10079000672E72E0772E62E0462E512C8091840203
:1007A000882309F429C68091A4029091A502A09102
:1007B000A602B091A7020097A105B10509F01CC6D9
:1007C00080919402882309F4B1DECAE5D1E000E00B
:1007D00010E08881882309F1815088838823E9F417
:1007E0000032110521F480E860E8D3DD14C0013245
:1007F000110521F480E860E8D1DD0DC004FD09C0D9
:10080000C401002E02C0880F991F0A94E2F7B1DDDF
:1008100002C088E0BBDDE0927F020F5F1F4F219690
:1008200002321105B1F68091A8029091A9020097B9
:1008300079F0A0E0B0E08093A4029093A502A09389
:10084000A602B093A7021092A9021092A802D4C5E2
:100850002091A2023091A3028091AA029091AB0252
:100860002817390710F05BDFC7C530937B02209350
:100870007A022F5F3F4F3093A3022093A2022150B0
:100880003040C9016BDE809375028091A202909185
:10089000A30201969093A3028093A20201975EDEC9
:1008A000A82F809374024091750247FFC1C046FD96
:1008B00067C0942F9695892F8F718093770284FD5E
:1008C00009C0940102C0220F331F8A95E2F7C901C3
:1008D00045DD03C0892F8F7059DDE0927F02809142
:1008E00080028093810210928002882309F073C0F5
:1008F0008091750280FD1AC06091740270E080E002
:1009000090E02AE030E040E050E00E940F11609358
:10091000A4027093A5028093A6029093A702E0918F
:100920007702F0E0E65AFE4FF08238CF80917402F1
:1009300087FD18C090E08F77907062E370E00E94AE
:10094000FD109093A9028093A80282E390E0A0E0BA
:10095000B0E08093A4029093A502A093A602B09366
:10096000A702DDCFE0917702F0E0E65AFE4F90E07B
:10097000A0E0B0E08F779070A070B07080830ECF51
:10098000842F82958695817080937802982F90624B
:1009900090937702942F9F7190937902E92FF0E062
:1009A000882341F0EE0FFF1FE050FF4F84896589D7
:1009B000F5DC07C0EE0FFF1FE050FF4F848965890B
:1009C000E8DCE0927F0280918002809381021092A5
:1009D0008002882379F0E0918202F0918302EE0F89
:1009E000FF1FEE57FE4F80819181AA2797FDA095AA
:1009F000BA2FAFCF80917402282F30E040E050E052
:100A000087FD0BC02F77307040705070CA01B9015C
:100A100022E330E040E050E078CFE0917702F0E070
:100A2000E65AFE4F2F773070407050702083B6CE5C
:100A3000842F86958695869590E08F709070833090
:100A4000910509F452C18430910554F48130910527
:100A500061F1823091050CF08DC0892B69F09ECE3A
:100A60008530910509F416C3853091050CF419C23F
:100A7000069709F093CE76C442FF90CE009174029F
:100A800010917502117041FD07C0802F54DD812F38
:100A9000992787FD9A9507C000501F4FF801808164
:100AA0004ADDF801818147DD79CE80918002809313
:100AB000810210928002882381F0E0918202F091FD
:100AC0008302EE0FFF1FEE57FE4F808191819C0144
:100AD000442737FD4095542F44C042FD0AC0609121
:100AE00074027091750280E090E073708070907075
:100AF00025C041FD2CC08091A2029091A3020196D5
:100B00009093A3028093A202019728DD8093730241
:100B10008091A2029091A30201969093A3028093E8
:100B2000A20201971BDD80937202609172027091A4
:100B30007302809174029091750291702AE030E006
:100B400040E050E00E940F119B01AC010AC080916F
:100B50007402909175029C0140E050E03170407049
:100B600050702093A4023093A5024093A6025093A4
:100B7000A70214CE40917E02442399F0842F90E086
:100B80006CE070E00E94FD10FC01EA50FE4F2081F5
:100B9000318180917A0290917B022817390709F4FC
:100BA000FDCD842F8F5F80937E0290E06CE070E03B
:100BB0000E94FD10FC01E251FE4F10821182128250
:100BC000138280917E0290E06CE070E00E94FD1044
:100BD000FC01EA50FE4F80917A0290917B02918352
:100BE000808380917E0290E06CE070E00E94FD10B6
:100BF000FC01E850FE4F809174029091750297704D
:100C00009183808380918002809381021092800280
:100C1000882309F457C0E0918202F0918302EE0F1D
:100C2000FF1FEE57FE4F20812F7020938502222355
:100C300099F080917E0290E06CE070E00E94FD10DF
:100C4000FC01E251FE4F822F90E0A0E0B0E0B068DE
:100C500080839183A283B383E0918202F091830227
:100C6000EE0FFF1FEE57FE4F8081918114E09595A6
:100C700087951A95E1F7E82FEF70E0938602EE234F
:100C800009F180917E0290E06CE070E00E94FD101E
:100C90009C012E503E4FF0E0EE0FFF1FEE57FE4F2F
:100CA00080819181AA2797FDA095BA2FF9018083B1
:100CB0009183A283B383F092800250928302409288
:100CC000820206C0F0928002109283021092820289
:100CD00080917E0290E06CE070E00E94FD10FC01CB
:100CE000E850FE4F8081918182C342FF1AC08091FB
:100CF000A2029091A30201969093A3028093A20274
:100D000001972CDC809373028091A2029091A30240
:100D100001969093A3028093A20201971FDC809317
:100D20007202809180028093810210928002882357
:100D300009F456C08091820290918302813091051E
:100D400031F480917E02815080937E0227CD892BE1
:100D500009F06AC08091750282FD2EC080917E02EA
:100D600090E06CE070E00E94FD10FC01EE50FE4F40
:100D70008091740290917502A0E0B0E09370A07031
:100D8000B07080839183A283B38380917E0290E0D0
:100D90006CE070E00E94FD10FC01EE50FE4F80817F
:100DA0009181A281B3810097A105B105E9F5A082E7
:100DB000B182C282D38238C080917E0290E06CE022
:100DC00070E00E94FD10FC01EE50FE4F8091720217
:100DD00090917302A0917402B0917502B37020C01B
:100DE00080917E0290E06CE070E00E94FD10FC01BA
:100DF000E251FE4F80819181A281B381B7FF0DC086
:100E0000FC01EF70F070EE0FFF1FEE57FE4F808178
:100E1000918101969183808307C00196A11DB11D28
:100E200080839183A283B38310917E02812F90E00F
:100E30006CE070E00E94FD10EC01FC01E251FE4FFD
:100E4000208131814281538157FF0EC0F901EF703B
:100E5000F070EE0FFF1FEE57FE4F808191819C01D5
:100E6000442737FD4095542FFE01EE50FE4F808100
:100E70009181A281B3818030F0E09F07F0E0AF075D
:100E8000F0E8BF0749F0281739074A075B0724F045
:100E9000115010937E0282CCCA50DE4F8881998116
:100EA000A6C2242F30E042FFA4C08A2F86958695E3
:100EB0008695877080938502A770A0938602C901EA
:100EC000837090708130910519F1823091051CF486
:100ED000892B41F05EC08230910579F1039709F0CA
:100EE00058C040C040E0E0918502F0E0EE0FFF1FE7
:100EF000EE57FE4FB0E0AA0FBB1FAE57BE4F20818A
:100F000031818D919C912817390709F040C03EC06E
:100F100040E0E0918502F0E0EE0FFF1FEE57FE4F3C
:100F2000B0E0AA0FBB1FAE57BE4F208131818D911B
:100F30009C912817390751F52AC040E0E0918502BD
:100F4000F0E0EE0FFF1FEE57FE4FB0E0AA0FBB1F01
:100F5000AE57BE4F208131818D919C912817390762
:100F6000B4F414C040E0E0918502F0E0EE0FFF1F02
:100F7000EE57FE4FB0E0AA0FBB1FAE57BE4F208109
:100F800031818D919C91821793070CF041E0409341
:100F9000870290E080918702811191E0909387020F
:100FA00090918802911191E090938802809174024F
:100FB0008295869586958370813069F0813030F016
:100FC000823069F0833009F0E9CB0FC0809187024D
:100FD00080938802E3CB80918702982303C080919D
:100FE0008702982B90938802D9CB8091870298270B
:100FF000F9CF8A2F8295869587708130E9F081300C
:1010000020F0873009F0CACB28C0A4FF05C080912A
:101010008802882309F4C2CB9A2F9F70909387028D
:1010200080917E02891B80937E02F0928002309232
:101030008302209282024ECEA4FF05C080918802D6
:10104000882309F4ABCB9A2F9F70909387028091ED
:101050007E02891B80937E023DCEA4FF05C0809155
:101060008802882309F49ACB20917D02222381F003
:10107000E22FF0E0EE0FFF1FE454FE4F80819181DC
:101080009093A3028093A202215020937D0286CBED
:1010900046DB84CB242F30E042FD50C080917402A7
:1010A00090917502880F892F881F990B9195E82FD1
:1010B000E770E09385028A2F90E0EE2391F5A6FD7C
:1010C0006DCB8091A2029091A30201969093A3020E
:1010D0008093A202019742DA809373028091A20268
:1010E0009091A30201969093A3028093A20201978C
:1010F00035DA80937202809174029091750273E0E8
:10110000969587957A95E1F787708093870260912D
:10111000740267706093850240917202509173026D
:1011200032C0982F8827990FF0E0EE0FFF1FEE577F
:10113000FE4F892F990F990B859511C1C9018670B2
:101140009070049711F56091740270917502CB0153
:1011500036E0969587953A95E1F7877080938702F8
:1011600023E0769567952A95E1F76770609385028D
:10117000EA2FE770E0938602F0E0EE0FFF1FEE57D4
:10118000FE4F408151815DDA09CB277030702630E7
:10119000310559F58A2F82958770809385023091A9
:1011A0007402232F2F7020938702882309F4F6CA34
:1011B00090E037FD0DC0FC01EE0FFF1FEE57FE4F14
:1011C0008081918102C0880F991F2A95E2F7C7C0DC
:1011D000FC01EE0FFF1FEE57FE4F8081918102C090
:1011E000959587952A95E2F7BAC09A2F97709093B4
:1011F000850280917402869586958695282F30E029
:101200002F7030702530310509F44BC02630310580
:101210005CF42330310521F1243031057CF5223096
:10122000310509F0BBCA0DC02830310509F45AC098
:101230002930310509F46AC02730310509F0AECAFA
:101240004AC0992309F4AACAE92FF0E0EE0FFF1F64
:10125000EE57FE4F80819181909581959F4F7FC081
:10126000992309F49BCAE92FF0E0EE0FFF1FEE5718
:10127000FE4F808191818095909571C0E0917C02B4
:10128000EF5FE0937C02F0E0EE0FFF1FEC56FE4FA5
:10129000A92FB0E0AA0FBB1FAE57BE4F8D919C91F6
:1012A0005EC0992309F47ACAA92FB0E0AA0FBB1F28
:1012B000AE57BE4FE0917C02F0E0EE0FFF1FEC5600
:1012C000FE4F808191818D939C9380917C0281500F
:1012D00080937C0263CAF092800290938202F301B1
:1012E00011825CCA992309F459CAE92FF0E0EE0F84
:1012F000FF1FEE57FE4F20E030E080819181892B67
:1013000011F021E030E03183208348CA992309F4A9
:1013100045CA8091890290918A02892BA9F4209173
:10132000AC023091AD024091AE025091AF023093C9
:101330008A02209389028EE891E0B90106D9809152
:10134000890290918A02F7D7F3D7E0918502F0E005
:10135000EE0FFF1FEE57FE4F6081718179D79183A9
:1013600080831CCA20917402309175023695322F09
:1013700022273795279506E0359527950A95E1F7B9
:101380004695842F90E0837090708130910569F0CC
:10139000823091051CF4892B99F000CA82309105A6
:1013A00051F0039709F0FAC910C080918802882390
:1013B00009F4F4C905C080918802882309F0EEC9B8
:1013C0008091A2029091A30210C0E0917D02EF5F94
:1013D000E0937D02F0E0EE0FFF1FEC56FE4F809190
:1013E000A2029091A30291838083820F931F909316
:1013F000A3028093A202D2C9DF91CF911F910F91D6
:10140000FF90EF90DF90CF90BF90AF909F908F9024
:101410007F906F905F904F903F902F9008950F9323
:101420001F93CF93DF93209100012F3F21F48091F0
:1014300001018F3FE1F08091010190E08F77907082
:10144000182F0027822F90E0082B192BC0E0D0E046
:101450000BC0CE0183D8FE01E050FF4F608186179C
:1014600011F0CE0178D82196C017D10794F38EE8F9
:1014700091E0E0E0F1E0DF019C011D92215030405D
:10148000E1F766D8019690938A028093890253D738
:101490006091890270918A028EE891E056D820E02E
:1014A00030E0C9012930310514F088E090E0DC011A
:1014B00015E0AA0FBB1F1A95E1F7C90128303105C5
:1014C00014F488E090E0AC0148505040F5E0440F3F
:1014D000551FFA95E1F7B901660F771FFB01E05040
:1014E000FF4FCD01AF3FB10519F014F08FEF90E041
:1014F000848BFB01E050FF4FCA014F3F510519F0AB
:1015000014F08FEF90E0858B2F5F3F4F2031310536
:1015100041F620E130E0C8E1D0E0A0E2B0E0C9014E
:101520002931310514F088E190E0AE01481B590BD8
:10153000CA0145E0880F991F4A95E1F7A9012831B2
:10154000310514F448E150E0BD01641B750BAB019B
:1015500005E0440F551F0A95E1F7B901660F771FA3
:10156000FB01E050FF4F8F3F910519F014F08FEF12
:1015700090E0848BFB01E050FF4FCA014F3F5105C3
:1015800019F014F08FEF90E0858B2F5F3F4F2032E2
:10159000310529F683E080937F0280E991E00E9483
:1015A000AE028093940281E090E00E94AE0210921D
:1015B000B00287FD03C081E08093B002DF91CF913C
:1015C0001F910F9108951F9382E090E09093A302E2
:1015D0008093A20280E090E00E94AE02182F81E08A
:1015E00090E00E94AE02382F20E0812F90E0822B05
:1015F000932B2FEF8F3F920711F480E090E09F77BD
:101600009093AB028093AA021092A4021092A502BA
:101610001092A6021092A702109293021092AC02AE
:101620001092AD021092AE021092AF021092A90277
:101630001092A80284E391E0EAE5F1E0DF019C0169
:101640001D9221503040E1F781E0809384028EE8C2
:1016500091E00E94A80290938A028093890280916F
:101660009402882311F40E9492021F910895EF9230
:10167000FF920F931F93CF93DF93EC0197FD93C1DC
:1016800080919402882311F40E9496028091950221
:1016900090919602209197023091980282179307B9
:1016A000E0F5FC01E050FF4FC08301969093960255
:1016B000809395028217930709F075C110929602E4
:1016C000109295021BC0E050FF4F809199029091BB
:1016D0009A0260810E94AB028091950290919602DD
:1016E0000196909396028093950280919902909131
:1016F0009A02019690939A0280939902E091950242
:10170000F09196028091970290919802E817F9075C
:10171000D0F282E80E949B0246C180919B02909188
:101720009C02FC01E050FF4FC0839C012F5F3F4FA4
:1017300030939C0220939B02C7FF2BC121303105BF
:1017400049F480919D02882329F4C53AD10509F016
:1017500061C0DDC02830310509F05CC08091840291
:10176000882311F08EEF51C08091010190E0880F25
:10177000991F880F991F40910001342F330F20E0EB
:10178000822B932B2091020122952695277030E021
:10179000822B932B0E94A90180910201880F880F50
:1017A000880F9091030192959F70892B0E94C6012A
:1017B00020910401809103018295807F622F6295C0
:1017C000660F607E9091050196959695692B2695FA
:1017D00026952695822B0E94C901209106018091B1
:1017E00005018295880F880F807C622F6795662798
:1017F0006795909107019F77692B2695822B0E9410
:10180000CE0183E080937F028FEF0E949B021092B3
:101810009D02BBC080919D02882309F4B3C0109241
:101820009D02C338D10509F4A5C0C438D1056CF4B4
:10183000C138D10509F46FC0C238D1050CF06DC0B4
:10184000C038D10509F09CC011C0C538D10509F4D4
:101850004BC0C538D1050CF48FC0C638D10509F48A
:1018600045C0C53AD10509F08BC051C080917E02B8
:1018700090E06CE070E0C1D4FC01E251FE4FE080EA
:10188000F18002811381C0E0D0E08E2D0E949B0286
:10189000EF2CF02E012F11272196C430D105A9F786
:1018A000E0909E02F0909F020091A0021091A10290
:1018B000C0E0D0E08E2D0E949B02EF2CF02E012F75
:1018C00011272196C430D105A9F7E090A202F0902B
:1018D000A30200E010E08E2D0E949B02EF2CF02E60
:1018E000012F11278E2D4FC086E44DC080919402A8
:1018F00098E08927809394026091940280E991E0B6
:101900000E94AB020E949402809194023CC081E04C
:1019100080939D023AC080E836C02530310581F5BC
:101920000E948F038091010190E09695982F88275F
:10193000979587952091000130E0822B932B90930F
:101940009A02809399028091030190E09695982FD6
:101950008827979587952091020130E0822B932B61
:10196000909398028093970210929602109295029B
:1019700081E809C028DE02C00E948F0383E803C00B
:1019800080E001C0822F0E949B0210929C02109264
:101990009B0280919B0290919C02449720F01092B0
:1019A0009C0210929B02DF91CF911F910F91FF90AB
:1019B000EF9008958091B002882309F004CE089535
:1019C0009C014091C4025091C5024617570718F474
:1019D000F90190E03DC06115710511F0AB01F8CF40
:1019E0008091E8008E778093E80040E050E0F0CFEF
:1019F0008091BD02882309F441C0853009F440C0BC
:101A00008091E80083FD3EC08091E80082FD30C0F7
:101A10008091E80080FF1CC08091F200282F30E008
:101A200007C081918093F100415050402F5F3F4F9C
:101A30004115510519F02034310598F390E0203418
:101A4000310509F491E08091E8008E778093E800F9
:101A50004115510569F6992359F60AC08091BD02D6
:101A6000882361F0853061F08091E80083FD0AC031
:101A70008091E80082FFF2CF80E0089582E008952F
:101A800083E0089581E008959C014091C402509143
:101A9000C5024617570718F4F90190E03EC06115DA
:101AA000710511F0AB01F8CF8091E8008E7780933B
:101AB000E80040E050E0F0CF8091BD02882309F4B7
:101AC00042C0853009F441C08091E80083FD3FC0E9
:101AD0008091E80082FD31C08091E80080FF1DC048
:101AE0008091F200282F30E008C084918093F100AB
:101AF0003196415050402F5F3F4F4115510519F02D
:101B00002034310590F390E02034310509F491E060
:101B10008091E8008E778093E8004115510561F6C9
:101B2000992351F60AC08091BD02882361F0853067
:101B300061F08091E80083FD0AC08091E80082FF97
:101B4000F2CF80E0089582E0089583E0089581E077
:101B50000895BF92CF92DF92EF92FF920F931F935F
:101B6000CF93DF93182F092F7B016A019DD0B82EE8
:101B70008823B1F5812F902F9C01E901C114D10474
:101B800039F0F60180819181E81AF90AC80FD91F4E
:101B900000E010E022C08091E80085FD16C0809131
:101BA000E8008E778093E80013D3C114D10449F084
:101BB000F60180819181800F911F9183808385E060
:101BC00010C072D0882349F00CC089918093F10035
:101BD0000894E108F1080F5F1F4FE114F104D9F6F2
:101BE0008B2DDF91CF911F910F91FF90EF90DF90A0
:101BF000CF90BF900895382F282F2EC0822F8F703E
:101C00008093E900231721F4762F942F50E006C02B
:101C10007091EC009091ED005091F00091FF1BC08D
:101C20008091EB008E7F8093EB008091ED008D7FA3
:101C30008093ED008091EB0081608093EB007093C6
:101C4000EC009093ED005093F0008091EE0087FD42
:101C500002C080E008952F5F253080F23F703093FE
:101C6000E90081E008958091BE0288239CF404C0BD
:101C70008091BD028823B9F08091E80082FFF8CFFF
:101C80008091E8008B778093E80008958091BD02F1
:101C9000882349F08091E80080FFF8CF8091E80028
:101CA0008E778093E80008954091E4005091E5001C
:101CB00024E68091EC0080FF24C08091E80080FD44
:101CC0001EC08091BD02882311F482E00895853002
:101CD00011F483E008958091EB0085FF02C081E05C
:101CE00008958091E4009091E5008417950709F329
:101CF000222311F484E008952150AC01DACF80E072
:101D000008958091E80082FFDCCFF9CF41D043D025
:101D10008091D8008F778093D8008091D800806818
:101D20008093D8008091D8008F7D8093D80084E084
:101D300089BD86E089BD09B400FEFDCF1092BD02C9
:101D40001092B9021092BB021092BA0280E060E0D9
:101D500042E351DF8091E1008E7F8093E10080912A
:101D6000E20081608093E2008091E20088608093CD
:101D7000E2008091E0008E7F8093E0000895E3E62A
:101D8000F0E080818E7F808381E08093BC02BECFB3
:101D90001092E20008951092E10008951F920F92B0
:101DA0000FB60F9211242F933F934F935F936F932E
:101DB0007F938F939F93AF93BF93EF93FF93809104
:101DC000E10082FF0AC08091E20082FF06C080919C
:101DD000E1008B7F8093E100FAD18091E10080FFE8
:101DE00018C08091E20080FF14C08091E2008E7FD5
:101DF0008093E2008091E20080618093E200809114
:101E0000D80080628093D80019BC1092BD020E9455
:101E1000D3018091E10084FF30C08091E20084FF13
:101E20002CC084E089BD86E089BD09B400FEFDCFE9
:101E30008091D8008F7D8093D8008091E1008F7EC3
:101E40008093E1008091E2008F7E8093E200809198
:101E5000E20081608093E2008091B902882311F052
:101E600084E007C08091E30087FD02C081E001C0EB
:101E700083E08093BD020E9429028091E10083FFEC
:101E800022C08091E20083FF1EC08091E100877F25
:101E90008093E10082E08093BD021092B9028091AC
:101EA000E1008E7F8093E1008091E2008E7F80933D
:101EB000E2008091E20080618093E20080E060E0D7
:101EC00042E399DE84D1FF91EF91BF91AF919F9151
:101ED0008F917F916F915F914F913F912F910F90D3
:101EE0000FBE0F901F9018951F93DF93CF93CDB720
:101EF000DEB7AC970FB6F894DEBF0FBECDBFEEEBEA
:101F0000F2E08091F100819322E0E63CF207C9F70C
:101F10000E94D4018091E80083FF41C18091BE02FC
:101F20003091BF02353009F48DC0363040F4313085
:101F3000E1F1313070F0333009F031C136C0383062
:101F400009F4FEC0393009F40DC1363009F027C15B
:101F50009CC0803821F0823809F021C108C09091DE
:101F6000BA028091BB028823B1F0926014C08091C4
:101F7000C2028F70853008F012C18093E900809111
:101F8000EB0090E025E0969587952A95E1F7982F4C
:101F900091701092E9008091E800877F8093E800BB
:101FA0009093F1001092F100D6C0882319F082308E
:101FB00009F0F5C090E08F719070009721F00297C2
:101FC00009F0EDC00CC08091C002813009F0E7C07B
:101FD0001092BB02333081F58093BB022DC08091FB
:101FE000C002882349F52091C2022F70822F8150B0
:101FF000843008F0D4C02093E9008091EB0080FF8A
:102000001BC0333021F48091EB00806213C08091BB
:10201000EB0080618093EB0081E090E002C0880FCC
:10202000991F2A95E2F78093EA001092EA008091C6
:10203000EB0088608093EB001092E9008091E8004B
:10204000877F8CC0882309F0AAC01091C0021F7737
:102050008091E3008078812B8093E3008091E800F9
:10206000877F8093E800FFDD8091E80080FFFCCF50
:102070008091E30080688093E300112311F482E0F3
:1020800001C083E08093BD028AC08058823008F08E
:1020900086C08091C0029091C10223E08C3D9207DE
:1020A00009F033C083E08C838AE28B837FB7F89496
:1020B000DE0115966EE040E050E011E2E62FF0E020
:1020C00010935700849140FF03C082958F706F5F1B
:1020D0008F70282F30E08A3018F0C901C79602C0EF
:1020E000C901C0968D939D934F5F5F4F4431510559
:1020F00029F77FBF8091E800877F8093E800CE01B9
:1021000003966AE270E05CDC15C06091C2027091D7
:10211000C302AE014F5F5F4F0E946901BC0100978F
:1021200009F43DC08091E800877F8093E8008981B1
:102130009A81AADC8091E8008B778093E8002FC019
:10214000803869F58091E800877F8093E80080916E
:10215000B9028093F1008091E8008E778093E800C7
:1021600082DD1DC08823D9F49091C0029230B8F46A
:102170008091E800877F8093E8009093B90273DD37
:102180008091B902882331F48091E30087FD02C079
:1021900081E001C084E08093BD020E941F02809113
:1021A000E80083FF0AC08091E800877F8093E80001
:1021B0008091EB0080628093EB00AC960FB6F894B0
:1021C000DEBF0FBECDBFCF91DF911F91089508955F
:1021D0001F938091BD02882371F01091E9008091D6
:1021E000EC001092E9008091E80083FF01C07CDEE2
:1021F0001F701093E9001F9108955527002480FF58
:1022000002C0060E571F660F771F6115710521F07A
:1022100096958795009799F7952F802D0895FF271C
:10222000EE27BB27AA2760FF04C0A20FB31FE41F3D
:10223000F51F220F331F441F551F969587957795DD
:10224000679589F70097760771F7CF01BD0108956B
:1022500097FB092E07260AD077FD04D00CD006D0B4
:1022600000201AF4709561957F4F0895F6F79095C8
:1022700081959F4F0895AA1BBB1B51E107C0AA1F60
:10228000BB1FA617B70710F0A61BB70B881F991F17
:102290005A95A9F780959095BC01CD010895A0E0CD
:1022A000B0E0E4E5F1E1A3C0EC01A880B980CA8008
:1022B000DB80A114B104C104D10441F484E2A82E4E
:1022C00089EDB82E8BE5C82E87E0D82EC601B50162
:1022D0002DE133EF41E050E067D027EA31E440E000
:1022E00050E09DDF7B018C01C601B5012DE133EF8C
:1022F00041E050E059D0CA01B9012CEE34EF4FEF64
:102300005FEF8DDF6E0D7F1D801F911F97FF04C053
:102310006150704080409048688379838A839B83B2
:102320009B013F77C901CDB7DEB7EAE07CC0B7CFEC
:102330008EE892E0B4CFA0E0B0E080938E0290935C
:102340008F02A0939002B09391020895F999FECF65
:1023500092BD81BDF89A992780B50895A8E1B0E0B3
:1023600042E050E013C0262FF999FECF1FBA92BD6C
:1023700081BD20BD0FB6F894FA9AF99A0FBE019666
:102380000895F1DF272FF0CFDC01CB01FC01F99993
:10239000FECF06C0F2BDE1BDF89A319600B40D92B1
:1023A00041505040B8F7089597FB092E05260ED0EE
:1023B00057FD04D04BD00AD0001C38F450954095FE
:1023C000309521953F4F4F4F5F4F0895F6F7909509
:1023D0008095709561957F4F8F4F9F4F08952F92F5
:1023E0003F924F925F926F927F928F929F92AF92A5
:1023F000BF92CF92DF92EF92FF920F931F93CF93F2
:10240000DF93CDB7DEB7CA1BDB0B0FB6F894DEBF88
:102410000FBECDBF09942A88398848885F846E84AE
:102420007D848C849B84AA84B984C884DF80EE80F8
:10243000FD800C811B81AA81B981CE0FD11D0FB601
:10244000F894DEBF0FBECDBFED010895A1E21A2EB4
:10245000AA1BBB1BFD010DC0AA1FBB1FEE1FFF1F48
:10246000A217B307E407F50720F0A21BB30BE40B98
:10247000F50B661F771F881F991F1A9469F76095DF
:102480007095809590959B01AC01BD01CF01089599
:04249000F894FFCFEE
:10249400FFFF4600000000000000000000000000F4
:1024A4000000000000000000000000000000000028
:1024B4000000000000000000000000000000000018
:1024C4000000000000000000000000000000000008
:1024D40000000000000000000000000000000000F8
:1024E40000000000000000000000000000000000E8
:1024F40000000000000000000000000000000000D8
:1025040000000000000000000000000000000000C7
:1025140000000000000000000000000000000000B7
:1025240000000000000000000000000000000000A7
:102534000000000000000000000000000000000097
:102544000000000000000000000000000000000087
:102554000000000000000000000000000000000077
:102564000000000000000000000000000000000067
:102574000000000000000000000000000000000057
:102584000000000000000000000000000000000047
:102594000000000000000000000000000000000037
:1025A4000000000000000000000000000000000027
:1025B4000000000000000000000000000000000017
:1025C4000000000000000000000000000000000007
:1025D40000000000000000000000000000000000F7
:1025E40000000000000000000000000000000000E7
:1025F40000000000000000000000000000000000D7
:1026040000000000000000000000000000000000C6
:1026140000000000000000000000000000000100B5
:022624000000B4
:00000001FF
