:10000000BAC00000D4C00000D2C00000D0C00000C0
:10001000CEC00000CCC00000CAC00000C8C00000B4
:10002000C6C00000C5C00000C2C000000C94D30EC2
:10003000BEC00000BCC00000BAC00000B8C00000D4
:10004000B6C00000B4C00000B2C00000B0C00000E4
:10005000AEC0000006C10000AAC00000D4C000006D
:10006000A6C00000A4C00000A2C00000A0C0000004
:100070009EC000009CC000009AC0000098C0000014
:1000800096C0000094C0000092C0000090C0000024
:100090008EC000008CC0000005010905A1011500FB
:1000A0002501350045017501951005091901291033
:1000B000810205012507463B017504950165140978
:1000C00039814265009501810126FF0046FF000944
:1000D000300931093209357508950481020600FF9F
:1000E0000920950181020A212695089102C012017A
:1000F0000002000000400D0F92000001010200010B
:1001000009022900010100A0FA090400000203000D
:1001100000000921110100012256000705020340D9
:10012000000107058103400001040309041603438D
:10013000004100310045002E002C004C00540044CA
:10014000002E0000002E034500610073007900437B
:10015000006F006E002000500072006F002000430E
:10016000006F006E00740072006F006C006C006520
:1001700000720000000011241FBECFEFD2E0DEBFEE
:10018000CDBF14E0A0E0B1E0EEE9F4E202C00590DA
:100190000D92A03AB107D9F714E0A0EAB4E001C08B
:1001A0001D92A43DB107E1F783D00C944D1228CFE6
:1001B0001F920F920FB60F9211242F933F934F93DC
:1001C0005F936F937F938F939F93AF93BF93EF93BF
:1001D000FF931D9907C030D2882311F0A6D202C028
:1001E0000E94E90AFF91EF91BF91AF919F918F918A
:1001F0007F916F915F914F913F912F910F900FBE23
:100200000F901F9018951F920F920FB60F92112406
:100210002F933F934F935F936F937F938F939F930E
:10022000AF93BF93EF93FF938091C80087FD03C006
:100230008FEF9FEF03C08091CE0090E00E943C0BB7
:10024000FF91EF91BF91AF919F918F917F916F91AE
:100250005F914F913F912F910F900FBE0F901F9084
:1002600018951F920F920FB60F9211242F933F9360
:100270004F935F936F937F938F939F93AF93BF93AE
:10028000EF93FF9386B58A5F86BD9ED13FD1FF91E4
:10029000EF91BF91AF919F918F917F916F915F91FE
:1002A0004F913F912F910F900FBE0F901F90189577
:1002B000F0D011D125982D9A80916B0080628093A7
:1002C0006B00809168008160809368000E94150A2D
:1002D000DDD042D2C4D0FDCFDA019330B1F09430FA
:1002E00028F4913041F0923079F50AC0913211F141
:1002F000923251F524C0EEEEF0E022E130E028C069
:10030000E0E0F1E029E230E023C0813049F08130C3
:1003100018F08230C9F40AC0E9E2F1E0849103C028
:10032000EDE2F1E08491282F30E012C0E5E4F1E045
:100330008491F9CFE2E1F1E029E030E009C0E8E999
:10034000F0E026E530E004C0E0E0F0E020E030E05E
:10035000ED93FC93C90108959093C0048093BF046A
:1003600008952091BF043091C004282B392B30937D
:10037000C0042093BF040895809590952091BF04F8
:100380003091C004282339233093C0042093BF0444
:1003900008958093C10408958093C2046093C304B8
:1003A00008958093C4046093C50408950895089542
:1003B000DF93CF93CDB7DEB728970FB6F894DEBFA3
:1003C0000FBECDBF8091CB04843099F582E080933D
:1003D000E9008091E80082FF05C08091E8008B77FA
:1003E0008093E8008091A104882319F581E080932F
:1003F000E9008091E80080FF1CC0DE011196EFEB60
:10040000F4E088E001900D928150E1F7CE01019671
:1004100068E070E040E050E00E94AE0D882349F4AF
:100420008091E8008E778093E800EBD082E08093A3
:10043000A10428960FB6F894DEBF0FBECDBFCF91B2
:10044000DF91089582E060EC42E30E94000E81E0BB
:1004500061EC42E30C94000E0C94DF0C0895A8DFCD
:100460000C94ED1088E0EFEBF4E0DF01982F1D9283
:100470009A95E9F790E89093C2049093C3049093FF
:10048000C4049093C5048093C1040895EBDF0C94D9
:10049000C40E84B7877F84BF88E10FB6F894809339
:1004A0006000109260000FBE80E090E020E80FB680
:1004B000F89420936100809361000FBEF89485B595
:1004C000836085BD86E086BDEEE6F0E080818160D8
:1004D00080837894089588E090E09093CD00809395
:1004E000CC0086E08093CA001092C800E9ECF0E0EE
:1004F00088E18083539A5A9A8081806880838AB188
:1005000080638AB98BB180638BB908958091A00410
:10051000882351F08091A00481508093A0048091A1
:10052000A004882309F45D9A08955C9808955C9A64
:10053000089582E38093A0045D980895982F809198
:10054000C80085FFFCCF9093CE00F3CF8BCF0895EA
:100550000C94C61108950C94B31108950C94B8111D
:1005600008950C94AB1108958091B2049091B30456
:10057000A091B404B091B5040097A105B10519F19B
:100580008091A702882361F08091B2049091B30416
:10059000A091B404B091B5040297A105B10598F0FB
:1005A0008091B2049091B304A091B404B091B504C9
:1005B0000197A109B1098093B2049093B304A09369
:1005C000B404B093B50408958091BA049091BB042B
:1005D000A091BC04B091BD040196A11DB11D8093F2
:1005E000BA049093BB04A093BC04B093BD04809163
:1005F000A104882329F08091A10481508093A10453
:10060000B3CF8091AC02882381F08091A702882328
:1006100061F48091B2049091B304A091B404B091BC
:10062000B5040297A105B10530F48091A7028111AC
:1006300081508093A702089590E08091AC028130B0
:1006400009F491E0892F0895E62F662309F469C023
:10065000833071F1843030F48130B1F0F0E08230D9
:10066000E8F40BC08530E1F1853078F1863009F48B
:1006700041C0873009F055C049C0EE0FFF1FEE574B
:10068000FE4F518340830895F0E0EE0FFF1FEE57B9
:10069000FE4F80819181840F951F35C0EE0FFF1FA3
:1006A000EE57FE4F80819181BA010E9402112BC04A
:1006B000F0E0EE0FFF1FEE57FE4F80819181BA01EF
:1006C0000E942D11718360830895F0E0EE0FFF1FEB
:1006D000EE57FE4F80819181BA010E942D1113C007
:1006E000F0E0EE0FFF1FEE57FE4F808191818423D3
:1006F000952309C0F0E0EE0FFF1FEE57FE4F8081FB
:100700009181842B952B918380830895F0E0EE0FE7
:10071000FF1FEE57FE4F808191818427952791839B
:10072000808308951092A10408951092AC028091E4
:10073000BA049091BB04A091BC04B091BD04809315
:10074000AC049093AD04A093AE04B093AF04FEDE6E
:1007500083E08093A702EBCE2F923F924F925F925D
:100760006F927F928F929F92AF92BF92CF92DF92C1
:10077000EF92FF920F931F93CF93DF93B1E08B2EF5
:10078000912CA3E0EA2EF1E02F2E312CA12CB12CDC
:10079000C12CE0E8DE2EFF24F3947AEA672E72E0A3
:1007A000772E62E0462E512C8091AC02882309F40A
:1007B00029C68091B2049091B304A091B404B09181
:1007C000B5040097A105B10509F01CC68091A204EB
:1007D000882309F4AEDECAE5D1E000E010E08881AC
:1007E000882309F1815088838823E9F400321105B8
:1007F00021F480E860E8D0DD14C00132110521F455
:1008000080E860E8CEDD0DC004FD09C0C401002E03
:1008100002C0880F991F0A94E2F7AEDD02C088E09B
:10082000B8DDE092A7020F5F1F4F2196023211053B
:10083000B1F68091B6049091B704009779F0A0E0EA
:10084000B0E08093B2049093B304A093B404B09347
:10085000B5041092B7041092B604D4C52091B00428
:100860003091B1048091B8049091B90428173907E8
:1008700010F05BDFC7C53093A3022093A2022F5F65
:100880003F4F3093B1042093B00421503040C90150
:1008900068DE80939D028091B0049091B10401962E
:1008A0009093B1048093B00401975BDEA82F8093EE
:1008B0009C0240919D0247FFC1C046FD67C0942F36
:1008C0009695892F8F7180939F0284FD09C09401B2
:1008D00002C0220F331F8A95E2F7C90142DD03C02F
:1008E000892F8F7056DDE092A7028091A802809335
:1008F000A9021092A802882309F073C080919D027A
:1009000080FD1AC060919C0270E080E090E02AE0D7
:1009100030E040E050E00E9414116093B204709304
:10092000B3048093B4049093B504E0919F02F0E087
:10093000E65AFE4FF08238CF80919C0287FD18C0A6
:1009400090E08F77907062E370E00E9402119093C4
:10095000B7048093B60482E390E0A0E0B0E0809317
:10096000B2049093B304A093B404B093B504DDCF64
:10097000E0919F02F0E0E65AFE4F90E0A0E0B0E088
:100980008F779070A070B07080830ECF842F829587
:10099000869581708093A002982F906290939F0219
:1009A000942F9F719093A102E92FF0E0882341F0EA
:1009B000EE0FFF1FE050FF4F84896589F2DC07C00E
:1009C000EE0FFF1FE050FF4F84896589E5DCE09260
:1009D000A7028091A8028093A9021092A8028823FE
:1009E00079F0E091AA02F091AB02EE0FFF1FEE57F3
:1009F000FE4F80819181AA2797FDA095BA2FAFCF96
:100A000080919C02282F30E040E050E087FD0BC031
:100A10002F77307040705070CA01B90122E330E086
:100A200040E050E078CFE0919F02F0E0E65AFE4FC0
:100A30002F773070407050702083B6CE842F86950B
:100A40008695869590E08F7090708330910509F4BB
:100A500052C18430910554F48130910561F18230A6
:100A600091050CF08DC0892B69F09ECE85309105E3
:100A700009F416C3853091050CF419C2069709F0E4
:100A800093CE76C442FF90CE00919C0210919D02BD
:100A9000117041FD07C0802F51DD812F992787FDFF
:100AA0009A9507C000501F4FF801808147DDF8017B
:100AB000818144DD79CE8091A8028093A9021092B1
:100AC000A802882381F0E091AA02F091AB02EE0F18
:100AD000FF1FEE57FE4F808191819C01442737FD17
:100AE0004095542F44C042FD0AC060919C02709111
:100AF0009D0280E090E073708070907025C041FD91
:100B00002CC08091B0049091B10401969093B104EF
:100B10008093B004019725DD80939B028091B004FF
:100B20009091B10401969093B1048093B004019721
:100B300018DD80939A0260919A0270919B028091D5
:100B40009C0290919D0291702AE030E040E050E0DC
:100B50000E9414119B01AC010AC080919C029091EB
:100B60009D029C0140E050E0317040705070209335
:100B7000B2043093B3044093B4045093B50414CE3C
:100B80004091A602442399F0842F90E06CE070E03D
:100B90000E940211FC01E25EFD4F208131818091B3
:100BA000A2029091A3022817390709F4FDCD842FE2
:100BB0008F5F8093A60290E06CE070E00E940211CB
:100BC000FC01EA5EFD4F1082118212821382809135
:100BD000A60290E06CE070E00E940211FC01E25E6F
:100BE000FD4F8091A2029091A30291838083809116
:100BF000A60290E06CE070E00E940211FC01E05E51
:100C0000FD4F80919C0290919D029770918380830B
:100C10008091A8028093A9021092A802882309F467
:100C200057C0E091AA02F091AB02EE0FFF1FEE5702
:100C3000FE4F20812F702093AD02222399F08091E6
:100C4000A60290E06CE070E00E940211FC01EA5EF6
:100C5000FD4F822F90E0A0E0B0E0B06880839183E8
:100C6000A283B383E091AA02F091AB02EE0FFF1FC3
:100C7000EE57FE4F8081918114E0959587951A95E6
:100C8000E1F7E82FEF70E093AE02EE2309F18091D7
:100C9000A60290E06CE070E00E9402119C01265ECA
:100CA0003D4FF0E0EE0FFF1FEE57FE4F8081918128
:100CB000AA2797FDA095BA2FF90180839183A2837B
:100CC000B383F092A8025092AB024092AA0206C0EF
:100CD000F092A8021092AB021092AA028091A60292
:100CE00090E06CE070E00E940211FC01E05EFD4FBC
:100CF0008081918182C342FF1AC08091B00490919B
:100D0000B10401969093B1048093B004019729DC5B
:100D100080939B028091B0049091B10401969093CE
:100D2000B1048093B00401971CDC80939A028091F7
:100D3000A8028093A9021092A802882309F456C041
:100D40008091AA029091AB028130910531F480919B
:100D5000A60281508093A60227CD892B09F06AC094
:100D600080919D0282FD2EC08091A60290E06CE0F1
:100D700070E00E940211FC01E65EFD4F80919C0232
:100D800090919D02A0E0B0E09370A070B07080835D
:100D90009183A283B3838091A60290E06CE070E01F
:100DA0000E940211FC01E65EFD4F80819181A281CB
:100DB000B3810097A105B105E9F5A082B182C28295
:100DC000D38238C08091A60290E06CE070E00E946F
:100DD0000211FC01E65EFD4F80919A0290919B0208
:100DE000A0919C02B0919D02B37020C08091A60298
:100DF00090E06CE070E00E940211FC01EA5EFD4FA1
:100E000080819181A281B381B7FF0DC0FC01EF7099
:100E1000F070EE0FFF1FEE57FE4F8081918101961B
:100E20009183808307C00196A11DB11D80839183AA
:100E3000A283B3831091A602812F90E06CE070E052
:100E40000E940211EC01FC01EA5EFD4F208131811C
:100E50004281538157FF0EC0F901EF70F070EE0F21
:100E6000FF1FEE57FE4F808191819C01442737FD83
:100E70004095542FFE01E65EFD4F80819181A28155
:100E8000B3818030F0E09F07F0E0AF07F0E8BF07E4
:100E900049F0281739074A075B0724F011501093CF
:100EA000A60282CCC25EDD4F88819981A6C2242F22
:100EB00030E042FFA4C08A2F86958695869587707C
:100EC0008093AD02A770A093AE02C90183709070A9
:100ED0008130910519F1823091051CF4892B41F084
:100EE0005EC08230910579F1039709F058C040C087
:100EF00040E0E091AD02F0E0EE0FFF1FEE57FE4F35
:100F0000B0E0AA0FBB1FAE57BE4F208131818D913B
:100F10009C912817390709F040C03EC040E0E0919D
:100F2000AD02F0E0EE0FFF1FEE57FE4FB0E0AA0F4C
:100F3000BB1FAE57BE4F208131818D919C912817E8
:100F4000390751F52AC040E0E091AD02F0E0EE0F24
:100F5000FF1FEE57FE4FB0E0AA0FBB1FAE57BE4FAC
:100F6000208131818D919C9128173907B4F414C0E8
:100F700040E0E091AD02F0E0EE0FFF1FEE57FE4FB4
:100F8000B0E0AA0FBB1FAE57BE4F208131818D91BB
:100F90009C91821793070CF041E04093AF0290E0E0
:100FA0008091AF02811191E09093AF029091B002D5
:100FB000911191E09093B00280919C028295869568
:100FC00086958370813069F0813030F0823069F02D
:100FD000833009F0E9CB0FC08091AF028093B0025B
:100FE000E3CB8091AF02982303C08091AF02982B8E
:100FF0009093B002D9CB8091AF029827F9CF8A2F76
:101000008295869587708130E9F0813020F08730B5
:1010100009F0CACB28C0A4FF05C08091B002882384
:1010200009F4C2CB9A2F9F709093AF028091A602D1
:10103000891B8093A602F092A8023092AB02209204
:10104000AA024ECEA4FF05C08091B002882309F405
:10105000ABCB9A2F9F709093AF028091A602891B11
:101060008093A6023DCEA4FF05C08091B0028823E4
:1010700009F49ACB2091A502222381F0E22FF0E01F
:10108000EE0FFF1FEC51FE4F808191819093B104D0
:101090008093B00421502093A50286CB46DB84CBFD
:1010A000242F30E042FD50C080919C0290919D021F
:1010B000880F892F881F990B9195E82FE770E0938F
:1010C000AD028A2F90E0EE2391F5A6FD6DCB8091C5
:1010D000B0049091B10401969093B1048093B00450
:1010E00001973FDA80939B028091B0049091B10404
:1010F00001969093B1048093B004019732DA809303
:101100009A0280919C0290919D0273E0969587953A
:101110007A95E1F787708093AF0260919C026770C7
:101120006093AD0240919A0250919B0232C0982F79
:101130008827990FF0E0EE0FFF1FEE57FE4F892F23
:10114000990F990B859511C1C9018670907004970C
:1011500011F560919C0270919D02CB0136E096954D
:1011600087953A95E1F787708093AF0223E07695F3
:1011700067952A95E1F767706093AD02EA2FE770F3
:10118000E093AE02F0E0EE0FFF1FEE57FE4F4081FE
:1011900051815ADA09CB277030702630310559F564
:1011A0008A2F829587708093AD0230919C02232F05
:1011B0002F702093AF02882309F4F6CA90E037FD20
:1011C0000DC0FC01EE0FFF1FEE57FE4F8081918195
:1011D00002C0880F991F2A95E2F7C7C0FC01EE0FE5
:1011E000FF1FEE57FE4F8081918102C09595879534
:1011F0002A95E2F7BAC09A2F97709093AD0280912A
:101200009C02869586958695282F30E02F70307049
:101210002530310509F44BC0263031055CF423300C
:10122000310521F1243031057CF52230310509F0FA
:10123000BBCA0DC02830310509F45AC02930310528
:1012400009F46AC02730310509F0AECA4AC09923B3
:1012500009F4AACAE92FF0E0EE0FFF1FEE57FE4F88
:1012600080819181909581959F4F7FC0992309F44A
:101270009BCAE92FF0E0EE0FFF1FEE57FE4F808173
:1012800091818095909571C0E091A402EF5FE09309
:10129000A402F0E0EE0FFF1FEE54FE4FA92FB0E0C6
:1012A000AA0FBB1FAE57BE4F8D919C915EC0992374
:1012B00009F47ACAA92FB0E0AA0FBB1FAE57BE4FE0
:1012C000E091A402F0E0EE0FFF1FEE54FE4F80818C
:1012D00091818D939C938091A40281508093A4026C
:1012E00063CAF092A8029093AA02F30111825CCA29
:1012F000992309F459CAE92FF0E0EE0FFF1FEE57CA
:10130000FE4F20E030E080819181892B11F021E0B7
:1013100030E03183208348CA992309F445CA80917B
:10132000B1029091B202892BA9F42091BA043091B4
:10133000BB044091BC045091BD043093B202209391
:10134000B1028CE993E0B90103D98091B102909187
:10135000B202F6D7F2D7E091AD02F0E0EE0FFF1F38
:10136000EE57FE4F6081718178D7918380831CCACC
:1013700020919C0230919D023695322F222737957D
:10138000279506E0359527950A95E1F74695842F30
:1013900090E0837090708130910569F08230910502
:1013A0001CF4892B99F000CA8230910551F0039703
:1013B00009F0FAC910C08091B002882309F4F4C979
:1013C00005C08091B002882309F0EEC98091B00475
:1013D0009091B10410C0E091A502EF5FE093A502E7
:1013E000F0E0EE0FFF1FEE54FE4F8091B00490919D
:1013F000B10491838083820F931F9093B1048093F3
:10140000B004D2C9DF91CF911F910F91FF90EF905F
:10141000DF90CF90BF90AF909F908F907F906F9014
:101420005F904F903F902F9008950F931F93CF930D
:10143000DF93209100012F3F21F4809101018F3F24
:10144000E1F08091010190E08F779070182F0027D4
:10145000822F90E0082B192BC0E0D0E00BC0CE010A
:1014600080D8FE01E050FF4F6081861711F0CE0159
:1014700075D82196C017D10794F38CE993E0E0E08A
:10148000F1E0DF019C011D9221503040E1F763D86B
:1014900001969093B2028093B10252D76091B1024B
:1014A0007091B2028CE993E053D820E030E0C9019A
:1014B0002930310514F088E090E0DC0115E0AA0F36
:1014C000BB1F1A95E1F7C9012830310514F488E0F3
:1014D00090E0AC0148505040F5E0440F551FFA959C
:1014E000E1F7B901660F771FFB01E050FF4FCD0117
:1014F000AF3FB10519F014F08FEF90E0848BFB0142
:10150000E050FF4FCA014F3F510519F014F08FEF23
:1015100090E0858B2F5F3F4F2031310541F620E170
:1015200030E0C8E1D0E0A0E2B0E0C90129313105E6
:1015300014F088E190E0AE01481B590BCA0145E068
:10154000880F991F4A95E1F7A9012831310514F454
:1015500048E150E0BD01641B750BAB0105E0440F91
:10156000551F0A95E1F7B901660F771FFB01E0509F
:10157000FF4F8F3F910519F014F08FEF90E0848BAF
:10158000FB01E050FF4FCA014F3F510519F014F025
:101590008FEF90E0858B2F5F3F4F2032310529F68A
:1015A00083E08093A7028EE993E00E94B1028093CA
:1015B000A20481E090E00E94B1021092BE0487FD77
:1015C00003C081E08093BE04DF91CF911F910F9102
:1015D00008951F9382E090E09093B1048093B0044B
:1015E00080E090E00E94B102182F81E090E00E941C
:1015F000B102382F20E0812F90E0822B932B2FEF28
:101600008F3F920711F480E090E09F779093B904A8
:101610008093B8041092B2041092B3041092B404F0
:101620001092B5047FD81092BA041092BB041092A5
:10163000BC041092BD041092B7041092B60482E468
:1016400093E0EAE5F1E0DF019C011D92215030407A
:10165000E1F781E08093AC028CE993E00E94AB0259
:101660009093B2028093B1028091A204882311F476
:101670000E9495021F910895EF92FF920F931F937E
:10168000CF93DF93EC0197FD93C18091A20488234F
:1016900011F40E9499028091A3049091A4042091D6
:1016A000A5043091A60482179307E0F5FC01E050F1
:1016B000FF4FC08301969093A4048093A3048217E4
:1016C000930709F075C11092A4041092A3041BC0E3
:1016D000E050FF4F8091A7049091A80460810E9480
:1016E000AE028091A3049091A40401969093A40467
:1016F0008093A3048091A7049091A80401969093ED
:10170000A8048093A704E091A304F091A40480911D
:10171000A5049091A604E817F907D0F282E80E9488
:101720009E0246C18091A9049091AA04FC01E05058
:10173000FF4FC0839C012F5F3F4F3093AA0420933B
:10174000A904C7FF2BC12130310549F48091AB04B6
:10175000882329F4C53AD10509F061C0DDC02830DD
:10176000310509F05CC08091AC02882311F08EEF46
:1017700051C08091010190E0880F991F880F991F37
:1017800040910001342F330F20E0822B932B2091C6
:10179000020122952695277030E0822B932B0E9420
:1017A000AC0180910201880F880F880F909103018E
:1017B00092959F70892B0E94C9012091040180910C
:1017C00003018295807F622F6295660F607E909103
:1017D000050196959695692B269526952695822B3B
:1017E0000E94CC0120910601809105018295880F0D
:1017F000880F807C622F6795662767959091070117
:101800009F77692B2695822B0E94D10183E08093DC
:10181000A7028FEF0E949E021092AB04BBC0809182
:10182000AB04882309F4B3C01092AB04C338D105CC
:1018300009F4A5C0C438D1056CF4C138D10509F448
:101840006FC0C238D1050CF06DC0C038D10509F0A9
:101850009CC011C0C538D10509F44BC0C538D105AD
:101860000CF48FC0C638D10509F445C0C53AD1057E
:1018700009F08BC051C08091A60290E06CE070E04E
:10188000C1D4FC01EA5EFD4FE080F180028113814A
:10189000C0E0D0E08E2D0E949E02EF2CF02E012F92
:1018A00011272196C430D105A9F7E090AC04F0903F
:1018B000AD040091AE041091AF04C0E0D0E08E2DD5
:1018C0000E949E02EF2CF02E012F11272196C4308A
:1018D000D105A9F7E090B004F090B10400E010E069
:1018E0008E2D0E949E02EF2CF02E012F11278E2D9F
:1018F0004FC086E44DC08091A20498E08927809370
:10190000A2046091A2048EE993E00E94AE020E94BC
:1019100097028091A2043CC081E08093AB043AC05E
:1019200080E836C02530310581F50E94950380910D
:10193000010190E09695982F88279795879520919B
:10194000000130E0822B932B9093A8048093A7048E
:101950008091030190E09695982F88279795879519
:101960002091020130E0822B932B9093A604809368
:10197000A5041092A4041092A30481E809C029DEF2
:1019800002C00E94950383E803C080E001C0822F5B
:101990000E949E021092AA041092A9048091A904A8
:1019A0009091AA04449720F01092AA041092A904DE
:1019B000DF91CF911F910F91FF90EF90089580914B
:1019C000BE04882309F005CE08959C014091D204FD
:1019D0005091D3044617570718F4F90190E03DC021
:1019E0006115710511F0AB01F8CF8091E8008E7799
:1019F0008093E80040E050E0F0CF8091CB04882352
:101A000009F441C0853009F440C08091E80083FDAD
:101A10003EC08091E80082FD30C08091E80080FFE8
:101A20001CC08091F200282F30E007C08191809384
:101A3000F100415050402F5F3F4F4115510519F0C3
:101A40002034310598F390E02034310509F491E019
:101A50008091E8008E778093E8004115510569F682
:101A6000992359F60AC08091CB04882361F0853010
:101A700061F08091E80083FD0AC08091E80082FF58
:101A8000F2CF80E0089582E0089583E0089581E038
:101A900008959C014091D2045091D30446175707F2
:101AA00018F4F90190E03EC06115710511F0AB0129
:101AB000F8CF8091E8008E778093E80040E050E016
:101AC000F0CF8091CB04882309F442C0853009F41B
:101AD00041C08091E80083FD3FC08091E80082FD15
:101AE00031C08091E80080FF1DC08091F200282F56
:101AF00030E008C084918093F1003196415050400D
:101B00002F5F3F4F4115510519F02034310590F3F7
:101B100090E02034310509F491E08091E8008E775F
:101B20008093E8004115510561F6992351F60AC0EA
:101B30008091CB04882361F0853061F08091E800CA
:101B400083FD0AC08091E80082FFF2CF80E0089513
:101B500082E0089583E0089581E00895BF92CF92D6
:101B6000DF92EF92FF920F931F93CF93DF93182F83
:101B7000092F7B016A019DD0B82E8823B1F5812FF2
:101B8000902F9C01E901C114D10439F0F601808144
:101B90009181E81AF90AC80FD91F00E010E022C0AD
:101BA0008091E80085FD16C08091E8008E778093D3
:101BB000E80013D3C114D10449F0F601808191816A
:101BC000800F911F9183808385E010C072D088239D
:101BD00049F00CC089918093F1000894E108F10864
:101BE0000F5F1F4FE114F104D9F68B2DDF91CF91D8
:101BF0001F910F91FF90EF90DF90CF90BF900895CD
:101C0000382F282F2EC0822F8F708093E900231742
:101C100021F4762F942F50E006C07091EC00909143
:101C2000ED005091F00091FF1BC08091EB008E7F82
:101C30008093EB008091ED008D7F8093ED0080918B
:101C4000EB0081608093EB007093EC009093ED00CB
:101C50005093F0008091EE0087FD02C080E008956F
:101C60002F5F253080F23F703093E90081E00895C6
:101C70008091CC0488239CF404C08091CB048823F9
:101C8000B9F08091E80082FFF8CF8091E8008B776F
:101C90008093E80008958091CB04882349F08091D7
:101CA000E80080FFF8CF8091E8008E778093E8000D
:101CB00008954091E4005091E50024E68091EC0005
:101CC00080FF24C08091E80080FD1EC08091CB047D
:101CD000882311F482E00895853011F483E008959B
:101CE0008091EB0085FF02C081E008958091E400BF
:101CF0009091E5008417950709F3222311F484E0FD
:101D000008952150AC01DACF80E008958091E80079
:101D100082FFDCCFF9CF41D043D08091D8008F77BC
:101D20008093D8008091D80080688093D8008091FB
:101D3000D8008F7D8093D80084E089BD86E089BD7E
:101D400009B400FEFDCF1092CB041092C70410928C
:101D5000C9041092C80480E060E042E351DF809142
:101D6000E1008E7F8093E1008091E20081608093AA
:101D7000E2008091E20088608093E2008091E000C0
:101D80008E7F8093E0000895E3E6F0E080818E7F0F
:101D9000808381E08093CA04BECF1092E200089550
:101DA0001092E10008951F920F920FB60F92112426
:101DB0002F933F934F935F936F937F938F939F9353
:101DC000AF93BF93EF93FF938091E10082FF0AC02E
:101DD0008091E20082FF06C08091E1008B7F8093BA
:101DE000E100FAD18091E10080FF18C08091E2000B
:101DF00080FF14C08091E2008E7F8093E20080918A
:101E0000E20080618093E2008091D800806280933C
:101E1000D80019BC1092CB040E94D6018091E10039
:101E200084FF30C08091E20084FF2CC084E089BD33
:101E300086E089BD09B400FEFDCF8091D8008F7D7A
:101E40008093D8008091E1008F7E8093E1008091A3
:101E5000E2008F7E8093E2008091E20081608093B7
:101E6000E2008091C704882311F084E007C08091CC
:101E7000E30087FD02C081E001C083E08093CB04D2
:101E80000E942C028091E10083FF22C08091E20039
:101E900083FF1EC08091E100877F8093E10082E094
:101EA0008093CB041092C7048091E1008E7F8093D1
:101EB000E1008091E2008E7F8093E2008091E20059
:101EC00080618093E20080E060E042E399DE84D1AB
:101ED000FF91EF91BF91AF919F918F917F916F9102
:101EE0005F914F913F912F910F900FBE0F901F90D8
:101EF00018951F93DF93CF93CDB7DEB7AC970FB68E
:101F0000F894DEBF0FBECDBFECECF4E08091F100A1
:101F1000819324E0E43DF207C9F70E94D701809144
:101F2000E80083FF41C18091CC043091CD0435306D
:101F300009F48DC0363040F43130E1F1313070F0C9
:101F4000333009F031C136C0383009F4FEC03930C1
:101F500009F40DC1363009F027C19CC0803821F04A
:101F6000823809F021C108C09091C8048091C90449
:101F70008823B1F0926014C08091D0048F708530B6
:101F800008F012C18093E9008091EB0090E025E019
:101F9000969587952A95E1F7982F91701092E90010
:101FA0008091E800877F8093E8009093F100109281
:101FB000F100D6C0882319F0823009F0F5C090E016
:101FC0008F719070009721F0029709F0EDC00CC05E
:101FD0008091CE04813009F0E7C01092C9043330FB
:101FE00081F58093C9042DC08091CE04882349F5E2
:101FF0002091D0042F70822F8150843008F0D4C0FB
:102000002093E9008091EB0080FF1BC0333021F466
:102010008091EB00806213C08091EB00806180931F
:10202000EB0081E090E002C0880F991F2A95E2F74B
:102030008093EA001092EA008091EB008860809320
:10204000EB001092E9008091E800877F8CC0882324
:1020500009F0AAC01091CE041F778091E300807828
:10206000812B8093E3008091E800877F8093E800D4
:10207000FFDD8091E80080FFFCCF8091E300806865
:102080008093E300112311F482E001C083E0809388
:10209000CB048AC08058823008F086C08091CE047C
:1020A0009091CF0423E08C3D920709F033C083E088
:1020B0008C838AE28B837FB7F894DE0115966EE0FD
:1020C00040E050E011E2E62FF0E0109357008491D9
:1020D00040FF03C082958F706F5F8F70282F30E0B4
:1020E0008A3018F0C901C79602C0C901C0968D9305
:1020F0009D934F5F5F4F4431510529F77FBF80911A
:10210000E800877F8093E800CE0103966AE270E0E2
:102110005CDC15C06091D0047091D104AE014F5FBA
:102120005F4F0E946C01BC01009709F43DC0809193
:10213000E800877F8093E80089819A81AADC8091FA
:10214000E8008B778093E8002FC0803869F5809194
:10215000E800877F8093E8008091C7048093F100B6
:102160008091E8008E778093E80082DD1DC088238F
:10217000D9F49091CE049230B8F48091E800877F32
:102180008093E8009093C70473DD8091C70488238F
:1021900031F48091E30087FD02C081E001C084E05A
:1021A0008093CB040E9422028091E80083FF0AC042
:1021B0008091E800877F8093E8008091EB00806247
:1021C0008093EB00AC960FB6F894DEBF0FBECDBF88
:1021D000CF91DF911F91089508951F938091CB04B3
:1021E000882371F01091E9008091EC001092E900D1
:1021F0008091E80083FF01C07CDE1F701093E9002E
:102200001F9108955527002480FF02C0060E571F16
:10221000660F771F6115710521F0969587950097D8
:1022200099F7952F802D0895FF27EE27BB27AA2722
:1022300060FF04C0A20FB31FE41FF51F220F331F5E
:10224000441F551F969587957795679589F7009751
:10225000760771F7CF01BD01089597FB092E072678
:102260000AD077FD04D00CD006D000201AF4709567
:1022700061957F4F0895F6F7909581959F4F08954A
:10228000AA1BBB1B51E107C0AA1FBB1FA617B7079C
:1022900010F0A61BB70B881F991F5A95A9F78095B8
:1022A0009095BC01CD010895A0E0B0E0E9E5F1E131
:1022B000A3C0EC01A880B980CA80DB80A114B1045E
:1022C000C104D10441F484E2A82E89EDB82E8BE537
:1022D000C82E87E0D82EC601B5012DE133EF41E0CD
:1022E00050E067D027EA31E440E050E09DDF7B0119
:1022F0008C01C601B5012DE133EF41E050E059D02A
:10230000CA01B9012CEE34EF4FEF5FEF8DDF6E0D98
:102310007F1D801F911F97FF04C061507040804057
:102320009048688379838A839B839B013F77C901A7
:10233000CDB7DEB7EAE07CC0B7CF8CE994E0B4CF8C
:10234000A0E0B0E080939C0490939D04A0939E0431
:10235000B0939F040895F999FECF92BD81BDF89A7C
:10236000992780B50895A8E1B0E042E050E013C09D
:10237000262FF999FECF1FBA92BD81BD20BD0FB6A1
:10238000F894FA9AF99A0FBE01960895F1DF272F73
:10239000F0CFDC01CB01FC01F999FECF06C0F2BD04
:1023A000E1BDF89A319600B40D9241505040B8F713
:1023B000089597FB092E05260ED057FD04D04BD06B
:1023C0000AD0001C38F450954095309521953F4F28
:1023D0004F4F5F4F0895F6F79095809570956195F2
:1023E0007F4F8F4F9F4F08952F923F924F925F9252
:1023F0006F927F928F929F92AF92BF92CF92DF9215
:10240000EF92FF920F931F93CF93DF93CDB7DEB779
:10241000CA1BDB0B0FB6F894DEBF0FBECDBF09940D
:102420002A88398848885F846E847D848C849B8464
:10243000AA84B984C884DF80EE80FD800C811B8172
:10244000AA81B981CE0FD11D0FB6F894DEBF0FBEA1
:10245000CDBFED010895A1E21A2EAA1BBB1BFD0101
:102460000DC0AA1FBB1FEE1FFF1FA217B307E40773
:10247000F50720F0A21BB30BE40BF50B661F771FCB
:10248000881F991F1A9469F76095709580959095AB
:0E2490009B01AC01BD01CF010895F894FFCF70
:10249E00FFFF4600000000000000000000000000EA
:1024AE00000000000000000000000000000000001E
:1024BE00000000000000000000000000000000000E
:1024CE0000000000000000000000000000000000FE
:1024DE0000000000000000000000000000000000EE
:10282E000000000000000000000000000100000099
:00000001FF
